:020000040800F2
:10000000F8FF0120050B050843100508311005080D
:1000100045100508511005085D1005080000000096
:10002000000000000000000000000000691005084A
:100030006B10050800000000C11205084DD900082A
:1000400001100008591105086B1105087111050808
:10005000954E000801100008ED100508F310050882
:10006000F9100508FF1005080511050831C800083A
:1000700021C8000811C8000801C80008F1C700081D
:10008000E1C70008D1C700080110000801100008EE
:100090000FC1000809C10008D1C000080B110508F4
:1000A000851105088B1105089D110508A311050888
:1000B000A9110508AF110508B51105082912050891
:1000C0002F12050801100008011000080110000897
:1000D00001100008051205080B1205081112050889
:1000E0002F1105085F11050879100508E1110508B1
:1000F000E7110508FF110508F9110508C1C7000837
:100100000110000801100008BD11050801100008C9
:10011000171205081D120508D5110508DB11050881
:10012000B1C70008A1C7000891C7000881C700082F
:1001300071C70008BD960008651105080110000888
:100140000110000801100008011000086D100508DA
:1001500061C7000851C7000841C7000823120508FD
:10016000011000080110000801100008011000082B
:100170000110000801100008011000080000000034
:08018000011000080110000845
:10100000FEE70000094B1A68D36823F0A003D36001
:10101000074B1868D168890601D500207047196808
:10102000091AB1F57A7FF5D90320704700400020F6
:10103000ACE600200A4B1A68D368580601D5002098
:1010400070474FF0FF33D360064B1868D1684906EC
:10105000F5D41968091AB1F57A7FF7D903207047DA
:1010600000400020ACE600202DE9774105688DF8AE
:1010700007102C68D5E9010C1646E4B9D0E9033213
:101080001B049361EB686046D3F804800DF10702FE
:1010900023460121C047EB68A868D3F80480324694
:1010A00033460121C0476B68D3E903322046936180
:1010B00003B0BDE870811346DCF80C409DF80710C2
:1010C0000122A047F4E70000054B016810B51C6839
:1010D0000A68920703D41A68121B0A2AF8D910BDAD
:1010E000ACE6002082B000230193064B5A6C42F418
:1010F00080725A645B6C03F480730193019B02B0AD
:10110000704700BF0038024073B50023A1F11005FD
:10111000019390F83C30022D8CBF01240724012B51
:101120002FD00123092980F83C308EB203682AD9D8
:1011300006EB4602D3F80CC01E3A4FF0070E0EFA2B
:1011400002FE2CEA0E0CC3F80CC0D3F80CC004FA53
:1011500002F242EA0C02DA605A6B22F01F025A6372
:101160005A6B32435A631C4A934207D112291CD14D
:10117000D2F8043343F48003C2F80433002380F828
:101180003C3002B070BD1A6901EB410E4FF0070C04
:101190000CFA0EFC22EA0C021A61D3F810C004FA11
:1011A0000EF242EA0C021A61D6E7012DE6D80B4A8C
:1011B0005368102943F400035360DFD1084B094AF8
:1011C0001B68B3FBF2F20A2353430193019B002BEC
:1011D000D4D0019B013BF8E70020014000230140EF
:1011E0000000002040420F00C1070CD4820703D149
:1011F0000268064B9A4206D00E2804D0A0F11E03C6
:101200005842584170470120704700BF38380508E0
:1012100010F4FE7F02BF024B0422C3F8002E704779
:1012200000E100E04068162809D8064A0123116948
:10123000834021EA0301116111690B431361062008
:10124000704700BF003C01404368162B0AD8064A8D
:10125000D25C02F1047202F59E3203EBC2039B00E2
:1012600001221A60062070471BC100204068400020
:1012700040F00100704700002DE97841074EDFF88B
:1012800020800C464518AC4201D1BDE8788114F8A5
:10129000012B314640464DF09FFDF4E7301A05081A
:1012A00020360508054B994202D105494DF094BD01
:1012B000D1E9012303494DF08FBD00BF505205080D
:1012C000361A05083E1A05084A6801494DF084BDE2
:1012D000561A050838B5114D114C2A681149204697
:1012E0004DF07AFD6A68104920464DF075FDAA68F8
:1012F0000E4920464DF070FDEA680D4920464DF03C
:101300006BFD2A690B4920464DF066FD6A690A4962
:1013100020464DF061FD062038BD00BF003C014075
:10132000C4350508671A0508781A0508891A0508DA
:101330009A1A0508AB1A0508BC1A05082DE9734F5F
:10134000364C237F012B81464FF0020520D02268C6
:101350006577012323779368067890F801B013F03E
:10136000400308BFC370CA21837890F8038051629C
:10137000532151620193FFF75DFE019B054658B171
:101380002368FF225A620423637700232377012511
:10139000284602B0BDE8708F18460EF01AFF40EAEA
:1013A000084830460EF015FF48EA004858460EF04F
:1013B00010FF48EA0023D4F800A003F07F3323F0A5
:1013C000FE43CAF80030DAF8083023F48023CAF864
:1013D0000830D9E90331DAF808200B431343CAF87F
:1013E0000830DAF80C3023F08003CAF80C30DAF851
:1013F00008309B0609D4FFF705FE30B12368FF22B1
:101400005A62042363772577C1E72368FF225A6273
:101410000123637700232377BAE700BF0040002051
:101420002DE9704F2E4C237F012B4FF0020521D068
:10143000012365772377437890F803A090F8028022
:101440000678DA0642BF23F010030A33437023689C
:1014500090F80190CA225A6253225A62FFF7EAFDBD
:10146000054650B12368FF225A62042363770023A4
:10147000237701252846BDE8708F40460EF0A9FE6F
:1014800040EA463850460EF0A4FE48EA0048484676
:101490000EF09FFE48EA0020D4F800B020F07F4014
:1014A00020F0C000CBF80400DBF80C3023F0800300
:1014B000CBF80C30DBF808309B0609D4FFF7A2FD0F
:1014C00030B12368FF225A62042363772577D0E77F
:1014D0002368FF225A620123637700232377C9E739
:1014E0000040002070B5032305460E46144627F041
:1014F0008DFE88B9226882B1531E23602B681B7849
:101500002371072B0CD82B68591C13449E42A160F1
:1015100018BF6FF065002B6070BD6FF05F00FBE7D8
:101520006FF06300F8E7000073B50C4601A93EF0C8
:1015300079F8019BF3B1024603449A42154606D25C
:1015400012F8011B2E29F8D030390929F5D9611E6E
:101550004FF00A0C03340023854202460DD801F8EF
:10156000013F8C4211D0954211D913782E2B0ED108
:10157000501CF0E7236002B070BD10F8016B2E2EF6
:10158000EDD00CFB0363303BE6E79542F3D0014816
:101590004AF0EEFDCD1A0508014B186842F0F0BE86
:1015A00034C1002008B50846114600224AF09EFDCD
:1015B000004808BDF85205082DE97847884640469E
:1015C00011462F4A1E464AF091FD2E494C2047F005
:1015D0002EFA0446306844F059FFB8F1010F054671
:1015E0000CD9706844F052FF8046AB1F062B3BD8E5
:1015F000DFE803F03F3A073A423A38004FF0FF384D
:10160000F3E74FF00076DFF88CA000254FF00109DA
:1016100009FA05F313EA080F07D05AF8250020B19C
:1016200000231A4603210CF0D9F90135102DEFD112
:10163000154B6360FFF756FD012200232262A26171
:1016400002F17062C4E90933C4E90B23C4E904332D
:10165000E660E361A3606363201D10F083FC204615
:10166000BDE878870026CEE7084909482A4647F0B2
:1016700091FE4FF04076C6E74FF08076C3E700BF9B
:1016800004000200C451050800200140D11A0508D9
:10169000903605084C4E050870B50D460446FFF718
:1016A00033FD10F0FFFB2046FFF70EFD2368DE6CD4
:1016B00010F0DCFB122D01BF034A536823F48003B2
:1016C0005360304670BD00BF0023014010B5044692
:1016D000084644F0DBFE1028024605D0122803D944
:1016E0000549064847F056FE201D1146FFF7D4FF76
:1016F000BDE8104042F044BEE01A050890360508E7
:1017000010B50446FFF7C8FF23685B6803F0407319
:10171000B3F1007F0BD0B3F1407F0AD0B3F1807FEB
:1017200014BF0C230A23C3F10C03984010BD0823F7
:10173000F9E70623F7E7000008B512210430FFF7A8
:10174000DFFF094B9FED097A93ED000A430007EE96
:10175000903AF8EE677ABDE8084067EE877A27EEA0
:10176000800A43F0EFB800BF040000206740533AFE
:1017700008B510210430FFF7C3FF124B9FED126A2A
:101780001A88124B07EE100AD3ED007A104BF8EED0
:10179000C76A07EE102A1B88B8EEC77A9B1A96EE26
:1017A000A77A07EE903AF8EEE77ABDE80840C7EE70
:1017B000866AF3EE0E7A87EE260A30EE270A43F0A9
:1017C000C1B800BF2C7AFF1F0000A0420400002017
:1017D0002E7AFF1F08B51121FFF792FF0A4B1B88D5
:1017E00007EE900A00EE103AF8EE677AF8EE406ADB
:1017F000064B86EEA77AB8EEC00ADFED057A83EDD8
:10180000007A20EE270A08BD2A7AFF1F0400002074
:101810006740533A08B50430FFF7DCFF054BDFEDB6
:10182000067A93ED000ABDE8084020EE270A43F04F
:1018300089B800BF040000203333534008B504309A
:10184000FFF7C8FFBDE8084043F07CB808B58168E1
:101850000C30FFF721FFBDE8084042F091BD0000C9
:101860002DE9F04F8DB000AF0D46144607F114017D
:1018700007F10C0244F006F907F1080207F1100124
:10188000284644F0FFF87B6913B953484AF070FCCE
:101890003A69934201D05148F8E7BB6806221868BC
:1018A00007F1180143F0A2FD97F820100022402014
:1018B0003CF034FD3B699B00073323F00703ADEB9D
:1018C000030D0646EA4600253B699D4207D32046A4
:1018D00046F0B6FF424B834218D04248D6E7BB6879
:1018E000062253F8250007F1240143F07FFDFA6931
:1018F000BB6A9A4203D13A6AFB6A9A4201D03A48DB
:10190000C4E77B6A4AF825300135DDE7FB681D68CE
:1019100005F10C08A9684046FFF7F6FB10F0C2FA83
:101920004046FFF7D1FBEB68DB6CE3686FF0010228
:101930001A611A69D007FCD56FF0010119614FF0E7
:101940000008FB693960B3FBF6F34FF0010B7B60D5
:101950007B6898450DD1FB6818680C3010F086FA4A
:10196000BBF1000F14BF1E200E203437BD46BDE86A
:10197000F08FE3681969C9070CD41969CA07FCD547
:101980003A681A6100257B69F968AB4205D808F10D
:101990000108DDE74FF0000BF2E751F8259009F15F
:1019A0000C00D9F80810FFF7AFFBD9F80C30996894
:1019B00041F080419960FFF787FBD9F80C305AF865
:1019C0002510DB6C97F82000012E08BF1B0942464A
:1019D0003CF07EFB0135D6E7F31A0508011B05082C
:1019E00094540508261B0508141B05082DE97F4F94
:1019F000144605460622084601A943F0F7FC9DF867
:101A00000C10002240203CF089FC06462046FFF7DF
:101A1000EBFB002868D0204644F038FD00230093FB
:101A20004A4B1A6C42F010021A641B6C03F010034C
:101A3000804600930620009B0EF006FC804550D89F
:101A400006200EF001FC0122B0FBF8F3B3F5803F55
:101A500044D23F493F480860013BCB6000230B6103
:101A60008B6091F83930013A4A60884603F0FF02F2
:101A70000BB981F838204FF002093749354888F80A
:101A800039900EF031F90122D8F8001088F8392089
:101A900088F839900B68DFF8B89013430B6088F82A
:101AA000392005F10C08A96840464FF0000BFFF7FC
:101AB0002BFB029BB3FBF6FAD34521D1404610F035
:101AC000D5F92046FFF790FB10B148460EF0C4F957
:101AD000029842F055FC04B0BDE8708F5B085200DC
:101AE000B4E701221346B4E7204646F0A9FE1B4B9B
:101AF000834202D01A484AF03BFB04F10C09D0E7BC
:101B0000D9F800301969CA07FCD56FF001021A61D3
:101B1000BBF1000F13D1404610F0C4F94046FFF767
:101B2000D3FAEB680199DB6C9DF80C00012E5A4644
:101B300008BF1B093CF0CCFA0BF1010BBCE7E968CC
:101B40008B6843F080438B60E8E700BF00380240B9
:101B5000204000200010004024400020945405083C
:101B6000261B050870B51C46084611464FF00212A8
:101B70004AF0BCFA2668F10705D4B20730D13268C2
:101B8000274B9A422CD1304644F080FC1028054661
:101B900034D154204EF004FD00210446442210307C
:101BA0004FF046F81F4BA560C4E900361E4BE360BA
:101BB000FFF798FA01220023A262226202F170620A
:101BC000C4E90B33C4E90D23C4E9063363616362DE
:101BD0002361E36304F10C0010F0C4F9204670BDEA
:101BE00030460AF02DFE837A5B0704D442680F4921
:101BF0000F4847F0CFFB8568C5F34435122D02D955
:101C00000C492A46F4E70F2DC3D80B4B53F8250097
:101C10000028BED000231A4603210BF0DFFEB8E7F0
:101C200038380508E051050800200140301B050840
:101C300090360508E01A05084C4E050838B50D46E3
:101C4000044607494CF089FE69682046002247F0A7
:101C5000B3FAAA6803492046BDE838404DF0BCB845
:101C6000371B0508D98906081FB5084611461A46CC
:101C700002AB01931A4B009302234AF021FADDE9EB
:101C800002321340013329D01649102046F0CFFE0E
:101C9000029B0022591C02730AD0934205DBB3F564
:101CA000001F02DAC3F30B021AB100204AF060FAF7
:101CB0001346039A511C06D1C3F50012C0E9013244
:101CC00005B05DF804FB002AEFDD9918B1F5001F9F
:101CD000EBDCC2F30B010029F0D0E6E70248EFE7A6
:101CE000F82705086C5205085052050813B5194B22
:101CF0000124E0B100221A6000230193164B1A6CF4
:101D000042F080521A641B6C03F080530193019BD4
:101D10000EF0B6FE114B124918680A68D20509D5B3
:101D20000D4B1A6F7CB142F001021A6706E01C608D
:101D30000446E1E71A68121A022AEED9094B012279
:101D40001A7002B010BD22F001021A671A6F22F059
:101D50000402EAE7800E474200380240ACE6002069
:101D60000070004038C10020012808B50B6806D17A
:101D7000586807F04FFD400040F0010008BD0148E1
:101D80004AF0F6F9401B050808B5406807F042FD27
:101D900003280CBF1E200E2008BD00002DE9704F47
:101DA00001280C688AB009D1606807F033FD00286B
:101DB00014BF1E200E200AB0BDE8708F486846F0A0
:101DC00073FD002800F02B826468204607F0F6FBC4
:101DD0000021204607F064FDEFF3108272B63A4B03
:101DE0003A4D3B4800219960DD601861BFF36F8F69
:101DF000BFF34F8FBFF35F8F82F31088354B364EA2
:101E00001A6942F000721A6102915A6C42F48042DF
:101E10005A645A6C02F480420292029A1A6922F0C1
:101E200000721A611A6D42F000721A651A6D42F062
:101E300080621A651A6D42F000621A6501233360F0
:101E400002200EF087FC254B1A689946336813F080
:101E5000010829D1224B234A1B6893422DD9224ADB
:101E600093422CD3214A93422BD9214A934294BFC7
:101E7000042310231F4A1361E06F4FF40042002136
:101E800007F0F6FC32200EF065FCD9F80030019323
:101E9000002642F2107BD9F80030019A9B1A5B456C
:101EA0002AD907F06FFB05E0D9F800309B1AB3F58B
:101EB0007A7FCBD96E2047F063FA0823DAE70C2348
:101EC000D8E74346D6E700BF90ED00E00080002051
:101ED0001B000C130038024000900240ACE60020CA
:101EE00000000020BF0E160200879303FFE0F505F7
:101EF0007FD1F008008002400021E06F07F05EFC17
:101F000001218246E06F07F059FC012E00F0498163
:101F1000022E00F057811EB90FFA8AF6F643F60F2B
:101F200002200EF017FC032EB5D1D4E91F03984709
:101F3000BE4B00261E601FFA80F902200EF00AFC3C
:101F400041F21C03BA4ABB49D150BB4933464FF05A
:101F5000004E44F2F45C05261A0105EB031045F827
:101F600002E00133B3FBF6F202EB82029A1A05EBB0
:101F70000212052BC0F804C08160C26001F2F45166
:101F8000EAD1AB4941F20C024FF480168D5043F672
:101F9000284100226A501046511D4FEA011C05EBF2
:101FA000011145F80C60486005EB021C0132B2FBE0
:101FB000F3F101EB8101511A053105EB0111052AFD
:101FC000CCF85800CCF85C10E6D1994E9B4A41F20F
:101FD0001003F25043F62C434FF00872E85041F2E0
:101FE00018030220F2500EF0B5FB4FF0004373606F
:101FF00002200EF0AFFBA38F336402200EF0AAFB89
:10200000A36B736402200EF0A5FBB9F1050F00F07D
:10201000DF80B9F1020F00F0DE80B9F1060F08BFD2
:102020004FF49048C6F8008002200EF093FB33680E
:1020300043F00C03336002200EF08CFB41F21802D7
:102040000220B35843F4005343F00203B3500EF0A0
:1020500081FB7B4BF02583F83D533D200FF078F852
:1020600078486FF07F43CDE9073000264FF0083302
:1020700006960993EFF3118885F31288724BDFF807
:10208000F091A3614FF6FF73636343F26503A4F815
:10209000403099F8003084F84230251D6B4B636165
:1020A00006A908AB2846C4E90266266184F83F60A9
:1020B0006662A662E6626664246207AA1AF05AF8AB
:1020C000634BE361634BA3613A2384F83F30624B77
:1020D0006363624B186849469C4694F84230FF2B74
:1020E00008BF84F8426094F842200346002B75D163
:1020F000FE2A01D0531CDBB20B7060605849CCF84B
:102100000050284615F010FA50B102234372037BA9
:1021100001330373636C1BB1514901222846984770
:1021200001210022284619F09BFF4E4B23634E4BA2
:102130001D6094F83F30D9070FD443F0010384F8B1
:102140003F3008210123284603AA8DF80C3019F0EE
:1021500087FF0321284619F0A7FF444B099A1A600C
:1021600004F148033422184600214EF061FD6062FC
:10217000284616F0C5F894F83F305A074BD443F080
:10218000040384F83F30636ACBB35A79052A2FD809
:10219000022A2FD89AB300229A71284615F02CFDF6
:1021A0002DE043077FF5BCAEE06F40F2E112042161
:1021B00007F05EFBE06F4FF48052002107F058FB00
:1021C0000226ADE600F02400242808BF0326A7E677
:1021D0004FF4006826E74FF4804823E793F83EE089
:1021E000964503D1013284F8422076E71B687DE7EB
:1021F0000A2AD0D100229A71284616F0E7F8032166
:10220000284619F051FF012303AA042128468DF81E
:102210000C3019F025FF88F311880620CBE56068A3
:1022200007F0CCF907F0AEF9F7E700BF00900240E5
:102230000080024040000100A0800020508000206B
:1022400000E100E0C0A800014BB40108F5990108C5
:10225000CD7800080D770108001FDC059CC0002028
:102260005C4000200800002098C000206040002052
:10227000A0C0002000B589B0084611461A4606AB3A
:102280000193514B0093022349F01AFF4F4B0799DA
:10229000022283F838204E4A1078013A127802F070
:1022A0000F0242EA001283F839204A4A1078013AB4
:1022B000127802F00F0242EA001283F83A20464AEE
:1022C0001078013A127802F00F0242EA001283F805
:1022D0003B20424A907883F83C001278920042F00A
:1022E000030283F83D20062283F83E20069ADA672F
:1022F0008A1E012A60D83A4AC3F8802039480B2345
:10230000002202210BF06AFB37480B230022022136
:102310000BF064FB0B230022344802210BF05EFB20
:10232000324801210BF036FB31480B2300220221F9
:102330000BF054FB2F480B23002202210BF04EFB25
:102340002D480B23002202210BF048FB2B480B23C6
:10235000002202210BF042FB29480B23002202211C
:102360000BF03CFB27480B23002202210BF036FB2D
:10237000254B264800220592196B41F00071196324
:10238000196B01F00071059105990492196B41F0E8
:1023900080611963196B01F08061049104990392C3
:1023A0001A6B42F000621A631B6B03F00063039325
:1023B000039B09B05DF804FB012902D9144849F0D8
:1023C000D7FE144A98E700BFE827050800C00020A0
:1023D0001B7AFF1F197AFF1F177AFF1F107AFF1F42
:1023E000E9970008D44405081C3E0508D43D0508BB
:1023F000843F05081C450508344505088C40050840
:10240000B4400508DC40050800380240643905087E
:102410004A1B0508079800082DE97841194C4FF030
:10242000030804F5EA76A4F1080554F8043F1A07F6
:102430001AD1D5F89022981AC0F3011193424FEAAD
:10244000901C4FEA41014FEA10100DD3D5F89422A9
:10245000934209D2D5F8842212F80CE04EFA01F327
:1024600003F00303012B03D0A642DED1BDE878813F
:1024700008FA01F141EA0E0102F80C104DF0B8F82B
:10248000F2E700BF645201201FB50223009303ABA3
:102490003CF092F8039B23B10B2B08D0184646F072
:1024A0006FFF400040F0010005B05DF804FB06201E
:1024B000FAE700000C4B4FF47A721B68B3FBF2F39F
:1024C000013BB3F1807F09D2084A5360084BF021E9
:1024D00083F823100023936007231360044B00202C
:1024E000DA6883F8230070470000002010E000E065
:1024F00000ED00E0431C14BF00F16040064B4FEAC2
:10250000011118BF00F56140C9B214BF80F8001373
:1025100083F82310704700BF00ED00E0924B37B501
:102520009A6802F00C02042A07D09A6802F00C02A2
:10253000082A1DD15A6851021AD58B4B1B680368B3
:102540009D0733D5884B9A6812F00C0F07D09A6814
:1025500002F00C02082A59D15B685C0256D4824B07
:102560001A68910715D5C268012A12D001200EE021
:102570001A687D4942F480321A607C4B1C680A68F4
:102580009203DCD41A68121B642AF8D9032003B022
:1025900030BD19680369F82292FAA2F2B2FA82F207
:1025A000934021F0F801704A0B43136003681C0745
:1025B00049D40368590724D5002301936A4B1A6C48
:1025C00042F080521A641B6C03F080530193019B0C
:1025D000674B1A6842F480721A60644A146819687A
:1025E000C9054BD58168604B01294CD1196F41F069
:1025F0000101196714685C4941F288350B6F9B072C
:102600005DD5816900295FD10020C0E7C168574BC3
:10261000584A69B1012111601C6853490A68920740
:1026200001D50968B6E71A68121B022AF6D9ADE788
:1026300011601C684C490A689507B7D51A68121BC7
:10264000022AF8D9A2E74169484B4B4A59B1012106
:1026500011601C6844494A6F9207AAD41A68121B79
:10266000022AF8D992E711601C683F494A6F950722
:102670009FD51A68121B022AF8D987E71168091B2F
:102680000229ACD982E7052904D1196F41F0040170
:102690001967ABE71C6F24F001041C671C6F24F062
:1026A00004041C670029A5D1146841F28835196F0C
:1026B0008907A6D51168091BA942F8D966E71368EE
:1026C0001B1BAB429AD961E7274B9A6802F00C02B8
:1026D000082A3FF44BAF294C244A02294FF000014D
:1026E000216036D11568196889012DD4D0E9071504
:1026F0000D43416A47F6C07393FAA3F3B3FA83F329
:102700009940836A5B082943013B4FF4403595FAB1
:10271000A5F5B5FA85F5AB400B43C16A4FF0706083
:1027200090FAA0F0B0FA80F081400B430E494B6064
:102730000123236010680B689C013FF565AF1368A7
:102740001B1A022BF7D921E71168491B0229CAD9A4
:102750001CE71068196889017FF556AF1168091ADE
:102760000229F7D912E700BF00380240ACE600208A
:102770000070004000004742800E47426000474220
:1027800010B58AB00B4C03A84CF0B8FE059B009323
:102790000949DDE9032320464CF01EFB069A099BFC
:1027A000019200930549DDE9072320464CF014FB14
:1027B0000AB010BDC4350508581B05087C1B050868
:1027C0002DE9704FDFF868B14B49DBF890224B4898
:1027D0004CF002FBDBF88822920078D0DFF85491AD
:1027E000DFF81881DFF850A100250EE0012E3DD062
:1027F0002E22434940464CF0EFFADBF8883201358F
:10280000B5EB830F4FEA830261D215F03F0610D07B
:1028100005F003067600DBF88422AB08D35C43FAAC
:1028200006F606F00306022E1ED0032EDED16D2220
:10283000DFE7DBF884122C46A00804F00303085CF1
:102840005B0040FA03F39B0702D101349442F3D3B7
:10285000621B7F2A2FD805F0030676002A0149461D
:1028600040464CF0B9FAD6E73D22C2E7DBF89012B9
:10287000244B2A018A589A4230D0234B9A422FD0B7
:10288000224B9A4230D0224B9A422BD0214B9A4273
:1028900028D0214B9A4229D0204B9A4226D0204B57
:1028A0009A4227D01F4B9A4222D01F4B9A420CBF0C
:1028B0004D2268229DE79209514640464CF08CFA21
:1028C000DBF8883224F03F05B5EB830FC6D3BDE8B3
:1028D000704F1649012200204BF08EBD542288E72C
:1028E0004C2286E7532284E7442282E7412280E794
:1028F00042227EE746227CE7C41B0508C435050852
:10290000041C0508F8380508603805086437050810
:10291000C43805081C370508E8360508B43605082C
:1029200094370508B837050890380508C01B050816
:102930005C520120FC1B0508E01B050870B54668C9
:10294000B142044628BF31460D4601214DF024F91D
:10295000A368681C5919721B18444EF051F963683A
:10296000A06801336360284470BD00007FB5054650
:1029700010200C4616464DF013FE0023C0E900342B
:10298000084B0293084B0190039304AB13E90E002C
:1029900084603444C460284604B0BDE870404DF003
:1029A000B3BE00BF7DE2040809EF04080EB403B50E
:1029B0000549064804AA019242F0E4F802B05DF825
:1029C00004EB03B0704700BF071C050890360508EC
:1029D0002DE9704F0B4601EB020804460D4600221C
:1029E000984517D8002A0CBF272622262149DFF850
:1029F0009490DFF894A0DFF894B0324620464CF073
:102A0000EBF9A84510D8324620461A49BDE8704F68
:102A10004CF0E2B913F8011B272903D02229DFD19A
:102A20002726E3E70122DBE715F8012B964205D1C3
:102A30001149324620464CF0CFF9E2E75C2A04D136
:102A40000E4920464BF089FFDBE71F2A03D97E2A77
:102A50000DD80849EEE70A2A01D10949F1E70D2A04
:102A600001D15946EDE7092A01D15146E9E7494626
:102A7000E0E700BF041C0508131C0508171C050827
:102A80001A1C0508231C0508201C05081D1C050828
:102A90002DE9734F704ADFF8C8A100230C684FF08E
:102AA000010C0CFA03FC0CEA04053CEA040440F0B7
:102AB000BD804C6824F01009B9F1020F16D14FEA1D
:102AC000D30800EB880803F0070BD8F820604FEA22
:102AD0008B0B4FF00F0E0EFA0BFE26EA0E0E0E6950
:102AE00006FA0BF646EA0E06C8F82060D0F800E0B9
:102AF0004FEA4308032606FA08F66FEA060B2EEAA9
:102B0000060604F0030E0EFA08FE09F1FF394EEA3C
:102B10000606B9F1010F066011D886680BEA060EA9
:102B2000022606FA08F646EA0E068660466826EA97
:102B30000C0CC4F300169E4046EA0C064660C668BC
:102B40000BEA060B8E6806FA08F646EA0B06C66024
:102B5000E6006BD54FF0000BCDF804B0DAF844C0B6
:102B60003E4E4CF4804CCAF844C0DAF844C00CF431
:102B7000804CCDF804C0DDF804C023F0030C0CF148
:102B8000804C0CF59C3C03F00308DCF808904FEAFD
:102B900088084FF00F0E0EFA08FEB04229EA0E0E1A
:102BA0004BD006F58066B04249D006F58066B0424B
:102BB00047D006F58066B04245D006F58066B04243
:102BC00043D006F58066B04241D006F58066B0423B
:102BD0003FD006F58066B0420CBF0726082606FAED
:102BE00008F646EA0E06CCF8086016686FEA050C8F
:102BF00014F4803F0CBF06EA0C062E43166056689C
:102C000014F4003F0CBF0CEA06062E43566096688B
:102C100014F4801F0CBF0CEA06062E439660D6689B
:102C2000A40254BF0CEA06062E43D6600133102BD3
:102C30007FF434AF02B0BDE8708F5E46CFE7012667
:102C4000CDE70226CBE70326C9E70426C7E705261A
:102C5000C5E70626C3E700BF003C01400000024074
:102C60000038024038B5044609200D4619F01EFC14
:102C700040B10023C0E90033437301230481448140
:102C80000573C38138BD49B14B8E3BB1282B86BF3C
:102C9000283B9BB20023984228BF18467047143146
:102CA0002DE9704389B28046914622204FF420726C
:102CB0001E4619F061FC0546D8B1BDF818304468CD
:102CC0005BBA76BA63802680C4F80490404619F057
:102CD000BBFF9DF81C30A0601B0243F05003A38192
:102CE000BDF820305BBAE381002323746374A374BE
:102CF000E3742846BDE870831FB5438D029310230B
:102D00000193038B0093C38A0446406AFFF7C7FF11
:102D100018B1628D636A1344E36204B010BD70B5EC
:102D20000C4694421E469DF81410049B1AD25D8BEB
:102D30006D0617D419B1D96E09B91B6F93B104F29E
:102D4000233525F003018A4228BF0A4691B24FF489
:102D5000207219F011FC20B143891B1B33800481C0
:102D6000448170BD2146F2E72DE9734F036801935A
:102D70000DF1040C0C46042200254FF00A0E4FF012
:102D80002E081CF8010B0026B0FBFEF382460EFB5A
:102D900013090DF1080BD8B233469B44013609F1F3
:102DA0003009BAF1090FF6B20BF8089CECD80CF810
:102DB000010C2E462046FF2B05F101050DD10F2EEB
:102DC00018DC0446013A12F0FF0204F8018BD8D156
:102DD0000270084602B0BDE8708F5C1E0F2EE4B290
:102DE00008D802AE33442E4613F8083C00F8013BE5
:102DF0002346E0E70020EDE72DE977410A4C054640
:102E00000E46904601AA05212846FEF72DF938B94D
:102E1000019B3340434503D0013CF3D16FF06D007B
:102E200003B0BDE8708100BF41420F0010B5064CF1
:102E3000D4F81832217A5B68201D9847D4F8240210
:102E40000DF0B0FC002010BD68D1002010B5124C70
:102E5000012384F80032D4F81832217A5B68201DEF
:102E60009847D4F824020DF09DFCD4F824428CB18C
:102E7000032384F8B93320460DF094FC2368B3F1A2
:102E8000A04F01BF054A536B23F080035363002317
:102E900084F8B933002010BD68D10020003802400A
:102EA000114B1B685B68C3F342320270C3F30352D9
:102EB000C3F3034102EB820201EB4202C3F3003190
:102EC000C2708A001144C3F3032202EB4102427034
:102ED000C3F3011202EB820203F00F0303EB420380
:102EE00083700020704700BF00400020154B1B6816
:102EF0009A6A42601A691B68C2F30E028260C3F3C9
:102F0000064202F04001C170C2F3011101EB8101E0
:102F100002F00F0202EB41020270C3F30232C3F36C
:102F2000032102EB820201EB42024270C3F3021260
:102F300002EB820203F00F0303EB420383700020D5
:102F4000704700BF004000202DE97043D0F800908A
:102F5000DDF82880DDE90656DDE908CEB9F1000F7D
:102F600016D04BB9CC1EE4B2082C04D80B4B53F846
:102F700024306BB15B785BB1D9F814405CB1CDE91A
:102F8000076CCDE909E80695A446BDE870436047A3
:102F90000348BDE870830348FBE700BFF02605083F
:102FA00080C1FFFF00C1FFFF38B50C460546012177
:102FB000204624F03DFB28B921462846BDE838408C
:102FC00024F0A8BA38BD00002DE970471C46C36B39
:102FD0008BB006468946904623B9404C20460BB03C
:102FE000BDE8708700F1800300F1600200F1980AEB
:102FF00004A80393029224F06EF8DDE902238CBB4F
:10300000364C04A824F06EFD002CE7D1504624F085
:103010005CFBB0F5806FE0D8F26B12F0070518BFCB
:10302000012505EBD205C9F80050304624F076F8AA
:10303000022848D1B6F89E30D6F898C0B5EB830F79
:103040004FEA830031D82B46984221D12E460023E7
:10305000B3422CD18542C1D92A1A002140444DF0F7
:10306000E7FDBBE712993046CDE9004104A927F0FE
:1030700099FF04460028C4D1014608A824F05DFA4F
:103080000028BDD004A9504624F0D2FB0446B8E77E
:1030900023F0030603F00302D1005CF80620CA40C7
:1030A00012F0FF0F16D10133CEE70646CFE723F02B
:1030B000030E03F00302D1005CF80E20CA4008F8AA
:1030C00003200133C4E72A464146504624F077FAEC
:1030D000044683E76FF0070480E700BF80B0FFFF7E
:1030E0002DE97343DDF820901C4616464B462246D8
:1030F0000546884627F0E6FD48B905F11C034CB1AA
:10310000CDE9004942463146284627F04BFF02B040
:10311000BDE870830048FAE780B0FFFF70B405682F
:10312000DDE9036C8DB14BB9CC1EE4B2082C04D898
:10313000084B53F8243043B15B7833B12C693CB170
:10314000CDE9036CA44670BC6047034870BC70476F
:103150000248FBE7F026050880C1FFFF00C1FFFF22
:1031600037B50223154601AA044626F04FF818B9D0
:10317000019B1BB96FF0630003B030BD236893F966
:103180000030002BF6DB019B3BB122681178A1B126
:10319000042BEFD801D10B06ECD400232B60019B4C
:1031A0005A1E0192002BE7D02368296813F8012BDF
:1031B00042EA01222A602360F1E70132013B2260EA
:1031C0000193E0E72DE9704F9AB01E46002304906A
:1031D0000C46904605460093EB69A3B1D5F89031B3
:1031E00000954BB94FF4CA71012020F045FDC5F898
:1031F000900118B9994E60E01D46EDE71AF07DFD8B
:103200000095D5F890510020CDE90B00CDE90D00D7
:10321000CDE90F00CDE911001390002D00F0C0831F
:10322000002C00F0BD83302306AA04EB080107A898
:10323000CDE9068425F0EAFF80B128461AF028FD82
:10324000874E009B1BB1009A0023C2F89031049B6B
:103250009D4232D0284620F0DFFC2EE0DDE9063228
:1032600002EB0309A9EB0401A96056B3012020F089
:1032700003FD0790E860002800F09083AA682146CB
:103280004DF090FC0123AA682B60069B0799D31A86
:103290000B44079301EB0209079BAB6106AA30239D
:1032A000494607A825F0B2FF064668B12846A6F5AC
:1032B00006561AF0EDFC002EC3D130461AB0BDE818
:1032C000708FEC602E60E7E7DDE9063202EB030861
:1032D000AB69A8EB03036B6117AAA023414607A8BB
:1032E00025F094FF90B310F1620F2BD1EE61079B94
:1032F000A8EB0302002A45DD1A7802F07F02022AB9
:1033000042D15A1C07921B782B6205F124024146D8
:1033100007A825F04BFF78B3B0F50A5427D10BABC3
:1033200005F12C02414607A825F084FF10B1B0F545
:103330000C541CD1EB69022B28D928461AF0A8FCA2
:10334000484E7EE7A0F506548CB9D0E71799079E42
:103350000E4405F11C02314607A8FFF701FF10B12A
:10336000A0F50854F0E7079B9E42C0D03E4C28468B
:103370001AF08EFC264664E7079B6A6AAB62134428
:103380000793CCE7394CF2E7394CF0E70133EB61B6
:10339000D5F88C3183B9374C206808B9364CE6E74C
:1033A0002B6B62689A4205D1696B4DF057FC00287F
:1033B00000F008831434EFE7304CD8E7304CD6E700
:1033C0001799079E0E4405F19002314607A81AF09E
:1033D000BFFC04460028CAD105F1A802314607A85F
:1033E0001AF0B6FC04460028C1D1079B9E4200F0AB
:1033F0002283244CBBE7079ED5F8F010C5F8F46093
:10340000A3230E44C5F8EC3017AA3023314607A891
:1034100025F0FCFE002840F06D83079B179A1344AB
:103420009E4200F06C83184CA1E70023CDE91433D1
:10343000169309930299302308AA07A825F0E6FEFF
:1034400030B3A0F51454002C91D1079B984500F09F
:103450005B8228461AF01CFC0C4EF2E680D7FFFF78
:1034600080DEFFFF80DAFFFF9ADDFFFF20DDFFFF38
:103470001EDDFFFF303A0508D2D9FFFF00D8FFFF5D
:1034800000DDFFFF9ADBFFFF9ADAFFFF1ADEFFFF86
:10349000DDE9072302EB030A5146062315AA07A814
:1034A00025F0B4FE0028CCD10623159A1493079B6F
:1034B00016935146134407A809AA079325F065FF00
:1034C00010B110F1620FBCD1042308AA514607A81D
:1034D00025F09CFE0028B4D1DDE907631E44B24507
:1034E000A1D1DDE915B1AA4C206830B9099B079636
:1034F000002B00F00883A74C39E763685B4507D1D0
:103500005A4601914DF0AAFB0199002800F0518222
:103510001434E9E71A43202BC5F8582100F03E8106
:1035200010DC013B072B00F2E981072B00F2E6815A
:10353000DFE813F0D600BD00E4015800E401E40127
:10354000E4016201B3F5006F74D0B3F5803F00F081
:103550003C81B3F5807F40F0D181C5E9571130231C
:1035600017AA314607A825F051FE28B1A0F514543A
:10357000002C00F0C882FAE6079B9E4200F0C3824E
:1035800005F5AE72314607A8019225F0FEFE78B12E
:1035900010F1620F019AE9D1314607A8FFF7E0FD6B
:1035A0000028E3D1D5F85C3113B10123C5F85C31B3
:1035B000079B9E4200F0A78205F5B072314607A82E
:1035C000FFF7CEFD0028D1D1079B9E427FF42BAFA1
:1035D000D5F860316FF00042934266D00133C5F8F0
:1035E000603190E2002317AA314607A817938DF89F
:1035F00060301993FDF776FF20B1B0F5145400F058
:103600008282B4E6179B13B9C5F864317BE219993D
:10361000C5F864010A5CC40002FA04F4D5F8642118
:10362000013022438342C5F8642100F06C820428F3
:10363000F0D168E2062305F5B4701022CDE9173009
:103640004DF0F6FA30230AAA314607A825F0DEFD30
:103650000028D2D1079B0A9A13449E421DD06FF0D6
:103660006500CAE75A1C079293F800A0BAF1060F4A
:1036700040F09C810AAA314607A825F097FD002852
:10368000BBD10A9B079A514617A822F0D3FE002807
:10369000B3D1079B0A9A13440793079B9E42E1D834
:1036A000D5F87031002B40F02E823B4C5FE60023B2
:1036B000179317AA0423514607A825F0A7FD002851
:1036C0009BD10423179AC5F80831079BC5F8103120
:1036D0001344C5F80C2107939A4500F01482A2E622
:1036E0000023179317AA3023314607A825F08EFD33
:1036F00000287FF43BAF079B179A13449E427FF448
:1037000092AE802317AA314607A825F07FFD002836
:1037100039D1179A079BC5F81C3104211344C5F809
:103720001821C5F814110793079B9E4228D9A1239D
:1037300017AA314607A825F069FD00287FF416AFC7
:103740000799179B05F59072194407A81AF03AFCDF
:10375000044600287FF40BAE822317AA314607A83F
:1037600025F054FD00287FF401AF179A079BC5F898
:10377000383102211344C5F83421C5F830110793BC
:10378000079B9E42A9E710F1620FCDD0EEE600BF85
:10379000483B05089EDAFFFF9CDAFFFF302317AA9B
:1037A000314607A825F032FD00287FF4DFAE079BE5
:1037B000179A13449E427FF436AE05F1F802314663
:1037C00007A81AF0FFFB0446D2E617918DF86010A7
:1037D000199117AA314607A8FDF784FE00287FF447
:1037E0000CAF179B13B985F878318CE1012B7FF46E
:1037F0005CAF199B1B78F6E70DF15C0B30235A4642
:10380000314607A825F002FD044668B1A0F514541E
:10381000002C00F07881099B002B7FF4A8AD14F5F3
:10382000025F00F07081A2E5179A079B13449E4245
:1038300060D1002A5ED005F5A47A079B9E4205D888
:103840004FF00003CAF80C30E2D053E030235A4660
:10385000314607A825F0DAFC10B1A0F51454D7E7DB
:10386000079A179BD3180193019906235A4607A874
:1038700025F0CCFC0028F0D1179A079B0393042A6B
:103880003AD11946A54805924DF0E8F9A44B059A9E
:10389000002818BF1C46DAF8083073B1DAF80C308B
:1038A0000592002B7ED11021012020F0E5F9CAF805
:1038B0000C00002878D0059A82460623CAF800300A
:1038C000039BCAE90123079B179A1344019A0793A4
:1038D0009A420BD9019930235A4607A825F096FC45
:1038E0000028BAD1079B179A13440793079B019AA4
:1038F0009A42A2D08B4C8EE7894CCCE7099B002BD7
:1039000040F009810796FEE00EAB11AA494607A8D0
:1039100025F090FC18B1B0F50C547FF428AD2A6B5B
:10392000129B9A4213D11399686B4DF097F9064692
:1039300068B90B9A0E9B9A4209D10C9A0F9B9A4236
:1039400005D14AB110990D984DF088F920B128465B
:103950001AF09EF9744E74E4079BA9EB0302002A47
:103960001ADD17AA494607A81C7825F0E7FC40B1E4
:10397000B0F512547FF4FBAC079B99453FF49DAC26
:1039800067E5C5F87C41179A079BC5F88431134455
:10399000C5F880210793EFE7644CE8E4644E50E4F7
:1039A000644E4EE4644C36E7644C34E76FF06100DB
:1039B00023E62369D5F8582112EA03013FF4AAADA2
:1039C0005D4CD4E4237C85F88831637C85F88931AB
:1039D0000B9B052B02D0002B7FF4F0AC0C9B002B33
:1039E0007FF4ECAC079B2B6406AA3023414607A862
:1039F00025F00CFC064600287FF458ACDDE90631C2
:103A000005F15002194407A81AF050FA044600289C
:103A10007FF4ADAC2A6C079B9B1AEB6317AA30238B
:103A2000414607A825F0F2FB00283FF4C9ACB0F5E9
:103A300010547FF49CAC079BEB6406AA30234146EC
:103A400007A825F0E3FB064600287FF42FAC069B71
:103A500053B1079905F17002194407A81AF026FA24
:103A6000044600287FF483AC079AEB6CC5F8C820A5
:103A7000D31AAB6405F1CC02414607A821F0BCFE85
:103A8000044600287FF473ACD5F8C820079B9B1A26
:103A9000C5F8C430EB69023B012B19D8012305F1AD
:103AA000D402414607A81AF035F9044600287FF4ED
:103AB0005EACEB69023B012B0AD8022305F1E00260
:103AC000414607A81AF026F9044600287FF44FACB7
:103AD000EB69032B7FF4B9AC079B98453FF414AF17
:103AE000A32305F1F002414607A825F08FFB00282B
:103AF0003FF481ACA0F51454002C7FF438ACD5E928
:103B00003C32D3180293079B029A9A423FF68DAC3F
:103B10003FF49BAC87E4024C29E400BFE92605088A
:103B200080DFFFFF9ADAFFFF80D9FFFF20DBFFFF76
:103B300080D7FFFF00D8FFFF00DBFFFF96DAFFFF13
:103B400030B597B06FF00403054604A801934CF01C
:103B50003AFE044688B9114A029502A940F2EA6584
:103B60000220039531F094FB28462EF05DF8019475
:103B70004CF04EFE019817B030BD059C08492068F6
:103B80003AF070FE0028F5D0204641F041F901A935
:103B900042F0DAF8019B5B420193EBE74035050800
:103BA0006C360508012973B5056806460C4625D90B
:103BB0002B6A994222D22146306801942BF0E0FC16
:103BC0000199044610B9002002B070BD012815D03B
:103BD000431C15D0002228462CF028F80028F3D1E9
:103BE0002A6AAB69911E8B4205D20133AB612B7AF5
:103BF00043F001032B729442DDD3E4E70220E3E7B4
:103C00000120E1E72DE9704F86B0804689461646CF
:103C10009A4600240DF1100B0F9BA34203D80020FD
:103C200006B0BDE8708F0F9B1D1B0E9B082D28BF93
:103C30000825E318CDE900A3CDE902B5331B4A46B8
:103C40000021404627F0B4FF0028E9D1109B2A4606
:103C50001868594626F0BCFA109B2C441860DBE724
:103C60002DE9704F86B081468A4616461D460024CF
:103C70000DF1100B109BA34201D800201EE0109BF9
:103C8000A3EB04080E9BB8F1080F28BF4FF00808FB
:103C9000E318CDE90053CDE902B8331B52460021A9
:103CA000484627F085FF48B90F9B424619195846E8
:103CB0004CF0D4FF002804D005DB022006B0BDE89C
:103CC000708F4444D6E70120F8E700002DE9704FDB
:103CD0002DED028BAAB000249A46BDF8DC30049387
:103CE000CDE90A44BDF8E030069308EE100ABDF9AC
:103CF000E43005938B461546A146504627F026FF33
:103D0000DBF80C3000EB0508984564D209AACDE930
:103D1000018204230393DBF80020009218EE100ABE
:103D200018EE102A002127F043FF002840F01B81E5
:103D3000099B1BBA8AEA030ADBF800300A934AF0AF
:103D4000004A08F10403CDF824A00B930AAE0999A8
:103D5000369B81EA09021A40854B1A4039D1369BBD
:103D6000C3F38923002B00F0A0803C2565432AABD8
:103D70002B44349843F86C0C359843F8680C36980B
:103D800043F870AC43E91909049823F85C0C0698D1
:103D900023F85A0C059823F8580C3A9843F8540C19
:103DA0003B9843F8486C43E91401DDE90A0143E913
:103DB0001EB8443B83E803002AAB1D44A5F14C0325
:103DC000CDE905223B936B4B3692013491463A93F1
:103DD0000492454691E7359B002B40F3C280349B0B
:103DE0001B680993349B5E6808333493359B013B11
:103DF0003593A846ABE7B2F5817F1DD1002509991F
:103E0000C1F309039D42E4D2059B7268C1F3892185
:103E10001944B36843EA8121337803F5407341EADA
:103E20000351DDE93A3098470028C0F29C8006F142
:103E30000C06CED10135E2E70599324603EB81212C
:103E4000DDE93A3098470028C0F28D80C1D0002CBF
:103E500000F089802AAA013C3C2303FB042353E998
:103E60001CA2349253F8682C359253F8642C369285
:103E700033F85C2C049233F85A2C069233F9582C00
:103E8000059253F8542C3A9253E9110153F8502CEF
:103E90003B9253F84C2C09920AAA53E91EB882E8C7
:103EA000030053F8609C53F8486C369A099BC2F3A0
:103EB00089223AB10499C3F389228A4289D30699A7
:103EC0008A4286D2C3F30A52002A82D040F20111FC
:103ED0008A4290D107933A9B1A46264B9A423FF466
:103EE00078AF3C222AAB02FB04350021A5F1780013
:103EF0004CF09EFE349B45F86C3C359B45F8683C85
:103F0000369B45F870AC45E91939049B25F85C3CB3
:103F1000069B25F85A3C059B25F8583C3A9B45F8EA
:103F2000543C3B9B45F8503C079BC3F30902049269
:103F300001320692049AC3F389239B1A059A13440B
:103F40001BB20D4A0593002345E91EB8CDE9353271
:103F50000134B3464FF0005934934FF0FF3A98467E
:103F600037E7002073E72AB0BDEC028BBDE8708F05
:103F70000000F07FC9B3020800FC0F602DE9704F0C
:103F800086B0DDE90F4A013B119EDFF898B004933B
:103F90008046894615460EB9304640E02B68E868F1
:103FA000023316D1D5E901120A44944211D28C424F
:103FB0000FD3121BB242A4EB010128BF32460144C9
:103FC000504605924CF0EEFD059A92441444B61A00
:103FD000E1E7D8F868C06FF00103DCF814102B603B
:103FE000049BB4FBF1F20B44234401FB1242B3FBEC
:103FF000F1FE01FB1E315B1ADCF828108B4228BF52
:104000000B46A21ACDE901036A60AB6000920E9BD9
:104010005A464946404628F03FFB0028BBDA06B026
:10402000BDE8708F00FCF7FF2DE9704F88B00646A1
:10403000894605924BB911994FF0FF320A60129AE6
:104040000020136008B0BDE8708F013B07A9806EA7
:10405000079327F041FD10A90546B06E27F03CFDFF
:104060004FF0040A80460DF1140BA845059A03D3BE
:10407000119B1A60109BE2E7A5EB0804B4FA84F4E4
:1040800095FAA5F3B3FA83F3C4F11F049C4228BF49
:104090001C46A300CDE90023CDE902BA04234A4619
:1040A0000021304627F084FD0028CBD1012303FAFC
:1040B00004F42D1BD9E700002DE9704FC488944209
:1040C00092B00646154678D33D4B06931FFA82F907
:1040D0000123ADF81030A4EB09030DF11C089BB2CD
:1040E0009A4238BF4B4605912C22002140469B4600
:1040F000ADF81230CDF80C804CF09AFD3368019386
:104100001FFA8BFB4FEA8B0203EB850140464CF014
:1041100049FD0BF1020B019BADF812B04FEA850A85
:104120002A460021944240D803A905AA084624F053
:10413000CBFA0446A8BB03AA3146304623F0F2FB73
:10414000044670BBB6F806B0ABEB09039BB29D42C8
:1041500038BF4B4601462C224046ADF812304CF099
:1041600067FD3368BDF8129001934FEA890203EBB3
:104170000A0140464CF016FDBDF81A20019B9144FF
:10418000ADF812905D4514D303A905AA084624F0A2
:104190009BFA044628B903AA3146304623F0C2FBF5
:1041A0000446204612B0BDE8708F43F82210013259
:1041B000B8E743F825400135E4E70024F1E700BF04
:1041C000010002002DE97F4F9B464368DDF83C90DB
:1041D000DDE90DA504460E4690467BB94FF42072EA
:1041E0004FF4FA71362018F0C7F9606020B94FF02B
:1041F000FF3004B0BDE8708F0C232381B6F80001B6
:104200000A3080B2BAF1000F01D0284480B2B9F16F
:10421000000F03D0B9F80031184480B22389184444
:1042200063681B899842E2DC012342463146CDF89F
:1042300000B0204618F02EFF0C9818F005FD2389D9
:1042400003900422606803A917F04DFD0028D0D127
:10425000B4F8088008F10606B6B22681BAF1000F5C
:104260000BD0ADB2606833462A46514617F03BFD8D
:104270000028BED1228915442581B9F1000F0ED145
:10428000238960689B1B5BBAADF80A3008F1040310
:104290009BB202220DF10A0117F025FDA9E749465C
:1042A000204618F09EFE0028EAD0A2E770B5284B01
:1042B0001B780833D0B050F8236030220546002127
:1042C00003A84CF0B5FC31460FA8029519F00EF882
:1042D00001230093FF220FA902A818F0DBFE044679
:1042E00078BBBDF81A20316C0132ADF81A2091B1BB
:1042F00001231A460FA818F019FF01230093FF228B
:104300000FA902A818F0C6FE0446D0B9BDF81A30AD
:104310000133ADF81A306B6813B101238DF83930D1
:10432000336C13B1C0238DF83B30002141F2E943D7
:1043300002A8ADF81210ADF81830059119F0F4F894
:104340000446039808B117F08FFF204650B070BDA7
:1043500094C000200E4B196830B4B1B10D4D00224D
:104360008C68AC420DD1CC6884420AD1086832B95D
:10437000186030BC082017F06BBF2146F0E71060D2
:10438000F7E70C680A46002CF7D130BC704700BF35
:10439000A4C00020B5D701082DE978470646154688
:1043A0000C4659B30B89934228D338B303899342FF
:1043B00024D34FF00009CA46B6F80A8062897068B3
:1043C0006168A8EB0A08A2EB0902904528BF904655
:1043D000A8458CBFA8461FFA88F842464944504475
:1043E0004CF0E0FB62897389C144A5EB080091455C
:1043F000C24485B222D32468F4B955B36FF00F00DC
:1044000011E04FF0000A628923899A4201D12368A2
:104410005BB92EB1728933899A4201D1336823B9CD
:10442000002DC9D12846BDE878876FF00500FAE76E
:10443000002CE6D1A246EDE74FF000099A45E2D103
:104440003668002EF4D1002DD8D1002CD9D12046C9
:10445000E9E79A45A946DDD1F2E7000070B50420EE
:1044600018F024F8044678B1084D024605F110060C
:104470002B4603CBB342106051601D4602F1080287
:10448000F6D1606817F0B8FD204670BD84C00020EA
:104490002DE97047AB4B87B091460C4619F0010FE0
:1044A0001A68A949009014BF542352238046A74894
:1044B0004AF092FC6379039323790293E3780193A2
:1044C000A3782278A2490093A04863784AF084FC3C
:1044D000E37A0393A37A0293637A0193237AA2790E
:1044E00000939C49E37999484AF076FC227B637BF0
:1044F00043EA022340F60602934200F0868048F227
:10450000DD62934200F08380B3F5006F40F081805C
:10451000914A92498D484AF05FFCB8F10E0F69D973
:10452000237B082BA8F10E0504F10E0640F0D28083
:10453000637B002B53D1A37B452B50D194F82130C2
:10454000059394F820300493E37F0393A37F0293B1
:10455000637F0193237FA27E00938149E37E7B48A2
:10456000258A4AF039FCE27D6DBA062AADB255D1F2
:1045700004F1260010F01FFF824604F12A0010F01B
:104580001AFFE18D268EA38C628C49BA76BAC1F3EC
:104590000338B6B2C1F308015BBA52BACDE9028161
:1045A000CDE900A004966F4968489BB292B24AF0E8
:1045B00013FCB8F1050F04F13606A5F128050ED954
:1045C000A8F105084FEA8808674960484AF004FCEA
:1045D00031464046FCF750FE4644A5EB080519F06D
:1045E000020F07D0614959484AF0F6FB3146284688
:1045F000FCF742FE19F0040F00F0A1805C4953481B
:1046000007B0BDE870474AF0E7BB5A4A81E75A4A0B
:104610007FE7A289594952BA92B27BE7112A51D158
:10462000B4F822A0B4F82480554948489AFA9AFA76
:1046300098FA98F81FFA8AFA1FFA88F84346524601
:104640004AF0CAFBE58CBAF1430F6DBAADB204F182
:104650002A061CD1B8F1440FC1D14A493B484AF05F
:10466000BBFB31466C20FCF707FE474937484AF050
:10467000B3FB94F81C31013BEC3D04F58B76072B22
:10468000ADD8DFE803F00C11131517191B1DBAF193
:10469000440FA4D1B8F1430FA1D13C49DEE73C4916
:1046A0002A484AF099FB9AE73A49F9E73A49F7E785
:1046B0003A49F5E73A49F3E73A49F1E73A49EFE78A
:1046C0003A49EDE73A49214804F12206143D4AF0FF
:1046D00083FB84E7862B82D1637BDD2B7FF47FAF66
:1046E000A37B1B09062B7FF47AAF304610F063FEE4
:1046F000637D0293237D0193638A2E495BBA9BB24B
:10470000C0F307520093C0F3130310484AF064FB50
:1047100029490E484AF060FB04F116011020FCF70D
:10472000ABFD264909484AF057FB04F12601102049
:10473000FCF7A2FD04F13606A8F136054FE707B0F5
:10474000BDE87087ACE60020381C05082036050857
:104750004D1C0508701C0508331C0508931C050832
:10476000A91C0508CE1C05081A1D0508DA1D050838
:10477000C01B05082A1C05082E1C05089C1C0508E2
:10478000211D05083C1D05084A1D0508431D050897
:10479000511D05085B1D0508621D05086B1D0508F8
:1047A000741D0508791D05087F1D0508881D05086D
:1047B000901D0508991D0508CA1D0508D21D05088C
:1047C00013B50C4C246824680B4600F07F4164B993
:1047D000002914BF132103210192002200920246F6
:1047E00004480DF067FC02B010BD002914BFEC2195
:1047F000EB21F1E740C10020FF292DE9734F04466A
:1048000003D98B18B3F5885F11D9002504F2BD10C8
:104810002B46FF244FF0010C4FF0100E4FF05508BF
:104820004FF0AA09954266D14FF000083CE0EFF343
:10483000118B602383F31288560250D0DFF8A481D5
:10484000A1F5807140464D020DF024FDD8F80030EE
:10485000D3F8109009F580531B680193434542D16A
:1048600041F2040259F802104B1C3CD0B1EB153F49
:104870004FEA153037D3721E2A44B1EB123F32D8BB
:1048800081421AD94FEA013A2246C5EB0131284646
:104890000091FFF795FFDDE90013804640B118460F
:1048A0000DF0EEFC8BF31188404602B0BDE8708F2E
:1048B000A6EB0A062E440C445546C5F30B01C1F580
:1048C0008058B04528BFB0464246494420464CF087
:1048D00069F9B6EB080604D142480DF0D1FCB046A8
:1048E000E0E744444544224631462846FFF768FF46
:1048F00080463C48D4E7CD4271D1A0F5DF7606F87A
:10490000013FB042FBD143708470C470047180F8E1
:1049100005C08471C4710472437280F80AC0C37206
:104920000373437380F80EE0C3730374437483749A
:10493000C374037543758375C375037643768376B5
:10494000C376037743778377C37780F820300135C8
:1049500080F8213080F8223080F8233080F824302D
:1049600080F8253080F8263080F8273080F828300D
:1049700080F8293080F82A3080F82B3080F82C30ED
:1049800080F82D3080F82E3080F82F3080F83030CD
:1049900080F8313080F8323080F8333080F83430AD
:1049A00080F8353080F8363080F8373080F838308D
:1049B00080F8393080F83A3080F83B3080F83C306D
:1049C00080F83D3080F83E3080F83F3080F840304D
:1049D00080F8418080F8429000F5007022E76FF087
:1049E000040861E740C100202DE97043804686B08D
:1049F000D1E900600C4641F049FD0622054603A9B5
:104A0000A06840F0F3FCB8F1030F13D17168049A69
:104A100003980029B8BF01F2FF1105EB6121520A8A
:104A200001F58071FFF7E8FE400040F0010006B09C
:104A3000BDE87083174B9E4225D0E06841F026FD0B
:104A4000B368B3EB053F804620D9039AD6F80490AB
:104A5000049C0192EFF31186602383F3128874B1F2
:104A60000D4805EB19350DF015FC2146019A08EBB0
:104A70000530FFF7A5FE044607480DF001FC86F35C
:104A800011882046D0E76FF00400CDE76FF00D00ED
:104A9000CAE700BF5052050840C100202DE9704F01
:104AA0004C4E356890F83D3086B0202BCDE902128F
:104AB000044603D0022006B0BDE8708F4649009539
:104AC000192301220CF0AAF80028F3D194F83C3005
:104AD000012BEFD0012384F83C302368DFF8F8B0D5
:104AE0001A68D2075EBF1A6842F001021A601A689B
:104AF00022F400621A60242384F83D3000232364EA
:104B0000A3F58033E3624FF001094FF0A00A226859
:104B1000136843F4807313604FF001110095C823AC
:104B2000002220460CF07AF818B10320C3E799461A
:104B3000EDE723689DF808201A61356858695969BE
:104B400094F83D20C0F34000C1F380210143D2B26C
:104B500001D1A02A20D14FF0200884F83D805A6965
:104B600012F0020F1A6842F400721A601BD0002281
:104B700005925A6905929B690593059B1649009514
:104B80001923012220460CF049F80028CDD184F8E1
:104B90003D8084F83C008EE73268521BC82A88BFEB
:104BA00084F83DA0CAE76FF480625A6159460095C7
:104BB0001923012220460CF031F80028B5D1039AC0
:104BC000914509F10103B2D184F83C0084F83D809D
:104BD000012070E7ACE600200200100010B5802133
:104BE000044609F049F920460021BDE8104009F0CB
:104BF00043B908B5D0F814320BB9022008BD1B68C0
:104C0000012198470028F9D0F7E700004269012305
:104C100003FA02F13D4B30B5D3F8004244F00104F1
:104C2000C3F80042D3F8004224F47C54C3F8004295
:104C3000D3F80042456A44EA0524C3F80042D3F899
:104C40001C5225EA0105C3F81C52C569CC43002D4E
:104C500035D1D3F80C522540C3F80C52D200C568A8
:104C6000838802F1804202F5C84243EA0543C2F854
:104C700040328568038843EA0543C2F844328369B9
:104C8000224AABBBD2F804322340C2F80432036993
:104C900093BBD2F814321C40C2F81442036A1B4A78
:104CA000012B02BFD2F81C320B43C2F81C32D2F8DF
:104CB000003223F00103C2F80032002030BD012D84
:104CC000DDD1D3F80C520D43C3F80C52036885882C
:104CD00045EA0345D30003F1804303F5C8438289C5
:104CE000C3F84052856842EA0542C3F84422C6E749
:104CF000D2F804320B43C8E7012B01BF034AD2F8B4
:104D000014320B43C2F81432C8E700BF00640040FD
:104D100010B5D0F8180290F8653800EBC3040133E1
:104D2000DBB2042B4FEA022208BF002384F84418A8
:104D3000C4F8482880F8653810BD00002DE970419E
:104D40003C4BD3F8A44195B0D4E90168054690BB2B
:104D5000A27B04F10E03B046012A30D0022A42D0D1
:104D6000002A54D1A169002D4A690CBF6FF00200DE
:104D70006FF01000024001264A611E70B8F1060F64
:104D800016D043F035FF4AF0FFFC02A84BF01BFDA4
:104D9000024600283DD16B4602214046CDE900463F
:104DA00043F086FF4BF034FD4AF0E6FC43F000FF91
:104DB00015B0BDE87081E27B04F10F03CCE7A26976
:104DC000002D51690CBF6FF004006FF0200001EA64
:104DD000000151614FF008010CBFD1601161022246
:104DE0001A700326CAE7A269002D51690CBF6FF043
:104DF00008006FF0400001EA000151614FF010011E
:104E00000CBFD160116103221A700526B6E7012696
:104E1000B4E76900062241F00101204605F018FAC6
:104E2000227B0549054849F0D7FF0399034844F020
:104E3000E3F9B9E75C520120E11D0508C435050816
:104E400000B500238BB0CDE904306846CDE90033CE
:104E5000CDE90233CDE90633CDE90831FFF7D6FEBF
:104E60000BB05DF804FB000009484368DB0710B590
:104E70000CD5EFF31184602383F312880DF080FAD0
:104E80000021012007F0A4FD84F3118810BD00BFAC
:104E900040C100200A4808B54368DB070ED5094B1E
:104EA00082681B689B1AB3F57A7F07D30DF068FA06
:104EB000BDE808400021012007F08ABD08BD00BF01
:104EC00040C10020ACE600202D4B37B51D78002DE9
:104ED00053D1012119702B4B2B4C2C4A5A602C4B6F
:104EE00023602C4B2C48656010229A612B462A4681
:104EF00008F074FD2368DA689868126829469047BC
:104F000020460DF0C7F9AB2120460DF04EF923687D
:104F10001B68012B25D16A4605212046CDE90055A5
:104F2000FCF7A2F820B901AA35212046FCF79CF82D
:104F3000019A9DF80050120292B2154302F40072D9
:104F400052EA00030DD106210F480DF02EF90E484C
:104F500045F40073022201210DF007F90A480DF013
:104F6000A5F809480DF08CF90023A3600B4B6022D3
:104F700083F8042304200CF0EBF803B030BD00BF2D
:104F800054D1002058D1002040C100201112000847
:104F9000C8540508000002408C3E050800E100E00E
:104FA00070B505460846164641F070FA01380528E6
:104FB0004DD8DFE800F00316161A272FFFF784FFFD
:104FC000304641F063FA012803D1224B9D4205D0BF
:104FD00028730020400040F0010005E04FF0FF3052
:104FE000F8E7FFF741FF012070BD1A4B9D4206D044
:104FF0002A7BA8680AB1000BECE7400AEAE74FF405
:105000008850E7E72B7B002B14BF4FF400504FF480
:105010008060E0E72C7BC4B130466D6841F036FA21
:105020002D0B0446EFF31186602383F312880A48A0
:105030000DF030F96119090307480DF0DEF8044658
:1050400005480DF01DF986F311886000C3E70620BE
:10505000CAE700BF5052050840C100202DE9704F3B
:10506000814B8AB01A780193002A59D07F4CDFF81F
:105070001C82DFF81C9200232360C2467C4E98F805
:1050800000B0737F354603F0FF02002B32D1794B1D
:1050900032771968784A7948BBF1000F62D0036F04
:1050A0009B0740D54FF4807100230393734B186C1A
:1050B00040F0805018641B6C03F080530393039BF3
:1050C0006F4B186840F480701860D2F800C0186800
:1050D000C0054DD5694B186F10F440704ED1674B29
:1050E0009A6822F4F8129A601A6F11431967654B97
:1050F00001221A60022373773368CA225A6253224C
:105100005A62FBF797FF002856D03368FF225A6295
:10511000042373770CE06FEA13436FEA03432360C1
:105120000AB0BDE8708F13685B1AB3F57A7FB6D901
:105130002368BBF1000FEED043F0807323604E4B29
:1051400000251A684B4B8AF8005028461A60FCF775
:10515000CDFD0BF095FC757790E713685B1AB3F5FE
:10516000FA7FE5D8436F9B07F7D54FF400719BE7B3
:105170001068A0EB0C000228A9D9D9E78842AED06C
:10518000186F4FF0010CC9F800C020F440704FF0C8
:10519000000CC9F800C01867186FC0079FD5D2F877
:1051A00000C041F2883E186F800798D41068A0EBC9
:1051B0000C007045F7D9BBE72B6829699A6822F47F
:1051C000E00222F040029A606A6898680A436969BE
:1051D0000A4302439A60EA681A611A69A96842EAB6
:1051E00001421A616FF08002DA601A6CA96922F438
:1051F00080221A641A6C0A431A64FF225A6201233D
:105200006B771C4A1C4B12681B689B1A9BB243EAC3
:105210000B7B4BF00053236004A81B4B0493FCF75B
:10522000FFF828B9CDE90800059005A8FCF786F835
:10523000124B5A6F12F0006F1A461EBF4BF000530C
:1052400043F480332360536F0C4A5B0142BF2368F1
:1052500043F400332360536F43F080735367019A24
:10526000002313705CE700BF38C1002034C1002068
:10527000004000203CC10020ACE600200038024085
:10528000007000403C0E47420401010F290000203D
:10529000400E474200B589B0FFF7E0FE03A8FDF7D6
:1052A00025FE02A8FDF7FCFD9DF80E309DF80B00D1
:1052B00001939DF80D309DF8091000939DF80A2088
:1052C0009DF80C3000F5FA600DF0AAF8002109B045
:1052D0005DF804FB7FB5FFF7C1FE01A8FDF706FEF0
:1052E0006846FDF7DDFD9DF802309DF801001B04C6
:1052F00043EA40539DF8040043EAC0239DF80500AB
:1053000043EA40139DF8060043EA50039DF803006A
:10531000143043EA406007B05DF804FB2DE9704F9C
:10532000D0F800808AB00023437102910379019381
:10533000144605210DF11F02404629F095FF9DF806
:105340001F30DD0700F1CD82580700F1CC8208AA9A
:105350000321404629F088FF30B9089A531EB3F55F
:10536000004F01D21A4201D001230893019BA3B937
:1053700009AA0121404629F077FF88B9029B13F062
:10538000080F099B14BF4FF000094FF03F094B4530
:105390001BD3A3EB090309932EE0B8F1000F01D151
:1053A000012013E023460122002108F104002AF025
:1053B000A7F80028F4D194F8FF2194F8FE3143EACD
:1053C00002234AF65522934203D00E200AB0BDE8CC
:1053D000708F019B04EB031303F5D77593F8B2317B
:1053E000002BF2D005F1080029F0D8FD814605F127
:1053F0000C0029F0D3FD0990DDF824B0BBF1150FA6
:10540000E3D9029B13F002030593029B2DD003F016
:105410000703022B00F07682029BD90740F17282CB
:105420004E4B4FEA1B30012633F8022B12B190424B
:105430006FD2002240F6F573BBFBF6F59D429BBF91
:1054400005EB4505013502356D088CBF6D00033550
:105450004FF0200305F2FF1504938CBF4FF0020AB2
:105460004FF0010A6D0A012317E0DA07D8D41320A0
:10547000ACE772081646BBFBF6F339489D00A3F56E
:105480007F43F63B05F2072583424FEA55259CD81A
:10549000002304934FF0030A202309EB030000903C
:1054A0000498DDF820E005EB000C009884440EF130
:1054B000FF30BAF1030F6044CEF1000E08BF00992F
:1054C00000EA0E00A0EB0C0001BF09181B180846EB
:1054D000009018BF2D18C9EB06108444E345FFF473
:1054E00074AF0499ABEB0100C01ABAF1030FA0EB43
:1054F0000500B0FBF6F103910DD14FF6F570814236
:1055000038D8002A7FF461AF012EB2D85DE776006B
:10551000FCE1760088E7BAF1020F23D103994FF638
:10552000F57081420ED9002A40F0FA817600402EB3
:1055300000F2E481002E3FF473AF32467AE7802E0A
:10554000FBD942E7039940F6F570814212D8002A50
:105550007FF43BAF7600802EECD936E73029050882
:10556000FFFFFE0F039940F6F57291423FF62DAF13
:105570004FF0010A4FF400720021204605934BF0D2
:1055800057FBDA4A059B1168216051686160A3737B
:105590001189927A2181C3F30723BAF1030F4FF0E7
:1055A0000201A272E3734FF000024FF00103237473
:1055B00014BF0B461346BBF5803FE272217366733E
:1055C0006274A37480F0248184F813B0CBF3072BAA
:1055D00084F814B0F82363753F2323764FF0000B53
:1055E000FF2384F819B0A37684F81BB0494604F170
:1055F0001C0029F0CBFCBAF1030F40F00F81FFF73C
:1056000069FE014604F1430029F0C0FC294604F17B
:10561000240029F0BBFC022384F82C30012384F8F9
:105620003030062384F83230802384F84030292338
:1056300084F84230AE4B84F82DB084F82EB084F854
:105640002FB084F831B084F833B004F1470203F18D
:10565000100153F8040B42F8040B8B42F9D119885E
:105660009B7893704FF05503118084F8FE316FF0F2
:10567000550384F8FF314A4601232146404629F06C
:1056800071FE834600287FF48BAEBAF1030F41D13F
:10569000012309F106022146404629F063FE4FF43A
:1056A0000072594620464BF0C3FA522323706370B0
:1056B0006123A37084F8E731039B41227221E270D9
:1056C00084F8E41184F8E51184F8E621591E04F504
:1056D000F47029F05BFC022384F8EC314FF05503A1
:1056E00084F8FE316FF0550384F8FF3109F10702A9
:1056F0000123214684F8EDB184F8EEB184F8EFB1CE
:10570000404629F02FFE012309EB030221464046C3
:1057100029F028FE4FF40072002120464BF088FA51
:10572000BAF1030F40F09780F8232370FF236370D2
:10573000A370E37023716371A371E37123726372C9
:10574000A3720F23E372012DAB4628BF4FF0010B6C
:105750002146009A5B46404629F004FE0146002897
:105760007FF41EAE4FF4007220464BF061FA009BAE
:10577000B5EB0B055B440093E5D1049BBAF1030F35
:1057800018BF1E46012E354628BF0125009A2B461C
:105790002146404629F0E6FD00287FF401AE009B3B
:1057A000761B2B440093EDD1BAF1030F5DD0099B1A
:1057B000B3F5803F5BD2BAF1020F0CBF042501257F
:1057C000019B002B55D0B8F1000F3FF4E9AD012249
:1057D0002346002108F1040029F092FE0246002829
:1057E0007FF4DEAD019B04EB031383F8B251012378
:1057F0002146404629F0B6FD00287FF4D1AD0022B5
:105800001146404629F030FD003818BF0120DDE583
:10581000594604F1200029F0B9FBDBE6FFF75AFDF9
:10582000014604F1270029F0B1FBC5F30723E37516
:10583000802384F82430292384F826302D4BA57545
:1058400004F12B0203F1100153F8040B42F8040B8E
:105850008B42F9D103E7BAF1010F2749204618BF5F
:105860006FF0070129F092FB6DE70C25A8E70625EC
:10587000A6E7029B1B07C2D401994FF40072204691
:105880004BF0D6F95523099A84F8FE31AA2384F8FF
:10589000FF31019B84F8BE3184F8C1314A4443F69C
:1058A000C163B2FBF3F2FE2384F8C331930843F0E3
:1058B0003F03012684F8C43184F8C521494604F524
:1058C000E37084F8BF6184F8C06184F8C25129F0A4
:1058D0005DFB099904F5E57029F058FB019A334600
:1058E00086E7032072E50A2070E500BF151E050853
:1058F000211E0508351E0508F8FFFF00059B002B3B
:105900003FF41DAE094B4FEA5B40012633F8022BF2
:10591000002A3FF4B0AD9042BFF4F9AD0022AAE5F1
:10592000059B002B7FF4A6AD4FE500BF3E2905087F
:1059300070B504460D46FFF791FB022C244C39D17B
:10594000686840F0A3FD00F2FF13B3F5806F02D347
:10595000204846F00DFC237F0028C7BFC0F500702B
:105960004FF4004240420022012B21D00123237733
:10597000022363772368CA21596253215962D96887
:10598000CE0304D514490E68DD68ED0305D4104339
:10599000FF22D8635A62012307E00D68AD1BB5F5FD
:1059A0007A7FF1D9FF225A6203236377002323779A
:1059B000062070BD2368DA6BD86B1304C0F30800AF
:1059C000BDE870404CBFC0F5007040423EF0D8BC0E
:1059D00000400020491E0508ACE600202DE9784172
:1059E00080460E46FFF73AFB03200BF09DFBB8F113
:1059F000030F70686FD806282FD040F047FD0325AD
:105A0000034602224FF4FA6000FB02F1994209DBDF
:105A10004FF40044B4FBF2F463434FF47A7493FB05
:105A2000F4F415E0013D4FEA4202EDD2364A9342CA
:105A30004FF47A7493FBF4F401DC04250AE0A4F536
:105A40008034B4F5803F02DD304846F091FB0625F6
:105A5000002C00DD013C012200E00022B8F1030F20
:105A600043D1B3682A49C1F828312A4BCA21596267
:105A700053215962996821F480619960D968490776
:105A8000FCD5002A33D05C619A6822F4884222F067
:105A9000070205F007052A4342F488429A60FF2274
:105AA0005A621D4A116841F480011160916841F405
:105AB00080019160D96821F48061D9604FF480033E
:105AC0005361164BF02283F8032303200BF040FBB5
:105AD0000620BDE8788140F0D9FC0546B06840F06A
:105AE000D5FCF36804460122BCE70623BAE79A68AE
:105AF00022F480429A60FF225A62074A136823F414
:105B000080031360E4E700BFE703E8035A1E0508BB
:105B10005C52012000280040003C014000E100E010
:105B200030B505468FB00C46FFF798FA012D3BD1F2
:105B300001A8FDF7DBF96846FDF7B2F99DF803000F
:105B400000F5FA603EF01CFC06909DF801003EF066
:105B500017FC07909DF802003EF012FC08909DF89B
:105B600000003EF00DFC09909DF804003EF008FC9A
:105B70000A909DF805003EF003FC0B909DF806008E
:105B80003EF0FEFB029B0C902748584300F5731033
:105B900000F6F73080083EF0F3FB06A90D900820D0
:105BA00039F000FB0FB030BD01AA082160683FF05A
:105BB000F7FF019B186840F069FC019B30308DF8BD
:105BC0000300586840F062FC019B8DF80100986862
:105BD00040F05CFC019B8DF80200D86840F056FC58
:105BE0008DF800006846FBF71BFC019B186940F02C
:105BF0004DFC019B8DF81800586940F047FC019B53
:105C00008DF81900986940F041FC00238DF81A00C6
:105C10008DF81B30099306A84FF480230A93FBF7F5
:105C20008DFB0620BEE700BFF7C2FFFF00B589B0BD
:105C3000FFF714FA03A8FDF759F902A8FDF730F9A8
:105C40009DF80E309DF80B0001939DF80D309DF8E6
:105C50000A209DF80910009300F5FA609DF80C30B9
:105C60000CF0DEFB049A0A4B0A49534303F5731305
:105C700003F6F7334FF47A729B0853431A46002316
:105C8000E1FB00231046194609B05DF804FB00BF94
:105C9000F7C2FFFF00CA9A3B38B5424B424C002284
:105CA0007F25FF21C3E90042C3E90251C3E9042271
:105CB0009A613E4B3E4C1A70002864D13D4D2B6FCB
:105CC00048F20331194048F20312914248D10AF0D8
:105CD000D7FE6B6F43F080736B67236843F48023B8
:105CE0002360344B21681A6F5B6F02F007021B02BE
:105CF0000A4303F4407313432B4A23601169C1F331
:105D00000E01FF2904D11169C1F306417F2926D074
:105D1000CA215162532151624FF0FF31D160264AAE
:105D2000214915681068401BB0F57A7F11D2C86808
:105D30004006F7D50A6922F4FF4222F07F0242F0C2
:105D4000FF020A610A6942F4FE020A616FF08002F2
:105D5000CA60154AFF2143F480135162236038BDA5
:105D600003F40343B3F5024F0DD10AF089FE6B6FC4
:105D700043F080736B676B6F43F001036B672368BD
:105D800043F40023ACE70C4B0C4A1B68136023F070
:105D90007F4343F07C532360094B1878BDE83840BB
:105DA000FBF7A4BF004000200028004038C10020BD
:105DB00034C1002000380240ACE600203CC1002085
:105DC0002900002008B50120FFF766FFFFF746F91C
:105DD000062008BD114A136813F0040313B50ED151
:105DE00001930F4B596B41F0400159635B6B03F01A
:105DF00040030193019B136843F004031360094BB4
:105E000006491C68486810F0010001D0886803E06A
:105E10001A68121B092AF5D902B010BD00080650F5
:105E200000380240ACE6002008B5FFF7D3FFBDE81C
:105E3000084080083EF0A4BA16280AD8054B1B5C1F
:105E400003F1047303F59E3300EBC30080000123CC
:105E5000036070471BC10020162810D8084B094A60
:105E600003448A434FEA83030CBF012200221A60D5
:105E7000054A8A430CBF01220022C3F880207047E4
:105E800040E089100000111000002110162808D8E9
:105E900000F1845000F51E20800000230360C0F84C
:105EA0008030704730B5204A012351698340194240
:105EB00093B0044612D0162853610FD81B4B00F143
:105EC000320503EB8505A868062807D0184B1B5D33
:105ED00033B9184B53F8241042F044FE13B030BDD0
:105EE00042F086FE49F050FC68464AF06CFC60B90E
:105EF000104BA86853F8241042F0FEFE4AF088FCCC
:105F000049F03AFC42F054FEE8E70623AB60204635
:105F1000FFF7BCFF08490948224648F05DFF019998
:105F2000064843F069F9EBE7003C01405C52012070
:105F300004C10020A8C00020651E0508C43505085E
:105F40002DE970478DB00446084611461A4603AB4A
:105F500001934C4B0093042346F0B2F821460820ED
:105F600042F065FD8046DDE90306C207DDE9059ADA
:105F700005D4830715D10268434B9A4211D140F0F2
:105F800085FA0F28044604D840490246404843F0A9
:105F900001FA16281ED902463E493D48172343F010
:105FA000F9F906F04DFC04890546C4F304143A4A95
:105FB00026F4001393420FD002F5801296420BD0C4
:105FC000A2F57022934207D0344B9E4204D034494C
:105FD0003246DBE70025EAE7B9F1020F02D9314981
:105FE0004A46D3E7304B04F1320103EB8102926859
:105FF000062A1A4605D0BAF1060F02D02B492246CE
:10600000C4E72046FFF742FF02EB810316F4803F0E
:10601000C3F808A0264B14BF00220422BAF1060FD1
:106020001A5519D0234B01221A5504FA02F31343CF
:10603000214A42F82430ADB931462046FFF70CFF23
:10604000FFF7FAFE1D4B1A570E2102F07F00FCF7F6
:1060500051FA10460BF07CF84046C8F804400DB0E9
:10606000BDE87087286907F0A5FCEB682869CDF8C2
:106070002490CDE9073607A902230A93FCF708FD0F
:10608000E0E700BF00520508383805089D1E0508E6
:1060900090360508AD1E0508000011100000221002
:1060A000BA1E0508C41E05085C520120CE1E050854
:1060B0001BC1002004C10020A8C00020183A050818
:1060C00008B54068FFF7E2FE062008BD50F8310031
:1060D00010B1043818BF012070470000136833F076
:1060E00007032DE9704F0E68154612D1022802D021
:1060F000244845F07FFF486839F018FC40F205530A
:10610000984236D170680621BDE8704F38303AF0B9
:10611000FDBB012830D01C48EBE7AB682146184690
:10612000FFF7D4FF88B153F8340003EBC40A39F009
:10613000FDFB404510D048451BD1DAF80400D6F8E5
:1061400004B040F0A3F9CBF8000001346B68A3421F
:10615000E3D80620BDE8708FDAF80400D6F804B062
:1061600040F094F9011E18BF0121584603F098FB36
:10617000EBE7064845F0FCFF002440F2035840F2EC
:10618000DD59E3E7D71E0508EE1E0508E41E0508E5
:106190002DE9704F2DED068BD6B09B460291D11E96
:1061A00048BF111DC9104D1C8146581EEB000393BA
:1061B0000C1A0BF109089FEDCA7AC54B9246A2EB67
:1061C000C5051AAE04EB080C002CA4BFE25C07EE78
:1061D000902A04F10104ACBFF8EE677AF0EE477A3A
:1061E0006445E6EC017AEFD11AAB03EB8B0409EBC3
:1061F0008B0301930DF5847EDFEDB97AA4464E46FC
:10620000F6EC016A019B3CED017AB342E6EE877A37
:10621000F6D101304045EEEC017A04F10404EBD1F3
:10622000AB48DFEDAC9A9FEDACAA43180926F0EE1F
:10623000698AB0EE4A9A049356AB03EB860111EDDE
:10624000140A42AB06A903EB86008C46344660EE86
:10625000297A013CFDEEE77AF8EEE77AA7EECA0A62
:10626000BDEEC00AACEC010A30ED010A37EE800A3F
:10627000EDD1284605910FF023FDB0EE408AB4EE33
:10628000000A28EE000A0FF029F9F2EE007AA0EEDB
:10629000678A002D0599FDEEC87AB8EEE70A17EE79
:1062A000908A38EE408A38DD06F1FF3C06ABC5F136
:1062B000080E53F82C4044FA0EF0804400FA0EF019
:1062C000241AC5F1070043F82C400441002C32DDAC
:1062D000002008F10108864651F8043B002865D1EA
:1062E00023B1C3F5807341F8043C01200EF1010E87
:1062F0007645F1D1002D03DD012D5CD0022D64D057
:10630000022C18D1B7EE000A30EE488A98B1284620
:106310000FF0D6FC38EE408A0DE005D1701E06ABBA
:1063200053F820402412D1E7F6EE007AB4EEE78A63
:10633000F1EE10FA38DAB5EE408AF1EE10FA73D1C8
:10634000711E00238C46BCF1080F46D1002B4ED1A4
:106350000EA9012451F80409002845D006EB0B00D2
:106360001AAB711C03EB80002644B1423FF764AFC7
:10637000049B5B5C07EE903AF8EE677A4C46E0ECE3
:10638000017ADFED577A8446F4EC016A019B3CED1B
:10639000017AA342E6EE877AF6D142AB03EB8104A1
:1063A000C4ED007A0131E0E7022491E7C3F1FF0375
:1063B00041F8043C9AE706F1FF3C06AB53F82C1079
:1063C00001F07F0143F82C109AE706F1FF3C06AB81
:1063D00053F82C1001F03F01F4E706AA52F82C0004
:1063E0000CF1FF3C0343AEE70134B3E7013906ABE0
:1063F000083D53F82130002BF8D02846B7EE000AAC
:1064000001910FF05DFC01990B46002B39DA0A4629
:106410000020002AC0F28B8042AB03EB82052F4E96
:10642000DFED2F7A002348E0039BB0EE480AA3EB90
:106430000A000FF045FCB4EEC90AF1EE10FA17DBC2
:1064400060EE287A06AAFDEEE77A711CF8EEE77A8C
:106450000835A7EEC90AFDEEE77ABDEEC00A10EED8
:10646000103A42F8263017EE903A42F82130C4E74D
:10647000BDEEC00A06AA10EE103A314642F82630A8
:10648000BBE706A842AA50F82300019007EE900A45
:10649000F8EEE77A02EB830267EE807A013B20EEAA
:1064A000280AC2ED007AB0E7F6EC016AB5EC017A91
:1064B00001330A2BE6EE877A01D09842F4DA56AB24
:1064C00003EB800343ED287A013A0130A1E700BFD6
:1064D000E85605080000803B0000804314270508AB
:1064E000000000002EAA02EB8302D2ED007A37EE04
:1064F000277A013B002BF5DAECB1F1EE477A029BEB
:10650000C3ED007ADDED2E7A77EEC77A2FAA01234C
:10651000994213DA0CB1F1EE677A029B08F007009A
:10652000C3ED017A56B0BDEC068BBDE8708F1FED50
:10653000147A0B46DEE7F0EE477AE0E7B2EC017A38
:10654000013377EE877AE3E700B589B0C378029329
:10655000837801934378009310210378054A0DEB6B
:10656000010028F0E5FD014604A83AF08DFA09B0D3
:106570005DF804FBC21C05082DE9704F0B685D68CF
:10658000136833F007038EB00E46934605F1040AF4
:1065900000F1FF3440D1012C02D0934845F02AFD90
:1065A000486839F0C3F940F2BB4398422FD00AD86B
:1065B00040F21E4398421BD040F2764398420BD0E3
:1065C0008A4845F0D5FD40F2BF439842F8D1504685
:1065D00011F0B2F9002805E06B6A002B00F0018190
:1065E0005B79002B0CBF0E201E200EB0BDE8708F13
:1065F0000AF10400FFF7A8FF0A9005F10C00FFF76D
:10660000A3FF0AA90B90022038F0CCFDEDE705F1BD
:106610001000FFF799FFE8E7002C00F08E80744827
:10662000BCE7DBF8083021461846FFF74FFD00288D
:1066300000F0828003EBC40253F83400009239F07A
:1066400075F940F2764398426AD057D8A0F21E40BE
:106650000128B5D8009B5868062800F0928000F009
:106660000703022B07D0830740F09E800368614A2E
:10667000934240F0998009A938F0D4FF2F21814638
:106680004AF096FB099A01900F2A28BF0F2249462B
:106690000AA890464AF086FA019B002B5FD0A3EB34
:1066A0000909C845A8BFC84603F1010948464AF090
:1066B000F7FA002301460A22484646F0F9FB3FF06C
:1066C000E5FE8146706839F031F940F21E43984288
:1066D00007D1C9F120094FF0FF3303FA09F31BBAC0
:1066E00006930EAB984405A900230AA808F8103CAD
:1066F00010F0F0FD002834D13F4862E740F2BB4380
:1067000098427FF45DAF009B04A9586838F08AFF77
:1067100003A910F0DFFD0028EED0039B2B610BE0F6
:10672000009B586842F0C0F8A8B1504611F004F937
:1067300050B1504611F00CFF0134DBF804309C429C
:10674000FFF46FAF062050E7504611F071FD504640
:1067500011F0D6FDF0E7504611F06AFDECE7EB686A
:10676000BEE7706839F0E2F840F21F43984201D169
:10677000224826E7706839F0D9F840F21E43984263
:10678000F6D1706839F0D2F840F21E439842D3D166
:10679000009B5B68062B1BBF059BAB600023069B21
:1067A00008BFAB60EB60C7E707AA02213FF0F8F92A
:1067B000079B08A9186838F035FF079B814608A990
:1067C000586838F02FFF05A98046484610F082FD32
:1067D000002891D006A9404610F07CFD0028D0D1B9
:1067E0008AE70E2001E700BFD71E0508F91E05083D
:1067F000EE1E0508C4380508CD1A0508FD1E05085B
:106800002DE970410B685D68012887B00E4605F1DF
:10681000040418D1201DFFF797FE029005F10C002B
:10682000FFF792FE039005F11000FFF78DFE049034
:106830002B48FFF789FE02A90590042038F0B2FC2E
:1068400007B0BDE870814A6842F2AA339A422046F6
:1068500022D111F071F860B1204611F079FE214D7E
:106860002E6842F21078204611F066F840B10620FA
:10687000E6E7204611F0DCFC204611F041FDEEE792
:106880002B689B1B434503D91749184845F094FBD7
:10689000642009F05FFFE6E711F0CAFC204611F022
:1068A000C7FC01AA706804213FF07AF9019B211D01
:1068B0001868FAF739FE019B05F10C015868FAF7E0
:1068C00033FE019B05F110019868FAF72DFE019B3C
:1068D00002A9D868FAF728FE014B029A1A60C6E7A7
:1068E00060400020ACE60020021F05086C36050859
:1068F0002DE97747DFF87480DFF86490DFF870A047
:1069000005460E464FF4807458F8042C62B946B11F
:10691000134B144A2146284628F00AFC292C10D98A
:10692000293CC4F580700DE058F8083C1E4213D095
:1069300000924B4652462146284628F0F9FB002893
:1069400003DA094803B0BDE870878442F9D958F8E2
