:020000040800F2
:10000000F8FF012069180508A71D0508951D0508BA
:10001000A91D0508B51D0508C11D05080000000043
:10002000000000000000000000000000CD1D0508D9
:10003000CF1D050800000000252005080DDA000886
:1000400001100008BD1E0508CF1E0508D51E0508B5
:10005000354E000801100008511E0508571E0508FE
:100060005D1E0508631E0508691E0508D5C9000840
:10007000C5C90008B5C90008A5C9000895C9000888
:1000800085C9000875C900080110000801100008A2
:10009000B3C20008ADC2000875C200086F1E050893
:1000A000E91E0508EF1E0508011F0508071F0508C2
:1000B0000D1F0508131F0508191F05088D1F0508CA
:1000C000931F050801100008011000080110000826
:1000D00001100008691F05086F1F0508751F050836
:1000E000931E0508C31E0508DD1D0508451F0508EC
:1000F0004B1F0508631F05085D1F050865C900083B
:100100000110000801100008211F05080110000857
:100110007B1F0508811F0508391F05083F1F0508BB
:1001200055C9000845C9000835C9000825C9000897
:1001300015C9000865980008C91E050801100008C7
:10014000011000080110000801100008D11D050869
:1001500005C90008F5C80008E5C80008871F05089C
:10016000011000080110000801100008011000082B
:100170000110000801100008011000080000000034
:08018000011000080110000845
:10100000FEE70000094B1A68D36823F0A003D36001
:10101000074B1868D168890601D500207047196808
:10102000091AB1F57A7FF5D90320704700400020F6
:1010300028E600200A4B1A68D368580601D500201C
:1010400070474FF0FF33D360064B1868D1684906EC
:10105000F5D41968091AB1F57A7FF7D903207047DA
:101060000040002028E600202DE9774105688DF832
:1010700007102C68D5E9010C1646E4B9D0E9033213
:101080001B049361EB686046D3F804800DF10702FE
:1010900023460121C047EB68A868D3F80480324694
:1010A00033460121C0476B68D3E903322046936180
:1010B00003B0BDE870811346DCF80C409DF80710C2
:1010C0000122A047F4E70000054B016810B51C6839
:1010D0000A68920703D41A68121B0A2AF8D910BDAD
:1010E00028E6002082B000230193064B5A6C42F49C
:1010F00080725A645B6C03F480730193019B02B0AD
:10110000704700BF0038024073B50023A1F11005FD
:10111000019390F83C30022D8CBF01240724012B51
:101120002FD00123092980F83C308EB203682AD9D8
:1011300006EB4602D3F80CC01E3A4FF0070E0EFA2B
:1011400002FE2CEA0E0CC3F80CC0D3F80CC004FA53
:1011500002F242EA0C02DA605A6B22F01F025A6372
:101160005A6B32435A631C4A934207D112291CD14D
:10117000D2F8043343F48003C2F80433002380F828
:101180003C3002B070BD1A6901EB410E4FF0070C04
:101190000CFA0EFC22EA0C021A61D3F810C004FA11
:1011A0000EF242EA0C021A61D6E7012DE6D80B4A8C
:1011B0005368102943F400035360DFD1084B094AF8
:1011C0001B68B3FBF2F20A2353430193019B002BEC
:1011D000D4D0019B013BF8E70020014000230140EF
:1011E0000000002040420F00C1070CD4820703D149
:1011F0000268064B9A4206D00E2804D0A0F11E03C6
:101200005842584170470120704700BFA04505086B
:1012100010F4FE7F02BF024B0422C3F8002E704779
:1012200000E100E04068162809D8064A0123116948
:10123000834021EA0301116111690B431361062008
:10124000704700BF003C01404368162B0AD8064A8D
:10125000D25C02F1047202F59E3203EBC2039B00E2
:1012600001221A600620704797C0002040684000A5
:1012700040F00100704700002DE97841074EDFF88B
:1012800020800C464518AC4201D1BDE8788114F8A5
:10129000012B314640464EF0C1FCF4E79427050887
:1012A00088430508054B994202D105494EF0B6BC6A
:1012B000D1E9012303494EF0B1BC00BFEC5E050843
:1012C0009A270508A22705084A6801494EF0A6BCDE
:1012D000BA27050838B5114D114C2A681149204626
:1012E0004EF09CFC6A68104920464EF097FCAA68B4
:1012F0000E4920464EF092FCEA680D4920464EF019
:101300008DFC2A690B4920464EF088FC6A690A491F
:1013100020464EF083FC062038BD00BF003C014053
:101320002C430508CB270508DC270508ED27050811
:10133000FE2705080F280508202805082DE9734F0A
:10134000364C237F012B81464FF0020520D02268C6
:101350006577012323779368067890F801B013F03E
:10136000400308BFC370CA21837890F8038051629C
:10137000532151620193FFF75DFE019B054658B171
:101380002368FF225A620423637700232377012511
:10139000284602B0BDE8708F18460EF072FF40EA92
:1013A000084830460EF06DFF48EA004858460EF0F7
:1013B00068FF48EA0023D4F800A003F07F3323F04D
:1013C000FE43CAF80030DAF8083023F48023CAF864
:1013D0000830D9E90331DAF808200B431343CAF87F
:1013E0000830DAF80C3023F08003CAF80C30DAF851
:1013F00008309B0609D4FFF705FE30B12368FF22B1
:101400005A62042363772577C1E72368FF225A6273
:101410000123637700232377BAE700BF0040002051
:101420002DE9704F2E4C237F012B4FF0020521D068
:10143000012365772377437890F803A090F8028022
:101440000678DA0642BF23F010030A33437023689C
:1014500090F80190CA225A6253225A62FFF7EAFDBD
:10146000054650B12368FF225A62042363770023A4
:10147000237701252846BDE8708F40460EF001FF16
:1014800040EA463850460EF0FCFE48EA004848461E
:101490000EF0F7FE48EA0020D4F800B020F07F40BC
:1014A00020F0C000CBF80400DBF80C3023F0800300
:1014B000CBF80C30DBF808309B0609D4FFF7A2FD0F
:1014C00030B12368FF225A62042363772577D0E77F
:1014D0002368FF225A620123637700232377C9E739
:1014E0000040002070B5032305460E46144628F040
:1014F00025FD88B9226882B1531E23602B681B78B2
:101500002371072B0CD82B68591C13449E42A160F1
:1015100018BF6FF065002B6070BD6FF05F00FBE7D8
:101520006FF06300F8E7000073B50C4601A940F0C6
:1015300037FD019BF3B1024603449A42154606D299
:1015400012F8011B2E29F8D030390929F5D9611E6E
:101550004FF00A0C03340023854202460DD801F8EF
:10156000013F8C4211D0954211D913782E2B0ED108
:10157000501CF0E7236002B070BD10F8016B2E2EF6
:10158000EDD00CFB0363303BE6E79542F3D0014816
:1015900046F036FA31280508014B186843F0ACBF15
:1015A000B0C0002008B508461146002245F064F896
:1015B000004808BD945F05082DE9784788464046F5
:1015C00011462F4A1E4645F057F82E494C2043F04D
:1015D00027FF0446306845F0D7FBB8F1010F0546F8
:1015E0000CD9706845F0D0FB8046AB1F062B3BD86A
:1015F000DFE803F03F3A073A423A38004FF0FF384D
:10160000F3E74FF00076DFF88CA000254FF00109DA
:1016100009FA05F313EA080F07D05AF8250020B19C
:1016200000231A4603210CF037FA0135102DEFD1B3
:10163000154B6360FFF756FD012200232262A26171
:1016400002F17062C4E90933C4E90B23C4E904332D
:10165000E660E361A3606363201D10F0F3FC2046A5
:10166000BDE878870026CEE7084909482A4645F0B4
:101670002DF94FF04076C6E74FF08076C3E700BF04
:1016800004000200605E05080020014035280508BE
:10169000F8430508E85A050870B50D460446FFF7FB
:1016A00033FD10F06FFC2046FFF70EFD2368DE6C63
:1016B00010F04CFC122D01BF034A536823F4800341
:1016C0005360304670BD00BF0023014010B5044692
:1016D000084645F059FB1028024605D0122803D9C8
:1016E0000549064845F0F2F8201D1146FFF7D4FFE2
:1016F000BDE8104043F000BF44280508F843050842
:1017000010B50446FFF7C8FF23685B6803F0407319
:10171000B3F1007F0BD0B3F1407F0AD0B3F1807FEB
:1017200014BF0C230A23C3F10C03984010BD0823F7
:10173000F9E70623F7E7000008B512210430FFF7A8
:10174000DFFF094B9FED097A93ED000A430007EE96
:10175000903AF8EE677ABDE8084067EE877A27EEA0
:10176000800A43F097BB00BF040000206740533A53
:1017700008B510210430FFF7C3FF124B9FED126A2A
:101780001A88124B07EE100AD3ED007A104BF8EED0
:10179000C76A07EE102A1B88B8EEC77A9B1A96EE26
:1017A000A77A07EE903AF8EEE77ABDE80840C7EE70
:1017B000866AF3EE0E7A87EE260A30EE270A43F0A9
:1017C00069BB00BF2C7AFF1F0000A042040000206C
:1017D0002E7AFF1F08B51121FFF792FF0A4B1B88D5
:1017E00007EE900A00EE103AF8EE677AF8EE406ADB
:1017F000064B86EEA77AB8EEC00ADFED057A83EDD8
:10180000007A20EE270A08BD2A7AFF1F0400002074
:101810006740533A08B50430FFF7DCFF054BDFEDB6
:10182000067A93ED000ABDE8084020EE270A43F04F
:1018300031BB00BF040000203333534008B50430EF
:10184000FFF7C8FFBDE8084043F024BB08B5816836
:101850000C30FFF721FFBDE8084043F04DBE00000B
:101860002DE9F04F8DB000AF0D46144607F114017D
:1018700007F10C0245F010F907F1080207F1100119
:10188000284645F009F97B6913B9534846F0B8F882
:101890003A69934201D05148F8E7BB6806221868BC
:1018A00007F1180144F070FD97F820100022402045
:1018B0003FF0FAFA3B699B00073323F00703ADEBD7
:1018C000030D0646EA4600253B699D4207D32046A4
:1018D00043F0BAFB424B834218D04248D6E7BB687C
:1018E000062253F8250007F1240144F04DFDFA6962
:1018F000BB6A9A4203D13A6AFB6A9A4201D03A48DB
:10190000C4E77B6A4AF825300135DDE7FB681D68CE
:1019100005F10C08A9684046FFF7F6FB10F032FB12
:101920004046FFF7D1FBEB68DB6CE3686FF0010228
:101930001A611A69D007FCD56FF0010119614FF0E7
:101940000008FB693960B3FBF6F34FF0010B7B60D5
:101950007B6898450DD1FB6818680C3010F0F6FADA
:10196000BBF1000F14BF1E200E203437BD46BDE86A
:10197000F08FE3681969C9070CD41969CA07FCD547
:101980003A681A6100257B69F968AB4205D808F10D
:101990000108DDE74FF0000BF2E751F8259009F15F
:1019A0000C00D9F80810FFF7AFFBD9F80C30996894
:1019B00041F080419960FFF787FBD9F80C305AF865
:1019C0002510DB6C97F82000012E08BF1B0942464A
:1019D0003BF076F90135D6E7572805086528050854
:1019E000306105088A280508782805082DE97F4F09
:1019F000144605460622084601A944F0C5FC9DF898
:101A00000C10002240203FF04FFA06462046FFF718
:101A1000EBFB002868D0204645F0B6F90023009380
:101A20004A4B1A6C42F010021A641B6C03F010034C
:101A3000804600930620009B0EF05EFC804550D847
:101A400006200EF059FC0122B0FBF8F3B3F5803FFD
:101A500044D23F493F480860013BCB6000230B6103
:101A60008B6091F83930013A4A60884603F0FF02F2
:101A70000BB981F838204FF002093749354888F80A
:101A800039900EF089F90122D8F8001088F8392031
:101A900088F839900B68DFF8B89013430B6088F82A
:101AA000392005F10C08A96840464FF0000BFFF7FC
:101AB0002BFB029BB3FBF6FAD34521D1404610F035
:101AC00045FA2046FFF790FB10B148460EF01CFA8D
:101AD000029843F011FD04B0BDE8708F5B0852001E
:101AE000B4E701221346B4E7204643F0ADFA1B4B9E
:101AF000834202D01A4845F083FF04F10C09D0E775
:101B0000D9F800301969CA07FCD56FF001021A61D3
:101B1000BBF1000F13D1404610F034FA4046FFF7F6
:101B2000D3FAEB680199DB6C9DF80C00012E5A4644
:101B300008BF1B093BF0C4F80BF1010BBCE7E968D7
:101B40008B6843F080438B60E8E700BF00380240B9
:101B50002040002000100040244000203061050893
:101B60008A28050870B51C46084611464FF0021237
:101B700044F082FD2668F10705D4B20730D13268FF
:101B8000274B9A422CD1304645F0FEF810280546E6
:101B900034D154204FF00EFC002104464422103072
:101BA0004FF0F8FE1F4BA560C4E900361E4BE36002
:101BB000FFF798FA01220023A262226202F170620A
:101BC000C4E90B33C4E90D23C4E9063363616362DE
:101BD0002361E36304F10C0010F034FA204670BD79
:101BE00030460AF0FFFE837A9B0704D442680F490F
:101BF0000F4844F06BFE8568C5F30435122D02D9F9
:101C00000C492A46F4E70F2DC3D80B4B53F8250097
:101C10000028BED000231A4603210BF03DFFB8E791
:101C2000A04505087C5E05080020014094280508B1
:101C3000F843050844280508E85A050838B50D4654
:101C4000044607494DF0ABFD69682046002245F087
:101C5000E7FBAA6803492046BDE838404DF0DEBFE7
:101C60009B280508B69C06081FB5084611461A466B
:101C700002AB01931A4B0093022345F019F9DDE9F9
:101C800002321340013329D01649102043F0C8FB1B
:101C9000029B0022591C02730AD0934205DBB3F564
:101CA000001F02DAC3F30B021AB1002045F0A8FEB0
:101CB0001346039A511C06D1C3F50012C0E9013244
:101CC00005B05DF804FB002AEFDD9918B1F5001F9F
:101CD000EBDCC2F30B010029F0D0E6E70248EFE7A6
:101CE0004C350508085F0508EC5E050813B5194B6F
:101CF0000124E0B100221A6000230193164B1A6CF4
:101D000042F080521A641B6C03F080530193019BD4
:101D10000EF026FF114B124918680A68D20509D542
:101D20000D4B1A6F7CB142F001021A6706E01C608D
:101D30000446E1E71A68121A022AEED9094B012279
:101D40001A7002B010BD22F001021A671A6F22F059
:101D50000402EAE7800E47420038024028E60020ED
:101D600000700040B4C00020012808B50B6806D1FF
:101D7000586807F023FE400040F0010008BD01480C
:101D800045F03EFEA428050808B5406807F016FE99
:101D900003280CBF1E200E2008BD00002DE9704F47
:101DA00001280C688AB009D1606807F007FE002896
:101DB00014BF1E200E200AB0BDE8708F486843F0A3
:101DC00037FA002800F033826468204607F0CAFC26
:101DD0000021204607F038FEEFF3108272B63D4B2B
:101DE0003D4D3E4800219960DD601861BFF36F8F63
:101DF000BFF34F8FBFF35F8F82F31088384B394E9C
:101E00001A6942F000721A6102915A6C42F48042DF
:101E10005A645A6C02F480420292029A324A516821
:101E200021F400015160516851601A6922F000727A
:101E30001A611A6D42F000721A651A6D42F08062E2
:101E40001A651A6D42F000621A65012333600220A0
:101E50000EF0F0FC254B1A689946336813F0010820
:101E600029D1234B234A1B6893422DD9224A9342FE
:101E70002CD3224A93422BD9214A934294BF042364
:101E80001023204A1361E06F4FF40042002107F055
:101E9000C3FD32200EF0CEFCD9F8003001930026AD
:101EA00042F2107BD9F80030019A9B1A5B452BD97E
:101EB00007F03CFC05E0D9F800309B1AB3F57A7FB7
:101EC000CBD96E2045F0ACFC0823DAE70C23D8E729
:101ED0004346D6E790ED00E0008000201B000C1385
:101EE00000380240009002400038014028E60020FF
:101EF00000000020BF0E160200879303FFE0F505E7
:101F00007FD1F008008002400021E06F07F02AFD39
:101F100001218246E06F07F025FD012E00F0498186
:101F2000022E00F057811EB90FFA8AF6F643F60F1B
:101F300002200EF07FFC032EB4D1D4E91F03984792
:101F4000BE4B00261E601FFA80F902200EF072FCC4
:101F500041F21C03BA4ABB49D150BB4933464FF04A
:101F6000004E44F2F45C05261A0105EB031045F817
:101F700002E00133B3FBF6F202EB82029A1A05EBA0
:101F80000212052BC0F804C08160C26001F2F45156
:101F9000EAD1AB4941F20C024FF480168D5043F662
:101FA000284100226A501046511D4FEA011C05EBE2
:101FB000011145F80C60486005EB021C0132B2FBD0
:101FC000F3F101EB8101511A053105EB0111052AED
:101FD000CCF85800CCF85C10E6D1994E9B4A41F2FF
:101FE0001003F25043F62C434FF00872E85041F2D0
:101FF00018030220F2500EF01DFC4FF000437360F6
:1020000002200EF017FCA38F336402200EF012FCA6
:10201000A36B736402200EF00DFCB9F1050F00F004
:10202000DF80B9F1020F00F0DE80B9F1060F08BFC2
:102030004FF49048C6F8008002200EF0FBFB336896
:1020400043F00C03336002200EF0F4FB41F218025F
:102050000220B35843F4005343F00203B3500EF090
:10206000E9FB7B4BF02583F83D533D200FF0E0F872
:1020700078486FF07F43CDE9073000264FF00833F2
:1020800006960993EFF3118885F31288724BDFF8F7
:10209000F091A3614FF6FF73636343F26503A4F805
:1020A000403099F8003084F84230251D6B4B636155
:1020B00006A908AB2846C4E90266266184F83F6099
:1020C0006662A662E6626664246207AA1AF0C2F833
:1020D000634BE361634BA3613A2384F83F30624B67
:1020E0006363624B186849469C4694F84230FF2B64
:1020F00008BF84F8426094F842200346002B75D153
:10210000FE2A01D0531CDBB20B7060605849CCF83A
:102110000050284615F078FA50B102234372037B31
:1021200001330373636C1BB1514901222846984760
:102130000121002228461AF003F84E4B23634E4B30
:102140001D6094F83F30D9070FD443F0010384F8A1
:102150003F3008210123284603AA8DF80C3019F0DE
:10216000EFFF032128461AF00FF8444B099A1A6032
:1021700004F148033422184600214FF00BFC606242
:10218000284616F02DF994F83F305A074BD443F007
:10219000040384F83F30636ACBB35A79052A2FD8F9
:1021A000022A2FD89AB300229A71284615F094FD7E
:1021B0002DE043077FF5BCAEE06F40F2E112042151
:1021C00007F02AFCE06F4FF48052002107F024FC56
:1021D0000226ADE600F02400242808BF0326A7E667
:1021E0004FF4006826E74FF4804823E793F83EE079
:1021F000964503D1013284F8422076E71B687DE7DB
:102200000A2AD0D100229A71284616F04FF90321EC
:10221000284619F0B9FF012303AA042128468DF8A6
:102220000C3019F08DFF88F311880620C3E5606833
:1022300007F098FA07F07AFAF7E700BF009002403B
:102240000080024040000100A0800020508000205B
:1022500000E100E0C0A800012BB50108D59A0108F3
:102260007D7A0008ED770108001FDC0518C000200A
:102270005C4000200800002014C0002060400020C6
:102280001CC000202DE97841194C4FF0030804F5DB
:10229000EA76A4F1080554F8043F1A071AD1D5F8D4
:1022A0009022981AC0F3011193424FEA901C4FEA12
:1022B00041014FEA10100DD3D5F89422934209D270
:1022C000D5F8842212F80CE04EFA01F303F0030370
:1022D000012B03D0A642DED1BDE8788108FA01F1D6
:1022E00041EA0E0102F80C104EF08CF8F2E700BF44
:1022F000885201201FB50223009303AB3EF052FE2B
:10230000039B23B10B2B08D0184645F089FA4000F7
:1023100040F0010005B05DF804FB0620FAE700007C
:102320000C4B4FF47A721B68B3FBF2F3013BB3F131
:10233000807F09D2084A5360084BF02183F82310AC
:102340000023936007231360044B0020DA6883F8AE
:10235000230070470000002010E000E000ED00E0E6
:10236000431C14BF00F16040064B4FEA011118BF37
:1023700000F56140C9B214BF80F8001383F8231040
:10238000704700BF00ED00E0924B37B59A6802F04D
:102390000C02042A07D09A6802F00C02082A1DD108
:1023A0005A6851021AD58B4B1B6803689D0733D5B9
:1023B000884B9A6812F00C0F07D09A6802F00C0252
:1023C000082A59D15B685C0256D4824B1A6891077F
:1023D00015D5C268012A12D001200EE01A687D4985
:1023E00042F480321A607C4B1C680A689203DCD489
:1023F0001A68121B642AF8D9032003B030BD19688B
:102400000369F82292FAA2F2B2FA82F2934021F022
:10241000F801704A0B43136003681C0749D4036832
:10242000590724D5002301936A4B1A6C42F080525D
:102430001A641B6C03F080530193019B674B1A686D
:1024400042F480721A60644A14681968C9054BD551
:102450008168604B01294CD1196F41F00101196766
:1024600014685C4941F288350B6F9B075DD5816923
:1024700000295FD10020C0E7C168574B584A69B1B5
:10248000012111601C6853490A68920701D5096847
:10249000B6E71A68121B022AF6D9ADE711601C686C
:1024A0004C490A689507B7D51A68121B022AF8D951
:1024B000A2E74169484B4B4A59B1012111601C68A0
:1024C00044494A6F9207AAD41A68121B022AF8D903
:1024D00092E711601C683F494A6F95079FD51A68BB
:1024E000121B022AF8D987E71168091B0229ACD907
:1024F00082E7052904D1196F41F004011967ABE7A0
:102500001C6F24F001041C671C6F24F004041C677A
:102510000029A5D1146841F28835196F8907A6D51D
:102520001168091BA942F8D966E713681B1BAB4267
:102530009AD961E7274B9A6802F00C02082A3FF407
:102540004BAF294C244A02294FF00001216036D1BB
:102550001568196889012DD4D0E907150D43416A22
:1025600047F6C07393FAA3F3B3FA83F39940836AEF
:102570005B082943013B4FF4403595FAA5F5B5FAC0
:1025800085F5AB400B43C16A4FF0706090FAA0F044
:10259000B0FA80F081400B430E494B600123236069
:1025A00010680B689C013FF565AF13681B1A022B7E
:1025B000F7D921E71168491B0229CAD91CE710681D
:1025C000196889017FF556AF1168091A0229F7D9F0
:1025D00012E700BF0038024028E6002000700040EB
:1025E00000004742800E47426000474210B58AB063
:1025F0000B4C03A84DF08CFE059B00930949DDE9C7
:10260000032320464DF00AFB069A099B0192009392
:102610000549DDE9072320464DF000FB0AB010BD57
:102620002C430508B0280508D42805082DE9704F6B
:10263000DFF868B14B49DBF890224B484DF0EEFAD9
:10264000DBF88822920078D0DFF85491DFF8188107
:10265000DFF850A100250EE0012E3DD02E22434987
:1026600040464DF0DBFADBF888320135B5EB830FDD
:102670004FEA830261D215F03F0610D005F0030641
:102680007600DBF88422AB08D35C43FA06F606F04A
:102690000306022E1ED0032EDED16D22DFE7DBF80B
:1026A00084122C46A00804F00303085C5B0040FA87
:1026B00003F39B0702D101349442F3D3621B7F2AB8
:1026C0002FD805F0030676002A01494640464DF012
:1026D000A5FAD6E73D22C2E7DBF89012244B2A0187
:1026E0008A589A4230D0234B9A422FD0224B9A429A
:1026F00030D0224B9A422BD0214B9A4228D0214BEA
:102700009A4229D0204B9A4226D0204B9A4227D079
:102710001F4B9A4222D01F4B9A420CBF4D22682277
:102720009DE79209514640464DF078FADBF8883231
:1027300024F03F05B5EB830FC6D3BDE8704F1649B3
:10274000012200204CF0CEBC542288E74C2286E7C0
:10275000532284E7442282E7412280E742227EE737
:1027600046227CE71C2905082C4305085C2905083E
:1027700060460508C8450508CC4405082C460508F0
:1027800084440508504405081C440508FC44050819
:1027900020450508F845050818290508805201203C
:1027A000542905083829050870B54668B142044621
:1027B00028BF31460D4601214EF0F8F8A368681C89
:1027C0005919721B18444FF0CDF86368A0680133A3
:1027D0006360284470BD00007FB5054610200C469C
:1027E00016464EF0E7FD0023C0E90034084B029383
:1027F000084B0190039304AB13E90E00846034444A
:10280000C460284604B0BDE870404BF0AFB900BFCB
:10281000C1EF04084DFD04080EB403B50549064890
:1028200004AA019243F0F0FF02B05DF804EB03B09C
:10283000704700BF5F290508F84305082DE9704F70
:102840000B4601EB020804460D460022984517D8B6
:10285000002A0CBF272622262149DFF89490DFF8B2
:1028600094A0DFF894B0324620464DF0D7F9A84541
:1028700010D8324620461A49BDE8704F4DF0CEB907
:1028800013F8011B272903D02229DFD12726E3E7EC
:102890000122DBE715F8012B964205D1114932469A
:1028A00020464DF0BBF9E2E75C2A04D10E492046F0
:1028B0004CF075FFDBE71F2A03D97E2A0DD80849A3
:1028C000EEE70A2A01D10949F1E70D2A01D159465B
:1028D000EDE7092A01D15146E9E74946E0E700BFA3
:1028E0005C2905086B2905086F2905087229050868
:1028F0007B29050878290508752905082DE9734FF6
:10290000704ADFF8C8A100230C684FF0010C0CFAE4
:1029100003FC0CEA04053CEA040440F0BD804C686A
:1029200024F01009B9F1020F16D14FEAD30800EBD9
:10293000880803F0070BD8F820604FEA8B0B4FF0A4
:102940000F0E0EFA0BFE26EA0E0E0E6906FA0BF6B5
:1029500046EA0E06C8F82060D0F800E04FEA4308C7
:10296000032606FA08F66FEA060B2EEA060604F0BE
:10297000030E0EFA08FE09F1FF394EEA0606B9F118
:10298000010F066011D886680BEA060E022606FAC9
:1029900008F646EA0E068660466826EA0C0CC4F382
:1029A00000169E4046EA0C064660C6680BEA060B17
:1029B0008E6806FA08F646EA0B06C660E6006BD596
:1029C0004FF0000BCDF804B0DAF844C03E4E4CF4A2
:1029D000804CCAF844C0DAF844C00CF4804CCDF8FE
:1029E00004C0DDF804C023F0030C0CF1804C0CF59E
:1029F0009C3C03F00308DCF808904FEA88084FF08D
:102A00000F0E0EFA08FEB04229EA0E0E4BD006F564
:102A10008066B04249D006F58066B04247D006F5E0
:102A20008066B04245D006F58066B04243D006F5D8
:102A30008066B04241D006F58066B0423FD006F5D0
:102A40008066B0420CBF0726082606FA08F646EA5A
:102A50000E06CCF8086016686FEA050C14F4803F87
:102A60000CBF06EA0C062E431660566814F4003FAD
:102A70000CBF0CEA06062E435660966814F4801FBD
:102A80000CBF0CEA06062E439660D668A40254BF1B
:102A90000CEA06062E43D6600133102B7FF434AFC8
:102AA00002B0BDE8708F5E46CFE70126CDE7022673
:102AB000CBE70326C9E70426C7E70526C5E70626B0
:102AC000C3E700BF003C0140000002400038024064
:102AD00038B5044609200D4619F058FD40B10023D1
:102AE000C0E9003343730123048144810573C3812A
:102AF00038BD49B14B8E3BB1282B86BF283B9BB2DA
:102B00000023984228BF1846704714312DE97043BE
:102B100089B28046914622204FF420721E4619F059
:102B20009BFD0546D8B1BDF8183044685BBA76BA4B
:102B300063802680C4F8049040461AF0F5F89DF8AA
:102B40001C30A0601B0243F05003A381BDF820306D
:102B50005BBAE381002323746374A374E37428468F
:102B6000BDE870831FB5438D029310230193038B3F
:102B70000093C38A0446406AFFF7C7FF18B1628D0D
:102B8000636A1344E36204B010BD70B50C4694420E
:102B90001E469DF81410049B1AD25D8B6D0617D447
:102BA00019B1D96E09B91B6F93B104F2233525F021
:102BB00003018A4228BF0A4691B24FF4207219F0ED
:102BC0004BFD20B143891B1B33800481448170BDC0
:102BD0002146F2E72DE9734F036801930DF1040CD0
:102BE0000C46042200254FF00A0E4FF02E081CF868
:102BF000010B0026B0FBFEF382460EFB13090DF11C
:102C0000080BD8B233469B44013609F13009BAF1BA
:102C1000090FF6B20BF8089CECD80CF8010C2E4604
:102C20002046FF2B05F101050DD10F2E18DC0446BF
:102C3000013A12F0FF0204F8018BD8D10270084665
:102C400002B0BDE8708F5C1E0F2EE4B208D802AE51
:102C500033442E4613F8083C00F8013B2346E0E7D6
:102C60000020EDE72DE977410A4C05460E469046D7
:102C700001AA05212846FEF7F7F938B9019B334030
:102C8000434503D0013CF3D16FF06D0003B0BDE8C4
:102C9000708100BF41420F0010B5064CD4F81832C5
:102CA000217A5B68201D9847D4F824020DF0EAFDD4
:102CB000002010BDE4D0002010B5124C012384F890
:102CC0000032D4F81832217A5B68201D9847D4F876
:102CD00024020DF0D7FDD4F824428CB1032384F8EC
:102CE000B93320460DF0CEFD2368B3F1A04F01BFEC
:102CF000054A536B23F080035363002384F8B933F0
:102D0000002010BDE4D0002000380240114B1B68A9
:102D10005B68C3F342320270C3F30352C3F303414F
:102D200002EB820201EB4202C3F30031C2708A005F
:102D30001144C3F3032202EB41024270C3F30112B8
:102D400002EB820203F00F0303EB420383700020C7
:102D5000704700BF00400020154B1B689A6A426014
:102D60001A691B68C2F30E028260C3F3064202F0C6
:102D70004001C170C2F3011101EB810102F00F02A9
:102D800002EB41020270C3F30232C3F3032102EBF0
:102D9000820201EB42024270C3F3021202EB820292
:102DA00003F00F0303EB420383700020704700BF62
:102DB000004000202DE97043D0F80090DDF8288015
:102DC000DDE90656DDE908CEB9F1000F16D04BB9A2
:102DD000CC1EE4B2082C04D80B4B53F824306BB152
:102DE0005B785BB1D9F814405CB1CDE9076CCDE9F3
:102DF00009E80695A446BDE8704360470348BDE86E
:102E000070830348FBE700BF5434050880C1FFFF0F
:102E100000C1FFFF38B50C4605460121204625F0CC
:102E20009FFA28B921462846BDE8384025F00BBA5C
:102E300038BD00002DE970471C46C36B8BB00646B9
:102E40008946904623B9404C20460BB0BDE87087B8
:102E500000F1800300F1600200F1980A04A80393D6
:102E6000029224F063FEDDE902238CBB364C04A8F9
:102E700025F0D0FC002CE7D1504625F0BEFAB0F585
:102E8000806FE0D8F26B12F0070518BF012505EB43
:102E9000D205C9F80050304624F06BFE022848D114
:102EA000B6F89E30D6F898C0B5EB830F4FEA830092
:102EB00031D82B46984221D12E460023B3422CD143
:102EC0008542C1D92A1A002140444EF063FDBBE778
:102ED00012993046CDE9004104A92AF0A7FE044624
:102EE0000028C4D1014608A825F0C0F90028BDD0AB
:102EF00004A9504625F034FB0446B8E723F0030646
:102F000003F00302D1005CF80620CA4012F0FF0F64
:102F100016D10133CEE70646CFE723F0030E03F0C8
:102F20000302D1005CF80E20CA4008F803200133E8
:102F3000C4E72A464146504625F0D9F9044683E7BE
:102F40006FF0070480E700BF80B0FFFF2DE97343F7
:102F5000DDF820901C4616464B462246054688461C
:102F60002AF0F4FC48B905F11C034CB1CDE9004945
:102F70004246314628462AF059FE02B0BDE8708329
:102F80000048FAE780B0FFFF70B40568DDE9036C24
:102F90008DB14BB9CC1EE4B2082C04D8084B53F8C1
:102FA000243043B15B7833B12C693CB1CDE9036C7B
:102FB000A44670BC6047034870BC70470248FBE7FA
:102FC0005434050880C1FFFF00C1FFFF37B502235D
:102FD000154601AA044626F0B1FF18B9019B1BB99A
:102FE0006FF0630003B030BD236893F90030002B0D
:102FF000F6DB019B3BB122681178A1B1042BEFD81D
:1030000001D10B06ECD400232B60019B5A1E0192C8
:10301000002BE7D02368296813F8012B42EA01222C
:103020002A602360F1E70132013B22600193E0E76F
:103030002DE9704F9AB01E46002304900C4690462E
:1030400005460093EB69A3B1D5F8903100954BB9D3
:103050004FF4CA71012020F01BFDC5F8900118B98A
:10306000994E60E01D46EDE71AF0B7FE0095D5F8E1
:1030700090510020CDE90B00CDE90D00CDE90F0006
:10308000CDE911001390002D00F0C083002C00F05A
:10309000BD83302306AA04EB080107A8CDE9068406
:1030A00026F04CFF80B128461AF062FE874E009B46
:1030B0001BB1009A0023C2F89031049B9D4232D08C
:1030C000284620F0B5FC2EE0DDE9063202EB0309CC
:1030D000A9EB0401A96056B3012020F0D9FC0790A8
:1030E000E860002800F09083AA6821464EF00CFCAE
:1030F0000123AA682B60069B0799D31A0B440793F8
:1031000001EB0209079BAB6106AA3023494607A8D9
:1031100026F014FF064668B12846A6F506561AF0B2
:1031200027FE002EC3D130461AB0BDE8708FEC6088
:103130002E60E7E7DDE9063202EB0308AB69A8EB96
:1031400003036B6117AAA023414607A826F0F6FEE9
:1031500090B310F1620F2BD1EE61079BA8EB030235
:10316000002A45DD1A7802F07F02022A42D15A1C59
:1031700007921B782B6205F12402414607A826F02E
:10318000ADFE78B3B0F50A5427D10BAB05F12C0294
:10319000414607A826F0E6FE10B1B0F50C541CD14C
:1031A000EB69022B28D928461AF0E2FD484E7EE74B
:1031B000A0F506548CB9D0E71799079E0E4405F187
:1031C0001C02314607A8FFF701FF10B1A0F5085413
:1031D000F0E7079B9E42C0D03E4C28461AF0C8FD3F
:1031E000264664E7079B6A6AAB6213440793CCE701
:1031F000394CF2E7394CF0E70133EB61D5F88C310B
:1032000083B9374C206808B9364CE6E72B6B626807
:103210009A4205D1696B4EF0D3FB002800F0088379
:103220001434EFE7304CD8E7304CD6E71799079EB7
:103230000E4405F19002314607A81AF0F9FD044644
:103240000028CAD105F1A802314607A81AF0F0FDFE
:1032500004460028C1D1079B9E4200F02283244CE3
:10326000BBE7079ED5F8F010C5F8F460A3230E4421
:10327000C5F8EC3017AA3023314607A826F05EFEC9
:10328000002840F06D83079B179A13449E4200F07C
:103290006C83184CA1E70023CDE9143316930993EE
:1032A0000299302308AA07A826F048FE30B3A0F5FB
:1032B0001454002C91D1079B984500F05B8228465E
:1032C0001AF056FD0C4EF2E680D7FFFF80DEFFFFBE
:1032D00080DAFFFF9ADDFFFF20DDFFFF1EDDFFFF2D
:1032E000CC460508D2D9FFFF00D8FFFF00DDFFFF65
:1032F0009ADBFFFF9ADAFFFF1ADEFFFFDDE9072303
:1033000002EB030A5146062315AA07A826F016FE6B
:103310000028CCD10623159A1493079B1693514687
:10332000134407A809AA079326F08EFE10B110F1E6
:10333000620FBCD1042308AA514607A826F0FEFD5F
:103340000028B4D1DDE907631E44B245A1D1DDE90F
:1033500015B1AA4C206830B9099B0796002B00F0E4
:103360000883A74C39E763685B4507D15A4601914A
:103370004EF026FB0199002800F051821434E9E751
:103380001A43202BC5F8582100F03E8110DC013B88
:10339000072B00F2E981072B00F2E681DFE813F04A
:1033A000D600BD00E4015800E401E401E40162013B
:1033B000B3F5006F74D0B3F5803F00F03C81B3F5F6
:1033C000807F40F0D181C5E95711302317AA3146DB
:1033D00007A826F0B3FD28B1A0F51454002C00F086
:1033E000C882FAE6079B9E4200F0C38205F5AE72E2
:1033F000314607A8019226F027FE78B110F1620F3E
:10340000019AE9D1314607A8FFF7E0FD0028E3D192
:10341000D5F85C3113B10123C5F85C31079B9E429E
:1034200000F0A78205F5B072314607A8FFF7CEFD80
:103430000028D1D1079B9E427FF42BAFD5F8603195
:103440006FF00042934266D00133C5F8603190E2DC
:10345000002317AA314607A817938DF860301993F7
:10346000FEF740F820B1B0F5145400F08282B4E6C3
:10347000179B13B9C5F864317BE21999C5F864014B
:103480000A5CC40002FA04F4D5F864210130224336
:103490008342C5F8642100F06C820428F0D168E210
:1034A000062305F5B4701022CDE917304EF072FAFC
:1034B00030230AAA314607A826F040FD0028D2D1C1
:1034C000079B0A9A13449E421DD06FF06500CAE71D
:1034D0005A1C079293F800A0BAF1060F40F09C81A5
:1034E0000AAA314607A826F0F9FC0028BBD10A9B9E
:1034F000079A514617A824F085F90028B3D1079BF5
:103500000A9A13440793079B9E42E1D8D5F870317D
:10351000002B40F02E823B4C5FE60023179317AA46
:103520000423514607A826F009FD00289BD1042357
:10353000179AC5F80831079BC5F810311344C5F830
:103540000C2107939A4500F01482A2E600231793FA
:1035500017AA3023314607A826F0F0FC00287FF494
:103560003BAF079B179A13449E427FF492AE802391
:1035700017AA314607A826F0E1FC002839D1179A8E
:10358000079BC5F81C3104211344C5F81821C5F860
:1035900014110793079B9E4228D9A12317AA3146ED
:1035A00007A826F0CBFC00287FF416AF0799179BDD
:1035B00005F59072194407A81AF074FD0446002816
:1035C0007FF40BAE822317AA314607A826F0B6FC7B
:1035D00000287FF401AF179A079BC5F83831022104
:1035E0001344C5F83421C5F830110793079B9E4258
:1035F000A9E710F1620FCDD0EEE600BFE447050861
:103600009EDAFFFF9CDAFFFF302317AA314607A896
:1036100026F094FC00287FF4DFAE079B179A134432
:103620009E427FF436AE05F1F802314607A81AF043
:1036300039FD0446D2E617918DF86010199117AA4A
:10364000314607A8FDF74EFF00287FF40CAF179B0B
:1036500013B985F878318CE1012B7FF45CAF199BAD
:103660001B78F6E70DF15C0B30235A46314607A86C
:1036700026F064FC044668B1A0F51454002C00F058
:103680007881099B002B7FF4A8AD14F5025F00F050
:103690007081A2E5179A079B13449E4260D1002ACD
:1036A0005ED005F5A47A079B9E4205D84FF0000333
:1036B000CAF80C30E2D053E030235A46314607A80E
:1036C00026F03CFC10B1A0F51454D7E7079A179BDD
:1036D000D3180193019906235A4607A826F02EFC19
:1036E0000028F0D1179A079B0393042A3AD1194670
:1036F000A54805924EF064F9A44B059A002818BF1E
:103700001C46DAF8083073B1DAF80C300592002B59
:103710007ED11021012020F0BBF9CAF80C0000284E
:1037200078D0059A82460623CAF80030039BCAE97E
:103730000123079B179A1344019A07939A420BD9C6
:10374000019930235A4607A826F0F8FB0028BAD181
:10375000079B179A13440793079B019A9A42A2D09A
:103760008B4C8EE7894CCCE7099B002B40F00981FC
:103770000796FEE00EAB11AA494607A826F0F2FB19
:1037800018B1B0F50C547FF428AD2A6B129B9A4205
:1037900013D11399686B4EF013F9064668B90B9A6A
:1037A0000E9B9A4209D10C9A0F9B9A4205D14AB1BD
:1037B00010990D984EF004F920B128461AF0D8FA65
:1037C000744E74E4079BA9EB0302002A1ADD17AAC2
:1037D000494607A81C7826F010FC40B1B0F51254F9
:1037E0007FF4FBAC079B99453FF49DAC67E5C5F8BA
:1037F0007C41179A079BC5F884311344C5F8802192
:103800000793EFE7644CE8E4644E50E4644E4EE402
:10381000644C36E7644C34E76FF0610023E62369BB
:10382000D5F8582112EA03013FF4AAAD5D4CD4E467
:10383000237C85F88831637C85F889310B9B052BC7
:1038400002D0002B7FF4F0AC0C9B002B7FF4ECAC8F
:10385000079B2B6406AA3023414607A826F06EFB7F
:10386000064600287FF458ACDDE9063105F1500228
:10387000194407A81AF08AFB044600287FF4ADAC6F
:103880002A6C079B9B1AEB6317AA3023414607A8B3
:1038900026F054FB00283FF4C9ACB0F510547FF477
:1038A0009CAC079BEB6406AA3023414607A826F090
:1038B00045FB064600287FF42FAC069B53B10799C1
:1038C00005F17002194407A81AF060FB04460028AD
:1038D0007FF483AC079AEB6CC5F8C820D31AAB64AD
:1038E00005F1CC02414607A823F0D0FC044600288D
:1038F0007FF473ACD5F8C820079B9B1AC5F8C43079
:10390000EB69023B012B19D8012305F1D402414692
:1039100007A81AF06FFA044600287FF45EACEB6942
:10392000023B012B0AD8022305F1E002414607A819
:103930001AF060FA044600287FF44FACEB69032BC1
:103940007FF4B9AC079B98453FF414AFA32305F16E
:10395000F002414607A826F0F1FA00283FF481ACB6
:10396000A0F51454002C7FF438ACD5E93C32D318C0
:103970000293079B029A9A423FF68DAC3FF49BACB0
:1039800087E4024C29E400BF4E34050880DFFFFFC6
:103990009ADAFFFF80D9FFFF20DBFFFF80D7FFFF10
:1039A00000D8FFFF00DBFFFF96DAFFFF30B597B0CE
:1039B0006FF00403054604A801934DF0B7FD0446DB
:1039C00088B9114A029502A940F2EA6502200395DE
:1039D0002CF032FA28462CF0DFFB01944DF0CAFDA2
:1039E000019817B030BD059C084920683DF022FCC5
:1039F0000028F5D0204641F099FB01A942F0E8FBF0
:103A0000019B5B420193EBE7A8420508D4430508FC
:103A1000012973B5056806460C4625D92B6A9942DB
:103A200022D22146306801942DF0A4FA019904466F
:103A300010B9002002B070BD012815D0431C15D06C
:103A4000002228462DF0EEFD0028F3D12A6AAB694A
:103A5000911E8B4205D20133AB612B7A43F00103F7
:103A60002B729442DDD3E4E70220E3E70120E1E793
:103A70002DE9704195B0494B0193022106462DF086
:103A8000F1FB0446002838D102AD4FF020330293F9
:103A900080466B60C5F80730019B1B781F2B25D82B
:103AA0009DF80830E52B27D0B8F1000F04D008F1BD
:103AB000FF33EA5C202A3ED0002108A808960A912C
:103AC0002DF00FFB0446C0B9012108A82EF0FCFB25
:103AD00000283BD10F9BB8F1000F2ED003CD18600A
:103AE00059602988AA789A72198128E001A82CF0D7
:103AF00077FFB0F5803F04D30624204615B0BDE81B
:103B000070812CF015FF7F2809D880B20028F3D0EF
:103B1000234A12F8013B43B19842FAD1ECE7B0F5E1
:103B2000803FE9D22CF048FFF0E7FF2824D8B8F115
:103B30000A0F2BD9E0E79846B6E7E5221A70012371
:103B4000F37130462DF08BF90446D6E70428FBD1FB
:103B5000B8F1000FD1D0012108A82EF0C3FC044613
:103B60000028CAD1202201460F984DF013FF0F9B69
:103B70000822DA720F9BB1E7B8F1090FBCD814AB79
:103B80004344020A03F8482C08F1010814AB4344EB
:103B900008F1010803F8480C7EE700BF82290508F8
:103BA0005C3605082DE9704F86B08046894616467A
:103BB0009A4600240DF1100B0F9BA34203D800205E
:103BC00006B0BDE8708F0F9B1D1B0E9B082D28BFF4
:103BD0000825E318CDE900A3CDE902B5331B4A4619
:103BE0000021404627F02CF90028E9D1109B2A46F5
:103BF0001868594626F08AFF109B2C441860DBE7B2
:103C00002DE9704F86B081468A4616461D4600242F
:103C10000DF1100B109BA34201D800201EE0109B59
:103C2000A3EB04080E9BB8F1080F28BF4FF008085B
:103C3000E318CDE90053CDE902B8331B5246002109
:103C4000484627F0FDF848B90F9B424619195846D7
:103C50004DF0B6FE002804D005DB022006B0BDE81A
:103C6000708F4444D6E70120F8E700002DE9704F3B
:103C70002DED028BAAB000249A46BDF8DC300493E7
:103C8000CDE90A44BDF8E030069308EE100ABDF90C
:103C9000E43005938B461546A146504627F07EF842
:103CA000DBF80C3000EB0508984564D209AACDE991
:103CB000018204230393DBF80020009218EE100A1F
:103CC00018EE102A002127F0BBF8002840F01B81D5
:103CD000099B1BBA8AEA030ADBF800300A934AF010
:103CE000004A08F10403CDF824A00B930AAE099909
:103CF000369B81EA09021A40854B1A4039D1369B1E
:103D0000C3F38923002B00F0A0803C2565432AAB38
:103D10002B44349843F86C0C359843F8680C36986B
:103D200043F870AC43E91909049823F85C0C069831
:103D300023F85A0C059823F8580C3A9843F8540C79
:103D40003B9843F8486C43E91401DDE90A0143E973
:103D50001EB8443B83E803002AAB1D44A5F14C0385
:103D6000CDE905223B936B4B3692013491463A9351
:103D70000492454691E7359B002B40F3C280349B6B
:103D80001B680993349B5E6808333493359B013B71
:103D90003593A846ABE7B2F5817F1DD1002509997F
:103DA000C1F309039D42E4D2059B7268C1F38921E6
:103DB0001944B36843EA8121337803F5407341EA3B
:103DC0000351DDE93A3098470028C0F29C8006F1A3
:103DD0000C06CED10135E2E70599324603EB81218D
:103DE000DDE93A3098470028C0F28D80C1D0002C20
:103DF00000F089802AAA013C3C2303FB042353E9F9
:103E00001CA2349253F8682C359253F8642C3692E5
:103E100033F85C2C049233F85A2C069233F9582C60
:103E2000059253F8542C3A9253E9110153F8502C4F
:103E30003B9253F84C2C09920AAA53E91EB882E827
:103E4000030053F8609C53F8486C369A099BC2F300
:103E500089223AB10499C3F389228A4289D3069907
:103E60008A4286D2C3F30A52002A82D040F201115C
:103E70008A4290D107933A9B1A46264B9A423FF4C6
:103E800078AF3C222AAB02FB04350021A5F1780073
:103E90004DF080FD349B45F86C3C359B45F8683C03
:103EA000369B45F870AC45E91939049B25F85C3C14
:103EB000069B25F85A3C059B25F8583C3A9B45F84B
:103EC000543C3B9B45F8503C079BC3F309020492CA
:103ED00001320692049AC3F389239B1A059A13446C
:103EE0001BB20D4A0593002345E91EB8CDE93532D2
:103EF0000134B3464FF0005934934FF0FF3A9846DF
:103F000037E7002073E72AB0BDEC028BBDE8708F65
:103F10000000F07F2577020800FC0F602DE9704F4C
:103F200086B0DDE90F4A013B119EDFF898B004939B
:103F30008046894615460EB9304640E02B68E86851
:103F4000023316D1D5E901120A44944211D28C42AF
:103F50000FD3121BB242A4EB010128BF3246014429
:103F6000504605924DF0D0FC059A92441444B61A7E
:103F7000E1E7D8F868C06FF00103DCF814102B609B
:103F8000049BB4FBF1F20B44234401FB1242B3FB4C
:103F9000F1FE01FB1E315B1ADCF828108B4228BFB2
:103FA0000B46A21ACDE901036A60AB6000920E9B3A
:103FB0005A464946404627F0B7FC0028BBDA06B00F
:103FC000BDE8708F00FCF7FF2DE9704F88B0064602
:103FD000894605924BB911994FF0FF320A60129A47
:103FE0000020136008B0BDE8708F013B07A9806E08
:103FF000079326F0A7FD10A90546B06E26F0A2FD96
:104000004FF0040A80460DF1140BA845059A03D31E
:10401000119B1A60109BE2E7A5EB0804B4FA84F444
:1040200095FAA5F3B3FA83F3C4F11F049C4228BFA9
:104030001C46A300CDE90023CDE902BA04234A4679
:104040000021304626F0FCFE0028CBD1012303FAE4
:1040500004F42D1BD9E700002DE9704FC488944269
:1040600092B00646154678D33D4B06931FFA82F967
:104070000123ADF81030A4EB09030DF11C089BB22D
:104080009A4238BF4B4605912C22002140469B4660
:10409000ADF81230CDF80C804DF07CFC3368019304
:1040A0001FFA8BFB4FEA8B0203EB850140464DF074
:1040B0002BFC0BF1020B019BADF812B04FEA850A05
:1040C0002A460021944240D803A905AA084625F0B3
:1040D00093F90446A8BB03AA3146304624F0BAFA45
:1040E000044670BBB6F806B0ABEB09039BB29D4229
:1040F00038BF4B4601462C224046ADF812304DF0F9
:1041000049FC3368BDF8129001934FEA890203EB32
:104110000A0140464DF0F8FBBDF81A20019B91447E
:10412000ADF812905D4514D303A905AA084625F001
:1041300063F9044628B903AA3146304624F08AFAC6
:104140000446204612B0BDE8708F43F822100132B9
:10415000B8E743F825400135E4E70024F1E700BF64
:10416000010002002DE97F4F9B464368DDF83C903B
:10417000DDE90DA504460E4690467BB94FF420724A
:104180004FF4FA71362018F067FA606020B94FF0EA
:10419000FF3004B0BDE8708F0C232381B6F8000116
:1041A0000A3080B2BAF1000F01D0284480B2B9F1D0
:1041B000000F03D0B9F80031184480B223891844A5
:1041C00063681B899842E2DC012342463146CDF800
:1041D00000B0204618F0CEFF0C9818F0A5FD2389FA
:1041E00003900422606803A917F0EDFD0028D0D1E8
:1041F000B4F8088008F10606B6B22681BAF1000FBD
:104200000BD0ADB2606833462A46514617F0DBFD4D
:104210000028BED1228915442581B9F1000F0ED1A5
:10422000238960689B1B5BBAADF80A3008F1040370
:104230009BB202220DF10A0117F0C5FDA9E749461C
:10424000204618F03EFF0028EAD0A2E770B5284BC0
:104250001B780833D0B050F8236030220546002187
:1042600003A84DF097FB31460FA8029519F0AEF860
:1042700001230093FF220FA902A818F07BFF044638
:1042800078BBBDF81A20316C0132ADF81A2091B11B
:1042900001231A460FA818F0B9FF01230093FF224B
:1042A0000FA902A818F066FF0446D0B9BDF81A306D
:1042B0000133ADF81A306B6813B101238DF8393032
:1042C000336C13B1C0238DF83B30002141F2E94338
:1042D00002A8ADF81210ADF81830059119F094F954
:1042E0000446039808B118F02FF8204650B070BD6E
:1042F00010C000200E4B196830B4B1B10D4D002232
:104300008C68AC420DD1CC6884420AD1086832B9BD
:10431000186030BC082018F00BB82146F0E7106098
:10432000F7E70C680A46002CF7D130BC704700BF95
:1043300020C0002095D801082DE97847064615468B
:104340000C4659B30B89934228D338B3038993425F
:1043500024D34FF00009CA46B6F80A806289706813
:104360006168A8EB0A08A2EB0902904528BF9046B5
:10437000A8458CBFA8461FFA88F8424649445044D5
:104380004DF0C2FA62897389C144A5EB08009145DA
:10439000C24485B222D32468F4B955B36FF00F003C
:1043A00011E04FF0000A628923899A4201D1236803
:1043B0005BB92EB1728933899A4201D1336823B92E
:1043C000002DC9D12846BDE878876FF00500FAE7CF
:1043D000002CE6D1A246EDE74FF000099A45E2D164
:1043E0003668002EF4D1002DD8D1002CD9D120462A
:1043F000E9E79A45A946DDD1F2E7000070B504204F
:1044000018F0C4F8044678B1084D024605F11006CC
:104410002B4603CBB342106051601D4602F10802E7
:10442000F6D1606817F058FE204670BD00C000202D
:104430002DE97047AB4B87B091460C4619F0010F40
:104440001A68A949009014BF542352238046A748F4
:104450004BF0E4FB6379039323790293E3780193B0
:10446000A3782278A2490093A04863784BF0D6FB4A
:10447000E37A0393A37A0293637A0193237AA2796E
:1044800000939C49E37999484BF0C8FB227B637BFE
:1044900043EA022340F60602934200F0868048F287
:1044A000DD62934200F08380B3F5006F40F08180BD
:1044B000914A92498D484BF0B1FBB8F10E0F69D982
:1044C000237B082BA8F10E0504F10E0640F0D280E4
:1044D000637B002B53D1A37B452B50D194F8213023
:1044E000059394F820300493E37F0393A37F029312
:1044F000637F0193237FA27E00938149E37E7B4803
:10450000258A4BF08BFBE27D6DBA062AADB255D100
:1045100004F1260010F0BFFF824604F12A0010F0DB
:10452000BAFFE18D268EA38C628C49BA76BAC1F3AC
:104530000338B6B2C1F308015BBA52BACDE90281C1
:10454000CDE900A004966F4968489BB292B24BF047
:1045500065FBB8F1050F04F13606A5F128050ED963
:10456000A8F105084FEA8808674960484BF056FBF8
:1045700031464046FCF780FE4644A5EB080519F09D
:10458000020F07D0614959484BF048FB3146284695
:10459000FCF772FE19F0040F00F0A1805C4953484B
:1045A00007B0BDE870474BF039BB5A4A81E75A4A19
:1045B0007FE7A289594952BA92B27BE7112A51D1B9
:1045C000B4F822A0B4F82480554948489AFA9AFAD7
:1045D00098FA98F81FFA8AFA1FFA88F84346524662
:1045E0004BF01CFBE58CBAF1430F6DBAADB204F190
:1045F0002A061CD1B8F1440FC1D14A493B484BF0BF
:104600000DFB31466C20FCF737FE474937484BF02D
:1046100005FB94F81C31013BEC3D04F58B76072B30
:10462000ADD8DFE803F00C11131517191B1DBAF1F3
:10463000440FA4D1B8F1430FA1D13C49DEE73C4976
:104640002A484BF0EBFA9AE73A49F9E73A49F7E793
:104650003A49F5E73A49F3E73A49F1E73A49EFE7EA
:104660003A49EDE73A49214804F12206143D4BF05E
:10467000D5FA84E7862B82D1637BDD2B7FF47FAF75
:10468000A37B1B09062B7FF47AAF304610F003FFA3
:10469000637D0293237D0193638A2E495BBA9BB2AB
:1046A000C0F307520093C0F3130310484BF0B6FA5F
:1046B00029490E484BF0B2FA04F116011020FCF71C
:1046C000DBFD264909484BF0A9FA04F12601102028
:1046D000FCF7D2FD04F13606A8F136054FE707B026
:1046E000BDE8708728E600209D2905088843050855
:1046F000B2290508D529050898290508F8290508CB
:104700000E2A0508332A05087F2A05083F2B0508CD
:10471000182905088F29050893290508012A050885
:10472000862A0508A12A0508AF2A0508A82A05082F
:10473000B62A0508C02A0508C72A0508D02A050890
:10474000D92A0508DE2A0508E42A0508ED2A050805
:10475000F52A0508FE2A05082F2B0508372B050822
:1047600013B50C4C246824680B4600F07F4164B9F3
:10477000002914BF13210321019200220092024656
:1047800004480DF007FD02B010BD002914BFEC2154
:10479000EB21F1E7BCC00020FF292DE9734F04464F
:1047A00003D98B18B3F5885F11D9002504F2BD1029
:1047B0002B46FF244FF0010C4FF0100E4FF0550820
:1047C0004FF0AA09954266D14FF000083CE0EFF3A4
:1047D000118B602383F31288560250D0DFF8A48136
:1047E000A1F5807140464D020DF0C4FDD8F80030AF
:1047F000D3F8109009F580531B680193434542D1CB
:1048000041F2040259F802104B1C3CD0B1EB153FA9
:104810004FEA153037D3721E2A44B1EB123F32D81B
:1048200081421AD94FEA013A2246C5EB01312846A6
:104830000091FFF795FFDDE90013804640B118466F
:104840000DF08EFD8BF31188404602B0BDE8708FED
:10485000A6EB0A062E440C445546C5F30B01C1F5E0
:104860008058B04528BFB0464246494420464DF0E6
:104870004BF8B6EB080604D142480DF071FDB04686
:10488000E0E744444544224631462846FFF768FFA6
:1048900080463C48D4E7CD4271D1A0F5DF7606F8DA
:1048A000013FB042FBD143708470C470047180F842
:1048B00005C08471C4710472437280F80AC0C37267
:1048C0000373437380F80EE0C373037443748374FB
:1048D000C374037543758375C37503764376837616
:1048E000C376037743778377C37780F82030013529
:1048F00080F8213080F8223080F8233080F824308E
:1049000080F8253080F8263080F8273080F828306D
:1049100080F8293080F82A3080F82B3080F82C304D
:1049200080F82D3080F82E3080F82F3080F830302D
:1049300080F8313080F8323080F8333080F834300D
:1049400080F8353080F8363080F8373080F83830ED
:1049500080F8393080F83A3080F83B3080F83C30CD
:1049600080F83D3080F83E3080F83F3080F84030AD
:1049700080F8418080F8429000F5007022E76FF0E7
:10498000040861E7BCC000202DE97043804686B072
:10499000D1E900600C4642F0F7F90622054603A96A
:1049A000A06841F0F1FCB8F1030F13D17168049ACB
:1049B00003980029B8BF01F2FF1105EB6121520AEB
:1049C00001F58071FFF7E8FE400040F0010006B0FD
:1049D000BDE87083174B9E4225D0E06842F0D4F9C1
:1049E000B368B3EB053F804620D9039AD6F804900C
:1049F000049C0192EFF31186602383F3128874B153
:104A00000D4805EB19350DF0B5FC2146019A08EB70
:104A10000530FFF7A5FE044607480DF0A1FC86F31C
:104A200011882046D0E76FF00400CDE76FF00D004D
:104A3000CAE700BFEC5E0508BCC000202DE9704F3E
:104A40004C4E356890F83D3086B0202BCDE90212EF
:104A5000044603D0022006B0BDE8708F4649009599
:104A6000192301220CF04AF90028F3D194F83C30C4
:104A7000012BEFD0012384F83C302368DFF8F8B035
:104A80001A68D2075EBF1A6842F001021A601A68FB
:104A900022F400621A60242384F83D30002323644A
:104AA000A3F58033E3624FF001094FF0A00A2268BA
:104AB000136843F4807313604FF001110095C8230D
:104AC000002220460CF01AF918B10320C3E79946DA
:104AD000EDE723689DF808201A613568586959691F
:104AE00094F83D20C0F34000C1F380210143D2B2CD
:104AF00001D1A02A20D14FF0200884F83D805A69C6
:104B000012F0020F1A6842F400721A601BD00022E1
:104B100005925A6905929B690593059B1649009574
:104B20001923012220460CF0E9F80028CDD184F8A1
:104B30003D8084F83C008EE73268521BC82A88BF4B
:104B400084F83DA0CAE76FF480625A615946009527
:104B50001923012220460CF0D1F80028B5D1039A80
:104B6000914509F10103B2D184F83C0084F83D80FD
:104B7000012070E728E600200200100010B5802117
:104B8000044609F0D1F920460021BDE8104009F0A3
:104B9000CBB908B5D0F814320BB9022008BD1B6898
:104BA000012198470028F9D0F7E700004269012366
:104BB00003FA02F13D4B30B5D3F8004244F0010452
:104BC000C3F80042D3F8004224F47C54C3F80042F6
:104BD000D3F80042456A44EA0524C3F80042D3F8FA
:104BE0001C5225EA0105C3F81C52C569CC43002DAF
:104BF00035D1D3F80C522540C3F80C52D200C56809
:104C0000838802F1804202F5C84243EA0543C2F8B4
:104C100040328568038843EA0543C2F84432836919
:104C2000224AABBBD2F804322340C2F804320369F3
:104C300093BBD2F814321C40C2F81442036A1B4AD8
:104C4000012B02BFD2F81C320B43C2F81C32D2F83F
:104C5000003223F00103C2F80032002030BD012DE4
:104C6000DDD1D3F80C520D43C3F80C52036885888C
:104C700045EA0345D30003F1804303F5C843828925
:104C8000C3F84052856842EA0542C3F84422C6E7A9
:104C9000D2F804320B43C8E7012B01BF034AD2F814
:104CA00014320B43C2F81432C8E700BF006400405E
:104CB00010B5D0F8180290F8653800EBC304013342
:104CC000DBB2042B4FEA022208BF002384F8441809
:104CD000C4F8482880F8653810BD00002DE97041FF
:104CE0003C4BD3F8A44195B0D4E90168054690BB8C
:104CF000A27B04F10E03B046012A30D0022A42D032
:104D0000002A54D1A169002D4A690CBF6FF002003E
:104D10006FF01000024001264A611E70B8F1060FC4
:104D200016D041F07DF84BF039FC02A84CF0FEFBA8
:104D3000024600283DD16B4602214046CDE900469F
:104D400041F04DF94CF016FC4BF020FC41F048F8D6
:104D500015B0BDE87081E27B04F10F03CCE7A269D6
:104D6000002D51690CBF6FF004006FF0200001EAC4
:104D7000000151614FF008010CBFD16011610222A6
:104D80001A700326CAE7A269002D51690CBF6FF0A3
:104D900008006FF0400001EA000151614FF010017E
:104DA0000CBFD160116103221A700526B6E70126F7
:104DB000B4E76900062241F00101204605F01CFB22
:104DC000227B054905484AF029FF0399034842F030
:104DD00063FCB9E780520120462B05082C430508E7
:104DE00000B500238BB0CDE904306846CDE900332F
:104DF000CDE90233CDE90633CDE90831FFF7D6FE20
:104E00000BB05DF804FB000009484368DB0710B5F0
:104E10000CD5EFF31184602383F312880DF020FB8F
:104E20000021012007F0A6FE84F3118810BD00BF09
:104E3000BCC000200A4808B54368DB070ED5094B03
:104E400082681B689B1AB3F57A7F07D30DF008FBC5
:104E5000BDE808400021012007F08CBE08BD00BF5E
:104E6000BCC0002028E600202D4B37B51D78002D52
:104E700053D1012119702B4B2B4C2C4A5A602C4BCF
:104E800023602C4B2C48656010229A612B462A46E1
:104E900008F002FE2368DA6898681268294690478D
:104EA00020460DF067FAAB2120460DF0EEF923689D
:104EB0001B68012B25D16A4605212046CDE9005506
:104EC000FCF7D2F820B901AA35212046FCF7CCF82E
:104ED000019A9DF80050120292B2154302F400723A
:104EE00052EA00030DD106210F480DF0CEF90E480D
:104EF00045F40073022201210DF0A7F90A480DF0D4
:104F000045F909480DF02CFA0023A3600B4B6022F1
:104F100083F8042304200CF08BF903B030BD00BFEC
:104F2000D0D00020D4D00020BCC000201112000836
:104F30006461050800000240284B050800E100E01C
:104F400070B505460846164641F01EFF0138052893
:104F50004DD8DFE800F00316161A272FFFF784FF5D
:104F6000304641F011FF012803D1224B9D4205D06C
:104F700028730020400040F0010005E04FF0FF30B2
:104F8000F8E7FFF741FF012070BD1A4B9D4206D0A4
:104F90002A7BA8680AB1000BECE7400AEAE74FF465
:104FA0008850E7E72B7B002B14BF4FF400504FF4E1
:104FB0008060E0E72C7BC4B130466D6841F0E4FED0
:104FC0002D0B0446EFF31186602383F312880A4801
:104FD0000DF0D0F96119090307480DF07EF9044678
:104FE00005480DF0BDF986F311886000C3E706207F
:104FF000CAE700BFEC5E0508BCC000202DE9704F79
:10500000814B8AB01A780193002A59D07F4CDFF87F
:105010001C82DFF81C9200232360C2467C4E98F865
:1050200000B0737F354603F0FF02002B32D1794B7D
:1050300032771968784A7948BBF1000F62D0036F64
:105040009B0740D54FF4807100230393734B186C7A
:1050500040F0805018641B6C03F080530393039B53
:105060006F4B186840F480701860D2F800C0186860
:10507000C0054DD5694B186F10F440704ED1674B89
:105080009A6822F4F8129A601A6F11431967654BF7
:1050900001221A60022373773368CA225A625322AC
:1050A0005A62FBF7C7FF002856D03368FF225A62C6
:1050B000042373770CE06FEA13436FEA0343236022
:1050C0000AB0BDE8708F13685B1AB3F57A7FB6D962
:1050D0002368BBF1000FEED043F0807323604E4B8A
:1050E00000251A684B4B8AF8005028461A60FCF7D6
:1050F000FDFD0BF035FD757790E713685B1AB3F58E
:10510000FA7FE5D8436F9B07F7D54FF400719BE713
:105110001068A0EB0C000228A9D9D9E78842AED0CC
:10512000186F4FF0010CC9F800C020F440704FF028
:10513000000CC9F800C01867186FC0079FD5D2F8D7
:1051400000C041F2883E186F800798D41068A0EB29
:105150000C007045F7D9BBE72B6829699A6822F4DF
:10516000E00222F040029A606A6898680A4369691E
:105170000A4302439A60EA681A611A69A96842EA16
:1051800001421A616FF08002DA601A6CA96922F498
:1051900080221A641A6C0A431A64FF225A6201239D
:1051A0006B771C4A1C4B12681B689B1A9BB243EA24
:1051B0000B7B4BF00053236004A81B4B0493FCF7BC
:1051C0002FF928B9CDE90800059005A8FCF7B6F835
:1051D000124B5A6F12F0006F1A461EBF4BF000536D
:1051E00043F480332360536F0C4A5B0142BF236852
:1051F00043F400332360536F43F080735367019A85
:10520000002313705CE700BFB4C00020B0C00020D2
:1052100000400020B8C0002028E6002000380240EE
:10522000007000403C0E47420401010F290000209D
:10523000400E474200B589B0FFF7E0FE03A8FDF736
:105240008BFD02A8FDF762FD9DF80E309DF80B0066
:1052500001939DF80D309DF8091000939DF80A20E8
:105260009DF80C3000F5FA600DF04AF9002109B004
:105270005DF804FB7FB5FFF7C1FE01A8FDF76CFDEB
:105280006846FDF743FD9DF802309DF801001B04C0
:1052900043EA40539DF8040043EAC0239DF805000B
:1052A00043EA40139DF8060043EA50039DF80300CB
:1052B000143043EA406007B05DF804FB2DE9704FFD
:1052C000D0F800808AB000234371029103790193E2
:1052D000144605210DF11F0240462BF0BFFC9DF83E
:1052E0001F30DD0700F1CD82580700F1CC8208AAFB
:1052F000032140462BF0B2FC30B9089A531EB3F597
:10530000004F01D21A4201D001230893019BA3B997
:1053100009AA012140462BF0A1FC88B9029B13F099
:10532000080F099B14BF4FF000094FF03F094B4590
:105330001BD3A3EB090309932EE0B8F1000F01D1B1
:10534000012013E023460122002108F104002BF084
:10535000D1FD0028F4D194F8FF2194F8FE3143EAFE
:1053600002234AF65522934203D00E200AB0BDE82C
:10537000708F019B04EB031303F5D77593F8B231DB
:10538000002BF2D005F108002BF048FB814605F117
:105390000C002BF043FB0990DDF824B0BBF1150F96
:1053A000E3D9029B13F002030593029B2DD003F077
:1053B0000703022B00F07682029BD90740F172822C
:1053C0004E4B4FEA1B30012633F8022B12B19042AC
:1053D0006FD2002240F6F573BBFBF6F59D429BBFF2
:1053E00005EB4505013502356D088CBF6D000335B1
:1053F0004FF0200305F2FF1504938CBF4FF0020A13
:105400004FF0010A6D0A012317E0DA07D8D4132000
:10541000ACE772081646BBFBF6F339489D00A3F5CE
:105420007F43F63B05F2072583424FEA55259CD87A
:10543000002304934FF0030A202309EB030000909C
:105440000498DDF820E005EB000C009884440EF190
:10545000FF30BAF1030F6044CEF1000E08BF00998F
:1054600000EA0E00A0EB0C0001BF09181B1808464B
:10547000009018BF2D18C9EB06108444E345FFF4D3
:1054800074AF0499ABEB0100C01ABAF1030FA0EBA3
:105490000500B0FBF6F103910DD14FF6F570814296
:1054A00038D8002A7FF461AF012EB2D85DE77600CC
:1054B000FCE1760088E7BAF1020F23D103994FF699
:1054C000F57081420ED9002A40F0FA817600402E14
:1054D00000F2E481002E3FF473AF32467AE7802E6B
:1054E000FBD942E7039940F6F570814212D8002AB1
:1054F0007FF43BAF7600802EECD936E7983605086E
:10550000FFFFFE0F039940F6F57291423FF62DAF73
:105510004FF0010A4FF400720021204605934CF031
:1055200039FADA4A059B1168216051686160A373FA
:105530001189927A2181C3F30723BAF1030F4FF047
:105540000201A272E3734FF000024FF001032374D3
:1055500014BF0B461346BBF5803FE272217366739E
:105560006274A37480F0248184F813B0CBF3072B0A
:1055700084F814B0F82363753F2323764FF0000BB3
:10558000FF2384F819B0A37684F81BB0494604F1D0
:105590001C002BF03BFABAF1030F40F00F81FFF72C
:1055A00069FE014604F143002BF030FA294604F16C
:1055B00024002BF02BFA022384F82C30012384F8EA
:1055C0003030062384F83230802384F84030292399
:1055D00084F84230AE4B84F82DB084F82EB084F8B5
:1055E0002FB084F831B084F833B004F1470203F1EE
:1055F000100153F8040B42F8040B8B42F9D11988BF
:105600009B7893704FF05503118084F8FE316FF052
:10561000550384F8FF314A460123214640462BF0CA
:105620009BFB834600287FF48BAEBAF1030F41D178
:10563000012309F10602214640462BF08DFB4FF471
:105640000072594620464CF0A5F95223237063702E
:105650006123A37084F8E731039B41227221E27039
:1056600084F8E41184F8E51184F8E621591E04F564
:10567000F4702BF0CBF9022384F8EC314FF0550392
:1056800084F8FE316FF0550384F8FF3109F1070209
:105690000123214684F8EDB184F8EEB184F8EFB12E
:1056A00040462BF059FB012309EB030221464046FB
:1056B0002BF052FB4FF40072002120464CF06AF9A7
:1056C000BAF1030F40F09780F8232370FF23637033
:1056D000A370E37023716371A371E371237263722A
:1056E000A3720F23E372012DAB4628BF4FF0010BCD
:1056F0002146009A5B4640462BF02EFB01460028CF
:105700007FF41EAE4FF4007220464CF043F9009B2C
:10571000B5EB0B055B440093E5D1049BBAF1030F95
:1057200018BF1E46012E354628BF0125009A2B467C
:10573000214640462BF010FB00287FF401AE009B71
:10574000761B2B440093EDD1BAF1030F5DD0099B7A
:10575000B3F5803F5BD2BAF1020F0CBF04250125DF
:10576000019B002B55D0B8F1000F3FF4E9AD0122A9
:105770002346002108F104002BF0BCFB0246002860
:105780007FF4DEAD019B04EB031383F8B2510123D8
:10579000214640462BF0E0FA00287FF4D1AD0022EC
:1057A000114640462BF05AFA003818BF0120DDE5BB
:1057B000594604F120002BF029F9DBE6FFF75AFDEA
:1057C000014604F127002BF021F9C5F30723E37507
:1057D000802384F82430292384F826302D4BA575A6
:1057E00004F12B0203F1100153F8040B42F8040BEF
:1057F0008B42F9D103E7BAF1010F2749204618BFC0
:105800006FF007012BF002F96DE70C25A8E70625DC
:10581000A6E7029B1B07C2D401994FF400722046F1
:105820004CF0B8F85523099A84F8FE31AA2384F87D
:10583000FF31019B84F8BE3184F8C1314A4443F6FC
:10584000C163B2FBF3F2FE2384F8C331930843F043
:105850003F03012684F8C43184F8C521494604F584
:10586000E37084F8BF6184F8C06184F8C2512BF002
:10587000CDF8099904F5E5702BF0C8F8019A334684
:1058800086E7032072E50A2070E500BF7A2B050841
:10589000862B05089A2B0508F8FFFF00059B002BB7
:1058A0003FF41DAE094B4FEA5B40012633F8022B53
:1058B000002A3FF4B0AD9042BFF4F9AD0022AAE552
:1058C000059B002B7FF4A6AD4FE500BFA63605086B
:1058D00070B504460D46FFF791FB022C244C39D1DC
:1058E000686841F051FA00F2FF13B3F5806F02D3FC
:1058F000204842F085F8237F0028C7BFC0F500701C
:105900004FF4004240420022012B21D00123237793
:10591000022363772368CA21596253215962D968E7
:10592000CE0304D514490E68DD68ED0305D4104399
:10593000FF22D8635A62012307E00D68AD1BB5F55D
:105940007A7FF1D9FF225A620323637700232377FA
:10595000062070BD2368DA6BD86B1304C0F308000F
:10596000BDE870404CBFC0F5007040423FF0C4BD80
:1059700000400020AE2B050828E600202DE97841E4
:1059800080460E46FFF73AFB03200BF03DFCB8F1D2
:10599000030F70686FD806282FD041F0F5F9032562
:1059A000034602224FF4FA6000FB02F1994209DB40
:1059B0004FF40044B4FBF2F463434FF47A7493FB66
:1059C000F4F415E0013D4FEA4202EDD2364A93422B
:1059D0004FF47A7493FBF4F401DC04250AE0A4F597
:1059E0008034B4F5803F02DD304842F009F80625E6
:1059F000002C00DD013C012200E00022B8F1030F81
:105A000043D1B3682A49C1F828312A4BCA215962C7
:105A100053215962996821F480619960D9684907D6
:105A2000FCD5002A33D05C619A6822F4884222F0C7
:105A3000070205F007052A4342F488429A60FF22D4
:105A40005A621D4A116841F480011160916841F465
:105A500080019160D96821F48061D9604FF480039E
:105A60005361164BF02283F8032303200BF0E0FB75
:105A70000620BDE8788141F087F90546B06841F01D
:105A800083F9F36804460122BCE70623BAE79A6863
:105A900022F480429A60FF225A62074A136823F474
:105AA00080031360E4E700BFE703E803BF2B0508AA
:105AB0008052012000280040003C014000E100E04D
:105AC00030B505468FB00C46FFF798FA012D3BD153
:105AD00001A8FDF741F96846FDF718F99DF80300A4
:105AE00000F5FA603FF008FD06909DF801003FF0D8
:105AF00003FD07909DF802003FF0FEFC08909DF822
:105B000000003FF0F9FC09909DF804003FF0F4FC20
:105B10000A909DF805003FF0EFFC0B909DF8060001
:105B20003FF0EAFC029B0C902748584300F57310A5
:105B300000F6F73080083FF0DFFC06A90D90082042
:105B40003CF036F80FB030BD01AA0821606841F082
:105B5000A7F8019B186841F017F9019B30308DF8C8
:105B60000300586841F010F9019B8DF80100986816
:105B700041F00AF9019B8DF80200D86841F004F960
:105B80008DF800006846FBF74BFC019B186941F05B
:105B9000FBF8019B8DF81800586941F0F5F8019B5E
:105BA0008DF81900986941F0EFF800238DF81A007C
:105BB0008DF81B30099306A84FF480230A93FBF756
:105BC000BDFB0620BEE700BFF7C2FFFF00B589B0EE
:105BD000FFF714FA03A8FDF7BFF802A8FDF796F83F
:105BE0009DF80E309DF80B0001939DF80D309DF847
:105BF0000A209DF80910009300F5FA609DF80C301A
:105C00000CF07EFC049A0A4B0A49534303F57313C4
:105C100003F6F7334FF47A729B0853431A46002376
:105C2000E1FB00231046194609B05DF804FB00BFF4
:105C3000F7C2FFFF00CA9A3B38B5424B424C0022E4
:105C40007F25FF21C3E90042C3E90251C3E90422D1
:105C50009A613E4B3E4C1A70002864D13D4D2B6F2B
:105C600048F20331194048F20312914248D10AF038
:105C700077FF6B6F43F080736B67236843F4802377
:105C80002360344B21681A6F5B6F02F007021B021E
:105C90000A4303F4407313432B4A23601169C1F391
:105CA0000E01FF2904D11169C1F306417F2926D0D5
:105CB000CA215162532151624FF0FF31D160264A0F
:105CC000214915681068401BB0F57A7F11D2C86869
:105CD0004006F7D50A6922F4FF4222F07F0242F023
:105CE000FF020A610A6942F4FE020A616FF0800253
:105CF000CA60154AFF2143F480135162236038BD06
:105D000003F40343B3F5024F0DD10AF029FF6B6F83
:105D100043F080736B676B6F43F001036B6723681D
:105D200043F40023ACE70C4B0C4A1B68136023F0D0
:105D30007F4343F07C532360094B1878BDE838401B
:105D4000FBF7D4BF0040002000280040B4C0002072
:105D5000B0C000200038024028E60020B8C0002073
:105D60002900002008B50120FFF766FFFFF746F97C
:105D7000062008BD114A136813F0040313B50ED1B1
:105D800001930F4B596B41F0400159635B6B03F07A
:105D900040030193019B136843F004031360094B14
:105DA00006491C68486810F0010001D0886803E0CB
:105DB0001A68121B092AF5D902B010BD0008065056
:105DC0000038024028E6002008B5FFF7D3FFBDE801
:105DD000084080083FF090BB16280AD8054B1B5C92
:105DE00003F1047303F59E3300EBC300800001232D
:105DF0000360704797C00020162810D8084B094A46
:105E000003448A434FEA83030CBF012200221A6035
:105E1000054A8A430CBF01220022C3F88020704744
:105E200040E089100000111000002110162808D849
:105E300000F1845000F51E20800000230360C0F8AC
:105E40008030704730B5204A0123516983401942A0
:105E500093B0044612D0162853610FD81B4B00F1A3
:105E6000320503EB8505A868062807D0184B1B5D93
:105E700033B9184B53F824103FF08CFF13B030BDEA
:105E80003FF0CEFF4AF08AFB68464BF04FFB60B90B
:105E9000104BA86853F8241047F0FAFA4BF06AFB4D
:105EA0004AF074FB3FF09CFFE8E70623AB60204616
:105EB000FFF7BCFF08490948224649F0AFFE0199A7
:105EC000064841F0E9FBEBE7003C0140805201202D
:105ED00080C0002024C00020CA2B05082C430508E0
:105EE0002DE970478DB00446084611461A4603ABAB
:105EF00001934B4B0093042340F0DAFF2146082026
:105F00003FF08EFA8046DDE90306C207DDE9059A17
:105F100005D4830715D10268424B9A4211D140F053
:105F200033FF0F28044604D83F4902463F4840F05B
:105F3000CDFC16281DD902463D493C48172340F0A8
:105F4000C5FC06F04FFD047A05462409394A26F4BB
:105F5000001393420FD002F5801296420BD0A2F5A7
:105F60007022934207D0344B9E4204D033493246CC
:105F7000DCE70025EAE7B9F1020F02D930494A46C9
:105F8000D4E7304B04F1320103EB81029268062A18
:105F90001A4605D0BAF1060F02D02B492246C5E7B2
:105FA0002046FFF743FF02EB810316F4803FC3F85E
:105FB00008A0264B14BF00220422BAF1060F1A557E
:105FC00019D0234B01221A5504FA02F31343214A34
:105FD00042F82430ADB931462046FFF70DFFFFF7F8
:105FE000FBFE1D4B1A570E2102F07F00FCF7B8F99B
:105FF00010460BF01DF94046C8F804400DB0BDE84E
:106000007087286907F034FDEB682869CDF8249083
:10601000CDE9073607A902230A93FCF76FFCE0E7F6
:106020009C5E0508A0450508022C0508F8430508F4
:10603000122C050800001110000022101F2C05086A
:10604000292C050880520120332C050897C0002018
:1060500080C0002024C00020B446050808B5406870
:10606000FFF7E4FE062008BD50F8310010B10438F7
:1060700018BF012070470000136833F007032DE9B3
:10608000704F0E68154612D1022802D0244840F005
:1060900047F948683CF05CF840F20753984236D123
:1060A00070680621BDE8704F38303CF01BBF0128F6
:1060B00030D01C48EBE7AB6821461846FFF7D4FF09
:1060C00088B153F8340003EBC40A3CF041F8404572
:1060D00010D048451BD1DAF80400D6F804B040F0DF
:1060E00053FECBF8000001346B68A342E3D80620CE
:1060F000BDE8708FDAF80400D6F804B040F044FE32
:10610000011E18BF0121584603F09EFCEBE706482C
:1061100041F076FC002440F2055840F2E259E3E7F2
:106120003C2C0508532C0508492C05082DE9704F17
:106130002DED068BD6B09B460291D11E48BF111D96
:10614000C9104D1C8146581EEB0003930C1A0BF12D
:1061500009089FEDCA7AC54B9246A2EBC5051AAE57
:1061600004EB080C002CA4BFE25C07EE902A04F1BB
:106170000104ACBFF8EE677AF0EE477A6445E6ECCE
:10618000017AEFD11AAB03EB8B0409EB8B0301937C
:106190000DF5847EDFEDB97AA4464E46F6EC016A31
:1061A000019B3CED017AB342E6EE877AF6D10130ED
:1061B0004045EEEC017A04F10404EBD1AB48DFED8D
:1061C000AC9A9FEDACAA43180926F0EE698AB0EEAE
:1061D0004A9A049356AB03EB860111ED140A42ABC5
:1061E00006A903EB86008C46344660EE297A013C12
:1061F000FDEEE77AF8EEE77AA7EECA0ABDEEC00A2E
:10620000ACEC010A30ED010A37EE800AEDD12846E8
:1062100005910FF0C5FDB0EE408AB4EE000A28EEFD
:10622000000A0FF0CBF9F2EE007AA0EE678A002D9B
:106230000599FDEEC87AB8EEE70A17EE908A38EEB7
:10624000408A38DD06F1FF3C06ABC5F1080E53F875
:106250002C4044FA0EF0804400FA0EF0241AC5F1E6
:10626000070043F82C400441002C32DD002008F1E7
:106270000108864651F8043B002865D123B1C3F5D7
:10628000807341F8043C01200EF1010E7645F1D1F6
:10629000002D03DD012D5CD0022D64D0022C18D11D
:1062A000B7EE000A30EE488A98B128460FF078FD24
:1062B00038EE408A0DE005D1701E06AB53F8204041
:1062C0002412D1E7F6EE007AB4EEE78AF1EE10FA86
:1062D00038DAB5EE408AF1EE10FA73D1711E002360
:1062E0008C46BCF1080F46D1002B4ED10EA90124DB
:1062F00051F80409002845D006EB0B001AAB711CBD
:1063000003EB80002644B1423FF764AF049B5B5C23
:1063100007EE903AF8EE677A4C46E0EC017ADFED52
:10632000577A8446F4EC016A019B3CED017AA34262
:10633000E6EE877AF6D142AB03EB8104C4ED007A36
:106340000131E0E7022491E7C3F1FF0341F8043C87
:106350009AE706F1FF3C06AB53F82C1001F07F01E1
:1063600043F82C109AE706F1FF3C06AB53F82C10CB
:1063700001F03F01F4E706AA52F82C000CF1FF3CB3
:106380000343AEE70134B3E7013906AB083D53F8E8
:106390002130002BF8D02846B7EE000A01910FF00B
:1063A000FFFC01990B46002B39DA0A460020002A2F
:1063B000C0F28B8042AB03EB82052F4EDFED2F7ACC
:1063C000002348E0039BB0EE480AA3EB0A000FF05D
:1063D000E7FCB4EEC90AF1EE10FA17DB60EE287A9A
:1063E00006AAFDEEE77A711CF8EEE77A0835A7EE0B
:1063F000C90AFDEEE77ABDEEC00A10EE103A42F887
:10640000263017EE903A42F82130C4E7BDEEC00ABC
:1064100006AA10EE103A314642F82630BBE706A82D
:1064200042AA50F82300019007EE900AF8EEE77AAE
:1064300002EB830267EE807A013B20EE280AC2ED70
:10644000007AB0E7F6EC016AB5EC017A01330A2B69
:10645000E6EE877A01D09842F4DA56AB03EB80037C
:1064600043ED287A013A0130A1E700BF84630508B3
:106470000000803B000080437834050800000000E5
:106480002EAA02EB8302D2ED007A37EE277A013B87
:10649000002BF5DAECB1F1EE477A029BC3ED007AFE
:1064A000DDED2E7A77EEC77A2FAA0123994213DA0F
:1064B0000CB1F1EE677A029B08F00700C3ED017A98
:1064C00056B0BDEC068BBDE8708F1FED147A0B46FD
:1064D000DEE7F0EE477AE0E7B2EC017A013377EEDF
:1064E000877AE3E700B589B0C37802938378019394
:1064F0004378009310210378054A0DEB01002AF040
:1065000057FB014604A83CF0ABFD09B05DF804FB65
:10651000272A05082DE9704F0B685D68136833F072
:1065200007038EB00E46934605F1040A00F1FF34CE
:106530003FD1012C02D091483FF0F2FE48683BF079
:1065400007FE40F2BD4398422ED009D840F21F43C7
:1065500098421AD0B0F58F6F0BD0894841F050FAAD
:1065600040F2C1439842F8D1504611F055FA002844
:1065700005E06B6A002B00F0FF805B79002B0CBFFD
:106580000E201E200EB0BDE8708F0AF10400FFF748
:10659000A9FF0A9005F10C00FFF7A4FF0AA90B90D0
:1065A00002203BF005FBEDE705F11000FFF79AFF35
:1065B000E8E7002C00F08D807248BDE7DBF808307A
:1065C00021461846FFF750FD002800F0818003EBBC
:1065D000C40253F8340000923BF0BAFDB0F58F6F5F
:1065E0006AD057D8A0F21F400128B6D8009B58683F
:1065F000062800F0918000F00703022B07D08307E4
:1066000040F09D800368604A934240F0988009A959
:106610003BF0C6FC2F2181464BF07CFA099A019091
:106620000F2A28BF0F2249460AA890464BF06CF962
:10663000019B002B5FD0A3EB0909C845A8BFC84642
:1066400003F1010948464BF0DDF9002301460A2217
:10665000484647F0ABFC40F097FB814670683BF042
:1066600077FD40F21F43984207D1C9F120094FF04E
:10667000FF3303FA09F31BBA06930EAB984405A93E
:1066800000230AA808F8103C10F094FE002834D12A
:106690003E4863E740F2BD4398427FF45EAF009B03
:1066A00004A958683BF07CFC03A910F083FE002885
:1066B000EED0039B2B610BE0009B58683EF0B8FDC9
:1066C000A8B1504611F0A8F950B1504611F0B0FFF2
:1066D0000134DBF804309C42FFF470AF062051E730
:1066E000504611F015FE504611F07AFEF0E7504684
:1066F00011F00EFEECE7EB68BEE770683BF028FD9A
:10670000B0F5846F01D1224828E770683BF020FD86
:1067100040F21F439842F6D170683BF019FD40F2F9
:106720001F439842D4D1009B5B68062B1BBF059B7F
:10673000AB600023069B08BFAB60EB60C8E707AA0D
:10674000022140F0ADFA079B08A918683BF028FC2D
:10675000079B814608A958683BF022FC05A98046A2
:10676000484610F027FE002892D006A9404610F0B7
:1067700021FE0028D0D18BE70E2003E73C2C050832
:106780005E2C0508532C05082C4605083128050801
:10679000622C05082DE970410B685D68012887B0FF
:1067A0000E4605F1040418D1201DFFF79BFE029050
:1067B00005F10C00FFF796FE039005F11000FFF7BE
:1067C00091FE04902B48FFF78DFE02A9059004204E
:1067D0003BF0EEF907B0BDE870814A6842F2BA3387
:1067E0009A42204622D111F017F960B1204611F0EB
:1067F0001FFF214D2E6842F21078204611F00CF94F
:1068000040B10620E6E7204611F082FD204611F057
:10681000E7FDEEE72B689B1B434503D91749184852
:106820003FF0B4FC64200AF005F8E6E711F070FDD3
:10683000204611F06DFD01AA7068042140F030FA85
:10684000019B211D1868FAF76FFE019B05F10C01F1
:106850005868FAF769FE019B05F110019868FAF78C
:1068600063FE019B02A9D868FAF75EFE014B029A0B
:106870001A60C6E76040002028E60020672C050863
:10688000D44305082DE97747DFF87480DFF864907A
:10689000DFF870A005460E464FF4807458F8042CBB
:1068A00062B946B1134B144A214628462AF080F9B2
:1068B000292C10D9293CC4F580700DE058F8083C0B
:1068C0001E4213D000924B465246214628462AF0DB
:1068D0006FF9002803DA094803B0BDE870878442E5
:1068E000F9D958F8083C241A05445E4008F1080814
:1068F000D4E700BF18290508842C050880D6FFFFBF
:10690000546405087E2C05082DE9734FC0F30B096C
:1069100009EB0103B3F5805F83460E4690464FEACC
:10692000103A07D923482AF05EF96FF0040002B04C
:10693000BDE8708F204C23681D6905F580531868E9
:10694000A0420AD018B101930BF08AFD019B1C6094
