:020000040800F2
:10000000F8FF01200D0C05084B11050839110508F2
:100010004D1105085911050865110508000000007B
:100020000000000000000000000000007111050841
:100030007311050800000000C9130508C5D90008A0
:1000400001100008611205087312050879120508ED
:10005000014D000801100008F5110508FB11050805
:1000600001120508071205080D120508A9C80008A5
:1000700099C8000889C8000879C8000869C800083C
:1000800059C8000849C800080110000801100008FC
:1000900087C1000881C1000849C100081312050882
:1000A0008D12050893120508A5120508AB12050864
:1000B000B1120508B7120508BD120508311305086D
:1000C000371305080110000801100008011000088E
:1000D000011000080D13050813130508191305086E
:1000E000371205086712050881110508E91205088D
:1000F000EF120508071305080113050839C80008A1
:100100000110000801100008C512050801100008C0
:100110001F13050825130508DD120508E31205085D
:1001200029C8000819C8000809C80008F9C700084C
:10013000E9C70008399700086D120508011000088A
:1001400001100008011000080110000875110508D1
:10015000D9C70008C9C70008B9C700082B1305088C
:10016000011000080110000801100008011000082B
:100170000110000801100008011000080000000034
:08018000011000080110000845
:10100000FEE70000094B1A68D36823F0A003D36001
:10101000074B1868D168890601D500207047196808
:10102000091AB1F57A7FF5D90320704700400020F6
:1010300028E600200A4B1A68D368580601D500201C
:1010400070474FF0FF33D360064B1868D1684906EC
:10105000F5D41968091AB1F57A7FF7D903207047DA
:101060000040002028E600202DE9774105688DF832
:1010700007102C68D5E9010C1646E4B9D0E9033213
:101080001B049361EB686046D3F804800DF10702FE
:1010900023460121C047EB68A868D3F80480324694
:1010A00033460121C0476B68D3E903322046936180
:1010B00003B0BDE870811346DCF80C409DF80710C2
:1010C0000122A047F4E70000054B016810B51C6839
:1010D0000A68920703D41A68121B0A2AF8D910BDAD
:1010E00028E6002082B000230193064B5A6C42F49C
:1010F00080725A645B6C03F480730193019B02B0AD
:10110000704700BF0038024073B50023A1F11005FD
:10111000019390F83C30022D8CBF01240724012B51
:101120002FD00123092980F83C308EB203682AD9D8
:1011300006EB4602D3F80CC01E3A4FF0070E0EFA2B
:1011400002FE2CEA0E0CC3F80CC0D3F80CC004FA53
:1011500002F242EA0C02DA605A6B22F01F025A6372
:101160005A6B32435A631C4A934207D112291CD14D
:10117000D2F8043343F48003C2F80433002380F828
:101180003C3002B070BD1A6901EB410E4FF0070C04
:101190000CFA0EFC22EA0C021A61D3F810C004FA11
:1011A0000EF242EA0C021A61D6E7012DE6D80B4A8C
:1011B0005368102943F400035360DFD1084B094AF8
:1011C0001B68B3FBF2F20A2353430193019B002BEC
:1011D000D4D0019B013BF8E70020014000230140EF
:1011E0000000002040420F00C1070CD4820703D149
:1011F0000268064B9A4206D00E2804D0A0F11E03C6
:101200005842584170470120704700BF24390508F3
:1012100010F4FE7F02BF024B0422C3F8002E704779
:1012200000E100E04068162809D8064A0123116948
:10123000834021EA0301116111690B431361062008
:10124000704700BF003C01404368162B0AD8064A8D
:10125000D25C02F1047202F59E3203EBC2039B00E2
:1012600001221A600620704797C0002040684000A5
:1012700040F00100704700002DE97841074EDFF88B
:1012800020800C464518AC4201D1BDE8788114F8A5
:10129000012B314640464DF023FEF4E7381B05088C
:1012A0000C370508054B994202D105494DF018BE8F
:1012B000D1E9012303494DF013BE00BF7052050868
:1012C0003E1B0508461B05084A6801494DF008BE4B
:1012D0005E1B050838B5114D114C2A68114920468E
:1012E0004DF0FEFD6A68104920464DF0F9FDAA68F0
:1012F0000E4920464DF0F4FDEA680D4920464DF0B8
:10130000EFFD2A690B4920464DF0EAFD6A690A495A
:1013100020464DF0E5FD062038BD00BF003C0140F1
:10132000B03605086F1B0508801B0508911B0508D2
:10133000A21B0508B31B0508C41B05082DE9734F44
:10134000364C237F012B81464FF0020520D02268C6
:101350006577012323779368067890F801B013F03E
:10136000400308BFC370CA21837890F8038051629C
:10137000532151620193FFF75DFE019B054658B171
:101380002368FF225A620423637700232377012511
:10139000284602B0BDE8708F18460EF054FF40EAB0
:1013A000084830460EF04FFF48EA004858460EF015
:1013B0004AFF48EA0023D4F800A003F07F3323F06B
:1013C000FE43CAF80030DAF8083023F48023CAF864
:1013D0000830D9E90331DAF808200B431343CAF87F
:1013E0000830DAF80C3023F08003CAF80C30DAF851
:1013F00008309B0609D4FFF705FE30B12368FF22B1
:101400005A62042363772577C1E72368FF225A6273
:101410000123637700232377BAE700BF0040002051
:101420002DE9704F2E4C237F012B4FF0020521D068
:10143000012365772377437890F803A090F8028022
:101440000678DA0642BF23F010030A33437023689C
:1014500090F80190CA225A6253225A62FFF7EAFDBD
:10146000054650B12368FF225A62042363770023A4
:10147000237701252846BDE8708F40460EF0E3FE35
:1014800040EA463850460EF0DEFE48EA004848463C
:101490000EF0D9FE48EA0020D4F800B020F07F40DA
:1014A00020F0C000CBF80400DBF80C3023F0800300
:1014B000CBF80C30DBF808309B0609D4FFF7A2FD0F
:1014C00030B12368FF225A62042363772577D0E77F
:1014D0002368FF225A620123637700232377C9E739
:1014E0000040002070B5032305460E46144627F041
:1014F000C5FE88B9226882B1531E23602B681B7811
:101500002371072B0CD82B68591C13449E42A160F1
:1015100018BF6FF065002B6070BD6FF05F00FBE7D8
:101520006FF06300F8E7000073B50C4601A93EF0C8
:10153000B5F8019BF3B1024603449A42154606D220
:1015400012F8011B2E29F8D030390929F5D9611E6E
:101550004FF00A0C03340023854202460DD801F8EF
:10156000013F8C4211D0954211D913782E2B0ED108
:10157000501CF0E7236002B070BD10F8016B2E2EF6
:10158000EDD00CFB0363303BE6E79542F3D0014816
:101590004AF054FED51B0508014B186842F02ABFDB
:1015A000B0C0002008B50846114600224AF004FEEB
:1015B000004808BD185305082DE97847884640467D
:1015C00011462F4A1E464AF0F7FD2E494C2047F09F
:1015D00094FA0446306844F093FFB8F1010F0546D1
:1015E0000CD9706844F08CFF8046AB1F062B3BD8AB
:1015F000DFE803F03F3A073A423A38004FF0FF384D
:10160000F3E74FF00076DFF88CA000254FF00109DA
:1016100009FA05F313EA080F07D05AF8250020B19C
:1016200000231A4603210CF013FA0135102DEFD1D7
:10163000154B6360FFF756FD012200232262A26171
:1016400002F17062C4E90933C4E90B23C4E904332D
:10165000E660E361A3606363201D10F0BBFC2046DD
:10166000BDE878870026CEE7084909482A4647F0B2
:10167000F7FE4FF04076C6E74FF08076C3E700BF35
:1016800004000200E451050800200140D91B0508B0
:101690007C3705086C4E050870B50D460446FFF70B
:1016A00033FD10F037FC2046FFF70EFD2368DE6C9B
:1016B00010F014FC122D01BF034A536823F4800379
:1016C0005360304670BD00BF0023014010B5044692
:1016D000084644F015FF1028024605D0122803D909
:1016E0000549064847F0BCFE201D1146FFF7D4FF10
:1016F000BDE8104042F07EBEE81B05087C370508B7
:1017000010B50446FFF7C8FF23685B6803F0407319
:10171000B3F1007F0BD0B3F1407F0AD0B3F1807FEB
:1017200014BF0C230A23C3F10C03984010BD0823F7
:10173000F9E70623F7E7000008B512210430FFF7A8
:10174000DFFF094B9FED097A93ED000A430007EE96
:10175000903AF8EE677ABDE8084067EE877A27EEA0
:10176000800A43F029B900BF040000206740533AC3
:1017700008B510210430FFF7C3FF124B9FED126A2A
:101780001A88124B07EE100AD3ED007A104BF8EED0
:10179000C76A07EE102A1B88B8EEC77A9B1A96EE26
:1017A000A77A07EE903AF8EEE77ABDE80840C7EE70
:1017B000866AF3EE0E7A87EE260A30EE270A43F0A9
:1017C000FBB800BF2C7AFF1F0000A04204000020DD
:1017D0002E7AFF1F08B51121FFF792FF0A4B1B88D5
:1017E00007EE900A00EE103AF8EE677AF8EE406ADB
:1017F000064B86EEA77AB8EEC00ADFED057A83EDD8
:10180000007A20EE270A08BD2A7AFF1F0400002074
:101810006740533A08B50430FFF7DCFF054BDFEDB6
:10182000067A93ED000ABDE8084020EE270A43F04F
:10183000C3B800BF040000203333534008B5043060
:10184000FFF7C8FFBDE8084043F0B6B808B58168A7
:101850000C30FFF721FFBDE8084042F0CBBD00008F
:101860002DE9F04F8DB000AF0D46144607F114017D
:1018700007F10C0244F040F907F1080207F11001EA
:10188000284644F039F97B6913B953484AF0D6FC2D
:101890003A69934201D05148F8E7BB6806221868BC
:1018A00007F1180143F0DCFD97F8201000224020DA
:1018B0003CF066FD3B699B00073323F00703ADEB6B
:1018C000030D0646EA4600253B699D4207D32046A4
:1018D00047F01CF8424B834218D04248D6E7BB6819
:1018E000062253F8250007F1240143F0B9FDFA69F7
:1018F000BB6A9A4203D13A6AFB6A9A4201D03A48DB
:10190000C4E77B6A4AF825300135DDE7FB681D68CE
:1019100005F10C08A9684046FFF7F6FB10F0FAFA4B
:101920004046FFF7D1FBEB68DB6CE3686FF0010228
:101930001A611A69D007FCD56FF0010119614FF0E7
:101940000008FB693960B3FBF6F34FF0010B7B60D5
:101950007B6898450DD1FB6818680C3010F0BEFA12
:10196000BBF1000F14BF1E200E203437BD46BDE86A
:10197000F08FE3681969C9070CD41969CA07FCD547
:101980003A681A6100257B69F968AB4205D808F10D
:101990000108DDE74FF0000BF2E751F8259009F15F
:1019A0000C00D9F80810FFF7AFFBD9F80C30996894
:1019B00041F080419960FFF787FBD9F80C305AF865
:1019C0002510DB6C97F82000012E08BF1B0942464A
:1019D0003CF0B0FB0135D6E7FB1B0508091C0508E8
:1019E000B45405082E1C05081C1C05082DE97F4F62
:1019F000144605460622084601A943F031FD9DF82C
:101A00000C10002240203CF0BBFC06462046FFF7AD
:101A1000EBFB002868D0204644F072FD00230093C1
:101A20004A4B1A6C42F010021A641B6C03F010034C
:101A3000804600930620009B0EF040FC804550D865
:101A400006200EF03BFC0122B0FBF8F3B3F5803F1B
:101A500044D23F493F480860013BCB6000230B6103
:101A60008B6091F83930013A4A60884603F0FF02F2
:101A70000BB981F838204FF002093749354888F80A
:101A800039900EF06BF90122D8F8001088F839204F
:101A900088F839900B68DFF8B89013430B6088F82A
:101AA000392005F10C08A96840464FF0000BFFF7FC
:101AB0002BFB029BB3FBF6FAD34521D1404610F035
:101AC0000DFA2046FFF790FB10B148460EF0FEF9E4
:101AD000029842F08FFC04B0BDE8708F5B085200A2
:101AE000B4E701221346B4E7204646F00FFF1B4B34
:101AF000834202D01A484AF0A1FB04F10C09D0E756
:101B0000D9F800301969CA07FCD56FF001021A61D3
:101B1000BBF1000F13D1404610F0FCF94046FFF72F
:101B2000D3FAEB680199DB6C9DF80C00012E5A4644
:101B300008BF1B093CF0FEFA0BF1010BBCE7E9689A
:101B40008B6843F080438B60E8E700BF00380240B9
:101B5000204000200010004024400020B45405081C
:101B60002E1C050870B51C46084611464FF002129F
:101B70004AF022FB2668F10705D4B20730D132685B
:101B8000274B9A422CD1304644F0BAFC1028054627
:101B900034D154204EF088FD0021044644221030F8
:101BA0004FF0CAF81F4BA560C4E900361E4BE36036
:101BB000FFF798FA01220023A262226202F170620A
:101BC000C4E90B33C4E90D23C4E9063363616362DE
:101BD0002361E36304F10C0010F0FCF9204670BDB2
:101BE00030460AF069FE837A9B0704D442680F49A5
:101BF0000F4847F035FC8568C5F30435122D02D92E
:101C00000C492A46F4E70F2DC3D80B4B53F8250097
:101C10000028BED000231A4603210BF019FFB8E7B5
:101C2000243905080052050800200140381C050829
:101C30007C370508E81B05086C4E050838B50D46CD
:101C4000044607494CF00DFF69682046002247F022
:101C500019FBAA6803492046BDE838404DF040B959
:101C60003F1C0508E18A06081FB5084611461A46BA
:101C700002AB01931A4B009302234AF087FADDE985
:101C800002321340013329D01649102046F035FFA7
:101C9000029B0022591C02730AD0934205DBB3F564
:101CA000001F02DAC3F30B021AB100204AF0C6FA91
:101CB0001346039A511C06D1C3F50012C0E9013244
:101CC00005B05DF804FB002AEFDD9918B1F5001F9F
:101CD000EBDCC2F30B010029F0D0E6E70248EFE7A6
:101CE000E42805088C5205087052050813B5194BF5
:101CF0000124E0B100221A6000230193164B1A6CF4
:101D000042F080521A641B6C03F080530193019BD4
:101D10000EF0EEFE114B124918680A68D20509D57B
:101D20000D4B1A6F7CB142F001021A6706E01C608D
:101D30000446E1E71A68121A022AEED9094B012279
:101D40001A7002B010BD22F001021A671A6F22F059
:101D50000402EAE7800E47420038024028E60020ED
:101D600000700040B4C00020012808B50B6806D1FF
:101D7000586807F08DFD400040F0010008BD0148A3
:101D80004AF05CFA481C050808B5406807F080FD79
:101D900003280CBF1E200E2008BD00002DE9704F47
:101DA00001280C688AB009D1606807F071FD00282D
:101DB00014BF1E200E200AB0BDE8708F486846F0A0
:101DC000D9FD002800F033826468204607F034FC17
:101DD0000021204607F0A2FDEFF3108272B63D4BC2
:101DE0003D4D3E4800219960DD601861BFF36F8F63
:101DF000BFF34F8FBFF35F8F82F31088384B394E9C
:101E00001A6942F000721A6102915A6C42F48042DF
:101E10005A645A6C02F480420292029A324A516821
:101E200021F400015160516851601A6922F000727A
:101E30001A611A6D42F000721A651A6D42F08062E2
:101E40001A651A6D42F000621A65012333600220A0
:101E50000EF0B8FC254B1A689946336813F0010858
:101E600029D1234B234A1B6893422DD9224A9342FE
:101E70002CD3224A93422BD9214A934294BF042364
:101E80001023204A1361E06F4FF40042002107F055
:101E90002DFD32200EF096FCD9F80030019300267B
:101EA00042F2107BD9F80030019A9B1A5B452BD97E
:101EB00007F0A6FB05E0D9F800309B1AB3F57A7F4E
:101EC000CBD96E2047F0C2FA0823DAE70C23D8E713
:101ED0004346D6E790ED00E0008000201B000C1385
:101EE00000380240009002400038014028E60020FF
:101EF00000000020BF0E160200879303FFE0F505E7
:101F00007FD1F008008002400021E06F07F094FCD0
:101F100001218246E06F07F08FFC012E00F049811D
:101F2000022E00F057811EB90FFA8AF6F643F60F1B
:101F300002200EF047FC032EB4D1D4E91F039847CA
:101F4000BE4B00261E601FFA80F902200EF03AFCFC
:101F500041F21C03BA4ABB49D150BB4933464FF04A
:101F6000004E44F2F45C05261A0105EB031045F817
:101F700002E00133B3FBF6F202EB82029A1A05EBA0
:101F80000212052BC0F804C08160C26001F2F45156
:101F9000EAD1AB4941F20C024FF480168D5043F662
:101FA000284100226A501046511D4FEA011C05EBE2
:101FB000011145F80C60486005EB021C0132B2FBD0
:101FC000F3F101EB8101511A053105EB0111052AED
:101FD000CCF85800CCF85C10E6D1994E9B4A41F2FF
:101FE0001003F25043F62C434FF00872E85041F2D0
:101FF00018030220F2500EF0E5FB4FF0004373602F
:1020000002200EF0DFFBA38F336402200EF0DAFB18
:10201000A36B736402200EF0D5FBB9F1050F00F03D
:10202000DF80B9F1020F00F0DE80B9F1060F08BFC2
:102030004FF49048C6F8008002200EF0C3FB3368CE
:1020400043F00C03336002200EF0BCFB41F2180297
:102050000220B35843F4005343F00203B3500EF090
:10206000B1FB7B4BF02583F83D533D200FF0A8F8E2
:1020700078486FF07F43CDE9073000264FF00833F2
:1020800006960993EFF3118885F31288724BDFF8F7
:10209000F091A3614FF6FF73636343F26503A4F805
:1020A000403099F8003084F84230251D6B4B636155
:1020B00006A908AB2846C4E90266266184F83F6099
:1020C0006662A662E6626664246207AA1AF08AF86B
:1020D000634BE361634BA3613A2384F83F30624B67
:1020E0006363624B186849469C4694F84230FF2B64
:1020F00008BF84F8426094F842200346002B75D153
:10210000FE2A01D0531CDBB20B7060605849CCF83A
:102110000050284615F040FA50B102234372037B69
:1021200001330373636C1BB1514901222846984760
:1021300001210022284619F0CBFF4E4B23634E4B62
:102140001D6094F83F30D9070FD443F0010384F8A1
:102150003F3008210123284603AA8DF80C3019F0DE
:10216000B7FF0321284619F0D7FF444B099A1A609C
:1021700004F148033422184600214EF0DDFD606270
:10218000284616F0F5F894F83F305A074BD443F040
:10219000040384F83F30636ACBB35A79052A2FD8F9
:1021A000022A2FD89AB300229A71284615F05CFDB6
:1021B0002DE043077FF5BCAEE06F40F2E112042151
:1021C00007F094FBE06F4FF48052002107F08EFB84
:1021D0000226ADE600F02400242808BF0326A7E667
:1021E0004FF4006826E74FF4804823E793F83EE079
:1021F000964503D1013284F8422076E71B687DE7DB
:102200000A2AD0D100229A71284616F017F9032124
:10221000284619F081FF012303AA042128468DF8DE
:102220000C3019F055FF88F311880620C3E560686B
:1022300007F002FA07F0E4F9F7E700BF0090024068
:102240000080024040000100A0800020508000205B
:1022500000E100E0C0A80001BBB40108659A0108D4
:10226000517900087D770108001FDC0518C00020A7
:102270005C4000200800002014C0002060400020C6
:102280001CC000202DE97841194C4FF0030804F5DB
:10229000EA76A4F1080554F8043F1A071AD1D5F8D4
:1022A0009022981AC0F3011193424FEA901C4FEA12
:1022B00041014FEA10100DD3D5F89422934209D270
:1022C000D5F8842212F80CE04EFA01F303F0030370
:1022D000012B03D0A642DED1BDE8788108FA01F1D6
:1022E00041EA0E0102F80C104DF006FAF2E700BFC9
:1022F000645201201FB50223009303AB3CF098F910
:10230000039B23B10B2B08D0184647F09FF84000E1
:1023100040F0010005B05DF804FB0620FAE700007C
:102320000C4B4FF47A721B68B3FBF2F3013BB3F131
:10233000807F09D2084A5360084BF02183F82310AC
:102340000023936007231360044B0020DA6883F8AE
:10235000230070470000002010E000E000ED00E0E6
:10236000431C14BF00F16040064B4FEA011118BF37
:1023700000F56140C9B214BF80F8001383F8231040
:10238000704700BF00ED00E0924B37B59A6802F04D
:102390000C02042A07D09A6802F00C02082A1DD108
:1023A0005A6851021AD58B4B1B6803689D0733D5B9
:1023B000884B9A6812F00C0F07D09A6802F00C0252
:1023C000082A59D15B685C0256D4824B1A6891077F
:1023D00015D5C268012A12D001200EE01A687D4985
:1023E00042F480321A607C4B1C680A689203DCD489
:1023F0001A68121B642AF8D9032003B030BD19688B
:102400000369F82292FAA2F2B2FA82F2934021F022
:10241000F801704A0B43136003681C0749D4036832
:10242000590724D5002301936A4B1A6C42F080525D
:102430001A641B6C03F080530193019B674B1A686D
:1024400042F480721A60644A14681968C9054BD551
:102450008168604B01294CD1196F41F00101196766
:1024600014685C4941F288350B6F9B075DD5816923
:1024700000295FD10020C0E7C168574B584A69B1B5
:10248000012111601C6853490A68920701D5096847
:10249000B6E71A68121B022AF6D9ADE711601C686C
:1024A0004C490A689507B7D51A68121B022AF8D951
:1024B000A2E74169484B4B4A59B1012111601C68A0
:1024C00044494A6F9207AAD41A68121B022AF8D903
:1024D00092E711601C683F494A6F95079FD51A68BB
:1024E000121B022AF8D987E71168091B0229ACD907
:1024F00082E7052904D1196F41F004011967ABE7A0
:102500001C6F24F001041C671C6F24F004041C677A
:102510000029A5D1146841F28835196F8907A6D51D
:102520001168091BA942F8D966E713681B1BAB4267
:102530009AD961E7274B9A6802F00C02082A3FF407
:102540004BAF294C244A02294FF00001216036D1BB
:102550001568196889012DD4D0E907150D43416A22
:1025600047F6C07393FAA3F3B3FA83F39940836AEF
:102570005B082943013B4FF4403595FAA5F5B5FAC0
:1025800085F5AB400B43C16A4FF0706090FAA0F044
:10259000B0FA80F081400B430E494B600123236069
:1025A00010680B689C013FF565AF13681B1A022B7E
:1025B000F7D921E71168491B0229CAD91CE710681D
:1025C000196889017FF556AF1168091A0229F7D9F0
:1025D00012E700BF0038024028E6002000700040EB
:1025E00000004742800E47426000474210B58AB063
:1025F0000B4C03A84DF006F8059B00930949DDE953
:10260000032320464CF06CFC069A099B0192009330
:102610000549DDE9072320464CF062FC0AB010BDF5
:10262000B0360508541C0508781C05082DE9704FC4
:10263000DFF868B14B49DBF890224B484CF050FC76
:10264000DBF88822920078D0DFF85491DFF8188107
:10265000DFF850A100250EE0012E3DD02E22434987
:1026600040464CF03DFCDBF888320135B5EB830F7A
:102670004FEA830261D215F03F0610D005F0030641
:102680007600DBF88422AB08D35C43FA06F606F04A
:102690000306022E1ED0032EDED16D22DFE7DBF80B
:1026A00084122C46A00804F00303085C5B0040FA87
:1026B00003F39B0702D101349442F3D3621B7F2AB8
:1026C0002FD805F0030676002A01494640464CF013
:1026D00007FCD6E73D22C2E7DBF89012244B2A0123
:1026E0008A589A4230D0234B9A422FD0224B9A429A
:1026F00030D0224B9A422BD0214B9A4228D0214BEA
:102700009A4229D0204B9A4226D0204B9A4227D079
:102710001F4B9A4222D01F4B9A420CBF4D22682277
:102720009DE79209514640464CF0DAFBDBF88832CF
:1027300024F03F05B5EB830FC6D3BDE8704F1649B3
:10274000012200204BF0BEBE542288E74C2286E7CF
:10275000532284E7442282E7412280E742227EE737
:1027600046227CE7C01C0508B0360508001D050898
:10277000E43905084C39050850380508B039050812
:1027800008380508D4370508A0370508803805083B
:10279000A43805087C390508BC1C05085C520120DA
:1027A000F81C0508DC1C050870B54668B1420446F3
:1027B00028BF31460D4601214DF072FAA368681C0E
:1027C0005919721B18444EF09FFA6368A0680133D0
:1027D0006360284470BD00007FB5054610200C469C
:1027E00016464DF061FF0023C0E90034084B029308
:1027F000084B0190039304AB13E90E00846034444A
:10280000C460284604B0BDE870404EF001B800BF77
:1028100049E3040811F004080EB403B5054906485D
:1028200004AA019242F0E8F902B05DF804EB03B0AB
:10283000704700BF031D05087C3705082DE9704F60
:102840000B4601EB020804460D460022984517D8B6
:10285000002A0CBF272622262149DFF89490DFF8B2
:1028600094A0DFF894B0324620464CF039FBA845DE
:1028700010D8324620461A49BDE8704F4CF030BBA4
:1028800013F8011B272903D02229DFD12726E3E7EC
:102890000122DBE715F8012B964205D1114932469A
:1028A00020464CF01DFBE2E75C2A04D10E4920468D
:1028B0004CF0D7F8DBE71F2A03D97E2A0DD8084948
:1028C000EEE70A2A01D10949F1E70D2A01D159465B
:1028D000EDE7092A01D15146E9E74946E0E700BFA3
:1028E000001D05080F1D0508131D0508161D050808
:1028F0001F1D05081C1D0508191D05082DE9734F2E
:10290000704ADFF8C8A100230C684FF0010C0CFAE4
:1029100003FC0CEA04053CEA040440F0BD804C686A
:1029200024F01009B9F1020F16D14FEAD30800EBD9
:10293000880803F0070BD8F820604FEA8B0B4FF0A4
:102940000F0E0EFA0BFE26EA0E0E0E6906FA0BF6B5
:1029500046EA0E06C8F82060D0F800E04FEA4308C7
:10296000032606FA08F66FEA060B2EEA060604F0BE
:10297000030E0EFA08FE09F1FF394EEA0606B9F118
:10298000010F066011D886680BEA060E022606FAC9
:1029900008F646EA0E068660466826EA0C0CC4F382
:1029A00000169E4046EA0C064660C6680BEA060B17
:1029B0008E6806FA08F646EA0B06C660E6006BD596
:1029C0004FF0000BCDF804B0DAF844C03E4E4CF4A2
:1029D000804CCAF844C0DAF844C00CF4804CCDF8FE
:1029E00004C0DDF804C023F0030C0CF1804C0CF59E
:1029F0009C3C03F00308DCF808904FEA88084FF08D
:102A00000F0E0EFA08FEB04229EA0E0E4BD006F564
:102A10008066B04249D006F58066B04247D006F5E0
:102A20008066B04245D006F58066B04243D006F5D8
:102A30008066B04241D006F58066B0423FD006F5D0
:102A40008066B0420CBF0726082606FA08F646EA5A
:102A50000E06CCF8086016686FEA050C14F4803F87
:102A60000CBF06EA0C062E431660566814F4003FAD
:102A70000CBF0CEA06062E435660966814F4801FBD
:102A80000CBF0CEA06062E439660D668A40254BF1B
:102A90000CEA06062E43D6600133102B7FF434AFC8
:102AA00002B0BDE8708F5E46CFE70126CDE7022673
:102AB000CBE70326C9E70426C7E70526C5E70626B0
:102AC000C3E700BF003C0140000002400038024064
:102AD00038B5044609200D4619F020FD40B1002309
:102AE000C0E9003343730123048144810573C3812A
:102AF00038BD49B14B8E3BB1282B86BF283B9BB2DA
:102B00000023984228BF1846704714312DE97043BE
:102B100089B28046914622204FF420721E4619F059
:102B200063FD0546D8B1BDF8183044685BBA76BA83
:102B300063802680C4F8049040461AF0BDF89DF8E2
:102B40001C30A0601B0243F05003A381BDF820306D
:102B50005BBAE381002323746374A374E37428468F
:102B6000BDE870831FB5438D029310230193038B3F
:102B70000093C38A0446406AFFF7C7FF18B1628D0D
:102B8000636A1344E36204B010BD70B50C4694420E
:102B90001E469DF81410049B1AD25D8B6D0617D447
:102BA00019B1D96E09B91B6F93B104F2233525F021
:102BB00003018A4228BF0A4691B24FF4207219F0ED
:102BC00013FD20B143891B1B33800481448170BDF8
:102BD0002146F2E72DE9734F036801930DF1040CD0
:102BE0000C46042200254FF00A0E4FF02E081CF868
:102BF000010B0026B0FBFEF382460EFB13090DF11C
:102C0000080BD8B233469B44013609F13009BAF1BA
:102C1000090FF6B20BF8089CECD80CF8010C2E4604
:102C20002046FF2B05F101050DD10F2E18DC0446BF
:102C3000013A12F0FF0204F8018BD8D10270084665
:102C400002B0BDE8708F5C1E0F2EE4B208D802AE51
:102C500033442E4613F8083C00F8013B2346E0E7D6
:102C60000020EDE72DE977410A4C05460E469046D7
:102C700001AA05212846FEF7F7F938B9019B334030
:102C8000434503D0013CF3D16FF06D0003B0BDE8C4
:102C9000708100BF41420F0010B5064CD4F81832C5
:102CA000217A5B68201D9847D4F824020DF0B2FD0C
:102CB000002010BDE4D0002010B5124C012384F890
:102CC0000032D4F81832217A5B68201D9847D4F876
:102CD00024020DF09FFDD4F824428CB1032384F824
:102CE000B93320460DF096FD2368B3F1A04F01BF24
:102CF000054A536B23F080035363002384F8B933F0
:102D0000002010BDE4D0002000380240114B1B68A9
:102D10005B68C3F342320270C3F30352C3F303414F
:102D200002EB820201EB4202C3F30031C2708A005F
:102D30001144C3F3032202EB41024270C3F30112B8
:102D400002EB820203F00F0303EB420383700020C7
:102D5000704700BF00400020154B1B689A6A426014
:102D60001A691B68C2F30E028260C3F3064202F0C6
:102D70004001C170C2F3011101EB810102F00F02A9
:102D800002EB41020270C3F30232C3F3032102EBF0
:102D9000820201EB42024270C3F3021202EB820292
:102DA00003F00F0303EB420383700020704700BF62
:102DB000004000202DE97043D0F80090DDF8288015
:102DC000DDE90656DDE908CEB9F1000F16D04BB9A2
:102DD000CC1EE4B2082C04D80B4B53F824306BB152
:102DE0005B785BB1D9F814405CB1CDE9076CCDE9F3
:102DF00009E80695A446BDE8704360470348BDE86E
:102E000070830348FBE700BFEC27050880C1FFFF84
:102E100000C1FFFF38B50C4605460121204624F0CD
:102E20003FFC28B921462846BDE8384024F0AABB1B
:102E300038BD00002DE970471C46C36B8BB00646B9
:102E40008946904623B9404C20460BB0BDE87087B8
:102E500000F1800300F1600200F1980A04A80393D6
:102E6000029224F070F9DDE902238CBB364C04A8F1
:102E700024F070FE002CE7D1504624F05EFCB0F543
:102E8000806FE0D8F26B12F0070518BF012505EB43
:102E9000D205C9F80050304624F078F9022848D10C
:102EA000B6F89E30D6F898C0B5EB830F4FEA830092
:102EB00031D82B46984221D12E460023B3422CD143
:102EC0008542C1D92A1A002140444DF035FFBBE7A5
:102ED00012993046CDE9004104A928F09BF8044638
:102EE0000028C4D1014608A824F05FFB0028BDD00B
:102EF00004A9504624F0D4FC0446B8E723F00306A6
:102F000003F00302D1005CF80620CA4012F0FF0F64
:102F100016D10133CEE70646CFE723F0030E03F0C8
:102F20000302D1005CF80E20CA4008F803200133E8
:102F3000C4E72A464146504624F079FB044683E71D
:102F40006FF0070480E700BF80B0FFFF2DE97343F7
:102F5000DDF820901C4616464B462246054688461C
:102F600027F0E8FE48B905F11C034CB1CDE9004952
:102F700042463146284628F04DF802B0BDE870833D
:102F80000048FAE780B0FFFF70B40568DDE9036C24
:102F90008DB14BB9CC1EE4B2082C04D8084B53F8C1
:102FA000243043B15B7833B12C693CB1CDE9036C7B
:102FB000A44670BC6047034870BC70470248FBE7FA
:102FC000EC27050880C1FFFF00C1FFFF37B50223D2
:102FD000154601AA044626F051F918B9019B1BB900
:102FE0006FF0630003B030BD236893F90030002B0D
:102FF000F6DB019B3BB122681178A1B1042BEFD81D
:1030000001D10B06ECD400232B60019B5A1E0192C8
:10301000002BE7D02368296813F8012B42EA01222C
:103020002A602360F1E70132013B22600193E0E76F
:103030002DE9704F9AB01E46002304900C4690462E
:1030400005460093EB69A3B1D5F8903100954BB9D3
:103050004FF4CA71012020F047FEC5F8900118B95D
:10306000994E60E01D46EDE71AF07FFE0095D5F819
:1030700090510020CDE90B00CDE90D00CDE90F0006
:10308000CDE911001390002D00F0C083002C00F05A
:10309000BD83302306AA04EB080107A8CDE9068406
:1030A00026F0ECF880B128461AF02AFE874E009BE5
:1030B0001BB1009A0023C2F89031049B9D4232D08C
:1030C000284620F0E1FD2EE0DDE9063202EB03099F
:1030D000A9EB0401A96056B3012020F005FE07907A
:1030E000E860002800F09083AA6821464DF0DEFDDC
:1030F0000123AA682B60069B0799D31A0B440793F8
:1031000001EB0209079BAB6106AA3023494607A8D9
:1031100026F0B4F8064668B12846A6F506561AF019
:10312000EFFD002EC3D130461AB0BDE8708FEC60C1
:103130002E60E7E7DDE9063202EB0308AB69A8EB96
:1031400003036B6117AAA023414607A826F096F84F
:1031500090B310F1620F2BD1EE61079BA8EB030235
:10316000002A45DD1A7802F07F02022A42D15A1C59
:1031700007921B782B6205F12402414607A826F02E
:103180004DF878B3B0F50A5427D10BAB05F12C02FA
:10319000414607A826F086F810B1B0F50C541CD1B2
:1031A000EB69022B28D928461AF0AAFD484E7EE783
:1031B000A0F506548CB9D0E71799079E0E4405F187
:1031C0001C02314607A8FFF701FF10B1A0F5085413
:1031D000F0E7079B9E42C0D03E4C28461AF090FD77
:1031E000264664E7079B6A6AAB6213440793CCE701
:1031F000394CF2E7394CF0E70133EB61D5F88C310B
:1032000083B9374C206808B9364CE6E72B6B626807
:103210009A4205D1696B4DF0A5FD002800F00883A6
:103220001434EFE7304CD8E7304CD6E71799079EB7
:103230000E4405F19002314607A81AF0C1FD04467C
:103240000028CAD105F1A802314607A81AF0B8FD36
:1032500004460028C1D1079B9E4200F02283244CE3
:10326000BBE7079ED5F8F010C5F8F460A3230E4421
:10327000C5F8EC3017AA3023314607A825F0FEFF29
:10328000002840F06D83079B179A13449E4200F07C
:103290006C83184CA1E70023CDE9143316930993EE
:1032A0000299302308AA07A825F0E8FF30B3A0F55B
:1032B0001454002C91D1079B984500F05B8228465E
:1032C0001AF01EFD0C4EF2E680D7FFFF80DEFFFFF6
:1032D00080DAFFFF9ADDFFFF20DDFFFF1EDDFFFF2D
:1032E000503A0508D2D9FFFF00D8FFFF00DDFFFFED
:1032F0009ADBFFFF9ADAFFFF1ADEFFFFDDE9072303
:1033000002EB030A5146062315AA07A825F0B6FFCB
:103310000028CCD10623159A1493079B1693514687
:10332000134407A809AA079326F067F810B110F113
:10333000620FBCD1042308AA514607A825F09EFFBE
:103340000028B4D1DDE907631E44B245A1D1DDE90F
:1033500015B1AA4C206830B9099B0796002B00F0E4
:103360000883A74C39E763685B4507D15A4601914A
:103370004DF0F8FC0199002800F051821434E9E77F
:103380001A43202BC5F8582100F03E8110DC013B88
:10339000072B00F2E981072B00F2E681DFE813F04A
:1033A000D600BD00E4015800E401E401E40162013B
:1033B000B3F5006F74D0B3F5803F00F03C81B3F5F6
:1033C000807F40F0D181C5E95711302317AA3146DB
:1033D00007A825F053FF28B1A0F51454002C00F0E5
:1033E000C882FAE6079B9E4200F0C38205F5AE72E2
:1033F000314607A8019226F000F878B110F1620F6B
:10340000019AE9D1314607A8FFF7E0FD0028E3D192
:10341000D5F85C3113B10123C5F85C31079B9E429E
:1034200000F0A78205F5B072314607A8FFF7CEFD80
:103430000028D1D1079B9E427FF42BAFD5F8603195
:103440006FF00042934266D00133C5F8603190E2DC
:10345000002317AA314607A817938DF860301993F7
:10346000FEF740F820B1B0F5145400F08282B4E6C3
:10347000179B13B9C5F864317BE21999C5F864014B
:103480000A5CC40002FA04F4D5F864210130224336
:103490008342C5F8642100F06C820428F0D168E210
:1034A000062305F5B4701022CDE917304DF044FC29
:1034B00030230AAA314607A825F0E0FE0028D2D121
:1034C000079B0A9A13449E421DD06FF06500CAE71D
:1034D0005A1C079293F800A0BAF1060F40F09C81A5
:1034E0000AAA314607A825F099FE0028BBD10A9BFD
:1034F000079A514617A822F0D5FF0028B3D1079BA1
:103500000A9A13440793079B9E42E1D8D5F870317D
:10351000002B40F02E823B4C5FE60023179317AA46
:103520000423514607A825F0A9FE00289BD10423B7
:10353000179AC5F80831079BC5F810311344C5F830
:103540000C2107939A4500F01482A2E600231793FA
:1035500017AA3023314607A825F090FE00287FF4F3
:103560003BAF079B179A13449E427FF492AE802391
:1035700017AA314607A825F081FE002839D1179AED
:10358000079BC5F81C3104211344C5F81821C5F860
:1035900014110793079B9E4228D9A12317AA3146ED
:1035A00007A825F06BFE00287FF416AF0799179B3C
:1035B00005F59072194407A81AF03CFD044600284E
:1035C0007FF40BAE822317AA314607A825F056FEDA
:1035D00000287FF401AF179A079BC5F83831022104
:1035E0001344C5F83421C5F830110793079B9E4258
:1035F000A9E710F1620FCDD0EEE600BF683B0508E9
:103600009EDAFFFF9CDAFFFF302317AA314607A896
:1036100025F034FE00287FF4DFAE079B179A134491
:103620009E427FF436AE05F1F802314607A81AF043
:1036300001FD0446D2E617918DF86010199117AA82
:10364000314607A8FDF74EFF00287FF40CAF179B0B
:1036500013B985F878318CE1012B7FF45CAF199BAD
:103660001B78F6E70DF15C0B30235A46314607A86C
:1036700025F004FE044668B1A0F51454002C00F0B7
:103680007881099B002B7FF4A8AD14F5025F00F050
:103690007081A2E5179A079B13449E4260D1002ACD
:1036A0005ED005F5A47A079B9E4205D84FF0000333
:1036B000CAF80C30E2D053E030235A46314607A80E
:1036C00025F0DCFD10B1A0F51454D7E7079A179B3D
:1036D000D3180193019906235A4607A825F0CEFD79
:1036E0000028F0D1179A079B0393042A3AD1194670
:1036F000A54805924DF036FBA44B059A002818BF4B
:103700001C46DAF8083073B1DAF80C300592002B59
:103710007ED11021012020F0E7FACAF80C00002821
:1037200078D0059A82460623CAF80030039BCAE97E
:103730000123079B179A1344019A07939A420BD9C6
:10374000019930235A4607A825F098FD0028BAD1E0
:10375000079B179A13440793079B019A9A42A2D09A
:103760008B4C8EE7894CCCE7099B002B40F00981FC
:103770000796FEE00EAB11AA494607A825F092FD78
:1037800018B1B0F50C547FF428AD2A6B129B9A4205
:1037900013D11399686B4DF0E5FA064668B90B9A98
:1037A0000E9B9A4209D10C9A0F9B9A4205D14AB1BD
:1037B00010990D984DF0D6FA20B128461AF0A0FACB
:1037C000744E74E4079BA9EB0302002A1ADD17AAC2
:1037D000494607A81C7825F0E9FD40B1B0F5125420
:1037E0007FF4FBAC079B99453FF49DAC67E5C5F8BA
:1037F0007C41179A079BC5F884311344C5F8802192
:103800000793EFE7644CE8E4644E50E4644E4EE402
:10381000644C36E7644C34E76FF0610023E62369BB
:10382000D5F8582112EA03013FF4AAAD5D4CD4E467
:10383000237C85F88831637C85F889310B9B052BC7
:1038400002D0002B7FF4F0AC0C9B002B7FF4ECAC8F
:10385000079B2B6406AA3023414607A825F00EFDDE
:10386000064600287FF458ACDDE9063105F1500228
:10387000194407A81AF052FB044600287FF4ADACA7
:103880002A6C079B9B1AEB6317AA3023414607A8B3
:1038900025F0F4FC00283FF4C9ACB0F510547FF4D7
:1038A0009CAC079BEB6406AA3023414607A825F091
:1038B000E5FC064600287FF42FAC069B53B1079920
:1038C00005F17002194407A81AF028FB04460028E5
:1038D0007FF483AC079AEB6CC5F8C820D31AAB64AD
:1038E00005F1CC02414607A821F0BEFF044600289E
:1038F0007FF473ACD5F8C820079B9B1AC5F8C43079
:10390000EB69023B012B19D8012305F1D402414692
:1039100007A81AF037FA044600287FF45EACEB697A
:10392000023B012B0AD8022305F1E002414607A819
:103930001AF028FA044600287FF44FACEB69032BF9
:103940007FF4B9AC079B98453FF414AFA32305F16E
:10395000F002414607A825F091FC00283FF481AC15
:10396000A0F51454002C7FF438ACD5E93C32D318C0
:103970000293079B029A9A423FF68DAC3FF49BACB0
:1039800087E4024C29E400BFE527050880DFFFFF3C
:103990009ADAFFFF80D9FFFF20DBFFFF80D7FFFF10
:1039A00000D8FFFF00DBFFFF96DAFFFF30B597B0CE
:1039B0006FF00403054604A801934CF088FF044609
:1039C00088B9114A029502A940F2EA6502200395DE
:1039D00031F096FC28462EF05FF901944CF09CFFE4
:1039E000019817B030BD059C084920683AF076FF71
:1039F0000028F5D0204641F045FA01A942F0DEF951
:103A0000019B5B420193EBE72C360508583705080C
:103A1000012973B5056806460C4625D92B6A9942DB
:103A200022D22146306801942BF0E2FD0199044630
:103A300010B9002002B070BD012815D0431C15D06C
:103A4000002228462CF02AF90028F3D12A6AAB6913
:103A5000911E8B4205D20133AB612B7A43F00103F7
:103A60002B729442DDD3E4E70220E3E70120E1E793
:103A70002DE9704F86B08046894616469A46002446
:103A80000DF1100B0F9BA34203D8002006B0BDE838
:103A9000708F0F9B1D1B0E9B082D28BF0825E31858
:103AA000CDE900A3CDE902B5331B4A4600214046CB
:103AB00028F0B6F80028E9D1109B2A461868594624
:103AC00026F0BEFB109B2C441860DBE72DE9704FFD
:103AD00086B081468A4616461D4600240DF1100B1D
:103AE000109BA34201D800201EE0109BA3EB04080A
:103AF0000E9BB8F1080F28BF4FF00808E318CDE976
:103B00000053CDE902B8331B52460021484628F045
:103B100087F848B90F9B4246191958464DF022F9CB
:103B2000002804D005DB022006B0BDE8708F4444B5
:103B3000D6E70120F8E700002DE9704F2DED028B4C
:103B4000AAB000249A46BDF8DC300493CDE90A44BB
:103B5000BDF8E030069308EE100ABDF9E430059395
:103B60008B461546A146504628F028F8DBF80C3065
:103B700000EB0508984564D209AACDE90182042327
:103B80000393DBF80020009218EE100A18EE102ABA
:103B9000002128F045F8002840F01B81099B1BBA42
:103BA0008AEA030ADBF800300A934AF0004A08F177
:103BB0000403CDF824A00B930AAE0999369B81EA41
:103BC00009021A40854B1A4039D1369BC3F3892329
:103BD000002B00F0A0803C2565432AAB2B44349891
:103BE00043F86C0C359843F8680C369843F870AC81
:103BF00043E91909049823F85C0C069823F85A0C39
:103C0000059823F8580C3A9843F8540C3B9843F81D
:103C1000486C43E91401DDE90A0143E91EB8443B5D
:103C200083E803002AAB1D44A5F14C03CDE905222E
:103C30003B936B4B3692013491463A93049245463E
:103C400091E7359B002B40F3C280349B1B6809939E
:103C5000349B5E6808333493359B013B3593A8460B
:103C6000ABE7B2F5817F1DD100250999C1F30903A6
:103C70009D42E4D2059B7268C1F389211944B3685F
:103C800043EA8121337803F5407341EA0351DDE9CA
:103C90003A3098470028C0F29C8006F10C06CED13D
:103CA0000135E2E70599324603EB8121DDE93A303F
:103CB00098470028C0F28D80C1D0002C00F0898088
:103CC0002AAA013C3C2303FB042353E91CA234929F
:103CD00053F8682C359253F8642C369233F85C2CE8
:103CE000049233F85A2C069233F9582C059253F863
:103CF000542C3A9253E9110153F8502C3B9253F84B
:103D00004C2C09920AAA53E91EB882E8030053F822
:103D1000609C53F8486C369A099BC2F389223AB1E9
:103D20000499C3F389228A4289D306998A4286D2AA
:103D3000C3F30A52002A82D040F201118A4290D184
:103D400007933A9B1A46264B9A423FF478AF3C229F
:103D50002AAB02FB04350021A5F178004CF0ECFF02
:103D6000349B45F86C3C359B45F8683C369B45F8E0
:103D700070AC45E91939049B25F85C3C069B25F895
:103D80005A3C059B25F8583C3A9B45F8543C3B9BD4
:103D900045F8503C079BC3F3090204920132069296
:103DA000049AC3F389239B1A059A13441BB20D4A44
:103DB0000593002345E91EB8CDE935320134B346F9
:103DC0004FF0005934934FF0FF3A984637E7002000
:103DD00073E72AB0BDEC028BBDE8708F0000F07F66
:103DE00039B4020800FC0F602DE9704F86B0DDE9A0
:103DF0000F4A013B119EDFF898B004938046894634
:103E000015460EB9304640E02B68E868023316D1FB
:103E1000D5E901120A44944211D28C420FD3121BED
:103E2000B242A4EB010128BF32460144504605923C
:103E30004CF03CFF059A92441444B61AE1E7D8F8D6
:103E400068C06FF00103DCF814102B60049BB4FB16
:103E5000F1F20B44234401FB1242B3FBF1FE01FBE0
:103E60001E315B1ADCF828108B4228BF0B46A21AC1
:103E7000CDE901036A60AB6000920E9B5A46494649
:103E8000404628F041FC0028BBDA06B0BDE8708F40
:103E900000FCF7FF2DE9704F88B006468946059271
:103EA0004BB911994FF0FF320A60129A002013604B
:103EB00008B0BDE8708F013B07A9806E079327F01B
:103EC00043FE10A90546B06E27F03EFE4FF0040AEF
:103ED00080460DF1140BA845059A03D3119B1A6077
:103EE000109BE2E7A5EB0804B4FA84F495FAA5F375
:103EF000B3FA83F3C4F11F049C4228BF1C46A300FD
:103F0000CDE90023CDE902BA04234A460021304618
:103F100027F086FE0028CBD1012303FA04F42D1BE1
:103F2000D9E700002DE9704FC488944292B006464C
:103F3000154678D33D4B06931FFA82F90123ADF85D
:103F40001030A4EB09030DF11C089BB29A4238BF54
:103F50004B4605912C22002140469B46ADF812307D
:103F6000CDF80C804CF0E8FE336801931FFA8BFB10
:103F70004FEA8B0203EB850140464CF097FE0BF1B4
:103F8000020B019BADF812B04FEA850A2A460021C8
:103F9000944240D803A905AA084624F0CDFB044664
:103FA000A8BB03AA3146304623F0F4FC044670BB9C
:103FB000B6F806B0ABEB09039BB29D4238BF4B4647
:103FC00001462C224046ADF812304CF0B5FE336865
:103FD000BDF8129001934FEA890203EB0A014046B3
:103FE0004CF064FEBDF81A20019B9144ADF812908C
:103FF0005D4514D303A905AA084624F09DFB044699
:1040000028B903AA3146304623F0C4FC04462046B2
:1040100012B0BDE8708F43F822100132B8E743F8C0
:1040200025400135E4E70024F1E700BF010002006C
:104030002DE97F4F9B464368DDF83C90DDE90DA5F7
:1040400004460E4690467BB94FF420724FF4FA7145
:10405000362018F0C9FA606020B94FF0FF3004B084
:10406000BDE8708F0C232381B6F800010A3080B2BE
:10407000BAF1000F01D0284480B2B9F1000F03D08B
:10408000B9F80031184480B22389184463681B8949
:104090009842E2DC012342463146CDF800B020468A
:1040A00019F030F80C9818F007FE238903900422C9
:1040B000606803A917F04FFE0028D0D1B4F808803B
:1040C00008F10606B6B22681BAF1000F0BD0ADB2E8
:1040D000606833462A46514617F03DFE0028BED19F
:1040E000228915442581B9F1000F0ED1238960681A
:1040F0009B1B5BBAADF80A3008F104039BB20222A5
:104100000DF10A0117F027FEA9E74946204618F0ED
:10411000A0FF0028EAD0A2E770B5284B1B7808332F
:10412000D0B050F8236030220546002103A84CF09F
:1041300003FE31460FA8029519F010F901230093F0
:10414000FF220FA902A818F0DDFF044678BBBDF8D6
:104150001A20316C0132ADF81A2091B101231A46B0
:104160000FA819F01BF801230093FF220FA902A842
:1041700018F0C8FF0446D0B9BDF81A300133ADF8C5
:104180001A306B6813B101238DF83930336C13B1D9
:10419000C0238DF83B30002141F2E94302A8ADF87D
:1041A0001210ADF81830059119F0F6F9044603988D
:1041B00008B118F091F8204650B070BD10C0002032
:1041C0000E4B196830B4B1B10D4D00228C68AC4271
:1041D0000DD1CC6884420AD1086832B9186030BC6D
:1041E000082018F06DB82146F0E71060F7E70C687A
:1041F0000A46002CF7D130BC704700BF20C0002019
:1042000025D801082DE97847064615460C4659B3CE
:104210000B89934228D338B30389934224D34FF0B8
:104220000009CA46B6F80A80628970686168A8EB1E
:104230000A08A2EB0902904528BF9046A8458CBF0A
:10424000A8461FFA88F84246494450444CF02EFDD7
:1042500062897389C144A5EB08009145C24485B2C7
:1042600022D32468F4B955B36FF00F0011E04FF07A
:10427000000A628923899A4201D123685BB92EB171
:10428000728933899A4201D1336823B9002DC9D18B
:104290002846BDE878876FF00500FAE7002CE6D1E4
:1042A000A246EDE74FF000099A45E2D13668002EAC
:1042B000F4D1002DD8D1002CD9D12046E9E79A4578
:1042C000A946DDD1F2E7000070B5042018F026F908
:1042D000044678B1084D024605F110062B4603CB83
:1042E000B342106051601D4602F10802F6D16068C9
:1042F00017F0BAFE204670BD00C000202DE97047BF
:10430000AB4B87B091460C4619F0010F1A68A949CA
:10431000009014BF542352238046A7484AF0E0FD82
:104320006379039323790293E3780193A378227846
:10433000A2490093A04863784AF0D2FDE37A039340
:10434000A37A0293637A0193237AA27900939C491A
:10435000E37999484AF0C4FD227B637B43EA022358
:1043600040F60602934200F0868048F2DD629342F6
:1043700000F08380B3F5006F40F08180914A92494C
:104380008D484AF0ADFDB8F10E0F69D9237B082B9B
:10439000A8F10E0504F10E0640F0D280637B002BDD
:1043A00053D1A37B452B50D194F82130059394F839
:1043B00020300493E37F0393A37F0293637F0193F1
:1043C000237FA27E00938149E37E7B48258A4AF0C1
:1043D00087FDE27D6DBA062AADB255D104F1260003
:1043E00011F021F8824604F12A0011F01CF8E18D49
:1043F000268EA38C628C49BA76BAC1F30338B6B262
:10440000C1F308015BBA52BACDE90281CDE900A03F
:1044100004966F4968489BB292B24AF061FDB8F1C8
:10442000050F04F13606A5F128050ED9A8F10508F7
:104430004FEA8808674960484AF052FD31464046D5
:10444000FCF71AFF4644A5EB080519F0020F07D048
:10445000614959484AF044FD31462846FCF70CFFB3
:1044600019F0040F00F0A1805C49534807B0BDE883
:1044700070474AF035BD5A4A81E75A4A7FE7A28918
:10448000594952BA92B27BE7112A51D1B4F822A00D
:10449000B4F82480554948489AFA9AFA98FA98F854
:1044A0001FFA8AFA1FFA88F8434652464AF018FD66
:1044B000E58CBAF1430F6DBAADB204F12A061CD1F6
:1044C000B8F1440FC1D14A493B484AF009FD314691
:1044D0006C20FCF7D1FE474937484AF001FD94F8BB
:1044E0001C31013BEC3D04F58B76072BADD8DFE8A2
:1044F00003F00C11131517191B1DBAF1440FA4D1A9
:10450000B8F1430FA1D13C49DEE73C492A484AF0C3
:10451000E7FC9AE73A49F9E73A49F7E73A49F5E714
:104520003A49F3E73A49F1E73A49EFE73A49EDE723
:104530003A49214804F12206143D4AF0D1FC84E7AF
:10454000862B82D1637BDD2B7FF47FAFA37B1B099E
:10455000062B7FF47AAF304610F065FF637D02933F
:10456000237D0193638A2E495BBA9BB2C0F3075245
:104570000093C0F3130310484AF0B2FC29490E48D7
:104580004AF0AEFC04F116011020FCF775FE264936
:1045900009484AF0A5FC04F126011020FCF76CFE46
:1045A00004F13606A8F136054FE707B0BDE870877D
:1045B00028E60020341D05080C370508491D0508AC
:1045C0006C1D05082F1D05088F1D0508A51D050874
:1045D000CA1D0508161E0508D61E0508BC1C0508C0
:1045E000261D05082A1D0508981D05081D1E05081D
:1045F000381E0508461E05083F1E05084D1E050805
:10460000571E05085E1E0508671E0508701E050872
:10461000751E05087B1E0508841E05088C1E0508EE
:10462000951E0508C61E0508CE1E050813B50C4CC0
:10463000246824680B4600F07F4164B9002914BF48
:1046400013210321019200220092024604480DF03A
:1046500069FD02B010BD002914BFEC21EB21F1E788
:10466000BCC00020FF292DE9734F044603D98B18E5
:10467000B3F5885F11D9002504F2BD102B46FF2445
:104680004FF0010C4FF0100E4FF055084FF0AA09F3
:10469000954266D14FF000083CE0EFF3118B6023A8
:1046A00083F31288560250D0DFF8A481A1F58071FF
:1046B00040464D020DF026FED8F80030D3F8109099
:1046C00009F580531B680193434542D141F204022E
:1046D00059F802104B1C3CD0B1EB153F4FEA153096
:1046E00037D3721E2A44B1EB123F32D881421AD915
:1046F0004FEA013A2246C5EB013128460091FFF707
:1047000095FFDDE90013804640B118460DF0F0FD3D
:104710008BF31188404602B0BDE8708FA6EB0A0605
:104720002E440C445546C5F30B01C1F58058B045E5
:1047300028BFB0464246494420464CF0B7FAB6EB93
:10474000080604D142480DF0D3FDB046E0E74444EA
:104750004544224631462846FFF768FF80463C48DC
:10476000D4E7CD4271D1A0F5DF7606F8013FB04223
:10477000FBD143708470C470047180F805C08471EB
:10478000C4710472437280F80AC0C3720373437326
:1047900080F80EE0C373037443748374C3740375A9
:1047A00043758375C375037643768376C376037743
:1047B00043778377C37780F82030013580F8213044
:1047C00080F8223080F8233080F8243080F82530BB
:1047D00080F8263080F8273080F8283080F829309B
:1047E00080F82A3080F82B3080F82C3080F82D307B
:1047F00080F82E3080F82F3080F8303080F831305B
:1048000080F8323080F8333080F8343080F835303A
:1048100080F8363080F8373080F8383080F839301A
:1048200080F83A3080F83B3080F83C3080F83D30FA
:1048300080F83E3080F83F3080F8403080F841808A
:1048400080F8429000F5007022E76FF0040861E7FD
:10485000BCC000202DE97043804686B0D1E90060DD
:104860000C4641F04DFE0622054603A9A06840F023
:10487000F7FDB8F1030F13D17168049A039800296A
:10488000B8BF01F2FF1105EB6121520A01F58071F9
:10489000FFF7E8FE400040F0010006B0BDE870837D
:1048A000174B9E4225D0E06841F02AFEB368B3EB77
:1048B000053F804620D9039AD6F80490049C0192C3
:1048C000EFF31186602383F3128874B10D4805EB72
:1048D00019350DF017FD2146019A08EB0530FFF759
:1048E000A5FE044607480DF003FD86F31188204617
:1048F000D0E76FF00400CDE76FF00D00CAE700BF0E
:1049000070520508BCC000202DE9704F4C4E356830
:1049100090F83D3086B0202BCDE90212044603D03A
:10492000022006B0BDE8708F464900951923012288
:104930000CF0ACF90028F3D194F83C30012BEFD007
:10494000012384F83C302368DFF8F8B01A68D207F6
:104950005EBF1A6842F001021A601A6822F400620F
:104960001A60242384F83D3000232364A3F58033A8
:10497000E3624FF001094FF0A00A2268136843F484
:10498000807313604FF001110095C8230022204668
:104990000CF07CF918B10320C3E79946EDE72368D2
:1049A0009DF808201A6135685869596994F83D20C6
:1049B000C0F34000C1F380210143D2B201D1A02A4B
:1049C00020D14FF0200884F83D805A6912F0020F80
:1049D0001A6842F400721A601BD0002205925A69CC
:1049E00005929B690593059B1649009519230122A1
:1049F00020460CF04BF90028CDD184F83D8084F896
:104A00003C008EE73268521BC82A88BF84F83DA05C
:104A1000CAE76FF480625A61594600951923012252
:104A200020460CF033F90028B5D1039A914509F1DD
:104A30000103B2D184F83C0084F83D80012070E786
:104A400028E600200200100010B58021044609F07D
:104A50004DFA20460021BDE8104009F047BA08B5DC
:104A6000D0F814320BB9022008BD1B680121984709
:104A70000028F9D0F7E700004269012303FA02F1A8
:104A80003D4B30B5D3F8004244F00104C3F8004276
:104A9000D3F8004224F47C54C3F80042D3F8004217
:104AA000456A44EA0524C3F80042D3F81C5225EABB
:104AB0000105C3F81C52C569CC43002D35D1D3F88C
:104AC0000C522540C3F80C52D200C568838802F10D
:104AD000804202F5C84243EA0543C2F84032856885
:104AE000038843EA0543C2F844328369224AABBBD8
:104AF000D2F804322340C2F80432036993BBD2F8DF
:104B000014321C40C2F81442036A1B4A012B02BF34
:104B1000D2F81C320B43C2F81C32D2F8003223F018
:104B20000103C2F80032002030BD012DDDD1D3F8E1
:104B30000C520D43C3F80C520368858845EA0345BF
:104B4000D30003F1804303F5C8438289C3F8405280
:104B5000856842EA0542C3F84422C6E7D2F8043227
:104B60000B43C8E7012B01BF034AD2F814320B43B1
:104B7000C2F81432C8E700BF0064004010B5D0F896
:104B8000180290F8653800EBC3040133DBB2042B44
:104B90004FEA022208BF002384F84418C4F84828CA
:104BA00080F8653810BD00002DE970413C4BD3F80A
:104BB000A44195B0D4E90168054690BBA27B04F1FD
:104BC0000E03B046012A30D0022A42D0002A54D126
:104BD000A169002D4A690CBF6FF002006FF0100050
:104BE000024001264A611E70B8F1060F16D044F04B
:104BF00065F84AF04DFE02A84BF069FE0246002817
:104C00003DD16B4602214046CDE9004644F0B6F85E
:104C10004BF082FE4AF034FE44F030F815B0BDE8A7
:104C20007081E27B04F10F03CCE7A269002D51698A
:104C30000CBF6FF004006FF0200001EA0001516129
:104C40004FF008010CBFD160116102221A700326D7
:104C5000CAE7A269002D51690CBF6FF008006FF020
:104C6000400001EA000151614FF010010CBFD1601A
:104C7000116103221A700526B6E70126B4E7690020
:104C8000062241F00101204605F020FB227B054968
:104C900005484AF025F90399034844F013FBB9E7A6
:104CA0005C520120DD1E0508B036050800B5002362
:104CB0008BB0CDE904306846CDE90033CDE902334D
:104CC000CDE90633CDE90831FFF7D6FE0BB05DF82C
:104CD00004FB000009484368DB0710B50CD5EFF36F
:104CE0001184602383F312880DF082FB00210120E0
:104CF00007F0AAFE84F3118810BD00BFBCC00020DD
:104D00000A4808B54368DB070ED5094B82681B6863
:104D10009B1AB3F57A7F07D30DF06AFBBDE8084014
:104D20000021012007F090BE08BD00BFBCC00020DC
:104D300028E600202D4B37B51D78002D53D10121D9
:104D400019702B4B2B4C2C4A5A602C4B23602C4B4C
:104D50002C48656010229A612B462A4608F078FE9E
:104D60002368DA68986812682946904720460DF053
:104D7000C9FAAB2120460DF050FA23681B68012BBD
:104D800025D16A4605212046CDE90055FCF76CF98E
:104D900020B901AA35212046FCF766F9019A9DF851
:104DA0000050120292B2154302F4007252EA00035C
:104DB0000DD106210F480DF030FA0E4845F400736E
:104DC000022201210DF009FA0A480DF0A7F909485D
:104DD0000DF08EFA0023A3600B4B602283F80423AE
:104DE00004200CF0EDF903B030BD00BFD0D000209E
:104DF000D4D00020BCC0002011120008E8540508DF
:104E000000000240AC3E050800E100E070B5054638
:104E10000846164641F074FB013805284DD8DFE8F6
:104E200000F00316161A272FFFF784FF304641F0D3
:104E300067FB012803D1224B9D4205D02873002037
:104E4000400040F0010005E04FF0FF30F8E7FFF7C9
:104E500041FF012070BD1A4B9D4206D02A7BA868F5
:104E60000AB1000BECE7400AEAE74FF48850E7E7A5
:104E70002B7B002B14BF4FF400504FF48060E0E711
:104E80002C7BC4B130466D6841F03AFB2D0B0446D3
:104E9000EFF31186602383F312880A480DF032FA8B
:104EA0006119090307480DF0E0F9044605480DF0C3
:104EB0001FFA86F311886000C3E70620CAE700BF27
:104EC00070520508BCC000202DE9704F814B8AB09C
:104ED0001A780193002A59D07F4CDFF81C82DFF842
:104EE0001C9200232360C2467C4E98F800B0737F6A
:104EF000354603F0FF02002B32D1794B3277196827
:104F0000784A7948BBF1000F62D0036F9B0740D508
:104F10004FF4807100230393734B186C40F0805062
:104F200018641B6C03F080530393039B6F4B18684A
:104F300040F480701860D2F800C01868C0054DD5E4
:104F4000694B186F10F440704ED1674B9A6822F489
:104F5000F8129A601A6F11431967654B01221A60A3
:104F6000022373773368CA225A6253225A62FCF7CB
:104F700061F8002856D03368FF225A620423737701
:104F80000CE06FEA13436FEA034323600AB0BDE805
:104F9000708F13685B1AB3F57A7FB6D92368BBF1BB
:104FA000000FEED043F0807323604E4B00251A684B
:104FB0004B4B8AF8005028461A60FCF797FE0BF01E
:104FC00097FD757790E713685B1AB3F5FA7FE5D81C
:104FD000436F9B07F7D54FF400719BE71068A0EB78
:104FE0000C000228A9D9D9E78842AED0186F4FF03B
:104FF000010CC9F800C020F440704FF0000CC9F853
:1050000000C01867186FC0079FD5D2F800C041F2E2
:10501000883E186F800798D41068A0EB0C0070458C
:10502000F7D9BBE72B6829699A6822F4E00222F0DD
:1050300040029A606A6898680A4369690A430243B1
:105040009A60EA681A611A69A96842EA01421A611B
:105050006FF08002DA601A6CA96922F480221A6467
:105060001A6C0A431A64FF225A6201236B771C4AA6
:105070001C4B12681B689B1A9BB243EA0B7B4BF0DC
:105080000053236004A81B4B0493FCF7C9F928B90B
:10509000CDE90800059005A8FCF750F9124B5A6FAE
:1050A00012F0006F1A461EBF4BF0005343F48033DA
:1050B0002360536F0C4A5B0142BF236843F4003303
:1050C0002360536F43F080735367019A002313707A
:1050D0005CE700BFB4C00020B0C00020004000204A
:1050E000B8C0002028E600200038024000700040D0
:1050F0003C0E47420401010F29000020400E4742A8
:1051000000B589B0FFF7E0FE03A8FDF725FE02A871
:10511000FDF7FCFD9DF80E309DF80B0001939DF806
:105120000D309DF8091000939DF80A209DF80C3071
:1051300000F5FA600DF0ACF9002109B05DF804FB50
:105140007FB5FFF7C1FE01A8FDF706FE6846FDF733
:10515000DDFD9DF802309DF801001B0443EA405339
:105160009DF8040043EAC0239DF8050043EA40137C
:105170009DF8060043EA50039DF80300143043EA0B
:10518000406007B05DF804FB2DE9704FD0F8008057
:105190008AB00023437102910379019314460521DB
:1051A0000DF11F0240462AF097F89DF81F30DD07E9
:1051B00000F1CD82580700F1CC8208AA03214046B5
:1051C0002AF08AF830B9089A531EB3F5004F01D27D
:1051D0001A4201D001230893019BA3B909AA012116
:1051E00040462AF079F888B9029B13F0080F099B12
:1051F00014BF4FF000094FF03F094B451BD3A3EB01
:10520000090309932EE0B8F1000F01D1012013E04A
:1052100023460122002108F104002AF0A9F9002800
:10522000F4D194F8FF2194F8FE3143EA02234AF6C0
:105230005522934203D00E200AB0BDE8708F019B27
:1052400004EB031303F5D77593F8B231002BF2D0BA
:1052500005F1080029F0DAFE814605F10C0029F07D
:10526000D5FE0990DDF824B0BBF1150FE3D9029B00
:1052700013F002030593029B2DD003F00703022BCA
:1052800000F07682029BD90740F172824E4B4FEAC2
:105290001B30012633F8022B12B190426FD200224C
:1052A00040F6F573BBFBF6F59D429BBF05EB45054C
:1052B000013502356D088CBF6D0003354FF02003BA
:1052C00005F2FF1504938CBF4FF0020A4FF0010A5C
:1052D0006D0A012317E0DA07D8D41320ACE772086F
:1052E0001646BBFBF6F339489D00A3F57F43F63B1A
:1052F00005F2072583424FEA55259CD800230493E5
:105300004FF0030A202309EB030000900498DDF816
:1053100020E005EB000C009884440EF1FF30BAF158
:10532000030F6044CEF1000E08BF009900EA0E00A2
:10533000A0EB0C0001BF09181B180846009018BF0D
:105340002D18C9EB06108444E345FFF474AF0499AB
:10535000ABEB0100C01ABAF1030FA0EB0500B0FBE4
:10536000F6F103910DD14FF6F570814238D8002A3D
:105370007FF461AF012EB2D85DE77600FCE17600E4
:1053800088E7BAF1020F23D103994FF6F5708142F5
:105390000ED9002A40F0FA817600402E00F2E48116
:1053A000002E3FF473AF32467AE7802EFBD942E7F6
:1053B000039940F6F570814212D8002A7FF43BAF82
:1053C0007600802EECD936E71C2A0508FFFFFE0F79
:1053D000039940F6F57291423FF62DAF4FF0010A66
:1053E0004FF400720021204605934BF0A5FCDA4AE9
:1053F000059B1168216051686160A3731189927ADD
:105400002181C3F30723BAF1030F4FF00201A27207
:10541000E3734FF000024FF00103237414BF0B46F7
:105420001346BBF5803FE272217366736274A37406
:1054300080F0248184F813B0CBF3072B84F814B0E8
:10544000F82363753F2323764FF0000BFF2384F886
:1054500019B0A37684F81BB0494604F11C0029F06A
:10546000CDFDBAF1030F40F00F81FFF769FE014651
:1054700004F1430029F0C2FD294604F1240029F07B
:10548000BDFD022384F82C30012384F8303006233C
:1054900084F83230802384F84030292384F8423065
:1054A000AE4B84F82DB084F82EB084F82FB084F879
:1054B00031B084F833B004F1470203F1100153F81E
:1054C000040B42F8040B8B42F9D119889B78937036
:1054D0004FF05503118084F8FE316FF0550384F8C6
:1054E000FF314A4601232146404629F073FF834697
:1054F00000287FF48BAEBAF1030F41D1012309F1EB
:1055000006022146404629F065FF4FF400725946D5
:1055100020464BF011FC5223237063706123A3706B
:1055200084F8E731039B41227221E27084F8E41190
:1055300084F8E51184F8E621591E04F5F47029F089
:105540005DFD022384F8EC314FF0550384F8FE3101
:105550006FF0550384F8FF3109F10702012321465A
:1055600084F8EDB184F8EEB184F8EFB1404629F04B
:1055700031FF012309EB03022146404629F02AFFAF
:105580004FF40072002120464BF0D6FBBAF1030F16
:1055900040F09780F8232370FF236370A370E370BB
:1055A00023716371A371E37123726372A3720F237A
:1055B000E372012DAB4628BF4FF0010B2146009A44
:1055C0005B46404629F006FF014600287FF41EAEE8
:1055D0004FF4007220464BF0AFFB009BB5EB0B0580
:1055E0005B440093E5D1049BBAF1030F18BF1E463C
:1055F000012E354628BF0125009A2B4621464046FC
:1056000029F0E8FE00287FF401AE009B761B2B44B6
:105610000093EDD1BAF1030F5DD0099BB3F5803F44
:105620005BD2BAF1020F0CBF04250125019B002BB0
:1056300055D0B8F1000F3FF4E9AD01222346002117
:1056400008F1040029F094FF024600287FF4DEAD43
:10565000019B04EB031383F8B2510123214640461A
:1056600029F0B8FE00287FF4D1AD00221146404653
:1056700029F032FE003818BF0120DDE5594604F15B
:10568000200029F0BBFCDBE6FFF75AFD014604F1E0
:10569000270029F0B3FCC5F30723E375802384F8C2
:1056A0002430292384F826302D4BA57504F12B02D4
:1056B00003F1100153F8040B42F8040B8B42F9D1AB
:1056C00003E7BAF1010F2749204618BF6FF0070121
:1056D00029F094FC6DE70C25A8E70625A6E7029BB8
:1056E0001B07C2D401994FF4007220464BF024FBF3
:1056F0005523099A84F8FE31AA2384F8FF31019BCF
:1057000084F8BE3184F8C1314A4443F6C163B2FB28
:10571000F3F2FE2384F8C331930843F03F030126DC
:1057200084F8C43184F8C521494604F5E37084F84F
:10573000BF6184F8C06184F8C25129F05FFC099907
:1057400004F5E57029F05AFC019A334686E70320F8
:1057500072E50A2070E500BF111F05081D1F05082E
:10576000311F0508F8FFFF00059B002B3FF41DAE1D
:10577000094B4FEA5B40012633F8022B002A3FF425
:10578000B0AD9042BFF4F9AD0022AAE5059B002B15
:105790007FF4A6AD4FE500BF2A2A050870B5044680
:1057A0000D46FFF791FB022C244C39D1686840F07C
:1057B000A7FE00F2FF13B3F5806F02D3204846F036
:1057C0003DFD237F0028C7BFC0F500704FF40042A5
:1057D00040420022012B21D001232377022363774B
:1057E0002368CA21596253215962D968CE0304D56E
:1057F00014490E68DD68ED0305D41043FF22D86319
:105800005A62012307E00D68AD1BB5F57A7FF1D927
:10581000FF225A620323637700232377062070BD9B
:105820002368DA6BD86B1304C0F30800BDE870403E
:105830004CBFC0F5007040423EF0DCBD004000208F
:10584000451F050828E600202DE9784180460E46D0
:10585000FFF73AFB03200BF09FFCB8F1030F7068D1
:105860006FD806282FD040F04BFE032503460222B6
:105870004FF4FA6000FB02F1994209DB4FF4004457
:10588000B4FBF2F463434FF47A7493FBF4F415E041
:10589000013D4FEA4202EDD2364A93424FF47A7408
:1058A00093FBF4F401DC04250AE0A4F58034B4F59C
:1058B000803F02DD304846F0C1FC0625002C00DDAB
:1058C000013C012200E00022B8F1030F43D1B3688C
:1058D0002A49C1F828312A4BCA21596253215962F9
:1058E000996821F480619960D9684907FCD5002A3C
:1058F00033D05C619A6822F4884222F0070205F0F6
:1059000007052A4342F488429A60FF225A621D4AE0
:10591000116841F480011160916841F48001916047
:10592000D96821F48061D9604FF480035361164B2C
:10593000F02283F8032303200BF042FC0620BDE88D
:10594000788140F0DDFD0546B06840F0D9FDF36890
:1059500004460122BCE70623BAE79A6822F4804293
:105960009A60FF225A62074A136823F48003136087
:10597000E4E700BFE703E803561F05085C52012077
:1059800000280040003C014000E100E030B5054641
:105990008FB00C46FFF798FA012D3BD101A8FDF717
:1059A000DBF96846FDF7B2F99DF8030000F5FA60EF
:1059B0003EF020FD06909DF801003EF01BFD079093
:1059C0009DF802003EF016FD08909DF800003EF0A4
:1059D00011FD09909DF804003EF00CFD0A909DF821
:1059E00005003EF007FD0B909DF806003EF002FD1D
:1059F000029B0C902748584300F5731000F6F730CF
:105A000080083EF0F7FC06A90D90082039F006FC4E
:105A10000FB030BD01AA0821606840F0FBF8019B7F
:105A2000186840F06DFD019B30308DF80300586818
:105A300040F066FD019B8DF80100986840F060FD24
:105A4000019B8DF80200D86840F05AFD8DF80000E7
:105A50006846FBF7E5FC019B186940F051FD019B8E
:105A60008DF81800586940F04BFD019B8DF8190026
:105A7000986940F045FD00238DF81A008DF81B3021
:105A8000099306A84FF480230A93FBF757FC0620DE
:105A9000BEE700BFF7C2FFFF00B589B0FFF714FAF9
:105AA00003A8FDF759F902A8FDF730F99DF80E306B
:105AB0009DF80B0001939DF80D309DF80A209DF88C
:105AC0000910009300F5FA609DF80C300CF0E0FC32
:105AD000049A0A4B0A49534303F5731303F6F73349
:105AE0004FF47A729B0853431A460023E1FB0023CC
:105AF0001046194609B05DF804FB00BFF7C2FFFF6E
:105B000000CA9A3B38B5424B424C00227F25FF2108
:105B1000C3E90042C3E90251C3E904229A613E4B42
:105B20003E4C1A70002864D13D4D2B6F48F2033172
:105B3000194048F20312914248D10AF0D9FF6B6F25
:105B400043F080736B67236843F480232360344BF6
:105B500021681A6F5B6F02F007021B020A4303F40D
:105B6000407313432B4A23601169C1F30E01FF29CF
:105B700004D11169C1F306417F2926D0CA2151629F
:105B8000532151624FF0FF31D160264A21491568F7
:105B90001068401BB0F57A7F11D2C8684006F7D56F
:105BA0000A6922F4FF4222F07F0242F0FF020A61FA
:105BB0000A6942F4FE020A616FF08002CA60154A67
:105BC000FF2143F480135162236038BD03F4034383
:105BD000B3F5024F0DD10AF08BFF6B6F43F080736A
:105BE0006B676B6F43F001036B67236843F400231B
:105BF000ACE70C4B0C4A1B68136023F07F4343F067
:105C00007C532360094B1878BDE83840FCF76EB828
:105C10000040002000280040B4C00020B0C0002098
:105C20000038024028E60020B8C0002029000020EB
:105C300008B50120FFF766FFFFF746F9062008BD0B
:105C4000114A136813F0040313B50ED101930F4BDF
:105C5000596B41F0400159635B6B03F040030193C2
:105C6000019B136843F004031360094B06491C6849
:105C7000486810F0010001D0886803E01A68121B20
:105C8000092AF5D902B010BD0008065000380240BC
:105C900028E6002008B5FFF7D3FFBDE808408008DC
:105CA0003EF0A8BB16280AD8054B1B5C03F1047311
:105CB00003F59E3300EBC3008000012303607047AF
:105CC00097C00020162810D8084B094A03448A437D
:105CD0004FEA83030CBF012200221A60054A8A435F
:105CE0000CBF01220022C3F88020704740E08910D9
:105CF0000000111000002110162808D800F184506F
:105D000000F51E20800000230360C0F8803070473B
:105D100030B5204A012351698340194293B00446AB
:105D200012D0162853610FD81B4B00F1320503EB3C
:105D30008505A868062807D0184B1B5D33B9184B9A
:105D400053F8241042F074FF13B030BD42F0B6FF98
:105D500049F09EFD68464AF0BAFD60B9104BA8684C
:105D600053F8241043F02EF84AF0D6FD49F088FD90
:105D700042F084FFE8E70623AB602046FFF7BCFF54
:105D800008490948224649F0ABF80199064843F012
:105D900099FAEBE7003C01405C52012080C00020F2
:105DA00024C00020611F0508B03605082DE97047A2
:105DB0008DB00446084611461A4603AB01934B4B7F
:105DC0000093042346F0E2F92146082042F095FEB4
:105DD0008046DDE90306C207DDE9059A05D483079D
:105DE00015D10268424B9A4211D140F089FB0F282D
:105DF000044604D83F4902463F4843F031FB162889
:105E00001DD902463D493C48172343F029FB06F0C3
:105E100053FD047A05462409394A26F400139342B7
:105E20000FD002F5801296420BD0A2F57022934259
:105E300007D0344B9E4204D033493246DCE700257C
:105E4000EAE7B9F1020F02D930494A46D4E7304BAC
:105E500004F1320103EB81029268062A1A4605D04A
:105E6000BAF1060F02D02B492246C5E72046FFF7BC
:105E700043FF02EB810316F4803FC3F808A0264BD2
:105E800014BF00220422BAF1060F1A5519D0234B71
:105E900001221A5504FA02F31343214A42F824302E
:105EA000ADB931462046FFF70DFFFFF7FBFE1D4B56
:105EB0001A570E2102F07F00FCF752FA10460BF041
:105EC0007FF94046C8F804400DB0BDE870872869E6
:105ED00007F0AAFDEB682869CDF82490CDE90736D4
:105EE00007A902230A93FCF709FDE0E72052050801
:105EF00024390508991F05087C370508A91F0508DE
:105F00000000111000002210B61F0508C01F050870
:105F10005C520120CA1F050897C0002080C00020E5
:105F200024C00020383A050808B54068FFF7E4FEB1
:105F3000062008BD50F8310010B1043818BF012008
:105F400070470000136833F007032DE9704F0E68A7
:105F5000154612D1022802D0244846F0B1F848680C
:105F600039F020FD40F20553984236D17068062181
:105F7000BDE8704F38303AF005BD012830D01C48DC
:105F8000EBE7AB6821461846FFF7D4FF88B153F81A
:105F9000340003EBC40A39F005FD404510D04845F4
:105FA0001BD1DAF80400D6F804B040F0A9FACBF817
:105FB000000001346B68A342E3D80620BDE8708F6F
:105FC000DAF80400D6F804B040F09AFA011E18BFBF
:105FD0000121584603F0A2FCEBE7064846F02EF9F3
:105FE000002440F2035840F2DD59E3E7D31F0508CF
:105FF000EA1F0508E01F05082DE9704F2DED068BFF
:10600000D6B09B460291D11E48BF111DC9104D1C30
:106010008146581EEB0003930C1A0BF109089FED03
:10602000CA7AC54B9246A2EBC5051AAE04EB080C22
:10603000002CA4BFE25C07EE902A04F10104ACBF7F
:10604000F8EE677AF0EE477A6445E6EC017AEFD134
:106050001AAB03EB8B0409EB8B0301930DF5847EE4
:10606000DFEDB97AA4464E46F6EC016A019B3CEDA1
:10607000017AB342E6EE877AF6D101304045EEEC84
:10608000017A04F10404EBD1AB48DFEDAC9A9FED4B
:10609000ACAA43180926F0EE698AB0EE4A9A049336
:1060A00056AB03EB860111ED140A42AB06A903EBD4
:1060B00086008C46344660EE297A013CFDEEE77A94
:1060C000F8EEE77AA7EECA0ABDEEC00AACEC010A08
:1060D00030ED010A37EE800AEDD1284605910FF028
:1060E00027FEB0EE408AB4EE000A28EE000A0FF058
:1060F0002DFAF2EE007AA0EE678A002D0599FDEEEA
:10610000C87AB8EEE70A17EE908A38EE408A38DD92
:1061100006F1FF3C06ABC5F1080E53F82C4044FADB
:106120000EF0804400FA0EF0241AC5F1070043F87F
:106130002C400441002C32DD002008F10108864685
:1061400051F8043B002865D123B1C3F5807341F8B1
:10615000043C01200EF1010E7645F1D1002D03DD46
:10616000012D5CD0022D64D0022C18D1B7EE000AAC
:1061700030EE488A98B128460FF0DAFD38EE408AB2
:106180000DE005D1701E06AB53F820402412D1E774
:10619000F6EE007AB4EEE78AF1EE10FA38DAB5EEF0
:1061A000408AF1EE10FA73D1711E00238C46BCF1C7
:1061B000080F46D1002B4ED10EA9012451F8040935
:1061C000002845D006EB0B001AAB711C03EB8000D6
:1061D0002644B1423FF764AF049B5B5C07EE903A04
:1061E000F8EE677A4C46E0EC017ADFED577A8446A8
:1061F000F4EC016A019B3CED017AA342E6EE877A5A
:10620000F6D142AB03EB8104C4ED007A0131E0E743
:10621000022491E7C3F1FF0341F8043C9AE706F139
:10622000FF3C06AB53F82C1001F07F0143F82C1013
:106230009AE706F1FF3C06AB53F82C1001F03F0142
:10624000F4E706AA52F82C000CF1FF3C0343AEE73A
:106250000134B3E7013906AB083D53F82130002B78
:10626000F8D02846B7EE000A01910FF061FD0199C0
:106270000B46002B39DA0A460020002AC0F28B8038
:1062800042AB03EB82052F4EDFED2F7A002348E06F
:10629000039BB0EE480AA3EB0A000FF049FDB4EEF1
:1062A000C90AF1EE10FA17DB60EE287A06AAFDEEB5
:1062B000E77A711CF8EEE77A0835A7EEC90AFDEE19
:1062C000E77ABDEEC00A10EE103A42F8263017EE1B
:1062D000903A42F82130C4E7BDEEC00A06AA10EE9B
:1062E000103A314642F82630BBE706A842AA50F8D9
:1062F0002300019007EE900AF8EEE77A02EB8302A2
:1063000067EE807A013B20EE280AC2ED007AB0E702
:10631000F6EC016AB5EC017A01330A2BE6EE877AD6
:1063200001D09842F4DA56AB03EB800343ED287AB0
:10633000013A0130A1E700BF085705080000803B83
:106340000000804310280508000000002EAA02EB80
:106350008302D2ED007A37EE277A013B002BF5DA83
:10636000ECB1F1EE477A029BC3ED007ADDED2E7AB7
:1063700077EEC77A2FAA0123994213DA0CB1F1EE16
:10638000677A029B08F00700C3ED017A56B0BDECB6
:10639000068BBDE8708F1FED147A0B46DEE7F0EE3A
:1063A000477AE0E7B2EC017A013377EE877AE3E7E8
:1063B00000B589B0C3780293837801934378009342
:1063C00010210378054A0DEB010028F0E9FE014693
:1063D00004A83AF095FB09B05DF804FBBE1D050862
:1063E0002DE9704F0B685D68136833F007038EB0BA
:1063F0000E46934605F1040A00F1FF3440D1012C0A
:1064000002D0934845F05CFE486839F0CBFA40F280
:10641000BB4398422FD00AD840F21E4398421BD06B
:1064200040F2764398420BD08A4845F007FF40F28D
:10643000BF439842F8D1504611F0B6FA002805E063
:106440006B6A002B00F001815B79002B0CBF0E20E2
:106450001E200EB0BDE8708F0AF10400FFF7A8FF00
:106460000A9005F10C00FFF7A3FF0AA90B90022088
:1064700038F0D4FEEDE705F11000FFF799FFE8E7EB
:10648000002C00F08E807448BCE7DBF80830214611
:106490001846FFF74FFD002800F0828003EBC4028E
:1064A00053F83400009239F07DFA40F27643984276
:1064B0006AD057D8A0F21E400128B5D8009B586872
:1064C000062800F0928000F00703022B07D0830714
:1064D00040F09E800368614A934240F0998009A988
:1064E00039F0DCF82F2181464AF0E6FC099A019048
:1064F0000F2A28BF0F2249460AA890464AF0D6FB29
:10650000019B002B5FD0A3EB0909C845A8BFC84673
:1065100003F1010948464AF047FC002301460A22DC
:10652000484646F02BFD3FF0EBFF8146706839F09E
:1065300039FA40F21E43984207D1C9F120094FF0C1
:10654000FF3303FA09F31BBA06930EAB984405A96F
:1065500000230AA808F8103C10F0F4FE002834D1FB
:106560003F4862E740F2BB4398427FF45DAF009B37
:1065700004A9586839F092F803A910F0E3FE002846
:10658000EED0039B2B610BE0009B586842F0F2F9C0
:10659000A8B1504611F008FA50B1504612F010F868
:1065A0000134DBF804309C42FFF46FAF062050E763
:1065B000504611F075FE504611F0DAFEF0E75046F5
:1065C00011F06EFEECE7EB68BEE7706839F0EAF9AF
:1065D00040F21F43984201D1224826E7706839F003
:1065E000E1F940F21E439842F6D1706839F0DAF9C9
:1065F00040F21E439842D3D1009B5B68062B1BBF21
:10660000059BAB600023069B08BFAB60EB60C7E750
:1066100007AA02213FF0FEFA079B08A9186839F083
:106620003DF8079B814608A9586839F037F805A955
:106630008046484610F086FE002891D006A94046C4
:1066400010F080FE0028D0D18AE70E2001E700BFBD
:10665000D31F0508F51F0508EA1F0508B03905080E
:10666000D51B0508F91F05082DE970410B685D6809
:10667000012887B00E4605F1040418D1201DFFF74C
:1066800097FE029005F10C00FFF792FE039005F1D2
:106690001000FFF78DFE04902B48FFF789FE02A93A
:1066A0000590042038F0BAFD07B0BDE870814A6853
:1066B00042F2AA339A42204622D111F075F960B114
:1066C000204611F07DFF214D2E6842F210782046C1
:1066D00011F06AF940B10620E6E7204611F0E0FD2E
:1066E000204611F045FEEEE72B689B1B434503D97E
:1066F0001749184845F0C6FC64200AF063F8E6E73D
:1067000011F0CEFD204611F0CBFD01AA70680421E6
:106710003FF080FA019B211D1868FAF705FF019BE5
:1067200005F10C015868FAF7FFFE019B05F1100115
:106730009868FAF7F9FE019B02A9D868FAF7F4FE07
:10674000014B029A1A60C6E76040002028E600204C
:10675000FE1F0508583705082DE97747DFF87480D4
:10676000DFF86490DFF870A005460E464FF48074A1
:1067700058F8042C62B946B1134B144A21462846F6
:1067800028F00EFD292C10D9293CC4F580700DE0AD
:1067900058F8083C1E4213D000924B465246214600
:1067A000284628F0FDFC002803DA094803B0BDE8BC
:1067B00070878442F9D958F8083C241A05445E4091
:1067C00008F10808D4E700BFBC1C05081B20050819
:1067D00080D6FFFFD8570508152005082DE9734F0F
:1067E000C0F30B0909EB0103B3F5805F83460E4646
:1067F00090464FEA103A07D9234828F0ECFC6FF096
:10680000040002B0BDE8708F204C23681D6905F5B7
:1068100080531868A0420AD018B101930BF0E8FD2C
:10682000019B1C6041F204034FF0FF32EA5041F239
:106830000403EB589A450FD141F20403324645F860
:1068400003A0414605EB09004AF030FA636843F0C3
:10685000010363600020D4E701330BD12BF47F6088
:106860002A464FF4805120F00F00FDF7DFFE00288C
:10687000E2D0C6E76368DB07F0D504480BF017FDEC
:106880000028BED1EAE700BF46200508BCC00020B2
:10689000FF292DE9734F804640F29A808B18B3F59B
:1068A000885F00F29580EFF311830093602383F3F8
:1068B0001288DFF82891A1F5807148464C025502F4
:1068C0000BF020FDD9F800301E6906F580531B68D7
:1068D0004B4533D141F20403F358B3EB143F2DD3AE
:1068E0006A1E2244B3EB123F28D84FEA033BB4EBB5
:1068F000033F8DBFA4EB0B000020ABEB040B4FF06C
:10690000000BA5EB0B0AC0F580518A4582BFA0F5AC
:10691000805555448A46524608EB0B01304498BFD7
:1069200000254AF0C3F9D9F8042042F00102C9F861
:106930000420BBF1000F09D1D0445444C4F30B062A
:106940006DBB26480BF0D4FC2E4610E0CBF30B01B8
