:020000040800F2
:10000000F8FF0120252A0508632F0508512F050850
:10001000652F0508712F05087D2F050800000000D9
:10002000000000000000000000000000892F05080B
:100030008B2F050800000000B53105088DD9000898
:1000400001100008793005088B300508913005084B
:10005000A94D0008011000080D30050813300508EF
:10006000193005081F3005082530050841C900086A
:1000700031C9000821C9000811C9000801C90008D8
:10008000F1C80008E1C800080110000801100008CC
:1000900027C2000821C20008E9C100082B3005086A
:1000A000A5300508AB300508BD300508C33005088C
:1000B000C9300508CF300508D53005084931050895
:1000C0004F31050801100008011000080110000858
:1000D00001100008253105082B31050831310508CC
:1000E0004F3005087F300508992F050801310508B4
:1000F000073105081F31050819310508D1C8000866
:100100000110000801100008DD300508011000088A
:10011000373105083D310508F5300508FB30050885
:10012000C1C80008B1C80008A1C8000891C80008EB
:1001300081C80008D997000885300508011000081B
:100140000110000801100008011000088D2F05089B
:1001500071C8000861C8000851C80008433105088B
:10016000011000080110000801100008011000082B
:100170000110000801100008011000080000000034
:08018000011000080110000845
:10100000FEE70000094B1A68D36823F0A003D36001
:10101000074B1868D168890601D500207047196808
:10102000091AB1F57A7FF5D90320704700400020F6
:1010300068E900200A4B1A68D368580601D50020D9
:1010400070474FF0FF33D360064B1868D1684906EC
:10105000F5D41968091AB1F57A7FF7D903207047DA
:101060000040002068E900202DE9774105688DF8EF
:1010700007102C68D5E9010C1646E4B9D0E9033213
:101080001B049361EB686046D3F804800DF10702FE
:1010900023460121C047EB68A868D3F80480324694
:1010A00033460121C0476B68D3E903322046936180
:1010B00003B0BDE870811346DCF80C409DF80710C2
:1010C0000122A047F4E70000054B016810B51C6839
:1010D0000A68920703D41A68121B0A2AF8D910BDAD
:1010E00068E9002082B000230193064B5A6C42F459
:1010F00080725A645B6C03F480730193019B02B0AD
:10110000704700BF0038024073B50023A1F11005FD
:10111000019390F83C30022D8CBF01240724012B51
:101120002FD00123092980F83C308EB203682AD9D8
:1011300006EB4602D3F80CC01E3A4FF0070E0EFA2B
:1011400002FE2CEA0E0CC3F80CC0D3F80CC004FA53
:1011500002F242EA0C02DA605A6B22F01F025A6372
:101160005A6B32435A631C4A934207D112291CD14D
:10117000D2F8043343F48003C2F80433002380F828
:101180003C3002B070BD1A6901EB410E4FF0070C04
:101190000CFA0EFC22EA0C021A61D3F810C004FA11
:1011A0000EF242EA0C021A61D6E7012DE6D80B4A8C
:1011B0005368102943F400035360DFD1084B094AF8
:1011C0001B68B3FBF2F20A2353430193019B002BEC
:1011D000D4D0019B013BF8E70020014000230140EF
:1011E0000000002040420F00C1070CD4820703D149
:1011F0000268064B9A4206D00E2804D0A0F11E03C6
:101200005842584170470120704700BF10570508E9
:1012100010F4FE7F02BF024B0422C3F8002E704779
:1012200000E100E04068162809D8064A0123116948
:10123000834021EA0301116111690B431361062008
:10124000704700BF003C01404368162B0AD8064A8D
:10125000D25C02F1047202F59E3203EBC2039B00E2
:1012600001221A6006207047D7C300204068400062
:1012700040F00100704700002DE97841074EDFF88B
:1012800020800C464518AC4201D1BDE8788114F8A5
:10129000012B314640464FF09FFDF4E70439050825
:1012A000F8540508054B994202D105494FF094BD09
:1012B000D1E9012303494FF08FBD00BF5C700508E1
:1012C0000A390508123905084A6801494FF084BDFA
:1012D0002A39050838B5114D114C2A6811492046A4
:1012E0004FF07AFD6A68104920464FF075FDAA68F4
:1012F0000E4920464FF070FDEA680D4920464FF038
:101300006BFD2A690B4920464FF066FD6A690A4960
:1013100020464FF061FD062038BD00BF003C014073
:101320009C5405083B3905084C3905085D3905080A
:101330006E3905087F390508903905082DE9734F86
:10134000364C237F012B81464FF0020520D02268C6
:101350006577012323779368067890F801B013F03E
:10136000400308BFC370CA21837890F8038051629C
:10137000532151620193FFF75DFE019B054658B171
:101380002368FF225A620423637700232377012511
:10139000284602B0BDE8708F18460FF008F840EA02
:1013A000084830460FF003F848EA004858460EF067
:1013B000FEFF48EA0023D4F800A003F07F3323F0B7
:1013C000FE43CAF80030DAF8083023F48023CAF864
:1013D0000830D9E90331DAF808200B431343CAF87F
:1013E0000830DAF80C3023F08003CAF80C30DAF851
:1013F00008309B0609D4FFF705FE30B12368FF22B1
:101400005A62042363772577C1E72368FF225A6273
:101410000123637700232377BAE700BF0040002051
:101420002DE9704F2E4C237F012B4FF0020521D068
:10143000012365772377437890F803A090F8028022
:101440000678DA0642BF23F010030A33437023689C
:1014500090F80190CA225A6253225A62FFF7EAFDBD
:10146000054650B12368FF225A62042363770023A4
:10147000237701252846BDE8708F40460EF097FF80
:1014800040EA463850460EF092FF48EA0048484687
:101490000EF08DFF48EA0020D4F800B020F07F4025
:1014A00020F0C000CBF80400DBF80C3023F0800300
:1014B000CBF80C30DBF808309B0609D4FFF7A2FD0F
:1014C00030B12368FF225A62042363772577D0E77F
:1014D0002368FF225A620123637700232377C9E739
:1014E0000040002070B5032305460E46144629F03F
:1014F00019FD88B9226882B1531E23602B681B78BE
:101500002371072B0CD82B68591C13449E42A160F1
:1015100018BF6FF065002B6070BD6FF05F00FBE7D8
:101520006FF06300F8E7000073B50C4601A941F0C5
:10153000C9FB019BF3B1024603449A42154606D209
:1015400012F8011B2E29F8D030390929F5D9611E6E
:101550004FF00A0C03340023854202460DD801F8EF
:10156000013F8C4211D0954211D913782E2B0ED108
:10157000501CF0E7236002B070BD10F8016B2E2EF6
:10158000EDD00CFB0363303BE6E79542F3D0014816
:1015900046F05AFEA1390508014B186844F022BFF5
:1015A000F0C3002008B508461146002245F07AFE37
:1015B000004808BD047105082DE978478846404673
:1015C00011462F4A1E4645F06DFE2E494C2044F030
:1015D0009DFE0446306846F0FDF9B8F1010F05465E
:1015E0000CD9706846F0F6F98046AB1F062B3BD845
:1015F000DFE803F03F3A073A423A38004FF0FF384D
:10160000F3E74FF00076DFF88CA000254FF00109DA
:1016100009FA05F313EA080F07D05AF8250020B19C
:1016200000231A4603210CF0F7F90135102DEFD1F4
:10163000154B6360FFF756FD012200232262A26171
:1016400002F17062C4E90933C4E90B23C4E904332D
:10165000E660E361A3606363201D10F089FD20460E
:10166000BDE878870026CEE7084909482A4645F0B4
:1016700043FF4FF04076C6E74FF08076C3E700BFE8
:1016800004000200D06F050800200140A5390508BC
:1016900068550508586C050870B50D460446FFF7F7
:1016A00033FD10F005FD2046FFF70EFD2368DE6CCC
:1016B00010F0E2FC122D01BF034A536823F48003AB
:1016C0005360304670BD00BF0023014010B5044692
:1016D000084646F07FF91028024605D0122803D9A3
:1016E0000549064845F008FF201D1146FFF7D4FFC5
:1016F000BDE8104044F076BEB439050868550508C9
:1017000010B50446FFF7C8FF23685B6803F0407319
:10171000B3F1007F0BD0B3F1407F0AD0B3F1807FEB
:1017200014BF0C230A23C3F10C03984010BD0823F7
:10173000F9E70623F7E7000008B512210430FFF7A8
:10174000DFFF094B9FED097A93ED000A430007EE96
:10175000903AF8EE677ABDE8084067EE877A27EEA0
:10176000800A44F00DBB00BF040000206740533ADC
:1017700008B510210430FFF7C3FF124B9FED126A2A
:101780001A88124B07EE100AD3ED007A104BF8EED0
:10179000C76A07EE102A1B88B8EEC77A9B1A96EE26
:1017A000A77A07EE903AF8EEE77ABDE80840C7EE70
:1017B000866AF3EE0E7A87EE260A30EE270A44F0A8
:1017C000DFBA00BF2C7AFF1F0000A04204000020F7
:1017D0002E7AFF1F08B51121FFF792FF0A4B1B88D5
:1017E00007EE900A00EE103AF8EE677AF8EE406ADB
:1017F000064B86EEA77AB8EEC00ADFED057A83EDD8
:10180000007A20EE270A08BD2A7AFF1F0400002074
:101810006740533A08B50430FFF7DCFF054BDFEDB6
:10182000067A93ED000ABDE8084020EE270A44F04E
:10183000A7BA00BF040000203333534008B504307A
:10184000FFF7C8FFBDE8084044F09ABA08B58168C0
:101850000C30FFF721FFBDE8084044F0C3BD000095
:101860002DE9F04F8DB000AF0D46144607F114017D
:1018700007F10C0245F036FF07F1080207F11001ED
:10188000284645F02FFF7B6913B9534846F0DCFC2E
:101890003A69934201D05148F8E7BB6806221868BC
:1018A00007F1180145F086FB97F820100022402030
:1018B00040F054F83B699B00073323F00703ADEB7E
:1018C000030D0646EA4600253B699D4207D32046A4
:1018D00044F030FB424B834218D04248D6E7BB6805
:1018E000062253F8250007F1240145F063FBFA694D
:1018F000BB6A9A4203D13A6AFB6A9A4201D03A48DB
:10190000C4E77B6A4AF825300135DDE7FB681D68CE
:1019100005F10C08A9684046FFF7F6FB10F0C8FB7C
:101920004046FFF7D1FBEB68DB6CE3686FF0010228
:101930001A611A69D007FCD56FF0010119614FF0E7
:101940000008FB693960B3FBF6F34FF0010B7B60D5
:101950007B6898450DD1FB6818680C3010F08CFB43
:10196000BBF1000F14BF1E200E203437BD46BDE86A
:10197000F08FE3681969C9070CD41969CA07FCD547
:101980003A681A6100257B69F968AB4205D808F10D
:101990000108DDE74FF0000BF2E751F8259009F15F
:1019A0000C00D9F80810FFF7AFFBD9F80C30996894
:1019B00041F080419960FFF787FBD9F80C305AF865
:1019C0002510DB6C97F82000012E08BF1B0942464A
:1019D0003FF09EFE0135D6E7C7390508D539050821
:1019E000A0720508FA390508E83905082DE97F4F86
:1019F000144605460622084601A945F0DBFA9DF883
:101A00000C10002240203FF0A9FF06462046FFF7B9
:101A1000EBFB002868D0204645F0DCFF0023009354
:101A20004A4B1A6C42F010021A641B6C03F010034C
:101A3000804600930620009B0EF0F4FC804550D8B1
:101A400006200EF0EFFC0122B0FBF8F3B3F5803F67
:101A500044D23F493F480860013BCB6000230B6103
:101A60008B6091F83930013A4A60884603F0FF02F2
:101A70000BB981F838204FF002093749354888F80A
:101A800039900EF01FFA0122D8F8001088F839209A
:101A900088F839900B68DFF8B89013430B6088F82A
:101AA000392005F10C08A96840464FF0000BFFF7FC
:101AB0002BFB029BB3FBF6FAD34521D1404610F035
:101AC000DBFA2046FFF790FB10B148460EF0B2FA61
:101AD000029844F087FC04B0BDE8708F5B085200A8
:101AE000B4E701221346B4E7204644F023FA1B4B27
:101AF000834202D01A4846F0A7FB04F10C09D0E754
:101B0000D9F800301969CA07FCD56FF001021A61D3
:101B1000BBF1000F13D1404610F0CAFA4046FFF760
:101B2000D3FAEB680199DB6C9DF80C00012E5A4644
:101B300008BF1B093FF0ECFD0BF1010BBCE7E968A6
:101B40008B6843F080438B60E8E700BF00380240B9
:101B5000204000200010004024400020A072050812
:101B6000FA39050870B51C46084611464FF00212B6
:101B700045F098FB2668F10705D4B20730D13268EA
:101B8000274B9A422CD1304645F024FF10280546B9
:101B900034D1542050F0ECFC002104464422103093
:101BA00050F0D6FF1F4BA560C4E900361E4BE36022
:101BB000FFF798FA01220023A262226202F170620A
:101BC000C4E90B33C4E90D23C4E9063363616362DE
:101BD0002361E36304F10C0010F0CAFA204670BDE3
:101BE00030460AF0B5FE837A9B0704D442680F4959
:101BF0000F4845F081FC8568C5F30435122D02D9E4
:101C00000C492A46F4E70F2DC3D80B4B53F8250097
:101C10000028BED000231A4603210BF0FDFEB8E7D2
:101C200010570508EC6F050800200140043A05082C
:101C300068550508B4390508586C050838B50D46CF
:101C4000044607494EF089FE69682046002246F0A6
:101C50008BF8AA6803492046BDE838404FF0BCB86D
:101C60000B3A050846AE06081FB5084611461A4647
:101C700002AB01931A4B0093022345F03FFFDDE9CD
:101C800002321340013329D01649102044F03EFBA4
:101C9000029B0022591C02730AD0934205DBB3F564
:101CA000001F02DAC3F30B021AB1002046F0CCFA8F
:101CB0001346039A511C06D1C3F50012C0E9013244
:101CC00005B05DF804FB002AEFDD9918B1F5001F9F
:101CD000EBDCC2F30B010029F0D0E6E70248EFE7A6
:101CE000BC460508787005085C70050813B5194BEB
:101CF0000124E0B100221A6000230193164B1A6CF4
:101D000042F080521A641B6C03F080530193019BD4
:101D10000EF0BCFF114B124918680A68D20509D5AC
:101D20000D4B1A6F7CB142F001021A6706E01C608D
:101D30000446E1E71A68121A022AEED9094B012279
:101D40001A7002B010BD22F001021A671A6F22F059
:101D50000402EAE7800E47420038024068E90020AA
:101D600000700040F4C30020012808B50B6806D1BC
:101D7000586807F0DDFD400040F0010008BD014853
:101D800046F062FA143A050808B5406807F0D0FD3D
:101D900003280CBF1E200E2008BD00002DE9704F47
:101DA00001280C688AB009D1606807F0C1FD0028DD
:101DB00014BF1E200E200AB0BDE8708F486844F0A2
:101DC000ADF9002800F036826468204607F084FCF4
:101DD0000021204607F0F2FDEFF3108272B63D4B72
:101DE0003D4D3E4800219960DD601861BFF36F8F63
:101DF000BFF34F8FBFF35F8F82F31088384B394E9C
:101E00001A6942F000721A6102915A6C42F48042DF
:101E10005A645A6C02F480420292029A324A516821
:101E200021F400015160516851601A6922F000727A
:101E30001A611A6D42F000721A651A6D42F08062E2
:101E40001A651A6D42F000621A65012333600220A0
:101E50000EF086FD254B1A689946336813F0010889
:101E600029D1234B234A1B6893422DD9224A9342FE
:101E70002CD3224A93422BD9214A934294BF042364
:101E80001023204A1361E06F4FF40042002107F055
:101E90007DFD32200EF064FDD9F80030019300265C
:101EA00042F2107BD9F80030019A9B1A5B452BD97E
:101EB00007F0F6FB05E0D9F800309B1AB3F57A7FFE
:101EC000CBD96E2046F0E6F80823DAE70C23D8E7F2
:101ED0004346D6E790ED00E0008000201B000C1385
:101EE00000380240009002400038014068E90020BC
:101EF00000000020BF0E160200879303FFE0F505E7
:101F00007FD1F008008002400021E06F07F0E4FC80
:101F100001218246E06F07F0DFFC012E00F04C81CA
:101F2000022E00F05A811EB90FFA8AF6F643F60F18
:101F300002200EF015FD032EB4D1D4E91F039847FB
:101F4000BF4B00261E601FFA80F902200EF008FD2C
:101F500041F21C03BB4ABC49D150BC4933464FF047
:101F6000004E44F2F45C05261A0105EB031045F817
:101F700002E00133B3FBF6F202EB82029A1A05EBA0
:101F80000212052BC0F804C08160C26001F2F45156
:101F9000EAD1AC4941F20C024FF480168D5043F661
:101FA000284100226A501046511D4FEA011C05EBE2
:101FB000011145F80C60486005EB021C0132B2FBD0
:101FC000F3F101EB8101511A053105EB0111052AED
:101FD000CCF85800CCF85C10E6D19A4E9C4A41F2FD
:101FE0001003F25043F62C434FF00872E85041F2D0
:101FF00018030220F2500EF0B3FC4FF00043736060
:1020000002200EF0ADFCA38F336402200EF0A8FC7A
:10201000A36B736402200EF0A3FCB9F1050F00F06E
:10202000E280B9F1020F00F0E180B9F1060F08BFBC
:102030004FF49048C6F8008002200EF091FC3368FF
:1020400043F00C03336002200EF08AFC41F21802C8
:102050000220B35843F4005343F00203B3500EF090
:102060007FFC7C4BF02583F83D533D200FF076F943
:1020700079486FF07F43CDE9073000264FF00833F1
:1020800006960993EFF3118885F31288734BDFF8F6
:10209000F491A3614FF6FF73636343F26503A4F801
:1020A000403099F8003084F84230251D6C4B636154
:1020B00006A908AB2846C4E90266266184F83F6099
:1020C0006662A662E6626664246207AA1AF048FBAA
:1020D000644BE361644BA3613A2384F83F30634B64
:1020E0006363634B186849469C4694F84230FF2B63
:1020F00008BF84F8426094F842200346002B78D150
:10210000FE2A01D0531CDBB20B7060605949CCF839
:102110000050284615F0C6F950B102234372037BE4
:1021200001330373636C1BB152490122284698475F
:102130000121002228461AF089FA4F4B23634F4BA6
:102140001D6094F83F30D9070FD443F0010384F8A1
:102150003F3008210123284603AA8DF80C301AF0DD
:1021600075FA032128461AF095FA454B099A1A6028
:1021700004F1480318463422002150F0E9FC022201
:1021800084F84F206062284616F07AF894F83F30C1
:102190005A074BD443F0040384F83F30636ACBB34F
:1021A0005A79052A2FD8022A2FD89AB300229A7179
:1021B000284615F0DFFC2DE043077FF5B9AEE06F50
:1021C00040F2E112042107F0E1FBE06F4FF480528E
:1021D000002107F0DBFB0226AAE600F024002428F9
:1021E00008BF0326A4E64FF4006823E74FF48048B5
:1021F00020E793F83EE0964503D1013284F842206F
:1022000073E71B687AE70A2AD0D100229A71284620
:1022100016F09CF8032128461AF03CFA012303AA81
:10222000042128468DF80C301AF010FA88F3118832
:102230000620C0E5606807F04FFA07F031FAF7E7CB
:10224000009002400080024040000100A080002079
:102250005080002000E100E0C0A8000167B501083F
:10226000DD9A0108F179000889760108001FDC0574
:102270005CC300205C4000200800002058C3002000
:102280006040002060C300202DE97841194C4FF0D8
:10229000030804F5EA76A4F1080554F8043F1A0788
:1022A0001AD1D5F89022981AC0F3011193424FEA3F
:1022B000901C4FEA41014FEA10100DD3D5F894223B
:1022C000934209D2D5F8842212F80CE04EFA01F3B9
:1022D00003F00303012B03D0A642DED1BDE87881D1
:1022E00008FA01F141EA0E0102F80C104FF068F90A
:1022F000F2E700BF30C000201FB50223009303ABFC
:102300003FF084FC039B23B10B2B08D0184645F00B
:10231000C1FE400040F0010005B05DF804FB06205E
:10232000FAE700000C4B4FF47A721B68B3FBF2F330
:10233000013BB3F1807F09D2084A5360084BF0217A
:1023400083F823100023936007231360044B0020BD
:10235000DA6883F8230070470000002010E000E0F6
:1023600000ED00E0431C14BF00F16040064B4FEA53
:10237000011118BF00F56140C9B214BF80F8001305
:1023800083F82310704700BF00ED00E0924B37B593
:102390009A6802F00C02042A07D09A6802F00C0234
:1023A000082A1DD15A6851021AD58B4B1B68036845
:1023B0009D0733D5884B9A6812F00C0F07D09A68A6
:1023C00002F00C02082A59D15B685C0256D4824B99
:1023D0001A68910715D5C268012A12D001200EE0B3
:1023E0001A687D4942F480321A607C4B1C680A6886
:1023F0009203DCD41A68121B642AF8D9032003B0B4
:1024000030BD19680369F82292FAA2F2B2FA82F298
:10241000934021F0F801704A0B43136003681C07D6
:1024200049D40368590724D5002301936A4B1A6CD9
:1024300042F080521A641B6C03F080530193019B9D
:10244000674B1A6842F480721A60644A146819680B
:10245000C9054BD58168604B01294CD1196F41F0FA
:102460000101196714685C4941F288350B6F9B07BD
:102470005DD5816900295FD10020C0E7C168574B55
:10248000584A69B1012111601C6853490A689207D2
:1024900001D50968B6E71A68121B022AF6D9ADE71A
:1024A00011601C684C490A689507B7D51A68121B59
:1024B000022AF8D9A2E74169484B4B4A59B1012198
:1024C00011601C6844494A6F9207AAD41A68121B0B
:1024D000022AF8D992E711601C683F494A6F9507B4
:1024E0009FD51A68121B022AF8D987E71168091BC1
:1024F0000229ACD982E7052904D1196F41F0040102
:102500001967ABE71C6F24F001041C671C6F24F0F3
:1025100004041C670029A5D1146841F28835196F9D
:102520008907A6D51168091BA942F8D966E713687F
:102530001B1BAB429AD961E7274B9A6802F00C0249
:10254000082A3FF44BAF294C244A02294FF00001DE
:10255000216036D11568196889012DD4D0E9071595
:102560000D43416A47F6C07393FAA3F3B3FA83F3BA
:102570009940836A5B082943013B4FF4403595FA43
:10258000A5F5B5FA85F5AB400B43C16A4FF0706015
:1025900090FAA0F0B0FA80F081400B430E494B60F6
:1025A0000123236010680B689C013FF565AF136839
:1025B0001B1A022BF7D921E71168491B0229CAD936
:1025C0001CE71068196889017FF556AF1168091A70
:1025D0000229F7D912E700BF0038024068E900205D
:1025E0000070004000004742800E474260004742B2
:1025F00010B58AB00B4C03A84EF068FF059B009302
:102600000949DDE9032320464EF0E6FB069A099BC3
:10261000019200930549DDE9072320464EF0DCFBDB
:102620000AB010BD9C540508203A0508443A050834
:102630002DE9704FDFF868B14B49DBF890224B4829
:102640004EF0CAFBDBF88822920078D0DFF8549174
:10265000DFF81881DFF850A100250EE0012E3DD0F3
:102660002E22434940464EF0B7FBDBF88832013555
:10267000B5EB830F4FEA830261D215F03F0610D00D
:1026800005F003067600DBF88422AB08D35C43FA3E
:1026900006F606F00306022E1ED0032EDED16D22B2
:1026A000DFE7DBF884122C46A00804F00303085C83
:1026B0005B0040FA03F39B0702D101349442F3D349
:1026C000621B7F2A2FD805F0030676002A014946AF
:1026D00040464EF081FBD6E73D22C2E7DBF8901280
:1026E000244B2A018A589A4230D0234B9A422FD049
:1026F000224B9A4230D0224B9A422BD0214B9A4205
:1027000028D0214B9A4229D0204B9A4226D0204BE8
:102710009A4227D01F4B9A4222D01F4B9A420CBF9D
:102720004D2268229DE79209514640464EF054FBE7
:10273000DBF8883224F03F05B5EB830FC6D3BDE844
:10274000704F1649012200204DF0AABD542288E79F
:102750004C2286E7532284E7442282E7412280E725
:1027600042227EE746227CE78C3A05089C54050805
:10277000CC3A0508D0570508385705083C560508D7
:102780009C570508F4550508C05505088C550508E3
:102790006C5605089056050868570508883A0508DC
:1027A00028C00020C43A0508A83A050870B5466854
:1027B000B142044628BF31460D4601214FF0D4F9FD
:1027C000A368681C5919721B184450F0A9F9636872
:1027D000A06801336360284470BD00007FB50546E2
:1027E00010200C4616464FF0C3FE0023C0E900340B
:1027F000084B0293084B0190039304AB13E90E00BE
:1028000084603444C460284604B0BDE870404DF094
:1028100023BC00BF7D010508090F05080EB403B5F0
:102820000549064804AA019244F004FE02B05DF88E
:1028300004EB03B0704700BFCF3A050868550508A0
:102840002DE9704F0B4601EB020804460D460022AD
:10285000984517D8002A0CBF272622262149DFF8E1
:102860009490DFF894A0DFF894B0324620464EF002
:10287000B3FAA84510D8324620461A49BDE8704F31
:102880004EF0AABA13F8011B272903D02229DFD161
:102890002726E3E70122DBE715F8012B964205D155
:1028A0001149324620464EF097FAE2E75C2A04D1FD
:1028B0000E4920464EF051F8DBE71F2A03D97E2A45
:1028C0000DD80849EEE70A2A01D10949F1E70D2A96
:1028D00001D15946EDE7092A01D15146E9E74946B8
:1028E000E0E700BFCC3A0508DB3A0508DF3A050807
:1028F000E23A0508EB3A0508E83A0508E53A050822
:102900002DE9734F704ADFF8C8A100230C684FF01F
:10291000010C0CFA03FC0CEA04053CEA040440F048
:10292000BD804C6824F01009B9F1020F16D14FEAAE
:10293000D30800EB880803F0070BD8F820604FEAB3
:102940008B0B4FF00F0E0EFA0BFE26EA0E0E0E69E1
:1029500006FA0BF646EA0E06C8F82060D0F800E04A
:102960004FEA4308032606FA08F66FEA060B2EEA3A
:10297000060604F0030E0EFA08FE09F1FF394EEACE
:102980000606B9F1010F066011D886680BEA060E3B
:10299000022606FA08F646EA0E068660466826EA29
:1029A0000C0CC4F300169E4046EA0C064660C6684E
:1029B0000BEA060B8E6806FA08F646EA0B06C660B6
:1029C000E6006BD54FF0000BCDF804B0DAF844C048
:1029D0003E4E4CF4804CCAF844C0DAF844C00CF4C3
:1029E000804CCDF804C0DDF804C023F0030C0CF1DA
:1029F000804C0CF59C3C03F00308DCF808904FEA8F
:102A000088084FF00F0E0EFA08FEB04229EA0E0EAB
:102A10004BD006F58066B04249D006F58066B042DC
:102A200047D006F58066B04245D006F58066B042D4
:102A300043D006F58066B04241D006F58066B042CC
:102A40003FD006F58066B0420CBF0726082606FA7E
:102A500008F646EA0E06CCF8086016686FEA050C20
:102A600014F4803F0CBF06EA0C062E43166056682D
:102A700014F4003F0CBF0CEA06062E43566096681D
:102A800014F4801F0CBF0CEA06062E439660D6682D
:102A9000A40254BF0CEA06062E43D6600133102B65
:102AA0007FF434AF02B0BDE8708F5E46CFE70126F9
:102AB000CDE70226CBE70326C9E70426C7E70526AC
:102AC000C5E70626C3E700BF003C01400000024006
:102AD0000038024038B5044609200D4619F0E6FFDB
:102AE00040B10023C0E900334373012304814481D2
:102AF0000573C38138BD49B14B8E3BB1282B86BFCE
:102B0000283B9BB20023984228BF184670471431D7
:102B10002DE9704389B28046914622204FF42072FD
:102B20001E461AF03DF80546D8B1BDF81830446885
:102B30005BBA76BA63802680C4F8049040461AF0E7
:102B4000EFFB9DF81C30A0601B0243F05003A381F3
:102B5000BDF820305BBAE381002323746374A3744F
:102B6000E3742846BDE870831FB5438D029310239C
:102B70000193038B0093C38A0446406AFFF7C7FFA3
:102B800018B1628D636A1344E36204B010BD70B57E
:102B90000C4694421E469DF81410049B1AD25D8B7D
:102BA0006D0617D419B1D96E09B91B6F93B104F230
:102BB000233525F003018A4228BF0A4691B24FF41B
:102BC000207219F0EDFF20B143891B1B3380048173
:102BD000448170BD2146F2E72DE9734F03680193EC
:102BE0000DF1040C0C46042200254FF00A0E4FF0A4
:102BF0002E081CF8010B0026B0FBFEF382460EFBEC
:102C000013090DF1080BD8B233469B44013609F184
:102C10003009BAF1090FF6B20BF8089CECD80CF8A1
:102C2000010C2E462046FF2B05F101050DD10F2E7C
:102C300018DC0446013A12F0FF0204F8018BD8D1E7
:102C40000270084602B0BDE8708F5C1E0F2EE4B221
:102C500008D802AE33442E4613F8083C00F8013B76
:102C60002346E0E70020EDE72DE977410A4C0546D1
:102C70000E46904601AA05212846FEF7F5F938B917
:102C8000019B3340434503D0013CF3D16FF06D000D
:102C900003B0BDE8708100BF41420F0010B5064C83
:102CA000D4F81832217A5B68201D9847D4F82402A2
:102CB0000DF07EFE002010BD24D4002010B5124C73
:102CC000012384F80032D4F81832217A5B68201D81
:102CD0009847D4F824020DF06BFED4F824428CB14E
:102CE000032384F8B93320460DF062FE2368B3F164
:102CF000A04F01BF054A536B23F0800353630023A9
:102D000084F8B933002010BD24D4002000380240DC
:102D1000114B1B685B68C3F342320270C3F303526A
:102D2000C3F3034102EB820201EB4202C3F3003121
:102D3000C2708A001144C3F3032202EB41024270C5
:102D4000C3F3011202EB820203F00F0303EB420311
:102D500083700020704700BF00400020154B1B68A7
:102D60009A6A42601A691B68C2F30E028260C3F35A
:102D7000064202F04001C170C2F3011101EB810172
:102D800002F00F0202EB41020270C3F30232C3F3FE
:102D9000032102EB820201EB42024270C3F30212F2
:102DA00002EB820203F00F0303EB42038370002067
:102DB000704700BF004000202DE97043D0F800901C
:102DC000DDF82880DDE90656DDE908CEB9F1000F0F
:102DD00016D04BB9CC1EE4B2082C04D80B4B53F8D8
:102DE00024306BB15B785BB1D9F814405CB1CDE9AC
:102DF000076CCDE909E80695A446BDE87043604735
:102E00000348BDE870830348FBE700BFC4450508DD
:102E100080C1FFFF00C1FFFF38B50C460546012108
:102E2000204626F091FA28B921462846BDE83840C8
:102E300026F0FDB938BD00002DE970471C46C36B74
:102E40008BB006468946904623B9404C20460BB0CD
:102E5000BDE8708700F1800300F1600200F1980A7C
:102E600004A80393029225F055FEDDE902238CBBF2
:102E7000364C04A826F0C2FC002CE7D1504626F0C0
:102E8000B0FAB0F5806FE0D8F26B12F0070518BF0A
:102E9000012505EBD205C9F80050304625F05DFE4E
:102EA000022848D1B6F89E30D6F898C0B5EB830F0B
:102EB0004FEA830031D82B46984221D12E46002379
:102EC000B3422CD18542C1D92A1A002140444FF087
:102ED0003FFEBBE712993046CDE9004104A92BF033
:102EE00099FE04460028C4D1014608A826F0B2F98C
:102EF0000028BDD004A9504626F026FB0446B8E7BA
:102F000023F0030603F00302D1005CF80620CA4058
:102F100012F0FF0F16D10133CEE70646CFE723F0BC
:102F2000030E03F00302D1005CF80E20CA4008F83B
:102F300003200133C4E72A464146504626F0CBF928
:102F4000044683E76FF0070480E700BF80B0FFFF0F
:102F50002DE97343DDF820901C4616464B46224669
:102F6000054688462BF0E6FC48B905F11C034CB138
:102F7000CDE900494246314628462BF04BFE02B0CF
:102F8000BDE870830048FAE780B0FFFF70B40568C1
:102F9000DDE9036C8DB14BB9CC1EE4B2082C04D82A
:102FA000084B53F8243043B15B7833B12C693CB102
:102FB000CDE9036CA44670BC6047034870BC704701
:102FC0000248FBE7C445050880C1FFFF00C1FFFFC1
:102FD00037B50223154601AA044627F0A3FF18B906
:102FE000019B1BB96FF0630003B030BD236893F9F8
:102FF0000030002BF6DB019B3BB122681178A1B1B8
:10300000042BEFD801D10B06ECD400232B60019BDD
:103010005A1E0192002BE7D02368296813F8012B70
:1030200042EA01222A602360F1E70132013B22607B
:103030000193E0E72DE9704F9AB01E4600230490FB
:103040000C46904605460093EB69A3B1D5F8903144
:1030500000954BB94FF4CA71012021F00DFDC5F860
:10306000900118B9994E60E01D46EDE71BF0ABFEEC
:103070000095D5F890510020CDE90B00CDE90D0069
:10308000CDE90F00CDE911001390002D00F0C083B1
:10309000002C00F0BD83302306AA04EB080107A82A
:1030A000CDE9068427F03EFF80B128461BF056FE8E
:1030B000874E009B1BB1009A0023C2F89031049BFD
:1030C0009D4232D0284621F0A7FC2EE0DDE90632F1
:1030D00002EB0309A9EB0401A96056B3012021F01A
:1030E000CBFC0790E860002800F09083AA68214696
:1030F0004FF0E8FC0123AA682B60069B0799D31ABE
:103100000B44079301EB0209079BAB6106AA30232E
:10311000494607A827F006FF064668B12846A6F5E7
:1031200006561BF01BFE002EC3D130461AB0BDE878
:10313000708FEC602E60E7E7DDE9063202EB0308F2
:10314000AB69A8EB03036B6117AAA023414607A84C
:1031500027F0E8FE90B310F1620F2BD1EE61079BD0
:10316000A8EB0302002A45DD1A7802F07F02022A4A
:1031700042D15A1C07921B782B6205F1240241466A
:1031800007A827F09FFE78B3B0F50A5427D10BAB00
:1031900005F12C02414607A827F0D8FE10B1B0F582
:1031A0000C541CD1EB69022B28D928461BF0D6FD04
:1031B000484E7EE7A0F506548CB9D0E71799079ED4
:1031C0000E4405F11C02314607A8FFF701FF10B1BC
:1031D000A0F50854F0E7079B9E42C0D03E4C28461D
:1031E0001BF0BCFD264664E7079B6A6AAB6213448A
:1031F0000793CCE7394CF2E7394CF0E70133EB6148
:10320000D5F88C3183B9374C206808B9364CE6E7DD
:103210002B6B62689A4205D1696B4FF0AFFC0028B6
:1032200000F008831434EFE7304CD8E7304CD6E791
:103230001799079E0E4405F19002314607A81BF02E
:10324000EDFD04460028CAD105F1A802314607A8C1
:103250001BF0E4FD04460028C1D1079B9E4200F00C
:103260002283244CBBE7079ED5F8F010C5F8F46024
:10327000A3230E44C5F8EC3017AA3023314607A823
:1032800027F050FE002840F06D83079B179A1344E7
:103290009E4200F06C83184CA1E70023CDE9143363
:1032A000169309930299302308AA07A827F03AFE3B
:1032B00030B3A0F51454002C91D1079B984500F031
:1032C0005B8228461BF04AFD0C4EF2E680D7FFFFDA
:1032D00080DEFFFF80DAFFFF9ADDFFFF20DDFFFFCA
:1032E0001EDDFFFF3C580508D2D9FFFF00D8FFFFC5
:1032F00000DDFFFF9ADBFFFF9ADAFFFF1ADEFFFF18
:10330000DDE9072302EB030A5146062315AA07A8A5
:1033100027F008FE0028CCD10623159A1493079BAA
:1033200016935146134407A809AA079327F080FE75
:1033300010B110F1620FBCD1042308AA514607A8AE
:1033400027F0F0FD0028B4D1DDE907631E44B24543
:10335000A1D1DDE915B1AA4C206830B9099B0796C7
:10336000002B00F00883A74C39E763685B4507D161
:103370005A4601914FF002FC0199002800F0518259
:103380001434E9E71A43202BC5F8582100F03E8198
:1033900010DC013B072B00F2E981072B00F2E681EC
:1033A000DFE813F0D600BD00E4015800E401E401B9
:1033B000E4016201B3F5006F74D0B3F5803F00F013
:1033C0003C81B3F5807F40F0D181C5E957113023AE
:1033D00017AA314607A827F0A5FD28B1A0F5145477
:1033E000002C00F0C882FAE6079B9E4200F0C382E0
:1033F00005F5AE72314607A8019227F019FE78B1A3
:1034000010F1620F019AE9D1314607A8FFF7E0FDFC
:103410000028E3D1D5F85C3113B10123C5F85C3144
:10342000079B9E4200F0A78205F5B072314607A8BF
:10343000FFF7CEFD0028D1D1079B9E427FF42BAF32
:10344000D5F860316FF00042934266D00133C5F881
:10345000603190E2002317AA314607A817938DF830
:1034600060301993FEF73EF820B1B0F5145400F027
:103470008282B4E6179B13B9C5F864317BE21999CF
:10348000C5F864010A5CC40002FA04F4D5F86421AA
:10349000013022438342C5F8642100F06C82042885
:1034A000F0D168E2062305F5B4701022CDE917309B
:1034B0004FF04EFB30230AAA314607A827F032FD11
:1034C0000028D2D1079B0A9A13449E421DD06FF068
:1034D0006500CAE75A1C079293F800A0BAF1060FDC
:1034E00040F09C810AAA314607A827F0EBFC00288F
:1034F000BBD10A9B079A514617A825F077F90028F7
:10350000B3D1079B0A9A13440793079B9E42E1D8C5
:10351000D5F87031002B40F02E823B4C5FE6002343
:10352000179317AA0423514607A827F0FBFC00288D
:103530009BD10423179AC5F80831079BC5F81031B1
:103540001344C5F80C2107939A4500F01482A2E6B3
:103550000023179317AA3023314607A827F0E2FC6F
:1035600000287FF43BAF079B179A13449E427FF4D9
:1035700092AE802317AA314607A827F0D3FC002873
:1035800039D1179A079BC5F81C3104211344C5F89B
:103590001821C5F814110793079B9E4228D9A1232F
:1035A00017AA314607A827F0BDFC00287FF416AF04
:1035B0000799179B05F59072194407A81BF068FD41
:1035C000044600287FF40BAE822317AA314607A8D1
:1035D00027F0A8FC00287FF401AF179A079BC5F8D5
:1035E000383102211344C5F83421C5F8301107934E
:1035F000079B9E42A9E710F1620FCDD0EEE600BF17
:10360000545905089EDAFFFF9CDAFFFF302317AA02
:10361000314607A827F086FC00287FF4DFAE079B21
:10362000179A13449E427FF436AE05F1F8023146F4
:1036300007A81BF02DFD0446D2E617918DF8601007
:10364000199117AA314607A8FDF74CFF00287FF40F
:103650000CAF179B13B985F878318CE1012B7FF4FF
:103660005CAF199B1B78F6E70DF15C0B30235A46D3
:10367000314607A827F056FC044668B1A0F514545B
:10368000002C00F07881099B002B7FF4A8AD14F585
:10369000025F00F07081A2E5179A079B13449E42D7
:1036A00060D1002A5ED005F5A47A079B9E4205D81A
:1036B0004FF00003CAF80C30E2D053E030235A46F2
:1036C000314607A827F02EFC10B1A0F51454D7E717
:1036D000079A179BD3180193019906235A4607A806
:1036E00027F020FC0028F0D1179A079B0393042AA7
:1036F0003AD11946A54805924FF040FAA44B059AD5
:10370000002818BF1C46DAF8083073B1DAF80C301C
:103710000592002B7ED11021012021F0ADF9CAF8CD
:103720000C00002878D0059A82460623CAF800309B
:10373000039BCAE90123079B179A1344019A079335
:103740009A420BD9019930235A4607A827F0EAFB81
:103750000028BAD1079B179A13440793079B019A35
:103760009A42A2D08B4C8EE7894CCCE7099B002B68
:1037700040F009810796FEE00EAB11AA494607A862
:1037800027F0E4FB18B1B0F50C547FF428AD2A6B98
:10379000129B9A4213D11399686B4FF0EFF90646CA
:1037A00068B90B9A0E9B9A4209D10C9A0F9B9A42C8
:1037B00005D14AB110990D984FF0E0F920B1284693
:1037C0001BF0CCFA744E74E4079BA9EB0302002AA9
:1037D0001ADD17AA494607A81C7827F002FC40B159
:1037E000B0F512547FF4FBAC079B99453FF49DACB8
:1037F00067E5C5F87C41179A079BC5F884311344E7
:10380000C5F880210793EFE7644CE8E4644E50E488
:10381000644E4EE4644C36E7644C34E76FF061006C
:1038200023E62369D5F8582112EA03013FF4AAAD33
:103830005D4CD4E4237C85F88831637C85F889313C
:103840000B9B052B02D0002B7FF4F0AC0C9B002BC4
:103850007FF4ECAC079B2B6406AA3023414607A8F3
:1038600027F060FB064600287FF458ACDDE90631FE
:1038700005F15002194407A81BF07EFB04460028FE
:103880007FF4ADAC2A6C079B9B1AEB6317AA30231D
:10389000414607A827F046FB00283FF4C9ACB0F525
:1038A00010547FF49CAC079BEB6406AA302341467E
:1038B00007A827F037FB064600287FF42FAC069BAD
:1038C00053B1079905F17002194407A81BF054FB86
:1038D000044600287FF483AC079AEB6CC5F8C82037
:1038E000D31AAB6405F1CC02414607A824F0C2FC10
:1038F000044600287FF473ACD5F8C820079B9B1AB8
:10390000C5F8C430EB69023B012B19D8012305F13E
:10391000D402414607A81BF063FA044600287FF44E
:103920005EACEB69023B012B0AD8022305F1E002F1
:10393000414607A81BF054FA044600287FF44FAC18
:10394000EB69032B7FF4B9AC079B98453FF414AFA8
:10395000A32305F1F002414607A827F0E3FA002867
:103960003FF481ACA0F51454002C7FF438ACD5E9B9
:103970003C32D3180293079B029A9A423FF68DACD1
:103980003FF49BAC87E4024C29E400BFBE45050828
:1039900080DFFFFF9ADAFFFF80D9FFFF20DBFFFF08
:1039A00080D7FFFF00D8FFFF00DBFFFF96DAFFFFA5
:1039B00030B597B06FF00403054604A801934EF0AC
:1039C00093FE044688B9114A029502A940F2EA65BD
:1039D000022003952DF016FA28462DF0ADFB019438
:1039E0004EF0A6FE019817B030BD059C084920682E
:1039F0003EF0AAFA0028F5D0204642F00DFB01A9BE
:103A000043F0FCF9019B5B420193EBE71854050876
:103A100044550508012973B5056806460C4625D9A5
:103A20002B6A994222D22146306801942EF056FA30
:103A30000199044610B9002002B070BD012815D0CC
:103A4000431C15D0002228462EF0A0FD0028F3D1FB
:103A50002A6AAB69911E8B4205D20133AB612B7A86
:103A600043F001032B729442DDD3E4E70220E3E745
:103A70000120E1E72DE9704195B0494B0193022106
:103A800006462EF0A3FB0446002838D102AD4FF0C5
:103A90002033029380466B60C5F80730019B1B788A
:103AA0001F2B25D89DF80830E52B27D0B8F1000F43
:103AB00004D008F1FF33EA5C202A3ED0002108A898
:103AC00008960A912EF0C1FA0446C0B9012108A84F
:103AD0002FF0AEFB00283BD10F9BB8F1000F2ED08A
:103AE00003CD186059602988AA789A72198128E054
:103AF00001A82DF045FFB0F5803F04D306242046F1
:103B000015B0BDE870812DF0E3FE7F2809D880B2A2
:103B10000028F3D0234A12F8013B43B19842FAD16E
:103B2000ECE7B0F5803FE9D22DF016FFF0E7FF2873
:103B300024D8B8F10A0F2BD9E0E79846B6E7E5227A
:103B40001A700123F37130462EF048F90446D6E787
:103B50000428FBD1B8F1000FD1D0012108A82FF023
:103B600075FC04460028CAD1202201460F984EF069
:103B7000EFFF0F9B0822DA720F9BB1E7B8F1090F34
:103B8000BCD814AB4344020A03F8482C08F10108DE
:103B900014AB434408F1010803F8480C7EE700BF6A
:103BA000F23A0508CC4705082DE9704F86B08046EB
:103BB000894616469A4600240DF1100B0F9BA3422E
:103BC00003D8002006B0BDE8708F0F9B1D1B0E9B15
:103BD000082D28BF0825E318CDE900A3CDE902B5DB
:103BE000331B4A460021404628F01EF90028E9D13F
:103BF000109B2A461868594627F07CFF109B2C44DE
:103C00001860DBE72DE9704F86B081468A4616467C
:103C10001D4600240DF1100B109BA34201D800207B
:103C20001EE0109BA3EB04080E9BB8F1080F28BF01
:103C30004FF00808E318CDE90053CDE902B8331B73
:103C400052460021484628F0EFF848B90F9B4246FB
:103C5000191958464EF092FF002804D005DB0220C7
:103C600006B0BDE8708F4444D6E70120F8E70000B5
:103C70002DE9704F2DED028BAAB000249A46BDF8B5
:103C8000DC300493CDE90A44BDF8E030069308EE39
:103C9000100ABDF9E43005938B461546A1465046FF
:103CA00028F070F8DBF80C3000EB0508984564D27A
:103CB00009AACDE9018204230393DBF800200092D6
:103CC00018EE100A18EE102A002128F0ADF800288E
:103CD00040F01B81099B1BBA8AEA030ADBF800301B
:103CE0000A934AF0004A08F10403CDF824A00B938C
:103CF0000AAE0999369B81EA09021A40854B1A409F
:103D000039D1369BC3F38923002B00F0A0803C25DA
:103D100065432AAB2B44349843F86C0C359843F830
:103D2000680C369843F870AC43E91909049823F8F5
:103D30005C0C069823F85A0C059823F8580C3A980E
:103D400043F8540C3B9843F8486C43E91401DDE90F
:103D50000A0143E91EB8443B83E803002AAB1D4433
:103D6000A5F14C03CDE905223B936B4B3692013410
:103D700091463A930492454691E7359B002B40F3D8
:103D8000C280349B1B680993349B5E68083334936C
:103D9000359B013B3593A846ABE7B2F5817F1DD13A
:103DA00000250999C1F309039D42E4D2059B72687D
:103DB000C1F389211944B36843EA8121337803F5BB
:103DC000407341EA0351DDE93A3098470028C0F2D8
:103DD0009C8006F10C06CED10135E2E7059932460A
:103DE00003EB8121DDE93A3098470028C0F28D804D
:103DF000C1D0002C00F089802AAA013C3C2303FB9F
:103E0000042353E91CA2349253F8682C359253F8DA
:103E1000642C369233F85C2C049233F85A2C0692B8
:103E200033F9582C059253F8542C3A9253E9110166
:103E300053F8502C3B9253F84C2C09920AAA53E9A0
:103E40001EB882E8030053F8609C53F8486C369A19
:103E5000099BC2F389223AB10499C3F389228A42A9
:103E600089D306998A4286D2C3F30A52002A82D0A5
:103E700040F201118A4290D107933A9B1A46264B91
:103E80009A423FF478AF3C222AAB02FB0435002172
:103E9000A5F178004EF05CFE349B45F86C3C359BF8
:103EA00045F8683C369B45F870AC45E91939049BE8
:103EB00025F85C3C069B25F85A3C059B25F8583CA8
:103EC0003A9B45F8543C3B9B45F8503C079BC3F359
:103ED0000902049201320692049AC3F389239B1AC1
:103EE000059A13441BB20D4A0593002345E91EB8F9
:103EF000CDE935320134B3464FF0005934934FF0D9
:103F0000FF3A984637E7002073E72AB0BDEC028BF2
:103F1000BDE8708F0000F07F0D87020800FC0F6085
:103F20002DE9704F86B0DDE90F4A013B119EDFF8A5
:103F300098B004938046894615460EB9304640E055
:103F40002B68E868023316D1D5E901120A4494427D
:103F500011D28C420FD3121BB242A4EB010128BF35
:103F600032460144504605924EF0ACFD059A92440B
:103F70001444B61AE1E7D8F868C06FF00103DCF822
:103F800014102B60049BB4FBF1F20B44234401FB9F
:103F90001242B3FBF1FE01FB1E315B1ADCF8281064
:103FA0008B4228BF0B46A21ACDE901036A60AB60C1
:103FB00000920E9B5A464946404628F0A9FC00282C
:103FC000BBDA06B0BDE8708F00FCF7FF2DE9704F3B
:103FD00088B00646894605924BB911994FF0FF32D9
:103FE0000A60129A0020136008B0BDE8708F013B90
:103FF00007A9806E079327F099FD10A90546B06EBA
:1040000027F094FD4FF0040A80460DF1140BA845EB
:10401000059A03D3119B1A60109BE2E7A5EB0804F5
:10402000B4FA84F495FAA5F3B3FA83F3C4F11F0448
:104030009C4228BF1C46A300CDE90023CDE902BA6B
:1040400004234A460021304627F0EEFE0028CBD15B
:10405000012303FA04F42D1BD9E700002DE9704F6A
:10406000C488944292B00646154678D33D4B0693D9
:104070001FFA82F90123ADF81030A4EB09030DF10A
:104080001C089BB29A4238BF4B4605912C22002156
:1040900040469B46ADF81230CDF80C804EF058FDEE
:1040A000336801931FFA8BFB4FEA8B0203EB850108
:1040B00040464EF007FD0BF1020B019BADF812B02C
:1040C0004FEA850A2A460021944240D803A905AA4E
:1040D000084626F085F90446A8BB03AA31463046B7
:1040E00025F0ACFA044670BBB6F806B0ABEB09039A
:1040F0009BB29D4238BF4B4601462C224046ADF84C
:1041000012304EF025FD3368BDF8129001934FEA4E
:10411000890203EB0A0140464EF0D4FCBDF81A2098
:10412000019B9144ADF812905D4514D303A905AAF3
:10413000084626F055F9044628B903AA3146304608
:1041400025F07CFA0446204612B0BDE8708F43F893
:1041500022100132B8E743F825400135E4E7002496
:10416000F1E700BF010002002DE977411D46036819
:104170000446884616467BB94FF420724FF400710E
:10418000362018F00DFD206020B94FF0FF3003B04D
:10419000BDE870810C23A380B8F80031A2880433F5
:1041A00012FA83F3226812899342EEDC41462046DC
:1041B00019F0DBFA0028EAD13602A3882068ADF8AE
:1041C000066002220DF1060117F083FF0028DED100
:1041D000A38820689A1C002D93B214BF4FF4C072BC
:1041E0004FF48072ADF80620A38002220DF1060183
:1041F00017F06FFF0028CAD1A3880233A380C6E757
:104200002DE97047904685B00268DDF83C90DDE905
:104210000DA504460E468AB94FF420724FF4007182
:104220003620019318F0BCFC019B206020B94FF0B0
:10423000FF3005B0BDE870870C22A280B6F80001FF
:104240000A3080B2BAF1000F01D0284480B2B9F12F
:10425000000F03D0B9F80021104480B2A2881044A6
:10426000226812899042E2DC424631462046FFF73E
:104270007BFF0C9819F054F8A3880390042220685F
:1042800003A917F026FF0028D3D1B4F8048008F161
:104290000606B6B2A680BAF1000F0BD0ADB2206808
:1042A00033462A46514617F014FF0028C1D1A28890
:1042B0001544A580B9F1000F0ED1A38820689B1B7F
:1042C0005BBAADF80A3008F104039BB202220DF18B
:1042D0000A0117F0FEFEACE74946204619F045FA00
:1042E0000028EAD0A5E710B5C2B00446012201A813
:1042F00019F094FA0123FF2201A92046FFF734FFA9
:1043000042B010BD10B5C2B0044601A819F09BFB25
:104310000123FF2201A92046FFF726FF42B010BD6E
:1043200070B5042018F0C2FB044678B1084D02466F
:1043300005F110062B4603CBB342106051601D46B9
:1043400002F10802F6D1606818F04CF9204670BD01
:1043500000C0002070B586B01546BDF828600593F2
:104360000446D8B1084618F0DBFF14211923CDE923
:10437000011302460021059B00962846FEF7C7FB65
:104380000028014638BF002141B1054B0A941A1D8F
:10439000002006B0BDE8704014F052BA06B070BDFF
:1043A00020C000202DE97047AB4B87B091460C46EA
:1043B00019F0010F1A68A949009014BF5423522321
:1043C0008046A7484CF008FD637903932379029354
:1043D000E3780193A3782278A2490093A0486378F8
:1043E0004CF0FAFCE37A0393A37A0293637A019385
:1043F000237AA27900939C49E37999484CF0ECFC2C
:10440000227B637B43EA022340F60602934200F0DC
:10441000868048F2DD62934200F08380B3F5006F3E
:1044200040F08180914A92498D484CF0D5FCB8F11A
:104430000E0F69D9237B082BA8F10E0504F10E0697
:1044400040F0D280637B002B53D1A37B452B50D10E
:1044500094F82130059394F820300493E37F03937C
:10446000A37F0293637F0193237FA27E0093814900
:10447000E37E7B48258A4CF0AFFCE27D6DBA062ACC
:10448000ADB255D104F1260010F0D3FF824604F1FD
:104490002A0010F0CEFFE18D268EA38C628C49BAE3
:1044A00076BAC1F30338B6B2C1F308015BBA52BAA7
:1044B000CDE90281CDE900A004966F4968489BB21E
:1044C00092B24CF089FCB8F1050F04F13606A5F163
:1044D00028050ED9A8F105084FEA88086749604801
:1044E0004CF07AFC31464046FCF7C6FE4644A5EB4C
:1044F000080519F0020F07D0614959484CF06CFCCF
:1045000031462846FCF7B8FE19F0040F00F0A180F0
:104510005C49534807B0BDE870474CF05DBC5A4A4F
:1045200081E75A4A7FE7A289594952BA92B27BE79A
:10453000112A51D1B4F822A0B4F824805549484832
:104540009AFA9AFA98FA98F81FFA8AFA1FFA88F8EB
:10455000434652464CF040FCE58CBAF1430F6DBA2D
:10456000ADB204F12A061CD1B8F1440FC1D14A49B9
:104570003B484CF031FC31466C20FCF77DFE47494E
:1045800037484CF029FC94F81C31013BEC3D04F514
:104590008B76072BADD8DFE803F00C111315171934
:1045A0001B1DBAF1440FA4D1B8F1430FA1D13C496E
:1045B000DEE73C492A484CF00FFC9AE73A49F9E714
:1045C0003A49F7E73A49F5E73A49F3E73A49F1E773
:1045D0003A49EFE73A49EDE73A49214804F1220622
:1045E000143D4CF0F9FB84E7862B82D1637BDD2BF5
:1045F0007FF47FAFA37B1B09062B7FF47AAF304695
:1046000010F017FF637D0293237D0193638A2E4987
:104610005BBA9BB2C0F307520093C0F31303104878
:104620004CF0DAFB29490E484CF0D6FB04F1160198
:104630001020FCF721FE264909484CF0CDFB04F17F
:1046400026011020FCF718FE04F13606A8F1360505
:104650004FE707B0BDE8708768E900200D3B05080B
:10466000F8540508223B0508453B0508083B0508AA
:10467000683B05087E3B0508A33B0508EF3B0508A2
:10468000AF3C0508883A0508FF3A0508033B0508D2
:10469000713B0508F63B0508113C05081F3C050861
:1046A000183C0508263C0508303C0508373C050841
:1046B000403C0508493C05084E3C0508543C0508AB
:1046C0005D3C0508653C05086E3C05089F3C0508F7
:1046D000A73C050813B50C4C246824680B4600F071
:1046E0007F4164B9002914BF1321032101920022E4
:1046F0000092024604480DF0E3FD02B010BD00290F
:1047000014BFEC21EB21F1E7FCC30020FF292DE9C8
:10471000734F044603D98B18B3F5885F11D9002570
:1047200004F2BD102B46FF244FF0010C4FF0100E89
:104730004FF055084FF0AA09954266D14FF0000896
:104740003CE0EFF3118B602383F31288560250D0C4
:10475000DFF8A481A1F5807140464D020DF0A0FE66
:10476000D8F80030D3F8109009F580531B680193F6
:10477000434542D141F2040259F802104B1C3CD08F
:10478000B1EB153F4FEA153037D3721E2A44B1EB17
:10479000123F32D881421AD94FEA013A2246C5EB7C
:1047A000013128460091FFF795FFDDE900138046AF
:1047B00040B118460DF06AFE8BF31188404602B0F6
:1047C000BDE8708FA6EB0A062E440C445546C5F38F
:1047D0000B01C1F58058B04528BFB0464246494458
:1047E00020464EF06FF9B6EB080604D142480DF0B2
:1047F0004DFEB046E0E74444454422463146284653
:10480000FFF768FF80463C48D4E7CD4271D1A0F560
:10481000DF7606F8013FB042FBD143708470C4706C
:10482000047180F805C08471C4710472437280F809
:104830000AC0C3720373437380F80EE0C37303743A
:1048400043748374C374037543758375C3750376AA
:1048500043768376C376037743778377C37780F88D
:104860002030013580F8213080F8223080F8233064
:1048700080F8243080F8253080F8263080F8273002
:1048800080F8283080F8293080F82A3080F82B30E2
:1048900080F82C3080F82D3080F82E3080F82F30C2
:1048A00080F8303080F8313080F8323080F83330A2
:1048B00080F8343080F8353080F8363080F8373082
:1048C00080F8383080F8393080F83A3080F83B3062
:1048D00080F83C3080F83D3080F83E3080F83F3042
:1048E00080F8403080F8418080F8429000F50070F8
:1048F00022E76FF0040861E7FCC300202DE9704354
:10490000804686B0D1E900600C4643F063F8062289
:10491000054603A9A06842F04DFBB8F1030F13D17F
:104920007168049A03980029B8BF01F2FF1105EBE2
:104930006121520A01F58071FFF7E8FE400040F066
:10494000010006B0BDE87083174B9E4225D0E06899
:1049500043F040F8B368B3EB053F804620D9039A93
:10496000D6F80490049C0192EFF31186602383F340
:10497000128874B10D4805EB19350DF091FD2146F3
:10498000019A08EB0530FFF7A5FE044607480DF035
:104990007DFD86F311882046D0E76FF00400CDE757
:1049A0006FF00D00CAE700BF5C700508FCC3002073
:1049B0002DE9704F4C4E356890F83D3086B0202B75
:1049C000CDE90212044603D0022006B0BDE8708F84
:1049D00046490095192301220CF026FA0028F3D14C
:1049E00094F83C30012BEFD0012384F83C3023684D
:1049F000DFF8F8B01A68D2075EBF1A6842F0010209
:104A00001A601A6822F400621A60242384F83D3088
:104A100000232364A3F58033E3624FF001094FF0D4
:104A2000A00A2268136843F4807313604FF00111E9
:104A30000095C823002220460CF0F6F918B1032097
:104A4000C3E79946EDE723689DF808201A613568A9
:104A50005869596994F83D20C0F34000C1F38021A2
:104A60000143D2B201D1A02A20D14FF0200884F80E
:104A70003D805A6912F0020F1A6842F400721A60FF
:104A80001BD0002205925A6905929B690593059BEC
:104A9000164900951923012220460CF0C5F900287B
:104AA000CDD184F83D8084F83C008EE73268521BFB
:104AB000C82A88BF84F83DA0CAE76FF480625A61B3
:104AC000594600951923012220460CF0ADF9002823
:104AD000B5D1039A914509F10103B2D184F83C00A4
:104AE00084F83D80012070E768E900200200100092
:104AF00010B58021044609F0ADFA20460021BDE83A
:104B0000104009F0A7BA08B5D0F814320BB902204A
:104B100008BD1B68012198470028F9D0F7E700007D
:104B20004269012303FA02F13D4B30B5D3F800424C
:104B300044F00104C3F80042D3F8004224F47C544A
:104B4000C3F80042D3F80042456A44EA0524C3F89A
:104B50000042D3F81C5225EA0105C3F81C52C5696E
:104B6000CC43002D35D1D3F80C522540C3F80C525C
:104B7000D200C568838802F1804202F5C84243EA48
:104B80000543C2F840328568038843EA0543C2F80A
:104B900044328369224AABBBD2F804322340C2F8C4
:104BA0000432036993BBD2F814321C40C2F8144299
:104BB000036A1B4A012B02BFD2F81C320B43C2F816
:104BC0001C32D2F8003223F00103C2F80032002078
:104BD00030BD012DDDD1D3F80C520D43C3F80C527A
:104BE0000368858845EA0345D30003F1804303F554
:104BF000C8438289C3F84052856842EA0542C3F837
:104C00004422C6E7D2F804320B43C8E7012B01BFA8
:104C1000034AD2F814320B43C2F81432C8E700BF7B
:104C20000064004010B5D0F8180290F8653800EB29
:104C3000C3040133DBB2042B4FEA022208BF002376
:104C400084F84418C4F8482880F8653810BD00007E
:104C50002DE970413C4BD3F8A44195B0D4E90168EB
:104C6000054690BBA27B04F10E03B046012A30D06A
:104C7000022A42D0002A54D1A169002D4A690CBFF2
:104C80006FF002006FF01000024001264A611E70B2
:104C9000B8F1060F16D042F069F84CF05DFD02A89D
:104CA0004DF022FD024600283DD16B4602214046D0
:104CB000CDE9004644F012F84DF03AFD4CF044FDC9
:104CC00042F034F815B0BDE87081E27B04F10F03C7
:104CD000CCE7A269002D51690CBF6FF004006FF0A2
:104CE000200001EA000151614FF008010CBFD160C2
:104CF000116102221A700326CAE7A269002D5169C8
:104D00000CBF6FF008006FF0400001EA0001516134
:104D10004FF010010CBFD160116103221A700526FB
:104D2000B6E70126B4E76900062241F001012046FA
:104D300005F01CFB227B054905484CF04DF8039912
:104D4000034843F04DF9B9E728C00020B63C0508F8
:104D50009C54050800B500238BB0CDE904306846AB
:104D6000CDE90033CDE90233CDE90633CDE9083191
:104D7000FFF7D6FE0BB05DF804FB0000094843685E
:104D8000DB0710B50CD5EFF31184602383F3128891
:104D90000DF0FCFB0021012007F0A2FE84F3118836
:104DA00010BD00BFFCC300200A4808B54368DB07FC
:104DB0000ED5094B82681B689B1AB3F57A7F07D31F
:104DC0000DF0E4FBBDE808400021012007F088BE9B
:104DD00008BD00BFFCC3002068E900202D4B37B59B
:104DE0001D78002D53D1012119702B4B2B4C2C4ACF
:104DF0005A602C4B23602C4B2C48656010229A6122
:104E00002B462A4608F008FE2368DA68986812687C
:104E10002946904720460DF043FBAB2120460DF07C
:104E2000CAFA23681B68012B25D16A460521204652
:104E3000CDE90055FCF718F920B901AA3521204623
:104E4000FCF712F9019A9DF80050120292B2154334
:104E500002F4007252EA00030DD106210F480DF052
:104E6000AAFA0E4845F40073022201210DF083FADC
:104E70000A480DF021FA09480DF008FB0023A36051
:104E80000B4B602283F8042304200CF067FA03B074
:104E900030BD00BF10D4002014D40020FCC300207B
:104EA00011120008D472050800000240985C050841
:104EB00000E100E070B505460846164642F08AFD5E
:104EC000013805284DD8DFE800F00316161A272F01
:104ED000FFF784FF304642F07DFD012803D1224BCD
:104EE0009D4205D028730020400040F0010005E0FD
:104EF0004FF0FF30F8E7FFF741FF012070BD1A4B7C
:104F00009D4206D02A7BA8680AB1000BECE7400A54
:104F1000EAE74FF48850E7E72B7B002B14BF4FF4F0
:104F200000504FF48060E0E72C7BC4B130466D68E0
:104F300042F050FD2D0B0446EFF31186602383F3FE
:104F400012880A480DF0ACFA6119090307480DF000
:104F50005AFA044605480DF099FA86F31188600064
:104F6000C3E70620CAE700BF5C700508FCC3002049
:104F70002DE9704F814B8AB01A780193002A59D0DD
:104F80007F4CDFF81C82DFF81C9200232360C246AE
:104F90007C4E98F800B0737F354603F0FF02002B7B
:104FA00032D1794B32771968784A7948BBF1000FD2
:104FB00062D0036F9B0740D54FF4807100230393A9
:104FC000734B186C40F0805018641B6C03F08053D6
:104FD0000393039B6F4B186840F480701860D2F8FD
:104FE00000C01868C0054DD5694B186F10F44070AB
:104FF0004ED1674B9A6822F4F8129A601A6F1143E7
:105000001967654B01221A60022373773368CA223D
:105010005A6253225A62FCF70DF8002856D03368C2
:10502000FF225A62042373770CE06FEA13436FEA9E
:10503000034323600AB0BDE8708F13685B1AB3F5B1
:105040007A7FB6D92368BBF1000FEED043F08073AE
:1050500023604E4B00251A684B4B8AF800502846B7
:105060001A60FCF743FE0BF011FE757790E71368AA
:105070005B1AB3F5FA7FE5D8436F9B07F7D54FF47A
:1050800000719BE71068A0EB0C000228A9D9D9E7B2
:105090008842AED0186F4FF0010CC9F800C020F460
:1050A00040704FF0000CC9F800C01867186FC007B7
:1050B0009FD5D2F800C041F2883E186F800798D47F
:1050C0001068A0EB0C007045F7D9BBE72B68296985
:1050D0009A6822F4E00222F040029A606A689868B6
:1050E0000A4369690A4302439A60EA681A611A69C5
:1050F000A96842EA01421A616FF08002DA601A6C14
:10510000A96922F480221A641A6C0A431A64FF22E5
:105110005A6201236B771C4A1C4B12681B689B1A4E
:105120009BB243EA0B7B4BF00053236004A81B4B5C
:105130000493FCF775F928B9CDE90800059005A896
:10514000FCF7FCF8124B5A6F12F0006F1A461EBFA4
:105150004BF0005343F480332360536F0C4A5B01E0
:1051600042BF236843F400332360536F43F08073DE
:105170005367019A002313705CE700BFF4C300205B
:10518000F0C3002000400020F8C3002068E90020A0
:1051900000380240007000403C0E47420401010FFD
:1051A00029000020400E474200B589B0FFF7E0FE1D
:1051B00003A8FDF7D3FD02A8FDF7AAFD9DF80E3068
:1051C0009DF80B0001939DF80D309DF80910009398
:1051D0009DF80A209DF80C3000F5FA600DF026FAD3
:1051E000002109B05DF804FB7FB5FFF7C1FE01A8FF
:1051F000FDF7B4FD6846FDF78BFD9DF802309DF884
:1052000001001B0443EA40539DF8040043EAC02315
:105210009DF8050043EA40139DF8060043EA500359
:105220009DF80300143043EA406007B05DF804FBCA
:105230002DE9704FD0F800808AB0002343710291AD
:1052400003790193144605210DF11F0240462CF00D
:10525000D5FC9DF81F30DD0700F1CD82580700F125
:10526000CC8208AA032140462CF0C8FC30B9089A29
:10527000531EB3F5004F01D21A4201D00123089307
:10528000019BA3B909AA012140462CF0B7FC88B9BB
:10529000029B13F0080F099B14BF4FF000094FF059
:1052A0003F094B451BD3A3EB090309932EE0B8F14B
:1052B000000F01D1012013E023460122002108F153
:1052C00004002CF0D6FD0028F4D194F8FF2194F8C6
:1052D000FE3143EA02234AF65522934203D00E20C0
:1052E0000AB0BDE8708F019B04EB031303F5D7757B
:1052F00093F8B231002BF2D005F108002CF05EFBE0
:10530000814605F10C002CF059FB0990DDF824B022
:10531000BBF1150FE3D9029B13F002030593029B27
:105320002DD003F00703022B00F07682029BD907F1
:1053300040F172824E4B4FEA1B30012633F8022BAC
:1053400012B190426FD2002240F6F573BBFBF6F526
:105350009D429BBF05EB4505013502356D088CBFAD
:105360006D0003354FF0200305F2FF1504938CBF49
:105370004FF0020A4FF0010A6D0A012317E0DA0725
:10538000D8D41320ACE772081646BBFBF6F33948B5
:105390009D00A3F57F43F63B05F2072583424FEAC4
:1053A00055259CD8002304934FF0030A202309EBD2
:1053B000030000900498DDF820E005EB000C009855
:1053C00084440EF1FF30BAF1030F6044CEF1000EB9
:1053D00008BF009900EA0E00A0EB0C0001BF0918FD
:1053E0001B180846009018BF2D18C9EB06108444FE
:1053F000E345FFF474AF0499ABEB0100C01ABAF1B6
:10540000030FA0EB0500B0FBF6F103910DD14FF6B1
:10541000F570814238D8002A7FF461AF012EB2D8EE
:105420005DE77600FCE1760088E7BAF1020F23D150
:1054300003994FF6F57081420ED9002A40F0FA81A7
:105440007600402E00F2E481002E3FF473AF324626
:105450007AE7802EFBD942E7039940F6F570814246
:1054600012D8002A7FF43BAF7600802EECD936E7C5
:1054700008480508FFFFFE0F039940F6F5729142B8
:105480003FF62DAF4FF0010A4FF400720021204685
:1054900005934DF05DFBDA4A059B11682160516868
:1054A0006160A3731189927A2181C3F30723BAF152
:1054B000030F4FF00201A272E3734FF000024FF0AE
:1054C0000103237414BF0B461346BBF5803FE27201
:1054D000217366736274A37480F0248184F813B01E
:1054E000CBF3072B84F814B0F82363753F2323769E
:1054F0004FF0000BFF2384F819B0A37684F81BB09B
:10550000494604F11C002CF051FABAF1030F40F0A7
:105510000F81FFF769FE014604F143002CF046FAC3
:10552000294604F124002CF041FA022384F82C309F
:10553000012384F83030062384F83230802384F845
:105540004030292384F84230AE4B84F82DB084F8E3
:105550002EB084F82FB084F831B084F833B004F161
:10556000470203F1100153F8040B42F8040B8B427D
:10557000F9D119889B7893704FF05503118084F806
:10558000FE316FF0550384F8FF314A46012321466E
:1055900040462CF0B1FB834600287FF48BAEBAF175
:1055A000030F41D1012309F10602214640462CF0A8
:1055B000A3FB4FF40072594620464DF0C9FA52231E
:1055C000237063706123A37084F8E731039B412249
:1055D0007221E27084F8E41184F8E51184F8E62180
:1055E000591E04F5F4702CF0E1F9022384F8EC3133
:1055F0004FF0550384F8FE316FF0550384F8FF3106
:1056000009F107020123214684F8EDB184F8EEB1D7
:1056100084F8EFB140462CF06FFB012309EB030245
:10562000214640462CF068FB4FF4007200212046D2
:105630004DF08EFABAF1030F40F09780F8232370F3
:10564000FF236370A370E37023716371A371E3712F
:1056500023726372A3720F23E372012DAB4628BF3E
:105660004FF0010B2146009A5B4640462CF044FB6C
:10567000014600287FF41EAE4FF4007220464DF024
:1056800067FA009BB5EB0B055B440093E5D1049BE7
:10569000BAF1030F18BF1E46012E354628BF01255B
:1056A000009A2B46214640462CF026FB00287FF42A
:1056B00001AE009B761B2B440093EDD1BAF1030F92
:1056C0005DD0099BB3F5803F5BD2BAF1020F0CBFEE
:1056D00004250125019B002B55D0B8F1000F3FF4A4
:1056E000E9AD01222346002108F104002CF0C1FBA2
:1056F000024600287FF4DEAD019B04EB031383F820
:10570000B2510123214640462CF0F6FA00287FF4DE
:10571000D1AD0022114640462CF070FA003818BF77
:105720000120DDE5594604F120002CF03FF9DBE6CD
:10573000FFF75AFD014604F127002CF037F9C5F3B5
:105740000723E375802384F82430292384F8263046
:105750002D4BA57504F12B0203F1100153F8040B36
:1057600042F8040B8B42F9D103E7BAF1010F274944
:10577000204618BF6FF007012CF018F96DE70C25D3
:10578000A8E70625A6E7029B1B07C2D401994FF4A0
:10579000007220464DF0DCF95523099A84F8FE3159
:1057A000AA2384F8FF31019B84F8BE3184F8C1310B
:1057B0004A4443F6C163B2FBF3F2FE2384F8C331DB
:1057C000930843F03F03012684F8C43184F8C521CF
:1057D000494604F5E37084F8BF6184F8C06184F839
:1057E000C2512CF0E3F8099904F5E5702CF0DEF8CD
:1057F000019A334686E7032072E50A2070E500BF70
:10580000EA3C0508F63C05080A3D0508F8FFFF00DC
:10581000059B002B3FF41DAE094B4FEA5B40012670
:1058200033F8022B002A3FF4B0AD9042BFF4F9AD3B
:105830000022AAE5059B002B7FF4A6AD4FE500BF33
:105840001648050870B504460D46FFF791FB022C7B
:10585000244C39D1686842F0BDF800F2FF13B3F56B
:10586000806F02D3204842F0EFFC237F0028C7BF9F
:10587000C0F500704FF4004240420022012B21D0BD
:1058800001232377022363772368CA2159625321B6
:105890005962D968CE0304D514490E68DD68ED035A
:1058A00005D41043FF22D8635A62012307E00D6834
:1058B000AD1BB5F57A7FF1D9FF225A6203236377D6
:1058C00000232377062070BD2368DA6BD86B13049E
:1058D000C0F30800BDE870404CBFC0F50070404206
:1058E00040F080BD004000201E3D050868E9002012
:1058F0002DE9784180460E46FFF73AFB03200BF076
:1059000019FDB8F1030F70686FD806282FD042F048
:1059100061F80325034602224FF4FA6000FB02F10E
:10592000994209DB4FF40044B4FBF2F463434FF4B3
:105930007A7493FBF4F415E0013D4FEA4202EDD294
:10594000364A93424FF47A7493FBF4F401DC042555
:105950000AE0A4F58034B4F5803F02DD304842F01F
:1059600073FC0625002C00DD013C012200E0002232
:10597000B8F1030F43D1B3682A49C1F828312A4B43
:10598000CA21596253215962996821F48061996052
:10599000D9684907FCD5002A33D05C619A6822F4A3
:1059A000884222F0070205F007052A4342F48842A4
:1059B0009A60FF225A621D4A116841F48001116009
:1059C000916841F480019160D96821F48061D960C7
:1059D0004FF480035361164BF02283F80323032016
:1059E0000BF0BCFC0620BDE8788141F0F3FF0546D2
:1059F000B06841F0EFFFF36804460122BCE70623DC
:105A0000BAE79A6822F480429A60FF225A62074AF3
:105A1000136823F480031360E4E700BFE703E8039F
:105A20002F3D050828C0002000280040003C014010
:105A300000E100E030B505468FB00C46FFF798FA5C
:105A4000012D3BD101A8FDF789F96846FDF760F902
:105A50009DF8030000F5FA6040F0C4FC06909DF844
:105A6000010040F0BFFC07909DF8020040F0BAFC36
:105A700008909DF8000040F0B5FC09909DF80400E6
:105A800040F0B0FC0A909DF8050040F0ABFC0B9094
:105A90009DF8060040F0A6FC029B0C902748584356
:105AA00000F5731000F6F730800840F09BFC06A963
:105AB0000D9008203CF00CFF0FB030BD01AA08216A
:105AC000606841F013FF019B186841F083FF019B60
:105AD00030308DF80300586841F07CFF019B8DF851
:105AE0000100986841F076FF019B8DF80200D868AC
:105AF00041F070FF8DF800006846FBF791FC019BB8
:105B0000186941F067FF019B8DF81800586941F052
:105B100061FF019B8DF81900986941F05BFF00233C
:105B20008DF81A008DF81B30099306A84FF48023D6
:105B30000A93FBF703FC0620BEE700BFF7C2FFFF96
:105B400000B589B0FFF714FA03A8FDF707F902A81A
:105B5000FDF7DEF89DF80E309DF80B0001939DF8DF
:105B60000D309DF80A209DF80910009300F5FA60A9
:105B70009DF80C300CF05AFD049A0A4B0A49534325
:105B800003F5731303F6F7334FF47A729B0853430C
:105B90001A460023E1FB00231046194609B05DF8C0
:105BA00004FB00BFF7C2FFFF00CA9A3B38B5424B67
:105BB000424C00227F25FF21C3E90042C3E9025184
:105BC000C3E904229A613E4B3E4C1A70002864D10E
:105BD0003D4D2B6F48F20331194048F203129142B8
:105BE00048D10BF053F86B6F43F080736B672368F9
:105BF00043F480232360344B21681A6F5B6F02F0FB
:105C000007021B020A4303F4407313432B4A236029
:105C10001169C1F30E01FF2904D11169C1F30641D5
:105C20007F2926D0CA215162532151624FF0FF31A2
:105C3000D160264A214915681068401BB0F57A7F6B
:105C400011D2C8684006F7D50A6922F4FF4222F053
:105C50007F0242F0FF020A610A6942F4FE020A6111
:105C60006FF08002CA60154AFF2143F4801351622D
:105C7000236038BD03F40343B3F5024F0DD10BF09D
:105C800005F86B6F43F080736B676B6F43F0010334
:105C90006B67236843F40023ACE70C4B0C4A1B688A
:105CA000136023F07F4343F07C532360094B187843
:105CB000BDE83840FCF71AB800400020002800403A
:105CC000F4C30020F0C300200038024068E900203F
:105CD000F8C300202900002008B50120FFF766FF67
:105CE000FFF746F9062008BD114A136813F00403B4
:105CF00013B50ED101930F4B596B41F0400159631D
:105D00005B6B03F040030193019B136843F00403B2
:105D10001360094B06491C68486810F0010001D067
:105D2000886803E01A68121B092AF5D902B010BD71
:105D3000000806500038024068E9002008B5FFF767
:105D4000D3FFBDE80840800840F04CBB16280AD8B5
:105D5000054B1B5C03F1047303F59E3300EBC3009A
:105D60008000012303607047D7C30020162810D895
:105D7000084B094A03448A434FEA83030CBF0122BC
:105D800000221A60054A8A430CBF01220022C3F890
:105D90008020704740E089100000111000002110A1
:105DA000162808D800F1845000F51E20800000233A
:105DB0000360C0F88030704730B5204A0123516934
:105DC0008340194293B0044612D0162853610FD86D
:105DD0001B4B00F1320503EB8505A868062807D0A8
:105DE000184B1B5D33B9184B53F8241040F078FF63
:105DF00013B030BD40F0BAFF4BF0AEFC68464CF03B
:105E000073FC60B9104BA86853F8241043F02AFCC7
:105E10004CF08EFC4BF098FC40F088FFE8E706233E
:105E2000AB602046FFF7BCFF0849094822464AF00C
:105E3000D3FF0199064842F0D3F8EBE7003C01405C
:105E400028C00020C0C3002064C300203A3D0508DC
:105E50009C5405082DE970478DB00446084611464C
:105E60001A4603AB01934B4B0093042341F046FECB
:105E70002146082040F04AFA8046DDE90306C207C1
:105E8000DDE9059A05D4830715D10268424B9A4291
:105E900011D141F09FFD0F28044604D83F49024626
:105EA0003F4841F029FB16281DD902463D493C4890
:105EB000172341F021FB06F04BFD047A0546240927
:105EC000394A26F4001393420FD002F5801296420D
:105ED0000BD0A2F57022934207D0344B9E4204D0DF
:105EE00033493246DCE70025EAE7B9F1020F02D96F
:105EF00030494A46D4E7304B04F1320103EB8102CA
:105F00009268062A1A4605D0BAF1060F02D02B492C
:105F10002246C5E72046FFF743FF02EB810316F454
:105F2000803FC3F808A0264B14BF00220422BAF118
:105F3000060F1A5519D0234B01221A5504FA02F301
:105F40001343214A42F82430ADB931462046FFF7C9
:105F50000DFFFFF7FBFE1D4B1A570E2102F07F00CD
:105F6000FCF700FA10460BF0F9F94046C8F8044077
:105F70000DB0BDE87087286907F03AFDEB68286925
:105F8000CDF82490CDE9073607A902230A93FCF740
:105F9000B7FCE0E70C70050810570508723D0508CE
:105FA00068550508823D0508000011100000221008
:105FB0008F3D0508993D050828C00020A33D050830
:105FC000D7C30020C0C3002064C3002024580508A4
:105FD00008B54068FFF7E4FE062008BD50F8310020
:105FE00010B1043818BF012070470000136833F067
:105FF00007032DE9704F0E68154611D1022802D013
:10600000244840F0A3FF48683CF004FFB0F5A16FBE
:1060100036D170680621BDE8704F38303DF0F0BDD4
:10602000012830D01C48ECE7AB6821461846FFF742
:10603000D5FF88B153F8340003EBC40A3CF0EAFE04
:10604000404510D048451BD1DAF80400D6F804B01A
:1060500041F0C0FCCBF8000001346B68A342E3D8E8
:106060000620BDE8708FDAF80400D6F804B041F0DD
:10607000B1FC011E18BF0121584603F09FFCEBE75D
:10608000064842F0E1F8002440F2065840F2E35995
:10609000E3E700BFAC3D0508C33D0508B93D050871
:1060A0002DE9704F2DED068BD6B09B460291D11E87
:1060B00048BF111DC9104D1C8146581EEB000393AB
:1060C0000C1A0BF109089FEDCA7AC54B9246A2EB58
:1060D000C5051AAE04EB080C002CA4BFE25C07EE69
:1060E000902A04F10104ACBFF8EE677AF0EE477A2B
:1060F0006445E6EC017AEFD11AAB03EB8B0409EBB4
:106100008B0301930DF5847EDFEDB97AA4464E46EC
:10611000F6EC016A019B3CED017AB342E6EE877A28
:10612000F6D101304045EEEC017A04F10404EBD1E4
:10613000AB48DFEDAC9A9FEDACAA43180926F0EE10
:10614000698AB0EE4A9A049356AB03EB860111EDCF
:10615000140A42AB06A903EB86008C46344660EE77
:10616000297A013CFDEEE77AF8EEE77AA7EECA0A53
:10617000BDEEC00AACEC010A30ED010A37EE800A30
:10618000EDD1284605910FF0D9FDB0EE408AB4EE6E
:10619000000A28EE000A0FF0DFF9F2EE007AA0EE16
:1061A000678A002D0599FDEEC87AB8EEE70A17EE6A
:1061B000908A38EE408A38DD06F1FF3C06ABC5F127
:1061C000080E53F82C4044FA0EF0804400FA0EF00A
:1061D000241AC5F1070043F82C400441002C32DD9D
:1061E000002008F10108864651F8043B002865D1DB
:1061F00023B1C3F5807341F8043C01200EF1010E78
:106200007645F1D1002D03DD012D5CD0022D64D047
:10621000022C18D1B7EE000A30EE488A98B1284611
:106220000FF08CFD38EE408A0DE005D1701E06ABF4
:1062300053F820402412D1E7F6EE007AB4EEE78A54
:10624000F1EE10FA38DAB5EE408AF1EE10FA73D1B9
:10625000711E00238C46BCF1080F46D1002B4ED195
:106260000EA9012451F80409002845D006EB0B00C3
:106270001AAB711C03EB80002644B1423FF764AFB8
:10628000049B5B5C07EE903AF8EE677A4C46E0ECD4
:10629000017ADFED577A8446F4EC016A019B3CED0C
:1062A000017AA342E6EE877AF6D142AB03EB810492
:1062B000C4ED007A0131E0E7022491E7C3F1FF0366
:1062C00041F8043C9AE706F1FF3C06AB53F82C106A
:1062D00001F07F0143F82C109AE706F1FF3C06AB72
:1062E00053F82C1001F03F01F4E706AA52F82C00F5
:1062F0000CF1FF3C0343AEE70134B3E7013906ABD1
:10630000083D53F82130002BF8D02846B7EE000A9C
:1063100001910FF013FD01990B46002B39DA0A4663
:106320000020002AC0F28B8042AB03EB82052F4E87
:10633000DFED2F7A002348E0039BB0EE480AA3EB81
:106340000A000FF0FBFCB4EEC90AF1EE10FA17DBFD
:1063500060EE287A06AAFDEEE77A711CF8EEE77A7D
:106360000835A7EEC90AFDEEE77ABDEEC00A10EEC9
:10637000103A42F8263017EE903A42F82130C4E73E
:10638000BDEEC00A06AA10EE103A314642F8263099
:10639000BBE706A842AA50F82300019007EE900A36
:1063A000F8EEE77A02EB830267EE807A013B20EE9B
:1063B000280AC2ED007AB0E7F6EC016AB5EC017A82
:1063C00001330A2BE6EE877A01D09842F4DA56AB15
:1063D00003EB800343ED287A013A0130A1E700BFC7
:1063E000F47405080000803B00008043E845050880
:1063F000000000002EAA02EB8302D2ED007A37EEF5
:10640000277A013B002BF5DAECB1F1EE477A029BDB
:10641000C3ED007ADDED2E7A77EEC77A2FAA01233D
:10642000994213DA0CB1F1EE677A029B08F007008B
:10643000C3ED017A56B0BDEC068BBDE8708F1FED41
:10644000147A0B46DEE7F0EE477AE0E7B2EC017A29
:10645000013377EE877AE3E700B589B0C37802931A
:10646000837801934378009310210378054A0DEB5C
:1064700001002BF06DFB014604A83DF07FFC09B044
:106480005DF804FB973B05082DE9704F0B685D68CC
:10649000136833F007038EB00E46934605F1040AE5
:1064A00000F1FF343FD1012C02D0914840F04EFD65
:1064B00048683CF0AFFC40F2BE4398422ED009D869
:1064C000B0F5846F1BD040F2794398420BD08948D5
:1064D00041F0BAFE40F2C2439842F8D1504611F062
:1064E000E9F9002805E06B6A002B00F0FE805B797B
:1064F000002B0CBF0E201E200EB0BDE8708F0AF1DD
:106500000400FFF7A9FF0A9005F10C00FFF7A4FFB4
:106510000AA90B9002203CF0DBF9EDE705F1100031
:10652000FFF79AFFE8E7002C00F08D807248BDE786
:10653000DBF8083021461846FFF750FD002800F030
:10654000818003EBC40253F8340000923CF062FCFB
:1065500040F27943984269D056D8A0F5846001286A
:10656000B5D8009B5868062800F0908000F007031B
:10657000022B07D0830740F09B8003685F4A934259
:1065800040F0968009A93CF09DFB2F2181464CF0FC
:106590009FFB099A01900F2A28BF0F2249460AA89B
:1065A00090464CF08FFA019B002B5ED0A3EB0909BB
:1065B000C845A8BFC84603F1010948464CF000FB96
:1065C000002301460A22484648F0C6FD41F002FA7F
:1065D000814670683CF01EFCB0F5846F07D1C9F1AC
:1065E00020094FF0FF3303FA09F31BBA06930EABF1
:1065F000984405A900230AA808F8103C10F028FECA
:10660000002834D13E4863E740F2BE4398427FF40D
:106610005EAF009B04A958683CF054FB03A910F03E
:1066200017FE0028EED0039B2B610BE0009B5868FF
:106630003FF074FDA8B1504611F03CF950B15046FE
:1066400011F046FF0134DBF804309C42FFF470AFD8
:10665000062051E7504611F0ABFD504611F010FEF8
:10666000F0E7504611F0A4FDECE7EB68BEE7706878
:106670003CF0D0FB40F22143984201D1214827E76A
:1066800070683CF0C7FBB0F5846FF7D170683CF0E0
:10669000C1FBB0F5846FD5D1009B5B68062B1BBF97
:1066A000059BAB600023069B08BFAB60EB60C9E7AE
:1066B00007AA022141F01AF9079B08A918683CF0C3
:1066C00001FB079B814608A958683CF0FBFA05A925
:1066D0008046484610F0BCFD002893D006A94046ED
:1066E00010F0B6FD0028D1D18CE70E2004E700BFE2
:1066F000AC3D0508CE3D0508C33D05089C5705087F
:10670000A1390508D23D05082DE970410B685D6887
:10671000012887B00E4605F1040418D1201DFFF7AB
:106720009BFE029005F10C00FFF796FE039005F129
:106730001000FFF791FE04902B48FFF78DFE02A991
:10674000059004203CF0C4F807B0BDE870814A68A9
:1067500042F2C2339A42204622D111F0ABF860B126
:10676000204611F0B5FE214D2E6842F210782046E9
:1067700011F0A0F840B10620E6E7204611F018FD20
:10678000204611F07DFDEEE72B689B1B434503D9A6
:106790001749184840F010FB64200AF0E1F8E6E7DA
:1067A00011F006FD204611F003FD01AA70680421D6
:1067B00041F09CF8019B211D1868FAF7B5FE019B7A
:1067C00005F10C015868FAF7AFFE019B05F11001C5
:1067D0009868FAF7A9FE019B02A9D868FAF7A4FE07
:1067E000014B029A1A60C6E76040002068E9002069
:1067F000D73D0508445505082DE97747DFF8748033
:10680000DFF86490DFF870A005460E464FF4807400
:1068100058F8042C62B946B1134B144A2146284655
:106820002BF096F9292C10D9293CC4F580700DE085
:1068300058F8083C1E4213D000924B46524621465F
:1068400028462BF085F9002803DA094803B0BDE893
:1068500070878442F9D958F8083C241A05445E40F0
:1068600008F10808D4E700BF883A0508F43D050898
:1068700080D6FFFFC4750508EE3D05082DE9734F6E
:10688000C0F30B0909EB0103B3F5805F83460E46A5
:1068900090464FEA103A07D923482BF074F96FF06D
:1068A000040002B0BDE8708F204C23681D6905F517
:1068B00080531868A0420AD018B101930BF066FE0D
:1068C000019B1C6041F204034FF0FF32EA5041F299
:1068D0000403EB589A450FD141F20403324645F8C0
:1068E00003A0414605EB09004CF0ECF8636843F067
:1068F000010363600020D4E701330BD12BF47F60E8
:106900002A464FF4805120F00F00FDF7E3FE0028E7
:10691000E2D0C6E76368DB07F0D504480BF095FDCD
:106920000028BED1EAE700BF1F3E0508FCC30020D7
:10693000FF292DE9734F804640F29A808B18B3F5FA
:10694000885F00F29580EFF311830093602383F357
