:020000040800F2
:10000000F8FF012031BA0508EFBE0508DDBE05087E
:10001000F1BE0508FDBE050809BF05080000000087
:1000200000000000000000000000000015BF0508EF
:1000300017BF05080000000039C1050859890208EA
:100040000100020805C0050811C0050819C005080F
:10005000314A02080100020899BF05089FBF050840
:10006000A5BF0508ABBF0508B1BF0508A1820208FE
:10007000918202088182020871820208618202086C
:1000800051820208418202080100020801000208B0
:10009000815E0208795E0208735E0208B7BF050838
:1000A0002DC0050833C0050845C005084BC005082C
:1000B00051C0050857C005085DC00508D1C0050836
:1000C000D7C005080100020801000208010002086B
:1000D00001000208ADC00508B3C00508B9C0050895
:1000E000DBBF05080BC005080100020889C0050830
:1000F0008FC00508A7C00508A1C005083182020805
:10010000010002080100020865C00508010002089C
:10011000BFC00508C5C005087DC0050883C0050827
:10012000218202081182020801820208F18102087C
:10013000E181020800000000000000000100020848
:100140006B5E0208635E02085D5E02080100020841
:10015000D1810208C1810208B1810208CBC0050823
:10016000DDC00508E3C0050801000208010002081F
:1001700025BF050819BF05080000000000000000A9
:08018000010002080100020861
:020000040802F0
:10000000FEE70000094B1A68D36823F0A003D36011
:10001000074B1868D168890601D500207047196818
:10002000091AB1F57A7FF5D9032070473400002012
:10003000E42900200A4B1A68D368580601D500202D
:1000400070474FF0FF33D360064B1868D1684906FC
:10005000F5D41968091AB1F57A7FF7D903207047EA
:1000600034000020E42900202DE9774105688DF84F
:1000700007102C68D5E9010C1646E4B9D0E9033223
:100080001B049361EB686046D3F804800DF107020E
:1000900023460121C047EB68A868D3F804803246A4
:1000A00033460121C0476B68D3E903322046936190
:1000B00003B0BDE870811346DCF80C409DF80710D2
:1000C0000122A047F4E700004269012303FA02F18C
:1000D0003D4B30B5D3F8004244F00104C3F8004270
:1000E000D3F8004224F47C54C3F80042D3F8004211
:1000F000456A44EA0524C3F80042D3F81C5225EAB5
:100100000105C3F81C52C569CC43002D35D1D3F885
:100110000C522540C3F80C52D200C568838802F106
:10012000804202F5C84243EA0543C2F8403285687E
:10013000038843EA0543C2F844328369224AABBBD1
:10014000D2F804322340C2F80432036993BBD2F8D8
:1001500014321C40C2F81442036A1B4A012B02BF2E
:10016000D2F81C320B43C2F81C32D2F8003223F012
:100170000103C2F80032002030BD012DDDD1D3F8DB
:100180000C520D43C3F80C520368858845EA0345B9
:10019000D30003F1804303F5C8438289C3F840527A
:1001A000856842EA0542C3F84422C6E7D2F8043221
:1001B0000B43C8E7012B01BF034AD2F814320B43AB
:1001C000C2F81432C8E700BF0064004000B5002345
:1001D0008BB0CDE904306846CDE90033CDE9023378
:1001E000CDE90633CDE90831FFF76EFF0BB05DF8BE
:1001F00004FB0000054B016810B51C680A689207F3
:1002000003D41A68121B0A2AF8D910BDE429002069
:1002100082B000230193064B5A6C42F480725A64F8
:100220005B6C03F480730193019B02B0704700BFC5
:100230000038024073B50023A1F11005019390F836
:100240003C30022D8CBF01240724012B2FD0012329
:10025000092980F83C308EB203682AD906EB4602A1
:10026000D3F80CC01E3A4FF0070E0EFA02FE2CEA2D
:100270000E0CC3F80CC0D3F80CC004FA02F242EA28
:100280000C02DA605A6B22F01F025A635A6B324337
:100290005A631C4A934207D112291CD1D2F8043365
:1002A00043F48003C2F80433002380F83C3002B0EA
:1002B00070BD1A6901EB410E4FF0070C0CFA0EFCF1
:1002C00022EA0C021A61D3F810C004FA0EF242EAD4
:1002D0000C021A61D6E7012DE6D80B4A53681029A3
:1002E00043F400035360DFD1084B094A1B68B3FB9A
:1002F000F2F20A2353430193019B002BD4D0019BBC
:10030000013BF8E7002001400023014000000020ED
:1003100040420F0010F4FF7F02BF024B0422C3F8DB
:10032000002E704700E100E04068162809D8064A10
:1003300001231169834021EA0301116111690B4313
:1003400013610620704700BF003C01404368162B34
:100350000AD8064AD25C02F1047202F59E3203EB1F
:10036000C2039B0001221A60062070473F04002050
:100370004068400040F00100704730BF06207047E1
:10038000032910B504461AD112F0010006D06368A3
:1003900003F5A753186A013018BF012053070DD584
:1003A000626841F2EC43D118D3581B6893F8FC31D2
:1003B000032B03D1CB790BB940F0040010BD1622FA
:1003C0001A604FF0FF30F9E7014B186829F0D0BDF3
:1003D00060040020436893F89A38022B0CBF1E205B
:1003E0000E2070470148FFF7F5BF00BF84060608DE
:1003F000032910B5044615D112F0010008D0A369F5
:10040000D968890704D1186910F0030018BF0120CA
:10041000530706D5A3699B6813F0E05F01D040F055
:10042000040010BD16221A604FF0FF30F9E7437B3D
:1004300013F001030ED083699A6951070CD49A69AD
:1004400092070BD4986900F001000130400040F0A1
:10045000010070471846F9E70420F7E70320F5E7A5
:100460000D4B03EB8000D0F89C31A3B19A690421B5
:1004700051609269500703D59A8A01329A82704777
:10048000910703D55A8A01325A827047D20742BF78
:100490001A8A01321A8270479800002009B9C08B6D
:1004A000704701290CBF808B0020704730B50A4C83
:1004B000EFF3108372B690F85150012D03D183F3FE
:1004C0001088002030BD30BF83F3108823685B1A8A
:1004D0009342EDD30320F5E7E42900202DE978418C
:1004E000194C4FF0030804F5EA76A4F1080554F816
:1004F000043F1A071AD1D5F89422981AC0F30111B3
:1005000093424FEA901C4FEA41014FEA10100DD37D
:10051000D5F89822934209D2D5F8882212F80CE037
:100520004EFA01F303F00303012B03D0A642DED100
:10053000BDE8788108FA01F141EA0E0102F80C10D9
:1005400038F090FAF2E700BFA0000020054B994276
:1005500002D1054937F0C4BDD1E90123034937F081
:10056000BFBD00BF5C01060888C8050890C8050823
:100570004A68014937F0B4BDA8C8050838B5114D1F
:10058000114C2A681149204637F0AAFD6A681049C3
:10059000204637F0A5FDAA680E49204637F0A0FD99
:1005A000EA680D49204637F09BFD2A690B49204631
:1005B00037F096FD6A690A49204637F091FD06201A
:1005C00038BD00BF003C014060E40508B9C805081B
:1005D000CAC80508DBC80508ECC80508FDC8050839
:1005E0000EC905084B6813B55A68DB6913F4004F50
:1005F0000CBF0C4C49F6404402F03F026243C3F387
:100600000B038C68B2FBF3F30193CB68064A5B687B
:1006100000938A1A121163680449013237F060FDB1
:1006200002B010BD20A107001CD605081FC905088F
:100630004B68024993F8992837F052BD40C9050824
:100640004B7BDB0737B50A7B044605D4154903B05D
:10065000BDE8304037F044BD086AB0F1804F1AD091
:10066000B0F1004F1AD040F27B3340F293250028BE
:1006700008BF2B468969096840F22E2011F0400F0F
:1006800040F2CE3108BF014600912046064937F0BE
:1006900027FD03B030BD40F28623EBE740F27A330A
:1006A000E8E700BF4CC9050854C905082DE9734F98
:1006B000364C237F012B81464FF0020520D0226863
:1006C0006577012323779368067890F801B013F0DB
:1006D000400308BFC370CA21837890F80380516239
:1006E000532151620193FFF7A5FC019B054658B1C8
:1006F0002368FF225A6204236377002323770125AE
:10070000284602B0BDE8708F18460EF0E4FE40EABD
:10071000084830460EF0DFFE48EA004858460EF022
:10072000DAFE48EA0023D4F800A003F07F3323F078
:10073000FE43CAF80030DAF8083023F48023CAF800
:100740000830D9E90331DAF808200B431343CAF81B
:100750000830DAF80C3023F08003CAF80C30DAF8ED
:1007600008309B0609D4FFF74DFC30B12368FF2207
:100770005A62042363772577C1E72368FF225A6210
:100780000123637700232377BAE700BF34000020FA
:100790002DE9704F2E4C237F012B4FF0020521D005
:1007A000012365772377437890F803A090F80280BF
:1007B0000678DA0642BF23F010030A334370236839
:1007C00090F80190CA225A6253225A62FFF732FC13
:1007D000054650B12368FF225A6204236377002341
:1007E000237701252846BDE8708F40460EF073FE42
:1007F00040EA463850460EF06EFE48EA0048484649
:100800000EF069FE48EA0020D4F800B020F07F40E6
:1008100020F0C000CBF80400DBF80C3023F080039C
:10082000CBF80C30DBF808309B0609D4FFF7EAFB65
:1008300030B12368FF225A62042363772577D0E71B
:100840002368FF225A620123637700232377C9E7D5
:100850003400002008B50346407B10F0010001D1B0
:100860002CF08CFD9B691A6842F001021A605A68EC
:10087000D107FCD51A6822F001021A605A68D20723
:10088000FCD4062008BD000008B52DF0FBF8044B91
:100890001B68181A034B03EA400040F0010008BD32
:1008A000E4290020FEFFFF7F08B508462DF0EAF896
:1008B000014B1860062008BD0C00002010B504464E
:1008C00008462DF0DFF8A36930B9DB6813F0030F99
:1008D0000CBF0E201E2010BD1B69F7E708B50846A7
:1008E000114600222BF08CFE004808BD04020608C9
:1008F00008B50846114600222BF082FE004808BDCC
:100900002C05060838B50C462046114602221D4625
:100910002BF076FE34B128682DF0B4F810B1002029
:100920002CF02CFD004838BD840606082DE97847D8
:100930008846404611462F4A1E462BF061FE2E493E
:100940004C202BF053FB044630682DF09BF8B8F197
:10095000010F05460CD970682DF094F88046AB1F46
:10096000062B3BD8DFE803F03F3A073A423A38001B
:100970004FF0FF38F3E74FF00076DFF88CA000254A
:100980004FF0010909FA05F313EA080F07D05AF8E6
:10099000250020B100231A46032108F0B7F80135DD
:1009A000102DEFD1154B6360FFF732FC01220023BD
:1009B0002262A26102F17062C4E90933C4E90B2327
:1009C000C4E90433E660E361A3606363201D0FF0B4
:1009D00007FC2046BDE878870026CEE7084909488D
:1009E0002A462BF08DFD4FF04076C6E74FF080761B
:1009F000C3E700BF040002006CFF050800200140AF
:100A000075C9050824E50508DCFB050870B50D4629
:100A10000446FFF70FFC0FF083FB2046FFF7EAFBCD
:100A20002368DE6C0FF060FB122D01BF034A536890
:100A300023F480035360304670BD00BF00230140A3
:100A400010B5044608462DF01DF81028024605D0C2
:100A5000122803D9054906482BF052FD201D1146E6
:100A6000FFF7D4FFBDE8104029F082BA84C9050819
:100A700024E5050810B50446FFF7C8FF23685B6846
:100A800003F04073B3F1007F0BD0B3F1407F0AD085
:100A9000B3F1807F14BF0C230A23C3F10C039840E9
:100AA00010BD0823F9E70623F7E7000008B5122177
:100AB0000430FFF7DFFF094B9FED097A93ED000A41
:100AC000430007EE903AF8EE677ABDE8084067EE1B
:100AD000877A27EE800A2AF0B1BF00BF0400002009
:100AE0006740533A08B510210430FFF7C3FF124B9B
:100AF0009FED126A1A88124B07EE100AD3ED007AA6
:100B0000104BF8EEC76A07EE102A1B88B8EEC77ABA
:100B10009B1A96EEA77A07EE903AF8EEE77ABDE8D0
:100B20000840C7EE866AF3EE0E7A87EE260A30EEAC
:100B3000270A2AF083BF00BF2C7AFF1F0000A042C3
:100B4000040000202E7AFF1F08B51121FFF792FF45
:100B50000A4B1B8807EE900A00EE103AF8EE677A0F
:100B6000F8EE406A064B86EEA77AB8EEC00ADFEDD3
:100B7000057A83ED007A20EE270A08BD2A7AFF1F46
:100B8000040000206740533A08B50430FFF7DCFF4B
:100B9000054BDFED067A93ED000ABDE8084020EE34
:100BA000270A2AF04BBF00BF040000203333534014
:100BB00008B50430FFF7C8FFBDE808402AF03EBF83
:100BC00008B581680C30FFF721FFBDE8084029F027
:100BD000CFB900002DE9F04F8DB000AF0D4614469F
:100BE00007F1140107F10C022BF0D2FC07F1080207
:100BF00007F1100128462BF0CBFC7B6913B9534851
:100C00002CF0BCFB3A69934201D05148F8E7BB682D
:100C10000622186807F118012CF0A0FA97F82010A6
:100C2000002240201FF024FF3B699B00073323F084
:100C30000703ADEB030D0646EA4600253B699D42DE
:100C400007D320462AF056FD424B834218D0424833
:100C5000D6E7BB68062253F8250007F124012CF0E3
:100C60007DFAFA69BB6A9A4203D13A6AFB6A9A42F0
:100C700001D03A48C4E77B6A4AF825300135DDE700
:100C8000FB681D6805F10C08A9684046FFF7D2FA19
:100C90000FF046FA4046FFF7ADFAEB68DB6CE3680D
:100CA0006FF001021A611A69D007FCD56FF00101DB
:100CB00019614FF00008FB693960B3FBF6F34FF0A0
:100CC000010B7B607B6898450DD1FB6818680C3080
:100CD0000FF00AFABBF1000F14BF1E200E203437AC
:100CE000BD46BDE8F08FE3681969C9070CD41969DE
:100CF000CA07FCD53A681A6100257B69F968AB42DE
:100D000005D808F10108DDE74FF0000BF2E751F8D4
:100D1000259009F10C00D9F80810FFF78BFAD9F8E3
:100D20000C30996841F080419960FFF763FAD9F877
:100D30000C305AF82510DB6C97F82000012E08BF04
:100D40001B09424621F034FF0135D6E797C9050853
:100D5000A3C90508C0040608C8C90508B6C905081E
:100D600038B5124D30B9D5F89441002C08BF06248F
:100D7000204638BD0C68062C08D1D5F89421002AED
:100D8000F6D000239372C5F89431F1E720462AF09B
:100D9000B1FC074B834205D10123C5F89441A372EE
:100DA0000624E5E703482CF0E9FA00BF980000208C
:100DB000E4E20508D2C9050870B51C46084611468C
:100DC0004FF002122BF01CFC2668F10705D4B20785
:100DD00030D13268274B9A422CD130462CF052FE4B
:100DE0001028054634D1542039F05AFD002104461C
:100DF000442210303AF0B2FE1F4BA560C4E9003621
:100E00001E4BE360FFF704FA01220023A262226274
:100E100002F17062C4E90B33C4E90D23C4E906335F
:100E2000636163622361E36304F10C000FF0D8F99E
:100E3000204670BD304607F07BFA837A9B0704D4C6
:100E400042680F490F482BF05BFB8568C5F30435FA
:100E5000122D02D90C492A46F4E70F2DC3D80B4BAB
:100E600053F825000028BED000231A46032107F0BE
:100E70004DFEB8E7CCE6050888FF050800200140D4
:100E8000DBC9050824E5050884C90508DCFB05085D
:100E900038B50D460446074936F0E3FE696820463A
:100EA00000222BF0ABFEAA6803492046BDE838407B
:100EB00037F016B9E2C90508D09006081FB50846F4
:100EC00011461A4602AB01931A4B009302232DF0F0
:100ED000DFF9DDE902321340013329D01649102031
:100EE0002BF084F8029B0022591C02730AD0934213
:100EF00005DBB3F5800F02DAC3F30B021AB1002051
:100F00002CF03CFA1346039A511C06D1C3F580021B
:100F1000C0E9013205B05DF804FB002AEFDD991845
:100F2000B1F5800FEBDCC2F30B010029F0D0E6E74E
:100F30000248EFE700D20508780106085C010608C0
:100F400013B5194B0124E0B100221A60002301936C
:100F5000164B1A6C42F080521A641B6C03F08053DB
:100F60000193019B0EF04AFD114B124918680A6863
:100F7000D20509D50D4B1A6F7CB142F001021A67F8
:100F800006E01C600446E1E71A68121A022AEED94C
:100F9000094B01221A7002B010BD22F001021A673B
:100FA0001A6F22F00402EAE7800E4742003802403E
:100FB000E4290020007000406404002010B52CF0EB
:100FC00061FD044607F058FC034B001B03EA400098
:100FD00040F0010010BD00BFFEFFFF7F08B52AF002
:100FE000E5FE024B1860062008BD00BF342D00202E
:100FF000436818680EF05CBA08B5436818680EF0CC
:1010000057FA062008BD00001FB503AB0193094B3A
:1010100051F8044B0093013801232DF0DBF8039BBA
:101020005A1C18BF62684FF0060018BF82F89C383F
:1010300004B010BD40D205082DE9704797B006AB4B
:1010400051F8046B0193994B0093013806232DF05E
:10105000C1F8099802AA05A92BF09AFA0A9818B1C2
:1010600003AA04A92BF094FA079B012B00F222811A
:10107000059A042A40F07481002213929DF82C20D6
:101080000A9C002A00F0B180002C00F0A880039A8E
:10109000106893B92CF0F6FC039B0028586814BF25
:1010A0004FF002084FF000082CF0ECFC022400285E
:1010B00040F099808146A24623E02CF0E3FC039B9C
:1010C0000028586814BF4FF002084FF000082CF0B9
:1010D000D9FC039B0028986814BF4FF0020A4FF018
:1010E000000A2CF0CFFC039B0028D86814BF4FF0F7
:1010F00002094FF000092CF0C5FC002814BF02249F
:101100000024029B18682CF0BDFC029B0546186861
:101110002CF0B8FC6D13C0F3C23005F4C065029B1F
:10112000054345EA0805586845F008050D952CF07B
:10113000A9FC029B804658682CF0A4FC4FEA683852
:10114000C0F3C23308F4C06848EA030343EA0A0361
:1011500043F008030F93029B98682CF093FC029BCA
:10116000054698682CF08EFC6D13C0F3C23005F470
:10117000C065029B054345EA0905D86845F00805A6
:101180000C952CF07FFC029B0546D8682CF07AFC6D
:101190006D1305F4C065C0F3C23005432C4344F021
:1011A00008040E94079B002B7BD100231293327B03
:1011B000089B1093012A069B3D49119340F0C8807B
:1011C0000A78934280F0CC80012314930CA80B780A
:1011D0001593FEF779FF062017B0BDE87087A1468A
:1011E000A246A0468DE7A14665E7002C53D0039A9E
:1011F00010688BB92CF046FC039B0028586814BF7C
:101200004FF010094FF000092CF03CFC102400288E
:1012100045D10546A04621E02CF034FC039B002874
:10122000586814BF4FF010094FF000092CF02AFC49
:10123000039B0028986814BF4FF010084FF0000877
:101240002CF020FC039B0028D86814BF1025002533
:101250002CF018FC002814BF10240024029B1868EE
:101260002CF010FC029B49EA40100D9058682CF0BD
:1012700009FC029B48EA40100F9098682CF002FC91
:10128000029B45EA40100C90D8682CF0FBFB44EA26
:1012900040100E9086E72546A046A146DEE725468B
:1012A000B8E7012B83D1012380E700BFD0D1050827
:1012B000080000209A1E012A52D8059C022C4FD10A
:1012C000012213920A9A002A3FD0039A022B106837
:1012D0002DD12CF0D7FB002814BF02250025029B3E
:1012E00018682CF0CFFB029BC0F34F300C901868AD
:1012F0002CF0C8FBC200029B92B22A4342F00402C7
:1013000058680D922CF0BEFB029BC0F34F300E903C
:1013100058682CF0B7FBC3009BB2234343F004038F
:101320000F93079B022B3FF440AF032BBAE72CF03F
:10133000A9FB039B0028586814BF022500252CF048
:10134000A1FB002808BF0024C9E714461546C6E7DC
:10135000022A08D10A78134411931B2B7FF634AF6D
:1013600002482CF00BF80D2BF8E700BFEBC905087D
:101370002DE9704187B00646D1E900800D46039201
:101380002CF080FB05AB01930C4B039A00930446B1
:1013900005F10801B01E01232CF01CFF98F80C3059
:1013A000022B074B08BF1A78197808BFA4182046EB
:1013B000FEF70CFF062007B0BDE87081C8D1050814
:1013C000080000202DE9704F16468AB01D460C46D5
:1013D00011B11B68013311D14F49504836F041FC1F
:1013E0000CB1013C043521464D482B4632461EF0D7
:1013F00049FA044620460AB0BDE8708F05AB019358
:10140000484B0093204605232A4631462CF040FFE6
:101410000598454C06F024FE069B013804EB0014A9
:1014200023B9DDF81C80B8F1000F02D03F482BF043
:10143000A5FF6568099BA068DDF820A0D4F80CB072
:1014400005F14046A6F5A846B60A4FF47A7203F2B3
:10145000E73306F10109B3FBF2F39BB203935FFAA2
:1014600089F90123CDF800901A46062107F091FB77
:101470000028BFD00123CDF800901A460621584617
:1014800007F087FB0028B5D0294B039A23F81620D4
:10149000284B4FF40012196A02FA06F6314319621A
:1014A0001A6A22EA06021A621A6C16431E641B6C40
:1014B0000493049B0EF032F81F4B2049C5F80080BE
:1014C000534528BF53468A451D4AB0FBF2F200F14E
:1014D000FF306A60C5F80880C5F80C800AD85B0048
:1014E000B0FBF3F30133042B38BF0423EB6101326B
:1014F0002A627FE719214B43B0FBF3F3591C1ABF53
:10150000013343F440434CF20103EB6102EB42022E
:101510000A23B2FBF3F2EAE702CA050860E4050811
:101520005CE3050848D105081CD6050841CA050832
:101530009000002000380240801A0600A0860100BA
:1015400040420F002DE97F4F0C9E01901D46002365
:10155000904689461A4643452AD1019B5C68236818
:10156000D80706F0010A06F0020EC6F3400C13D4A9
:10157000A369D90710D57B4B04F14040A0F5A840E2
:10158000196A800A4FF4001B0BFA00F0014319623C
:10159000196A21EA00001862BAF1000F0DD0BEF1FD
:1015A000000F0AD16FF01501084604B0BDE8708F36
:1015B00055F8331001330A44CDE7C4F808C0236856
:1015C000029243F001032360236843F480730121F6
:1015D0002360204606F0A0FD029A0146002836D17D
:1015E0004AEA49012161204640F2024106F094FD99
:1015F000029A014658BB63695B0509D5236843F429
:1016000000732360204606F063FD6FF01201CBE704
:10161000BAF1000F05D0012A23680ED823F48063A5
:101620002360A36906F0010308354FF0000B029315
:10163000B8F101080ED25946B6E7022A04D143F4A4
:10164000006323602368E9E743F48063E8E7002947
:10165000E8DAA9E7019B55F8086C5C68029B55F82D
:10166000049CA2EB060A002B43D0002E9AD0BAF1BC
:10167000010F97D0012A16D1236843F4007340214B
:101680002360204606F048FD014648B9236989F8E1
:101690000030BAF1000F63D1204606F019FD014673
:1016A000002948DA80E7B21A023204212046039268
:1016B00006F032FD01460028F2D1039AB2420AD167
:1016C000236843F400732360236989F80030236999
:1016D00089F80130DDE70AEB0601032902BF216822
:1016E00021F480612160216909F8011B013EDCD1F0
:1016F000CFE74FF49061204606F00EFD014600282A
:10170000CED1029A964201D1314611E019F8021069
:101710002161204640F20441039206F0FDFC01469F
:101720000028BDD16169039A11F4806F07D011467A
:10173000BAF1000F05D08B440835524678E70132E4
:10174000E0E7A368002BF6D02368039143F400730D
:101750002360204606F0BCFC03990028EBD09EE7EE
:101760000021E8E70038024070B50D4686B0064615
:10177000012203A928462BF0F1FC0446A8B96A46C9
:1017800004A928462AF004FF049B082B28D91648F0
:101790002BF0F4FD009B53F824002CF073F928552E
:1017A0000134049BA342F5D80395726841F2EC43DF
:1017B000D118D358186890F8FC31032B12D1CB798B
:1017C00083B90123CB71039ABDF810304979D0F861
:1017D000200208F027F8049828F0CAFB06B070BD74
:1017E00001ADDEE70120F9E75DCA050801460148C1
:1017F000FFF7BABF2C0506082DE9704F8AB004AB7D
:1018000051F8044B01932C4B0093013802232CF028
:10181000E1FC049806A906F04BFDD4F80480274BA0
:10182000059AD3F800B0DDE9074908F5A755064643
:101830009A460C356B69013325D06B699C4228BFF1
:101840006C6905F1180A2246514648463AF040F9BB
:101850004FF0FF336B6141F2EC4358F803301868E6
:10186000037C43B1EA68917F537F524643EA0123E8
:10187000A97907F099FD24EAE470C6B128F078FB55
:101880000AB0BDE8708FDAF800300392A3EB0B03C7
:101890009A4209D9EFF31083012B05D001202DF0D6
:1018A00089FE30BF039AC5E76FF06D04E3E7079048
:1018B00006A826F07FFBE3E760D20508E4290020B4
:1018C000032938B50546144618D112F0010006D098
:1018D000686807F0F5FD0028D4BF002001206307E9
:1018E0000BD56A68B2F89418B2F892385B1A9BB2BA
:1018F000B3F5007F01D840F0040038BD04291DBFB6
:1019000016221A604FF0FF300020F6E708B5406855
:1019100007F0D6FD0028CCBF1E200E2008BD000019
:1019200038B5044640680A4B90F8992803EB8203C7
:101930000021D3F82C51074B062D995406D007F0FF
:10194000BFFD18B1214628462DF02AFE062038BDDD
:10195000980000205C0400202DE9704F44681E466A
:1019600094F89C389B07884615460AD4DFF8B09057
:1019700001EB020AD0450FD1204607F0BEFF2846F2
:1019800003E00023204607F0CBFF18B90B23336098
:101990004FF0FF30BDE8708F94F89A38F3B9B4F87F
:1019A000922818F8011BC2F309032344013283F87B
:1019B0009114B4F8943892B2A4F89228D21A92B240
:1019C000B2F5806FD6D9B4F8943801339BB2A4F83D
:1019D0009438B4F89438A4F89638CBE7D9F800B026
:1019E000B4F89428B4F892389B1A9BB2B3F5806F80
:1019F000D5D1D9F80030A3EB0B03B3F5FA7FCED8DD
:101A0000204607F07AFF23681B6893F8FC31042B0B
:101A1000C5D0EFF31083012BC1D030BFE0E700BF8A
:101A2000E429002010B540681C46002307F010FD93
:101A300018B90B2323604FF0FF3010BD30B589B0CB
:101A400002AB51F8045B01930D4B00930138022364
:101A50002CF0C0FB04A9029806F02AFCDDE9052160
:101A60000446039B686807F0F3FC1CB128F080FA79
:101A700009B030BD059004A826F09CFAF8E700BF35
:101A80009806060870B586B003AB0193184B009317
:101A9000044651F8046B0323013815462CF09AFBD9
:101AA000012C03D82B6833F007031DD0039C062CB0
:101AB00006D020462AF06AFA10B90E482BF05EFCD8
:101AC000049B1BB1012B02D00B48F7E706249DF8BD
:101AD00014300BB10948F1E7736893F89928084B63
:101AE00003EB8203C3F82C41062006B070BD00BF93
:101AF00048D2050889CA05089ACA0508A4CA050873
:101B00009800002010B588B003AB51F8044B019346
:101B10000A4B0093013802232CF05CFB039802AAC5
:101B200005A906F0E9FBDDE90512049B606807F0F2
:101B3000F7FE28F01DFA08B010BD00BF9806060891
:101B400008B500F00703022B05D083070AD102680D
:101B50000B4B9A4206D126F02BF90A4902460A4855
:101B60002AF0CEFC2BF08EFF411E0529024604D838
:101B70000C234B430549CB580BB90549EFE708BD8A
:101B800088E70508ABCA050824E505080407060828
:101B9000B6CA05082DE9704791B004AB51F8045B53
:101BA0000193744B0093013803232CF013FB049C26
:101BB00024B1012C3FD000202BF07AFAAE69DDF879
:101BC00018900C366C4BD3F800A0984633689B07EE
:101BD00036D0AB6903EB04122101D2F8B00100F05A
:101BE00004000990002838D1D2F8B001400D0790C8
:101BF000D2F8B00100F002000A90D2F8B401D2F895
:101C0000B421C2F307220E925A1800F00F00D2F846
:101C1000B811D2F8BC210B900C910D92326842F0B1
:101C2000200232600B9AECB1A96806291DD0E87B2E
:101C300005F10F0149E0AE69DDF818901036C1E7F3
:101C400001202DF0B7FC30BFD8F80030A3EB0A0319
:101C50004B45BBD36E202BF08BF9D2F8B001C008F6
:101C60000890C5E7696806292CD1059C062C5AD135
:101C700000210520039221F0C7FF039A044600F1DA
:101C8000080511460CA826F03FFEA061099A002A1B
:101C90006ED1079B5B0043F00103042A2B600CBF4D
:101CA0001E230E236B600A9B022B0CBF1E230E23E8
:101CB000AB600E9B5B0043F001032046EB6011B06C
:101CC000BDE87087A87B05F10E01022818D0032813
:101CD0001FD00128C9D18CB9D86810F0030F0CBFF0
:101CE000012000200028C0D05869002C0CBF02241D
:101CF00010242043586100230B70B6E71869ECE705
:101D00005869002C0CBF042420242043586101236F
:101D1000F2E75869002C0CBF0824402440EA040074
:101D200058615869EEE7A0077FF445AF2168134B6F
:101D300099427FF440AFA368042B02D800202BF017
:101D40001DFBE5682B6999077FF435AF18680C49CE
:101D500088427FF430AF1979812903D041F0200106
:101D6000E229EBD1D8689A600CA939F0B1FE8DE771
:101D7000089B8FE7B0D10508E4290020F4E60508A8
:101D800024E705082DE9704392B006AB51F8044BE7
:101D90000193694B0093013805232CF01BFA02AA2A
:101DA000069803A906F0A8FA049A082A02D96348FB
:101DB0002BF0E4FA9DF82810079B0F9219B323F03B
:101DC00060430C9304230D939DF82430002B0CBF2B
:101DD000002302230E93039B10A91A44934217D1A8
:101DE0000BABA364A369DDF820C09A6850017CD4D2
:101DF0009A68110100F193809A68D20000F19580F1
:101E0000022007F063F8C3F30A030B930D91DBE79D
:101E100013F8010B01F8010BE0E70B98D2F8808171
:101E20004EEA405040EA0800C2F88001D2F884E14E
:101E30000F982EF00F0EC2F884E1D2F884E100F082
:101E40000F001E440F9040EA0E00C2F88401109863
:101E5000C6F888011198C6F88C01D2F8800140F0CC
:101E60000100C2F88001BCF1000F0FD03448DFF848
:101E7000D4E00668DFF8D080DFF8D0909A6861BBC4
:101E800039EA020214BF012200221AB9062012B058
:101E9000BDE87083BCF1FF3FF0D00268921B94450F
:101EA000ECD299B980229A60E4B2012202FA04F4D9
:101EB0009A6834EA0202FBD19A68EDB2012303FA70
:101EC00005F535EA0203E1D003209AE701290CBFAA
:101ED0004FF400424FF40002E5E7012902D138EA4D
:101EE0000202CFE73EEA0202CCE740F201554FF48E
:101EF000A064002103EB01120E01D2F8800100F072
:101F00000100C2F88001DDE90D0E002885D040EA0D
:101F10000E0E0C98D2F880814EEAC00082E740F2A3
:101F200009554FF4A1640121E4E740F211554FF443
:101F3000A2640221DEE700BF88D10508C1CA0508F6
:101F4000E42900200000031000030008030000043F
:101F5000012838B50C6843D1082027F0CFFA034692
:101F6000A069DD688269D10B01F4FF7141F00101C4
:101F70002960120ED968520042F001024A60228A9A
:101F8000D968520042F001028A60628AD968520020
:101F900042F00102CA60A28AD968520042F00102EE
:101FA0000A618268D968120E02F01C04144A2241A8
:101FB000520002F01E0242F001024A61C268D96872
:101FC000520002F0060242F001028A610269D968F9
:101FD000520002F0060242F00102CA61184638BD02
:101FE0004B6813F0030003D11968064A914202D0EE
:101FF00000202BF05DF89A68072AB1D82BF0BEF9C3
:1020000023121201F4E605080368054A934201D140
:102010000DF084BA034A9342FAD00DF067BA00BFBC
:1020200000380040003C00402DE970410D68304B05
:1020300090462A689A4285B0044651D003F58063E1
:102040009A4214BF012203222A49204636F048F85A
:1020500095F85130002B3CD06B68B3F5827F41D1AD
:10206000EE692846FFF7D0FFF608013620FA06F29F
:10207000B8F1000F05D020490392204636F030F821
:10208000039A1E49204636F02BF8B8F1000F05D010
:1020900001221B49B240204636F022F8E968D5E912
:1020A000042300290CBF08211021003B18BF012385
:1020B000003A009118BF01221249204636F010F86C
:1020C000AB6AB3F5005F04D1EA6A0F49204636F0E7
:1020D00007F80E49204605B0BDE8704135F0C1BD96
:1020E0000222B1E70A49204635F0FAFFD6E700BFE1
:1020F00000380040CECA0508D5CA0508E6CA05085A
:10210000F4CA050814CB050835CB0508CD0F060821
:1021100003CB050849680022FFF786BF4968012202
:10212000FFF782BF2DE9704F0568DDF82880481C55
:10213000DDE9086992469B460AD1B2F1FF3F0BD018
:102140002846FFF761FF0AF1FF342044B0FBFAF1A3
:10215000022921D80023EB61BBF1FF3F05D0BBF181
:10216000000F0CBF002302232B61721C03D0003E22
:1021700018BF01266E61B9F1FF3F06D0B9F1100F0B
:102180000CBF4FF400630023EB60B8F1FF3F18BFB2
:10219000C5F82080BDE8708F042901D80823DAE74C
:1021A000082901D81023D6E7102901D81823D2E72F
:1021B000202901D82023CEE7402901D82823CAE7C7
:1021C000802994BF30233823C5E7000000B58BB0C9
:1021D0000446084611461A4605AB01930A4B009384
:1021E00005232BF0F7FF099B0293089B0193079BA4
:1021F000606800934FF0FF31DDE90523FFF792FFA0
:1022000016202AF0B5FE00BF00D1050870B51646AD
:102210008EB01D460C4611B11B6801330ED1224908
:10222000224835F01EFD0CB1013C04352B463246E8
:1022300021461F481DF06AFA0EB070BD05AB019330
:102240001C4B00932A460923314620462CF020F8E7
:102250000598FFF775FC0B9B01381BB90C9B0BB95C
:102260000D9A12B114482BF089F8144B03EBC000FF
:102270004FF4827140680368C3E901124FF40071A2
:10228000C3E909229961DA620A9B0293099B0193CF
:10229000089B00934FF0FF31DDE90623FFF742FF73
:1022A00016202AF065FE00BF40CB050860E4050853
:1022B0008CE30508B8D005087FCB050868D605086B
:1022C00000B591B00446084611461A4605AB019385
:1022D000174B00930B232BF07DFF2068059B0468B0
:1022E00063600D9B02930B9B0193099B0093DDE9B7
:1022F0000621089BFFF716FF0A9BA3600C9BA361B6
:102300009DF838300F98002B14BF102300230628A7
:10231000636205D10023C4E90A3316202AF028FE9F
:102320004FF40053A3622BF0ADFBE062F5E700BF72
:1023300060D0050808B513460A46411E52F8044B02
:10234000201DFFF7BDFF00007FB51E460D46144659
:1023500021460F4A28462AF053F93068FFF7F0FB70
:102360000C4B0138012D03EBC00000D86CB106EB1B
:1023700085030294E40044F007040393321D01AB8B
:10238000691E04300194FFF79BFF04B070BD00BFCD
:10239000FFFF0300CC0206082DE9704F2DED028BE4
:1023A000B2B00468DDF8F0A006468B469046994628
:1023B000002B40F02A81012904D0EFF31083012B78
:1023C00040F0A68094F85030012B00F09882012351
:1023D00084F850309C4B1E6894F85130012BDDB2CC
:1023E00040F0B481B8F1000F47D01FFA8BF3002BF7
:1023F00043D0032284F8512000226265C4E91022F0
:10240000E386A263E287A287A268A3862368C4F852
:102410003080B2F5004F02BF1A6842F480421A6061
:102420001A68510658BF1A68E1685CBF42F0400262
:102430001A60B1F5006F62683CD11AB1E28E92B2B7
:10244000012A06D138F8022BDA60E28E013A92B204
:10245000E286E28E92B2E2B9009653460122022150
:10246000204609F095F9D0B932465146204609F088
:10247000D1F900283ED020236365012384F8513030
:10248000002384F85030002D00F03B82284606F0EF
:102490001DFD9A689207D5D4BAF1000F01D103252A
:1024A000EBE7BAF1FF3FD4D0674A1268921B92451E
:1024B000CFD8F4E71AB1E28E92B2012A06D118F809
:1024C000012B1A73E38E013B9BB2E386E38E9BB232
:1024D000002BC1D023689A689007F0D4BAF1000F9E
:1024E000DDD0BAF1FF3FF1D0574B1B689B1B9A45DB
:1024F000ECD8D4E7A36833B91A932368DA681A9240
:102500009B681A931A9B656D003D18BF0125B4E7BF
:102510001AAD416823464022284609F047FF336838
:10252000C3E91259484B1B6808EE103A346894F816
:102530005030012B0AD0012384F8503094F85130E8
:10254000012BDDB204D0002384F85030022507E0CF
:10255000B8F1000F56D0BBF1000F05D184F850B090
:10256000706805F0F9FD8EE74FF6FF79D94528BF71
:10257000D946032384F851301FFA89F2002363659A
:10258000C4E91033E286A363E387A387A368A28626
:102590002268A06CC4F83080B3F5004F02BF136806
:1025A00043F480431360294B0364294BC363294BD5
:1025B000C36400230365E38E41469BB20C320DF0E9
:1025C000B9FC23681A6851065EBF1A6842F04002DF
:1025D0001A605A6842F020025A605A6842F00202B9
:1025E0005A60002384F8503018EE101A30685246B2
:1025F000FDF75CFF05460028B2D1BBEB090BC844D0
:1026000094D1ADE784F85080AAE7002A40F03681E3
:102610000129626804D0EFF31083012B40F0988009
:10262000B2F5827F1FFA8BF316D1A268A2B90422F9
:1026300084F851204946CDF800A04A4620460CF0C7
:1026400041FE05461FE700BFE4290020657302082C
:1026500075B802084973020894F85020012A00F066
:102660004E81AA480122066884F8502094F851202F
:10267000012AD5B26AD1002B3FF4FFAE042284F8C0
:10268000512000226265C4E91022E3872263E286BA
:10269000A286A268A3872368C4F83890B2F5004FD9
:1026A00002BF1A6822F480421A601A6852065EBF9E
:1026B0001A6842F040021A60E268C2B1E28F92B238
:1026C000CAB19A68D10735D5DA6829F8022BE28FAA
:1026D000013A92B2E287F1E723689A68D5071DD5DF
:1026E0001B7B09F8013BE38F013B9BB2E387E38F40
:1026F0009BB2002BF0D16368B3F5827F7FF403AF08
:10270000A368B3F5004F03D0B3F5806F7FF4FBAE41
:102710002268136823F040031360F4E6BAF1000F57
:102720003FF4BDAEBAF1FF3FE1D003689B1B9A4571
:10273000DDD8B4E6BAF1000F3FF4B1AEBAF1FF3F15
:10274000BCD00268921B9245B8D8A8E6022594E650
:10275000B2F5827F41D102AD41682346402228462E
:1027600009F024FE33689D641AAC3368B168002216
:10277000204609F01BFE3368DC64644B1B6808EEDE
:10278000103A34684FF6FF78D845A06828BFD8467D
:102790001FFA88F320BB6268B2F5827F20D1042241
:1027A00084F8512049464A4620460DF001FC054672
:1027B000306855B918EE101A5246FDF777FE0546F7
:1027C00018B9BBEB080BC144DBD133689B6C13B168
:1027D000706805F0C1FCB068C3E6C4F84880C3E780
:1027E00094F85020012A47D0012284F8502094F810
:1027F0005120012AD5B23DD1BBF1000F36D00422C1
:1028000084F851202168A38700226265B0F5004F4B
:10281000E387E28608BF0B68E06CA28608BF23F45A
:102820008043C4E91022C4F8389008BF0B60384BCD
:102830000364384BC363384BC36400230365E38FE1
:102840004A469BB20C310DF075FB23681A6852069C
:102850005EBF1A6842F040021A605A6842F02002D5
:102860005A605A6842F001025A600025002384F839
:1028700050309DE70225F9E70225A6E7012903D09C
:10288000EFF31083012B06D1CDF800A01FFA8BF3D4
:102890004A464146D2E602AD4168234640222846D8
:1028A00009F084FD3368B1689D641AAC00222046AB
:1028B00009F07CFD3368DC64144B1B6808EE103AA9
:1028C0004FF6FF745C4528BF5C463068A3B24A46A9
:1028D00041460DF06DFB054600287FF479AF18EEF8
:1028E000101A30685246FDF7E1FD054600287FF4D6
:1028F0006FAFBBEB040BA044A144E1D168E7022514
:10290000C4E532B0BDEC028BBDE8708FE429002035
:10291000697302086B7302084973020813B501F169
:10292000640400944068FFF737FD02B010BDFFF764
:10293000F5BF000030B591B009AB51F8045B0193CD
:102940001F4B0093013803232BF044FCDDE90903FE
:10295000984206A918D107222AF000FC06A907C947
:1029600003AB83E80700099C0B9B0093DDE906217C
:10297000039B6868FFF710FD1CB90CA825F01AFB33
:102980000446204611B030BD02AA05F0B5FC0A9CF1
:1029900044B907990CA838F099FB0D9B04930E9B42
:1029A0000393E1E7062203A920462AF0D7FB049A05
:1029B000079B9A4202D003482AF0E0FC0A9CD3E726
:1029C00070D1050895CB050830B589B002AB51F838
:1029D000045B01930D4B0093013802232BF0FAFBAB
:1029E00004A9029805F064FC039B00930446069B2F
:1029F000059968680022FFF7CFFC1CB904A825F0F0
:102A0000D9FA0446204609B030BD00BF38D10508C8
:102A100010B588B003AB51F8044B01930A4B0093F7
:102A2000013802232BF0D6FB039802AA05A905F072
:102A300063FC049B00936068DDE905210023FFF738
:102A4000ABFC062008B010BD28D105081FB5022335
:102A5000009303AB20F03DFB039B23B10B2B08D06D
:102A600018462AF085FA400040F0010005B05DF8F4
:102A700004FB0620FAE700000C4B4FF47A721B6847
:102A8000B3FBF2F3013BB3F1807F09D2084A5360F4
:102A9000084BF02183F82310002393600723136071
:102AA000044B0020DA6883F8230070470000002000
:102AB00010E000E000ED00E0431C14BF00F16040B6
:102AC000064B4FEA011118BF00F56140C9B214BFAF
:102AD00080F8001383F82310704700BF00ED00E07A
:102AE0002DE977410546084616462AF0CBFF0446F5
:102AF000002830D105F10408062E2FD1AB69002C37
:102B00005A690CBF6FF002016FF0100102EA010276
:102B10005A615A690CBF6FF004016FF0200102EA9C
:102B200001025A615A690CBF6FF008016FF0400151
:102B300002EA01025A614FF008014FF010020BBF88
:102B4000D9601961DA601A610623C8F800300620DE
:102B500003B0BDE8708105F10808CDE7D8F8003072
:102B6000062B02D0C8F80060F1E7304629F00EFAD3
:102B70000028ECD0C8F800602B7B012B22D1002C60
:102B80000CBF14201520072140B20190FFF794FFDD
:102B900001980DF09BFAAB69002C5A690CBF022119
:102BA000102142EA01025A615A690CBF0421202116
:102BB00042EA01025A615A690CBF082140210A43C6
:102BC0005A61C4E7022B04D1002C0CBF40204120E5
:102BD000D9E70020D7E700003E4B2DE9704103EB19
:102BE000800095B0D0F89C410D46D4E9010891BB16
:102BF000A27B04F10E038046012A30D0022A42D083
:102C0000002A54D1A169002D4A690CBF6FF002005F
:102C10006FF01000024001264A611E70B8F1060FE5
:102C200016D029F047FC36F025F802A833F0D4FE80
:102C3000024600283DD16B4602214046CDE90046C0
:102C40002BF038FD33F0E0FE36F00CF829F012FCE2
:102C500015B0BDE87081E27B04F10F03CCE7A269F7
:102C6000002D51690CBF6FF004006FF0200001EAE5
:102C7000000151614FF008010CBFD16011610222C7
:102C80001A700326CAE7A269002D51690CBF6FF0C4
:102C900008006FF0400001EA000151614FF010019F
:102CA0000CBFD160116103221A700526B6E7012618
:102CB000B4E76900062241F001012046FFF710FF4A
:102CC000227B0549054835F00BFA039903482AF0A1
:102CD000F5F8B9E798000020A9CB050860E40508DD
:102CE0002DE9704F92B00446084611461A4609ABCA
:102CF0000193A94B009309232BF06CFA4422002185
:102D000004F1180038F02AFFDDF83C80B8F1000F1C
:102D10002DD0109D0CF002FC0A236B430593049008
:102D200001234FF47A7E03EB43020392012208E071
:102D3000013108291D440BD10399102A194403912C
:102D40004DD09446039D01320EFB02FA01219146BB
:102D50000498B0FBF5FBD84509EB0106E8D1BAFBB6
:102D6000F6F60598B042E3D1CDE90CC10A938B4B3E
:102D70009DF844601E700025284631460135FDF758
:102D800025FA1C2DF8D1099B9DF838101B012362F0
:102D90000A9BE3610B9B013B1B0603F040736362DC
:102DA0000C9B013B1B0403F47023A3620D9B0022C8
:102DB000C4E90C21013B217B1B0503F4E00301293D
:102DC000E362C4E90E22C4E91022754B0FD0022938
:102DD00000F09D80227B7349734829F091FB0133F9
:102DE000B3F5806F9FD171496F482AF0CBF80892F4
:102DF0001A6CDFF8D0816E486E4D42F000721A6492
:102E00001B6C03F000730893089B162600910723A0
:102E10000122022105F0BDFE0028DBD0237B0093B8
:102E2000012207230221404605F0B3FE0028D1D03D
:102E300094F85430A56103F0FF020BB984F85520D3
:102E4000022384F854302B685B4A23F002032B6082
:102E50002B6843F001032B6010686B6813F00103CB
:102E60006FD06B68D90740F19580236B012B2B68DD
:102E70000CBF43F0800323F080032B60636B012BB6
:102E80002B680CBF43F0400323F040032B60A36B7F
:102E9000012B2B680CBF43F0200323F020032B6091
:102EA000E36B012B2B680CBF43F0100323F01003DE
:102EB0002B60236C012B2B680CBF43F0080323F01D
:102EC00008032B60636C012B2B680CBF43F00403D9
:102ED00023F004032B60D4E908310B43A16A0B43B0
:102EE000E16A0B43E16901390B43EB612B6823F085
:102EF00001032B6011686B68DB0742D46B6813F029
:102F0000010347D1A365012384F8543022E00792DE
:102F1000186CDFF8B480294D40F000701864186C0C
:102F200000F000700790079806921A6C244842F04F
:102F300080621A641B6C03F080630693069B422632
:102F400064E71168091A0A2987D9032284F85420F2
:102F500084F85530637B43F00103637300232361DE
:102F6000A3826B6943F4074370B26B61072103903E
:102F7000FFF7A2FD03980DF0A9F8062012B0BDE8F6
:102F8000708F13685B1A0A2BB5D9032384F8543069
:102F90000023DDE70423B7E718D005080800002068
:102FA00000380240FDCB050824E50508DDCB050807
:102FB00064E9050800640040E4290020006800403E
:102FC000BCED05081CE9050874ED050810B40C46B5
:102FD00013460A1D411E20685DF8044BFFF780BEB2
:102FE00010B58AB00B4C03A835F0F6FB059B009397
:102FF0000949DDE90323204635F072F8069A099B5A
:10300000019200930549DDE90723204635F068F871
:103010000AB010BD60E405080CCC050830CC0508EA
:103020002DE9704FDFF868B14B49DBF894224B482B
:1030300035F056F8DBF88C22920078D0DFF8549106
:10304000DFF81881DFF850A100250EE0012E3DD0F9
:103050002E224349404635F043F8DBF88C320135E7
:10306000B5EB830F4FEA830261D215F03F0610D013
:1030700005F003067600DBF88822AB08D35C43FA40
:1030800006F606F00306022E1ED0032EDED16D22B8
:10309000DFE7DBF888122C46A00804F00303085C85
:1030A0005B0040FA03F39B0702D101349442F3D34F
:1030B000621B7F2A2FD805F0030676002A014946B5
:1030C000404635F00DF8D6E73D22C2E7DBF8941212
:1030D000244B2A018A589A4230D0234B9A422FD04F
:1030E000224B9A4230D0224B9A422BD0214B9A420B
:1030F00028D0214B9A4229D0204B9A4226D0204BEF
:103100009A4227D01F4B9A4222D01F4B9A420CBFA3
:103110004D2268229DE792095146404634F0E0FF77
:10312000DBF88C3224F03F05B5EB830FC6D3BDE846
:10313000704F16490122002033F0FABC542288E770
:103140004C2286E7532284E7442282E7412280E72B
:1031500042227EE746227CE778CC050860E4050839
:10316000B8CC0508BCE70508F4E60508F8E505084D
:1031700088E70508B0E505087CE5050848E5050889
:1031800028E605084CE6050854E7050874CC050850
:1031900098000020B0CC050894CC050870B54668AE
:1031A000B142044628BF31460D46012136F058FD94
:1031B000A368681C5919721B184438F0B7FC63687F
:1031C000A06801336360284470BD00007FB50546E8
:1031D00010200C46164637F063FB0023C0E900348C
:1031E000084B0293084B0190039304AB13E90E00C4
:1031F00084603444C460284604B0BDE8704037F0B1
:103200000EBF00BF5D68050811820508D0F84CC0EC
:1032100070B50CF10053446A023B04EBC30405464D
:10322000D4E9020184E80300667856B9B5F84A206B
:103230006244013A314628462FF07EFD0123637037
:10324000666028464FF0FF31BDE870402FF07CBB30
:1032500070B503681A785D88042A04BF5A6842F87A
:1032600025106A1C04465A800021B0F848202FF02F
:1032700063FD0022A06D114602232FF004FC002202
:10328000A06D2B461146BDE870402FF007BC73B50A
:1032900004461E460D4601922FF0EDFD019AA06DE9
:1032A00000212FF026FCA06D324601212FF021FCD9
:1032B000A06D0322294602B0BDE870402FF0C1BCCA
:1032C0002DE9704F0B4601EB020804460D46002223
:1032D000984517D8002A0CBF272622262149DFF857
:1032E0009490DFF894A0DFF894B03246204634F092
:1032F000F7FEA84510D8324620461A49BDE8704F5F
:1033000034F0EEBE13F8011B272903D02229DFD1A8
:103310002726E3E70122DBE715F8012B964205D1CA
:1033200011493246204634F0DBFEE2E75C2A04D144
:103330000E49204634F095FCDBE71F2A03D97E2A8C
:103340000DD80849EEE70A2A01D10949F1E70D2A0B
:1033500001D15946EDE7092A01D15146E9E749462D
:10336000E0E700BFB8CC0508BBCC0508BFCC05081A
:10337000C2CC0508CBCC0508C8CC0508C5CC0508CF
:103380002DE9734F704ADFF8C8A100230C684FF095
:10339000010C0CFA03FC0CEA04053CEA040440F0BE
:1033A000BD804C6824F01009B9F1020F16D14FEA24
:1033B000D30800EB880803F0070BD8F820604FEA29
:1033C0008B0B4FF00F0E0EFA0BFE26EA0E0E0E6957
:1033D00006FA0BF646EA0E06C8F82060D0F800E0C0
:1033E0004FEA4308032606FA08F66FEA060B2EEAB0
:1033F000060604F0030E0EFA08FE09F1FF394EEA44
:103400000606B9F1010F066011D886680BEA060EB0
:10341000022606FA08F646EA0E068660466826EA9E
:103420000C0CC4F300169E4046EA0C064660C668C3
:103430000BEA060B8E6806FA08F646EA0B06C6602B
:10344000E6006BD54FF0000BCDF804B0DAF844C0BD
:103450003E4E4CF4804CCAF844C0DAF844C00CF438
:10346000804CCDF804C0DDF804C023F0030C0CF14F
:10347000804C0CF59C3C03F00308DCF808904FEA04
:1034800088084FF00F0E0EFA08FEB04229EA0E0E21
:103490004BD006F58066B04249D006F58066B04252
:1034A00047D006F58066B04245D006F58066B0424A
:1034B00043D006F58066B04241D006F58066B04242
:1034C0003FD006F58066B0420CBF0726082606FAF4
:1034D00008F646EA0E06CCF8086016686FEA050C96
:1034E00014F4803F0CBF06EA0C062E4316605668A3
:1034F00014F4003F0CBF0CEA06062E435660966893
:1035000014F4801F0CBF0CEA06062E439660D668A2
:10351000A40254BF0CEA06062E43D6600133102BDA
:103520007FF434AF02B0BDE8708F5E46CFE701266E
:10353000CDE70226CBE70326C9E70426C7E7052621
:10354000C5E70626C3E700BF003C0140000002407B
:10355000003802402DE977410A4C05460E46904658
:1035600001AA05212846FCF77FFD38B9019B3340AD
:10357000434503D0013CF3D16FF06D0003B0BDE8CB
:10358000708100BF41420F0010B5064CD4F81832CC
:10359000217A5B68201D9847D4F8240207F0B8FC14
:1035A000002010BD9414002010B5124C012384F8A3
:1035B0000032D4F81832217A5B68201D9847D4F87D
:1035C000240207F0A5FCD4F824428CB1032384F82C
:1035D000B933204607F09CFC074B22689A4201BF92
:1035E000064A136B23F000531363002384F8B933A6
:1035F000002010BD94140020000004400038024058
:1036000073B50C4601A924F049FB019BF3B10246B6
:1036100003449A42154606D212F8011B2E29F8D00F
:1036200030390929F5D9611E4FF00A0C0334002303
:10363000854202460DD801F8013F8C4211D09542D7
:1036400011D913782E2B0ED1501CF0E7236002B055
:1036500070BD10F8016B2E2EEDD00CFB0363303BD8
:10366000E6E79542F3D0014829F088FED2CC050860
:1036700013B50C4601AA022128F0AEFF019B21469A
:103680001868FFF7BDFF019B58682AF0FBF902B0EC
:1036900010BD0000114B1B685B68C3F3423202701F
:1036A000C3F30352C3F3034102EB820201EB420274
:1036B000C3F30031C2708A001144C3F3032202EB4A
:1036C00041024270C3F3011202EB820203F00F03C6
:1036D00003EB420383700020704700BF34000020DA
:1036E000154B1B689A6A42601A691B68C2F30E0286
:1036F0008260C3F3064202F04001C170C2F30111BF
:1037000001EB810102F00F0202EB41020270C3F3F0
:103710000232C3F3032102EB820201EB4202427048
:10372000C3F3021202EB820203F00F0303EB420326
:1037300083700020704700BF3400002030B597B080
:103740006FF00403054604A8019333F045F90446DD
:1037500088B9114A029502A940F2EA650220039550
:1037600013F018FB284613F0AFFC019433F04CF92A
:10377000019817B030BD059C084920681FF072F908
:103780000028F5D0204628F07FFA01A929F0BEFFD5
:10379000019B5B420193EBE714E3050800E5050894
:1037A0002DE9704FD0F800808AB000234371029158
:1037B00003790193144605210DF11F02404614F0D0
:1037C000DBFC9DF81F30DD0700F1C882580700F1CF
:1037D000C78208AA0321404614F0CEFC30B9089AEB
:1037E000531EB3F5004F01D21A4201D001230893B2
:1037F000019BA3B909AA0121404614F0BDFC88B978
:10380000029B13F0080F099B14BF4FF000094FF003
:103810003F094B451BD3A3EB090309932EE0B8F1F5
:10382000000F01D1012013E023460122002108F1FD
:10383000040014F0DCFD0028F4D194F8FF2194F882
:10384000FE3143EA02234AF65522934203D00E206A
:103850000AB0BDE8708F019B04EB031303F5D77525
:1038600093F8B231002BF2D005F1080014F01EFBE2
:10387000814605F10C0014F019FB0990DDF824B025
:10388000BBF1150FE3D9029B13F002030593029BD2
:103890002DD003F00703022B00F07282029BD907A0
:1038A00040F16E824E4B4FEA1B30012633F8022B5B
:1038B00012B190426FD2002240F6F573BBFBF6F5D1
:1038C0009D429BBF05EB4505013502356D088CBF58
:1038D0006D0003354FF0200305F2FF1504938CBFF4
:1038E0004FF0020A4FF0010A6D0A012317E0DA07D0
:1038F000D8D41320ACE772081646BBFBF6F3394860
:103900009D00A3F57F43F63B05F2072583424FEA6E
:1039100055259CD8002304934FF0030A202309EB7C
:10392000030000900498DDF820E005EB000C0098FF
:1039300084440EF1FF30BAF1030F6044CEF1000E63
:1039400008BF009900EA0E00A0EB0C0001BF0918A7
:103950001B180846009018BF2D18C9EB06108444A8
:10396000E345FFF474AF0499ABEB0100C01ABAF160
:10397000030FA0EB0500B0FBF6F103910DD14FF65C
:10398000F570814238D8002A7FF461AF012EB2D899
:103990005DE77600F8E1760088E7BAF1020F23D1FF
:1039A00003994FF6F57081420ED9002A40F0F68156
:1039B0007600402E00F2E081002E3FF473AF3246D5
:1039C0007AE7802EFBD942E7039940F6F5708142F1
:1039D00012D8002A7FF43BAF7600802EECD936E770
:1039E000FED30508FFFFFE0F039940F6F5729142E2
:1039F0003FF62DAF4FF0010A4FF400720021204630
:103A0000059338F0ABF8D74A059B116821605168DF
:103A10006160A3731189927A2181C3F30723BAF1FC
:103A2000030F4FF00201A272E3734FF000024FF058
:103A30000103237414BF0B461346BBF5803FE272AB
:103A4000217366736274A37480F0228184F813B0CA
:103A5000CBF3072B84F814B0F82363753F23237648
:103A60004FF0000BFF23494684F819B0A37684F881
:103A70001BB004F11C0014F011FABAF1030FBA499B
:103A800040F00C8104F1430014F008FA294604F1D7
:103A9000240014F003FA022384F82C30012384F864
:103AA0003030062384F83230802384F840302923D4
:103AB00084F84230AD4B84F82DB084F82EB084F8F1
:103AC0002FB084F831B084F833B004F1470203F129
:103AD000100153F8040B42F8040B8B42F9D11988FA
:103AE0009B7893704FF05503118084F8FE316FF08E
:103AF000550384F8FF314A4601232146404614F01D
:103B0000B9FB834600287FF48DAEBAF1030F41D193
:103B1000012309F106022146404614F0ABFB4FF4A5
:103B200000725946204638F019F85223237063700A
:103B30006123A37084F8E731039B41227221E27074
:103B400084F8E41184F8E51184F8E621591E04F59F
:103B5000F47014F0A3F9022384F8EC314FF055030C
:103B600084F8FE316FF0550384F8FF3109F1070244
:103B70000123214684F8EDB184F8EEB184F8EFB169
:103B8000404614F077FB012309EB0302214640462F
:103B900014F070FB4FF400720021204637F0DEFF76
:103BA000BAF1030F40F09480F8232370FF23637071
:103BB000A370E37023716371A371E3712372637265
:103BC000A3720F23E372012DAB4628BF4FF0010B08
:103BD0002146009A5B46404614F04CFB0146002803
:103BE0007FF420AE4FF40072204637F0B7FF009B01
:103BF000B5EB0B055B440093E5D1049BBAF1030FD1
:103C000018BF1E46012E354628BF0125009A2B46B7
:103C10002146404614F02EFB00287FF403AE009BA3
:103C2000761B2B440093EDD1BAF1030F5AD0099BB8
:103C3000B3F5803F58D2BAF1020F0CBF042501251D
:103C4000019B002B52D0B8F1000F3FF4EBAD0122E5
:103C50002346002108F1040014F0C9FB02460028A5
:103C60007FF4E0AD019B04EB031383F8B251012311
:103C70002146404614F0FEFA00287FF4D3AD00221E
:103C80001146404614F078FA003818BF0120DFE5ED
:103C9000594604F1200014F001F9DDE604F1270093
:103CA00014F0FCF8C5F30723E375802384F824306F
:103CB000292384F826302E4BA57504F12B0203F13D
:103CC000100153F8040B42F8040B8B42F9D106E7BC
:103CD000BAF1010F2749204618BF6FF0070114F011
:103CE000DDF870E70C25ABE70625A9E7029B1B076B
:103CF000C5D401994FF40072204637F02FFF5523A9
:103D0000099A84F8FE31AA2384F8FF31019B84F8D4
:103D1000BE3184F8C1314A4443F6C163B2FBF3F2C9
:103D2000FE2384F8C331930843F03F03012684F84F
:103D3000C43184F8C521494604F5E37084F8BF61B5
:103D400084F8C06184F8C25114F0A8F8099904F508
:103D5000E57014F0A3F8019A334689E7032077E56C
:103D60000A2075E5D6CC05080000214CE2CC0508F8
:103D7000F6CC0508F8FFFF00059B002B3FF421AEB1
:103D8000094B4FEA5B40012633F8022B002A3FF42F
:103D9000B4AD9042BFF4FDAD0022AEE5059B002B13
:103DA0007FF4AAAD53E500BF0CD40508012973B513
:103DB000056806460C4625D92B6A994222D221462F
:103DC0003068019414F048FB0199044610B90020B2
:103DD00002B070BD012815D0431C15D00022284622
:103DE00014F092FE0028F3D12A6AAB69911E8B422F
:103DF00005D20133AB612B7A43F001032B7294425D
:103E0000DDD3E4E70220E3E70120E1E72DE970419B
:103E100095B0494B01930221064614F095FC0446E7
:103E2000002838D102AD4FF02033029380466B60FA
:103E3000C5F80730019B1B781F2B25D89DF808304B
:103E4000E52B27D0B8F1000F04D008F1FF33EA5C6E
:103E5000202A3ED0002108A808960A9114F0B3FB4E
:103E60000446C0B9012108A815F0A0FC00283BD1E8
:103E70000F9BB8F1000F2ED003CD18605960298830
:103E8000AA789A72198128E001A813F0F1FFB0F521
:103E9000803F04D30624204615B0BDE8708113F09E
:103EA0008FFF7F2809D880B20028F3D0234A12F868
:103EB000013B43B19842FAD1ECE7B0F5803FE9D23B
:103EC00013F0C2FFF0E7FF2824D8B8F10A0F2BD96E
:103ED000E0E79846B6E7E5221A700123F371304611
:103EE00014F03AFA0446D6E70428FBD1B8F1000FE3
:103EF000D1D0012108A815F067FD04460028CAD1D9
:103F0000202201460F9837F029FE0F9B0822DA7213
:103F10000F9BB1E7B8F1090FBCD814AB4344020AB8
:103F200003F8482C08F1010814AB434408F10108D8
:103F300003F8480C7EE700BF0ACD050870D30508DA
:103F40002DE9704F86B08046894616469A46002471
:103F50000DF1100B0F9BA34203D8002006B0BDE863
:103F6000708F0F9B1D1B0E9B082D28BF0825E31883
:103F7000CDE900A3CDE902B5331B4A4600214046F6
:103F80000EF0E8FC0028E9D1109B2A461868594633
:103F90000EF046FB109B2C441860DBE72DE9704FB8
:103FA00086B081468A4616461D4600240DF1100B48
:103FB000109BA34201D800201EE0109BA3EB040835
:103FC0000E9BB8F1080F28BF4FF00808E318CDE9A1
:103FD0000053CDE902B8331B5246002148460EF08B
:103FE000B9FC48B90F9B42461919584637F0CCFD29
:103FF000002804D005DB022006B0BDE8708F4444E1
:10400000D6E70120F8E700002DE9704F2DED028B77
:10401000AAB000249A46BDF8DC300493CDE90A44E6
:10402000BDF8E030069308EE100ABDF9E4300593C0
:104030008B461546A14650460EF03AFCDBF80C3094
:1040400000EB0508984564D209AACDE90182042352
:104050000393DBF80020009218EE100A18EE102AE5
:1040600000210EF077FC002840F01B81099B1BBA51
:104070008AEA030ADBF800300A934AF0004A08F1A2
:104080000403CDF824A00B930AAE0999369B81EA6C
:1040900009021A40854B1A4039D1369BC3F3892354
:1040A000002B00F0A0803C2565432AAB2B443498BC
:1040B00043F86C0C359843F8680C369843F870ACAC
:1040C00043E91909049823F85C0C069823F85A0C64
:1040D000059823F8580C3A9843F8540C3B9843F849
:1040E000486C43E91401DDE90A0143E91EB8443B89
:1040F00083E803002AAB1D44A5F14C03CDE905225A
:104100003B936B4B3692013491463A930492454669
:1041100091E7359B002B40F3C280349B1B680993C9
:10412000349B5E6808333493359B013B3593A84636
:10413000ABE7B2F5817F1DD100250999C1F30903D1
:104140009D42E4D2059B7268C1F389211944B3688A
:1041500043EA8121337803F5407341EA0351DDE9F5
:104160003A3098470028C0F29C8006F10C06CED168
:104170000135E2E70599324603EB8121DDE93A306A
:1041800098470028C0F28D80C1D0002C00F08980B3
:104190002AAA013C3C2303FB042353E91CA23492CA
:1041A00053F8682C359253F8642C369233F85C2C13
:1041B000049233F85A2C069233F9582C059253F88E
:1041C000542C3A9253E9110153F8502C3B9253F876
:1041D0004C2C09920AAA53E91EB882E8030053F84E
:1041E000609C53F8486C369A099BC2F389223AB115
:1041F0000499C3F389228A4289D306998A4286D2D6
:10420000C3F30A52002A82D040F201118A4290D1AF
:1042100007933A9B1A46264B9A423FF478AF3C22CA
:104220002AAB02FB04350021A5F1780037F096FC9B
:10423000349B45F86C3C359B45F8683C369B45F80B
:1042400070AC45E91939049B25F85C3C069B25F8C0
:104250005A3C059B25F8583C3A9B45F8543C3B9BFF
:1042600045F8503C079BC3F30902049201320692C1
:10427000049AC3F389239B1A059A13441BB20D4A6F
:104280000593002345E91EB8CDE935320134B34624
:104290004FF0005934934FF0FF3A984637E700202B
:1042A00073E72AB0BDEC028BBDE8708F0000F07F91
:1042B0006DEA020800FC0F602DE9704F86B0DDE961
:1042C0000F4A013B119EDFF898B00493804689465F
:1042D00015460EB9304640E02B68E868023316D127
:1042E000D5E901120A44944211D28C420FD3121B19
:1042F000B242A4EB010128BF324601445046059268
:1043000037F0E6FB059A92441444B61AE1E7D8F870
:1043100068C06FF00103DCF814102B60049BB4FB41
:10432000F1F20B44234401FB1242B3FBF1FE01FB0B
:104330001E315B1ADCF828108B4228BF0B46A21AEC
:10434000CDE901036A60AB6000920E9B5A46494674
:1043500040460FF073F80028BBDA06B0BDE8708F56
:1043600000FCF7FF2DE9704F88B00646894605929C
:104370004BB911994FF0FF320A60129A0020136076
:1043800008B0BDE8708F013B07A9806E07930EF05F
:1043900063F910A90546B06E0EF05EF94FF0040AFD
:1043A00080460DF1140BA845059A03D3119B1A60A2
:1043B000109BE2E7A5EB0804B4FA84F495FAA5F3A0
:1043C000B3FA83F3C4F11F049C4228BF1C46A30028
:1043D000CDE90023CDE902BA04234A460021304644
:1043E0000EF0B8FA0028CBD1012303FA04F42D1BF8
:1043F000D9E7000013B50C4C246824680B4600F084
:104400007F4164B9002914BF1321032101920022C6
:104410000092024604480BF08BFF02B010BD002949
:1044200014BFEC21EB21F1E774040020FF292DE9F2
:10443000734F044603D98B18B3F5045F11D90025D7
:1044400004F2BD102B46FF244FF0010C4FF0200E5C
:104450004FF055084FF0AA09954266D14FF0000879
:104460003CE0EFF3118B602383F31288560250D0A7
:10447000DFF8A481A1F5807140464D020CF048F8A8
:10448000D8F80030D3F8109009F580531B680193D9
:10449000434542D141F2040259F802104B1C3CD072
:1044A000B1EB153F4FEA153037D3721E2A44B1EBFA
:1044B000123F32D881421AD94FEA013A2246C5EB5F
:1044C000013128460091FFF795FFDDE90013804692
:1044D00040B118460CF012F88BF31188404602B038
:1044E000BDE8708FA6EB0A062E440C445546C5F372
:1044F0000B01C1F58058B04528BFB046424649443B
:10450000204637F0E5FAB6EB080604D142480BF036
:10451000F5FFB046E0E7444445442246314628468C
:10452000FFF768FF80463C48D4E7CD4271D1A0F543
:10453000DF7606F8013FB042FBD143708470C4704F
:10454000047180F805C08471C4710472437280F8EC
:104550000AC0C3720373437380F80EE0C37303741D
:1045600043748374C374037543758375C37503768D
:1045700043768376C376037743778377C37780F870
:104580002030013580F8213080F8223080F8233047
:1045900080F8243080F8253080F8263080F82730E5
:1045A00080F8283080F8293080F82A3080F82B30C5
:1045B00080F82C3080F82D3080F82E3080F82F30A5
:1045C00080F8303080F8313080F8323080F8333085
:1045D00080F8343080F8353080F8363080F8373065
:1045E00080F8383080F8393080F83A3080F83B3045
:1045F00080F83C3080F83D3080F83E3080F83F3025
:1046000080F8403080F8418080F8429000F50070DA
:1046100022E76FF0040861E7740400202DE970437D
:10462000804686B0D1E900600C4629F02BFA0622BC
:10463000054603A9A06828F091FDB8F1030F13D136
:104640007168049A03980029B8BF01F2FF1105EBC5
:104650006121520A01F58071FFF7E8FE400040F049
:10466000010006B0BDE87083174B9E4225D0E0687C
:1046700029F008FAB368B3EB053F804620D9039AC6
:10468000D6F80490049C0192EFF31186602383F323
:10469000128874B10D4805EB19350BF039FF21462E
:1046A000019A08EB0530FFF7A5FE044607480BF01A
:1046B00025FF86F311882046D0E76FF00400CDE790
:1046C0006FF00D00CAE700BF5C010608740400200B
:1046D0002DE9704F4C4E356890F83D3086B0202B58
:1046E000CDE90212044603D0022006B0BDE8708F67
:1046F00046490095192301220BF04EFA0028F3D108
:1047000094F83C30012BEFD0012384F83C3023682F
:10471000DFF8F8B01A68D2075EBF1A6842F00102EB
:104720001A601A6822F400621A60242384F83D306B
:1047300000232364A3F58033E3624FF001094FF0B7
:10474000A00A2268136843F4807313604FF00111CC
:104750000095C823002220460BF01EFA18B1032052
:10476000C3E79946EDE723689DF808201A6135688C
:104770005869596994F83D20C0F34000C1F3802185
:104780000143D2B201D1A02A20D14FF0200884F8F1
:104790003D805A6912F0020F1A6842F400721A60E2
:1047A0001BD0002205925A6905929B690593059BCF
:1047B000164900951923012220460BF0EDF9002837
:1047C000CDD184F83D8084F83C008EE73268521BDE
:1047D000C82A88BF84F83DA0CAE76FF480625A6196
:1047E000594600951923012220460BF0D5F90028DF
:1047F000B5D1039A914509F10103B2D184F83C0087
:1048000084F83D80012070E7E429002002001000B8
:1048100010B58021044604F04FFC20460021BDE87D
:10482000104004F049BC08B5D0F814320BB902208E
:1048300008BD1B68012198470028F9D0F7E710B59B
:10484000D0F8180290F8653800EBC3040133DBB2EE
:10485000042B4FEA022208BF002384F84418C4F84E
:10486000482880F8653810BDC1070CD4820703D1F1
:104870000268064B9A4206D00E2804D0A0F11E030F
:104880005842584170470120704700BFCCE60508E8
:104890002DE97F4F144605460622084601A928F057
:1048A0005DFC9DF80C10002240201CF0E1F806464B
:1048B0002046FFF7D9FF002868D0204629F0E2F80B
:1048C000002300934A4B1A6C42F010021A641B6CCE
:1048D00003F01003804600930620009B03F036FE91
:1048E000804550D8062003F031FE0122B0FBF8F3DA
:1048F000B3F5803F44D23F493F480860013BCB605D
:1049000000230B618B6091F83930013A4A60884688
:1049100003F0FF020BB981F838204FF00209374944
:10492000354888F8399006F02FFB0122D8F800109E
:1049300088F8392088F839900B68DFF8B89013436D
:104940000B6088F8392005F10C08A96840464FF043
:10495000000BFBF76FFC029BB3FBF6FAD34521D1AA
:1049600040460BF0C1FB2046FFF77EFF10B14846E2
:1049700006F0C4FE029825F0FBFA04B0BDE8708F83
:104980005B085200B4E701221346B4E7204626F044
:10499000B1FE1B4B834202D01A4828F0EFFC04F111
:1049A0000C09D0E7D9F800301969CA07FCD56FF0B7
:1049B00001021A61BBF1000F13D140460BF0B0FBAE
:1049C0004046FBF717FCEB680199DB6C9DF80C0087
:1049D000012E5A4608BF1B091EF0EAF80BF1010B25
:1049E000BCE7E9688B6843F080438B60E8E700BF71
:1049F0000038024054000020001000405800002001
:104A0000C0040608C8C9050808484368DB0710B594
:104A10000AD5EFF31184602383F312880BF082FD33
:104A200003F026FD84F3118810BD00BF740400203C
:104A3000094808B54368DB070CD5084B82681B683A
:104A40009B1AB3F57A7F05D30BF06CFDBDE80840E7
:104A500003F00EBD08BD00BF74040020E42900204F
:104A60002D4B37B51D78002D53D1012119702B4BDB
:104A70002B4C2C4A5A602C4B23602C4B2C486560E5
:104A800010229A612B462A4604F040F82368DA681F
:104A9000986812682946904720460BF039FDAB21F3
:104AA00020460BF0C0FC23681B68012B25D16A4609
:104AB00005212046CDE90055FBF7D6FA20B901AA19
:104AC00035212046FBF7D0FA019A9DF800501202DA
:104AD00092B2154302F4007252EA00030DD106218E
:104AE0000F480BF0A0FC0E4845F400730222012190
:104AF0000BF079FC0A480BF017FC09480BF0FEFCA0
:104B00000023A3600B4B602283F8042304200BF0E6
:104B1000DDFA03B030BD00BF881400208C140020E3
:104B200074040020150302084C0706080000024028
:104B3000FCEA050800E100E070B5054608461646A7
:104B400028F0A0FF013805284DD8DFE800F0031653
:104B5000161A272FFFF784FF304628F093FF01280D
:104B600003D1224B9D4205D028730020400040F025
:104B7000010005E04FF0FF30F8E7FFF745FF0120A7
:104B800070BD1A4B9D4206D02A7BA8680AB1000B63
:104B9000ECE7400AEAE74FF40450E7E72B7B002BF1
:104BA00014BF4FF400504FF48060E0E72C7BC4B199
:104BB00030466D6828F066FF2D0B0446EFF3118632
:104BC000602383F312880A480BF0A2FC61190903E1
:104BD00007480BF050FC044605480BF08FFC86F3A9
:104BE00011886000C3E70620CAE700BF5C01060821
:104BF000740400202DE9704F814B8AB01A7801931C
:104C0000002A59D07F4CDFF81C82DFF81C92002369
:104C10002360C2467C4E98F800B0737F354603F09F
:104C2000FF02002B32D1794B32771968784A7948E4
:104C3000BBF1000F62D0036F9B0740D54FF480712A
:104C400000230393734B186C40F0805018641B6C66
:104C500003F080530393039B6F4B186840F48070FC
:104C60001860D2F800C01868C0054DD5694B186FA0
:104C700010F440704ED1674B9A6822F4F8129A6093
:104C80001A6F11431967654B01221A60022373776B
:104C90003368CA225A6253225A62FBF7CBF90028C2
:104CA00056D03368FF225A62042373770CE06FEA10
:104CB00013436FEA034323600AB0BDE8708F1368A3
:104CC0005B1AB3F57A7FB6D92368BBF1000FEED03B
:104CD00043F0807323604E4B00251A684B4B8AF8D3
:104CE000005028461A60FCF72BF90AF087FE75770A
:104CF00090E713685B1AB3F5FA7FE5D8436F9B071B
:104D0000F7D54FF400719BE71068A0EB0C00022868
:104D1000A9D9D9E78842AED0186F4FF0010CC9F875
:104D200000C020F440704FF0000CC9F800C01867B4
:104D3000186FC0079FD5D2F800C041F2883E186FA7
:104D4000800798D41068A0EB0C007045F7D9BBE73A
:104D50002B6829699A6822F4E00222F040029A60E6
:104D60006A6898680A4369690A4302439A60EA6874
:104D70001A611A69A96842EA01421A616FF0800259
:104D8000DA601A6CA96922F480221A641A6C0A4348
:104D90001A64FF225A6201236B771C4A1C4B12686B
:104DA0001B689B1A9BB243EA0B7B4BF000532360BA
:104DB00004A81B4B0493FBF7EBFC28B9CDE90800D2
:104DC000059005A8FBF772FC124B5A6F12F0006FAA
:104DD0001A461EBF4BF0005343F480332360536FD9
:104DE0000C4A5B0142BF236843F400332360536FD6
:104DF00043F080735367019A002313705CE700BF90
:104E000064040020600400203400002068040020B6
:104E1000E429002000380240007000403C0E474268
:104E20000401010F6C040020400E474270B5044697
:104E30000D46FFF7DFFE022C244C39D1686828F0BC
:104E400021FE00F2FF13B3F5806F02D3204828F053
:104E500095FA237F0028C7BFC0F500704FF40042C9
:104E600040420022012B21D00123237702236377C4
:104E70002368CA21596253215962D968CE0304D5E7
:104E800014490E68DD68ED0305D41043FF22D86392
:104E90005A62012307E00D68AD1BB5F57A7FF1D9A1
:104EA000FF225A620323637700232377062070BD15
:104EB0002368DA6BD86B1304C0F30800BDE87040B8
:104EC0004CBFC0F50070404225F052B834000020BD
:104ED0001DCD0508E42900202DE9784180460E46C5
:104EE000FFF788FE03200BF0DDF8B8F1030F7068C0
:104EF0006FD806282FD028F0C5FD032503460222CF
:104F00004FF4FA6000FB02F1994209DB4FF40044D0
:104F1000B4FBF2F463434FF47A7493FBF4F415E0BA
:104F2000013D4FEA4202EDD2364A93424FF47A7481
:104F300093FBF4F401DC04250AE0A4F58034B4F515
:104F4000803F02DD304828F019FA0625002C00DDEC
:104F5000013C012200E00022B8F1030F43D1B36805
:104F60002A49C1F824312A4BCA2159625321596276
:104F7000996821F480619960D9684907FCD5002AB5
:104F800033D05C619A6822F4884222F0070205F06F
:104F900007052A4342F488429A60FF225A621D4A5A
:104FA000116841F480011160916841F480019160C1
:104FB000D96821F48061D9604FF480035361164BA6
:104FC000F02283F8032303200BF080F80620BDE8CD
:104FD000788128F057FD0546B06828F053FDF36846
:104FE00004460122BCE70623BAE79A6822F480420D
:104FF0009A60FF225A62074A136823F48003136001
:10500000E4E700BFE703E8032ECD05089800002081
:1050100000280040003C014000E100E030B50546BA
:105020008FB00C46FFF7E6FD012D34D101A8FEF745
:1050300057FB6846FEF72EFB9DF8030000F5FA606B
:1050400024F096FF06909DF8010024F091FF079050
:105050009DF8020024F08CFF08909DF8000024F0D9
:1050600087FF09909DF8040024F082FF0A909DF8C4
:10507000050024F07DFF0B909DF8060024F078FFDA
:105080000C90029824F074FF06A90D9008201EF0E1
:10509000BBFD0FB030BD01AA0821606827F09CFA63
:1050A000019B186828F0EEFC019B30308DF803005E
:1050B000586828F0E7FC019B8DF80100986828F0FB
:1050C000E1FC019B8DF80200D86828F0DBFC8DF82C
:1050D00000006846FBF75CFB019B186928F0D2FCD6
:1050E000019B8DF81800586928F0CCFC019B8DF8C5
:1050F0001900986928F0C6FC00238DF81A008DF875
:105100001B30099306A84FF480230A93FBF7CEFACD
:105110000620BEE708B51049104B0022C3E9001273
:105120007F20FF21C3E90201C3E904229A610C4BED
:105130001A700C4B0C4A1B6813600C4A23F07F4317
:1051400043F07C5313600A4B1878FBF7F9FEFFF726
:1051500051FD062008BD00BF00280040340000209B
:1051600064040020E429002068040020600400207A
:105170006C040020114A136813F0040313B50ED118
:1051800001930F4B596B41F0400159635B6B03F086
:1051900040030193019B136843F004031360094B20
:1051A00006491C68486810F0010001D0886803E0D7
:1051B0001A68121B092AF5D902B010BD0008065062
:1051C00000380240E429002008B5FFF7D3FFBDE80E
:1051D0000840800824F0CCBE16280AD8054B1B5C7A
:1051E00003F1047303F59E3300EBC3008000012339
:1051F000036070473F040020162810D8084B094A66
:1052000003448A434FEA83030CBF012200221A6041
:10521000054A8A430CBF01220022C3F88020704750
:1052200040E089100000111000002110162808D855
:1052300000F1845000F51E20800000230360C0F8B8
:105240008030704730B5204A0123516983401942AC
:1052500093B0044612D0162853610FD81B4B00F1AF
:10526000320503EB85056868062807D0184B1B5DDF
:1052700033B9184B53F8241027F0D6F813B030BDCB
:1052800027F018F933F0F6FC684631F0A5FB60B959
:10529000104B686853F824102AF082F931F0B4FBFF
:1052A00033F0E0FC27F0E6F8E8E706236B602046E1
:1052B000FFF7BCFF08490948224632F011FF019967
:1052C000064827F0FBFDEBE7003C0140980000207A
:1052D00028040020CC03002039CD050860E405082F
:1052E0002DE970478DB00446084611461A4603ABB7
:1052F00001934B4B0093042328F0CAFF214608205A
:1053000026F074FE8046DDE90306C207DDE9059A52
:1053100005D4830715D10268424B9A4211D128F077
:10532000B1FB0F28044604D83F4902463F4827F006
:10533000E7F816281DD902463D493C48172327F0B7
:10534000DFF802F0F5FF047A05462409394A26F40D
:10535000001393420FD002F5801296420BD0A2F5B3
:105360007022934207D0344B9E4204D033493246D8
:10537000DCE70025EAE7B9F1020F02D930494A46D5
:10538000D4E7304B04F1320103EB81025268062A64
:105390001A4605D0BAF1060F02D02B492246C5E7BE
:1053A0002046FFF743FF02EB810316F4803FC3F86A
:1053B00004A0264B14BF00220422BAF1060F1A558E
:1053C00019D0234B01221A5504FA02F31343214A40
:1053D00042F82430ADB931462046FFF70DFFFFF704
:1053E000FBFE1D4B1A570E2102F07F00FDF764FBF8
:1053F00010460AF06BFE4046C8F804400DB0BDE808
:105400007087286903F0CCFAEB682869CDF82490FE
:10541000CDE9073607A902230A93FDF7B1FFE0E7BC
:105420000C010608CCE6050871CD050824E5050841
:1054300081CD050800001110000022108ECD050856
:1054400098CD050898000020A2CD05083F04002053
:1054500028040020CC03002024E8050808B5406893
:10546000FFF7E4FE062008BD1C4B2DE977471A899B
:10547000002401321A81C3F82C43C3F8A442FBF77D
:105480002DF80BF0CBFAEFF31188F02383F3128899
:10549000134EDFF850903568A2463DB9346088F36A
:1054A000118833F06DFB03B0BDE870876968C5F8FB
:1054B00004A04846019526F025FF019B1B8A9B0707
:1054C000054603D5012101A833F096FB2246019938
:1054D000484626F0F5FE0446DFE700BF98000020AE
:1054E00070040020F5DF02082DE9734F644CDDF8ED
:1054F00028B0D4F800C00C9D98460126BCF1000FDE
:1055000040F0BC835F4BC4F814325F4BC4F81832D0
:1055100004F64843C4F8403C03F6A403C4F8443CF2
:1055200004F50A73C4F81C3208F07F03B34216BFB7
:1055300040F2EF2C84F8AECAA4F8ACCADFF840C140
:1055400084F8006206BF0226A4F8AC6A84F8AE6A4A
:10555000ACF8B22A402600284C4A8CF8AF6ADFF833
:1055600044E1CCF8B42A5FFA80FA40F2031204F165
:1055700004090CBF03260526202BACF8B82A84F8B2
:1055800004A0C4F82892C4F8A8EAACF8B01A62469D
:105590008CF82C8200F0888007D8012B00F0D28292
:1055A000112B00F0808200205EE3212B00F052825C
:1055B000312BF8D1364B0CF6C53C03F1140253F8ED
:1055C000041B4CF8041B9342F9D11A889B7831498B
:1055D000ACF800208CF8023042222F4836F078FADE
:1055E000012340F2012284F8DE3B84F8E63BA4F874
:1055F000FE2B022341F2F84284F8F63B84F8093C82
:10560000264BA350264A02F1200152F8040B43F81E
:10561000040B8A42F9D1032384F8203C2B7884F8C8
:10562000243C6B7884F8253C2B7984F82E3CAB78AD
:1056300084F8343C002384F8353CEA7884F8362C2E
:10564000AA7884F83B2C84F83C3CEB7884F83D3C09
:10565000842384F8323C012384F88C3C41F2F043EB
:1056600048F20341E15241F2F2430422E25484F849
:10567000392C41F2FC43A968E150822527E000BFA4
:10568000941400201CCF0508E4CE05080002010296
:1056900036CE05084DCE050870200020B22000202F
:1056A0008FCE050812010002C14B0CF6C53C03F178
:1056B000140253F8041B4CF8041B9342F9D11A88C6
:1056C0009B78ACF800208CF8023001222025DFF80E
:1056D0002CC3B84BDCF80410DCF80000A4F82E5200
:1056E00003C318F0010F84F8C02B9CF8081003F8CE
:1056F00008191EBF832284F88D2C03224FF000016D
:1057000018BF84F88E2CAB4A84F8BE5B84F8BF1BAC
:105710002B44934200F23482BBF1000F05D1A64B1B
:105720000093CDF82CD04FF0010BBBF1020F28BF36
:105730004FF0020BA14B0B99A14883F800B04FEA40
:105740008B0236F0C5F99F4B9F49A04800221A8072
:105750009F4BC3F8A41A9F4908F03006302E14BF9F
:1057600006460E46BAF1010F9B4640F05F829A4D05
:105770009A49C4F824520623C5E900134023C5E919
:1057800004234FFA88F39342B4BF00230123944CBF
:10579000EB6003230221934885F8B9330C23C5E954
:1057A00008222A63AA62EA616A63EA62A961C5F80B
:1057B000EC9303F0ABF9A3688B4843F04053A3602C
:1057C00000220C23022103F0A1F9A36843F0404317
:1057D000A360864B196D21F080411965196D002277
:1057E00041F00051196501921A6B42F000521A63A0
:1057F0001B6B03F000530193019B7D4B602283F8E8
:105800004D234D200AF062FC2C68A36823F00103AD
:10581000A360AB69012B40F0C181A36B23F48033FB
:10582000A363E36823F4840323F04003E360E368A5
:1058300023F44013E3606B6B012B02BFE36843F476
:105840008013E360204603F0AFFC2B69012B07D1E6
:10585000A36843F00603A360A36843F02003A3609A
:105860002B68DA6822F0C042DA60DA6842F08042DF
:10587000DA60322003F05EF8574B00211A4601240B
:10588000084682F83810D18701310F29C2E910008B
:1058900082F8394082F83B00D06402F11C02F0D15A
:1058A00000222C68114602F1400083F8F821DA87C3
:1058B00004EB800001320F2AC3E9801183F8F9114B
:1058C00083F8FB11C3F80C12416003F11C03EAD109
:1058D000EB6A002B40F06D81A36B43F40013A363CC
:1058E0000023C4F8003ED4F80038C4F80038AB698F
:1058F000012B04F5006840F06581EB68002B40F057
:105900005C81D4F80038C4F800381021204603F038
:1059100015FE204603F002FE00234FF0FF32C8F8C8
:1059200010301846C8F814304FF0904CC8F81820C2
:105930004FF0FF0EC8F81C3004F5106269688B4206
:10594000C0F04581002204F5306310464FF0904CC2
