:020000040800F2
:10000000F8FF012041C60508FFCA0508EDCA05082A
:1000100001CB05080DCB050819CB05080000000031
:1000200000000000000000000000000025CB0508D3
:1000300027CB050800000000C5CC05083191020857
:1000400001000208A9CB0508B5CB0508BDCB050802
:10005000D14A0208010002087F55020879550208BA
:10006000735502086D550208675502080D8E020887
:10007000FD8D0208ED8D0208DD8D0208CD8D020890
:10008000BD8D0208AD8D02080100020801000208C2
:100090004D5602083D5602083156020843550208E3
:1000A000D1CB0508D7CB0508E9CB0508EFCB050870
:1000B000F5CB0508FBCB050801CC050801000208BB
:1000C0000100020801000208010002080100020804
:1000D0000100020851CC050857CC05085DCC050885
:1000E00019550208AFCB0508010002082DCC050800
:1000F00033CC05084BCC050845CC05089D8D02087E
:10010000010002080100020809CC050801000208EC
:1001100063CC050869CC050821CC050827CC050867
:100120008D8D02087D8D02086D8D02085D8D02089F
:100130004D8D0208000000000000000001000208D0
:10014000215602081156020805560208010002084D
:100150003D8D02082D8D02081D8D02086FCC05080B
:10016000BD6E0208456E0208010002080100020887
:1001700035CB050829CB0508000000000000000071
:08018000010002080100020861
:020000040802F0
:10000000FEE70000094B1A68D36823F0A003D36011
:10001000074B1868D168890601D500207047196818
:10002000091AB1F57A7FF5D90320704788000020BE
:10003000B02A00200A4B1A68D368580601D5002060
:1000400070474FF0FF33D360064B1868D1684906FC
:10005000F5D41968091AB1F57A7FF7D903207047EA
:1000600088000020B02A00202DE9774105688DF82E
:1000700007102C68D5E9010C1646E4B9D0E9033223
:100080001B049361EB686046D3F804800DF107020E
:1000900023460121C047EB68A868D3F804803246A4
:1000A00033460121C0476B68D3E903322046936190
:1000B00003B0BDE870811346DCF80C409DF80710D2
:1000C0000122A047F4E70000074B1B681A68012AC9
:1000D00013B507D19A68CDE90001146858686A46DB
:1000E0000421A04702B010BD4C0500204269012345
:1000F00003FA02F13D4B30B5D3F8004244F001045D
:10010000C3F80042D3F8004224F47C54C3F8004200
:10011000D3F80042456A44EA0524C3F80042D3F804
:100120001C5225EA0105C3F81C52C569CC43002DB9
:1001300035D1D3F80C522540C3F80C52D200C56813
:10014000838802F1804202F5C84243EA0543C2F8BF
:1001500040328568038843EA0543C2F84432836924
:10016000224AABBBD2F804322340C2F804320369FE
:1001700093BBD2F814321C40C2F81442036A1B4AE3
:10018000012B02BFD2F81C320B43C2F81C32D2F84A
:10019000003223F00103C2F80032002030BD012DEF
:1001A000DDD1D3F80C520D43C3F80C520368858897
:1001B00045EA0345D30003F1804303F5C843828930
:1001C000C3F84052856842EA0542C3F84422C6E7B4
:1001D000D2F804320B43C8E7012B01BF034AD2F81F
:1001E00014320B43C2F81432C8E700BF0064004069
:1001F000054B016810B51C680A68920703D41A6899
:10020000121B0A2AF8D910BDB02A002082B00023A0
:100210000193064B5A6C42F480725A645B6C03F48F
:1002200080730193019B02B0704700BF0038024009
:1002300073B50023A1F11005019390F83C30022D15
:100240008CBF01240724012B2FD00123092980F81A
:100250003C308EB203682AD906EB4602D3F80CC0B4
:100260001E3A4FF0070E0EFA02FE2CEA0E0CC3F8EF
:100270000CC0D3F80CC004FA02F242EA0C02DA60B5
:100280005A6B22F01F025A635A6B32435A631C4A5C
:10029000934207D112291CD1D2F8043343F48003CE
:1002A000C2F80433002380F83C3002B070BD1A69F4
:1002B00001EB410E4FF0070C0CFA0EFC22EA0C0287
:1002C0001A61D3F810C004FA0EF242EA0C021A6165
:1002D000D6E7012DE6D80B4A5368102943F40003F2
:1002E0005360DFD1084B094A1B68B3FBF2F20A23C3
:1002F00053430193019B002BD4D0019B013BF8E7B2
:1003000000200140002301400000002040420F0077
:1003100010F4FF7F02BF024B0422C3F8002E704787
:1003200000E100E04068162809D8064A0123116957
:10033000834021EA0301116111690B431361062017
:10034000704700BF003C01404368162B0AD8064A9C
:10035000D25C02F1047202F59E3203EBC2039B00F1
:1003600001221A60062070471B05002040684000EB
:1003700040F00100704730BF06207047032910B5D8
:10038000044615D112F0010008D0A369D968890785
:1003900004D1186910F0030018BF0120530706D5D7
:1003A000A3699B6813F0E05F01D040F0040010BD2A
:1003B00016221A604FF0FF30F9E7437B13F0010378
:1003C0000ED083699A6951070CD49A6992070BD4AD
:1003D000986900F001000130400040F001007047D2
:1003E0001846F9E70420F7E70320F5E700B58BB0DE
:1003F00000236846CDE90033CDE90233CDE904316D
:10040000CDE90633CDE90832FFF770FE0BB05DF899
:1004100004FB09B9C08B704701290CBF808B0020F9
:100420007047000030B50A4CEFF3108372B690F8B5
:100430005150012D03D183F31088002030BD30BF0F
:1004400083F3108823685B1A9342EDD30320F5E70A
:10045000B02A0020074B10B51C6890F83D20202AD8
:1004600001D1002010BD1A68121B8A42F5D3032067
:10047000F8E700BFB02A00200F4900F1404370B5F3
:10048000A3F5A8430C680D4D9A0A036813F4007392
:1004900005D1026822F00102026018460BE00B68E9
:1004A00035F812601B1BB342EFD3036823F001033E
:1004B00003606FF06D0070BDB02A0020FC000020CA
:1004C0000D4A00F1404370B5A3F5A84315680B4EE3
:1004D0009B0A44690C4201D000200BE0146836F8F6
:1004E00013C0641B6445F4D3036823F00103036065
:1004F0006FF06D0070BD00BFB02A0020FC0000202E
:100500002DE97F4F0C9E01901D46002390468946A1
:100510001A4643452AD1019B5C682368D80706F038
:10052000010A06F0020EC6F3400C13D4A369D907E2
:1005300010D57B4B04F14040A0F5A840196A800A11
:100540004FF4001B0BFA00F001431962196A21EA0B
:1005500000001862BAF1000F0DD0BEF1000F0AD1F1
:100560006FF01501084604B0BDE8708F55F83310E0
:1005700001330A44CDE7C4F808C02368029243F06F
:1005800001032360236843F4807301212360204624
:10059000FFF796FF029A0146002836D14AEA490140
:1005A0002161204640F20241FFF78AFF029A01468C
:1005B00058BB63695B0509D5236843F40073236066
:1005C0002046FFF759FF6FF01201CBE7BAF1000F99
:1005D00005D0012A23680ED823F480632360A36921
:1005E00006F0010308354FF0000B0293B8F1010843
:1005F0000ED25946B6E7022A04D143F400632360C1
:100600002368E9E743F48063E8E70029E8DAA9E72B
:10061000019B55F8086C5C68029B55F8049CA2EBA2
:10062000060A002B43D0002E9AD0BAF1010F97D0C2
:10063000012A16D1236843F4007340212360204629
:10064000FFF73EFF014648B9236989F80030BAF147
:10065000000F63D12046FFF70FFF0146002948DA5B
:1006600080E7B21A0232042120460392FFF728FFE6
:1006700001460028F2D1039AB2420AD1236843F41A
:1006800000732360236989F80030236989F80130F9
:10069000DDE70AEB0601032902BF216821F480612E
:1006A0002160216909F8011B013EDCD1CFE74FF43D
:1006B00090612046FFF704FF01460028CED1029A40
:1006C000964201D1314611E019F80210216120460D
:1006D00040F204410392FFF7F3FE01460028BDD12A
:1006E0006169039A11F4806F07D01146BAF1000FC7
:1006F00005D08B440835524678E70132E0E7A3681D
:10070000002BF6D02368039143F400732360204646
:10071000FFF7B2FE03990028EBD09EE70021E8E73F
:1007200000380240124B1A8892B202B310F0060F42
:100730001DD1C0F3C0001A5CCAB11A5C0132D2B23A
:10074000082A1A5413D90B4A0B49126851F8201081
:100750000A400AD11A54094B1A6B18B922F4001234
:100760001A63704722F48002FAE701221A54704794
:10077000E8000020E4000020C4DE05080038024044
:100780002DE97841194C4FF0030804F5FA76A4F1ED
:10079000080554F8043F1A071AD1D5F8B422981A5C
:1007A000C0F3011193424FEA901C4FEA41014FEA16
:1007B00010100DD3D5F8B822934209D2D5F8A8224B
:1007C00012F80CE04EFA01F303F00303012B03D0FF
:1007D000A642DED1BDE8788108FA01F141EA0E01B6
:1007E00002F80C103AF000FDF2E700BF5C010020B7
:1007F000054B994202D105493AF0EEB8D1E90123FF
:1008000003493AF0E9B800BF0C0D0608B4D4050856
:10081000BCD405084A6801493AF0DEB8D4D40508CA
:1008200038B5114D114C2A68114920463AF0D4F8D8
:100830006A68104920463AF0CFF8AA680E49204667
:100840003AF0CAF8EA680D4920463AF0C5F82A6934
:100850000B4920463AF0C0F86A690A4920463AF046
:10086000BBF8062038BD00BF003C01406CF0050815
:10087000E5D40508F6D4050807D5050818D50508F8
:1008800029D505083AD505084B6813B55A68DB69C0
:1008900013F4004F0CBF0C4C49F6404402F03F02E9
:1008A0006243C3F30B038C68B2FBF3F30193CB6891
:1008B000064A5B6800938A1A121163680449013280
:1008C0003AF08AF802B010BD20A1070038E105080F
:1008D0004BD505084B7BDB0737B50A7B044605D4AF
:1008E000144903B0BDE830403AF076B8086AB0F178
:1008F000804F19D0B0F1004F19D040F2813340F24F
:100900009925002808BF2B468969096811F0400F16
:1009100040F22D2118BF4FF4757100912046064911
:100920003AF05AF803B030BD4FF42373ECE74FF4BC
:100930006073E9E76CD5050874D5050830B44B68D9
:10094000134A196893F83D4091420CBF03220022DC
:100950001CB930BC0F493AF03FB8DB68FE2B12D10E
:100960004C68CB69C969090454BF0B4949F6404139
:1009700004F03F044C430949C3F30B03B4FBF3F306
:1009800030BC3AF029B88B680549C3F34603F7E752
:10099000005C004095D5050820A107009DD50508FD
:1009A000C2D505082DE9734F364C237F012B8146B4
:1009B0004FF0020520D022686577012323779368E2
:1009C000067890F801B013F0400308BFC370CA2145
:1009D000837890F803805162532151620193FFF7AD
:1009E00029FB019B054658B12368FF225A62042364
:1009F0006377002323770125284602B0BDE8708F76
:100A000018460BF00FF940EA084830460BF00AF997
:100A100048EA004858460BF005F948EA0023D4F8A4
:100A200000A003F07F3323F0FE43CAF80030DAF869
:100A3000083023F48023CAF80830D9E90331DAF802
:100A400008200B431343CAF80830DAF80C3023F0BF
:100A50008003CAF80C30DAF808309B0609D4FFF797
:100A6000D1FA30B12368FF225A62042363772577D5
:100A7000C1E72368FF225A620123637700232377AB
:100A8000BAE700BF880000202DE9704F2E4C237F6D
:100A9000012B4FF0020521D001236577237743789E
:100AA00090F803A090F802800678DA0642BF23F09F
:100AB00010030A334370236890F80190CA225A62E7
:100AC00053225A62FFF7B6FA054650B12368FF2257
:100AD0005A62042363770023237701252846BDE863
:100AE000708F40460BF09EF840EA463850460BF0B7
:100AF00099F848EA004848460BF094F848EA002084
:100B0000D4F800B020F07F4020F0C000CBF8040003
:100B1000DBF80C3023F08003CBF80C30DBF8083026
:100B20009B0609D4FFF76EFA30B12368FF225A62A0
:100B3000042363772577D0E72368FF225A620123D5
:100B4000637700232377C9E788000020014B1868EA
:100B50002AF06ABF3805002008B50346407B10F034
:100B6000010001D12EF0CCFC9B691A6842F0010211
:100B70001A605A68D107FCD51A6822F001021A607F
:100B80005A68D207FCD4062008BD000008B52EF034
:100B9000B1FE044B1B68181A034B03EA400040F0F7
:100BA000010008BDB02A0020FEFFFF7F10B50446FB
:100BB00008462EF09FFEA36910F0FF0F0CBFDB6804
:100BC0001B6903F00303002B14BF1E200E2010BD71
:100BD00013B50C4C246824680B4600F07F4164B9BF
:100BE000002914BF13210321019200220092024622
:100BF00004480FF00FFD02B010BD002914BFEC2116
:100C0000EB21F1E74C050020FF292DE9734F044645
:100C10000E4601EB020902D9B9F5045F08D904F2C6
:100C2000BD1400254FF0FF084E4565D100263CE07D
:100C3000EFF3118A602383F312885FEA42284FD0D2
:100C4000724E3046A1F580750FF0DEFD3368D3F8A3
:100C5000109009F580536D021B680193B34243D194
:100C600041F2040259F802104A1C3DD0B1EB153F85
:100C70004FEA153038D308F1FF322A44B1EB123F66
:100C800032D881421AD94FEA013B2246C5EB0131E5
:100C900028460091FFF79CFFDDE90013064640B1AE
:100CA00018460FF0A0FD8AF31188304602B0BDE867
:100CB000708FA8EB0B08A8440C445D46C5F30B01EC
:100CC000C1F58056464528BF46463246494420462F
:100CD0003BF006FDB8EB060804D14C480FF083FD4D
:100CE0004646E0E734443544224641462846FFF76D
:100CF0006FFF06464548D4E76FF4DE73E018002E18
:100D000078D1A4F5DF7303F8015F9C42FBD1012386
:100D10006371A3722023A3735523657084F8028046
:100D200084F8038084F8048084F8068084F80780BF
:100D300084F808806572E57225736573E573257420
:100D40006574A574E57425756575A575E5752576D5
:100D50006576A576E57625776577A577E57784F8D6
:100D6000205084F8215084F84130AA2384F822507E
:100D700084F8235084F8245084F8255084F82650B1
:100D800084F8275084F8285084F8295084F82A5091
:100D900084F82B5084F82C5084F82D5084F82E5071
:100DA00084F82F5084F8305084F8315084F8325051
:100DB00084F8335084F8345084F8355084F8365031
:100DC00084F8375084F8385084F8395084F83A5011
:100DD00084F83B5084F83C5084F83D5084F83E50F1
:100DE00084F83F5084F8405084F8423004F5007491
:100DF000013619E7FF2E05D84FF4007200213BF0B1
:100E0000B5FCF3E76FF004064FE700BF4C05002088
:100E10002DE9704F4C4E356890F83D3086B0202B50
:100E2000CDE90212044603D0022006B0BDE8708F5F
:100E300046490095192301220BF05EFC0028F3D1EE
:100E400094F83C30012BEFD0012384F83C30236828
:100E5000DFF8F8B01A68D2075EBF1A6842F00102E4
:100E60001A601A6822F400621A60242384F83D3064
:100E700000232364A3F58033E3624FF001094FF0B0
:100E8000A00A2268136843F4807313604FF00111C5
:100E90000095C823002220460BF02EFC18B1032039
:100EA000C3E79946EDE723689DF808201A61356885
:100EB0005869596994F83D20C0F34000C1F380217E
:100EC0000143D2B201D1A02A20D14FF0200884F8EA
:100ED0003D805A6912F0020F1A6842F400721A60DB
:100EE0001BD0002205925A6905929B690593059BC8
:100EF000164900951923012220460BF0FDFB00281E
:100F0000CDD184F83D8084F83C008EE73268521BD6
:100F1000C82A88BF84F83DA0CAE76FF480625A618E
:100F2000594600951923012220460BF0E5FB0028C5
:100F3000B5D1039A914509F10103B2D184F83C007F
:100F400084F83D80012070E7B02A002002001000E4
:100F500070B55A4C656962696B0522F45F42626143
:100F600002D5574820F0F0FDAE0710D56569A66997
:100F7000544C04F1280020F0E7FD70073AD5012118
:100F800004F1280020F0C0FD022384F8283029064F
:100F90000ED54C4E042106F1280020F0B5FDB36BB0
:100FA000344673BB052386F8283008B9434B1861D3
:100FB0006A060FD5434C082104F1280020F0A4FD57
:100FC000A66B2346002E40D1062384F8283008B9AA
:100FD0003A4B1B69EB060CD5384C394863692368DA
:100FE00023F48063236020F0AFFD236843F4806323
:100FF000236070BD022104F1280020F085FD032349
:10100000C3E796F82830042B0BD1D6E90C12B1FBBC
:10101000F2F302FB13133363402106F1280020F0A2
:1010200073FD94F82830226BA16B052B1CBF0523A0
:1010300084F82830531C23638A5C616B8B4224BF85
:10104000002323631D4B1A61B2E71C4A94F8281051
:1010500012690329D2B220D1042184F8281000217A
:10106000216394F82A1084F8291093F8291009B301
:10107000186B013942EA0022C9B21A6383F82910B9
:101080000029A7D1586BB2FBF0F100FB11221A63C3
:1010900040210B4820F038FD9CE70429E5D0196B6E
:1010A000481C18637254D3E90C12914224BF0022E9
:1010B0001A638FE7062183F82810F0E7005C0040F0
:1010C0002C0100200401002008B50846114600222A
:1010D0002EF060FA004808BD100F06082DE9784789
:1010E0008846404611462F4A1E462EF053FA2E4996
:1010F0004C202DF03BFF044630682EF0FBFBB8F18E
:10110000010F05460CD970682EF0F4FB8046AB1F2A
:10111000062B3BD8DFE803F03F3A073A423A380063
:101120004FF0FF38F3E74FF00076DFF88CA0002592
:101130004FF0010909FA05F313EA080F07D05AF82E
:10114000250020B100231A46032108F0CBF8013511
:10115000102DEFD1154B6360FFF758F801220023E3
:101160002262A26102F17062C4E90933C4E90B236F
:10117000C4E90433E660E361A3606363201D0FF0FC
:10118000A1F92046BDE878870026CEE7084909483E
:101190002A462EF0BDF94FF04076C6E74FF0807634
:1011A000C3E700BF040002001C0B0608002001403A
:1011B000E7D505081CF105089407060870B50D462B
:1011C0000446FFF735F80FF01DF92046FFF710F839
:1011D0002368DE6C0FF0FBF8122D01BF034A536841
:1011E00023F480035360304670BD00BF00230140EC
:1011F00010B5044608462EF07DFB1028024605D0A7
:10120000122803D9054906482EF082F9201D1146FF
:10121000FFF7D4FFBDE810402AF006BCF6D505085C
:101220001CF1050810B50446FFF7C8FF23685B688A
:1012300003F04073B3F1007F0BD0B3F1407F0AD0CD
:10124000B3F1807F14BF0C230A23C3F10C03984031
:1012500010BD0823F9E70623F7E7000008B51221BF
:101260000430FFF7DFFF094B9FED097A93ED000A89
:10127000430007EE903AF8EE677ABDE8084067EE63
:10128000877A27EE800A2AF063BF00BF040000209F
:101290006740533A08B510210430FFF7C3FF124BE3
:1012A0009FED126A1A88124B07EE100AD3ED007AEE
:1012B000104BF8EEC76A07EE102A1B88B8EEC77A03
:1012C0009B1A96EEA77A07EE903AF8EEE77ABDE819
:1012D0000840C7EE866AF3EE0E7A87EE260A30EEF5
:1012E000270A2AF035BF00BF2C7AFF1F0000A0425A
:1012F000040000202E7AFF1F08B51121FFF792FF8E
:101300000A4B1B8807EE900A00EE103AF8EE677A57
:10131000F8EE406A064B86EEA77AB8EEC00ADFED1B
:10132000057A83ED007A20EE270A08BD2A7AFF1F8E
:10133000040000206740533A08B50430FFF7DCFF93
:10134000054BDFED067A93ED000ABDE8084020EE7C
:10135000270A2AF0FDBE00BF0400002033335340AB
:1013600008B50430FFF7C8FFBDE808402AF0F0BE1A
:1013700008B581680C30FFF721FFBDE808402AF06E
:1013800053BB00002DE9F04F8DB000AF0D46144661
:1013900007F1140107F10C022EF0C4F807F108025E
:1013A00007F1100128462EF0BDF87B6913B95348A8
:1013B0002EF0A6F83A69934201D05148F8E7BB688D
:1013C0000622186807F1180128F092FF97F82010FC
:1013D0000022402022F096FC3B699B00073323F05B
:1013E0000703ADEB030D0646EA4600253B699D4227
:1013F00007D320462DF016F9424B834218D04248BD
:10140000D6E7BB68062253F8250007F1240128F02F
:101410006FFFFA69BB6A9A4203D13A6AFB6A9A4241
:1014200001D03A48C4E77B6A4AF825300135DDE748
:10143000FB681D6805F10C08A9684046FEF7F8FE38
:101440000EF0E0FF4046FEF7D3FEEB68DB6C23694D
:101450006FF001021A611A69D007FCD56FF0010123
:1014600019614FF00008FB693960B3FBF6F34FF0E8
:10147000010B7B607B6898450DD1FB6818680C30C8
:101480000EF0A5FFBBF1000F14BF1E200E20343755
:10149000BD46BDE8F08F23691969C9070CD41969E5
:1014A000CA07FCD53A681A6100257B69F968AB4226
:1014B00005D808F10108DDE74FF0000BF2E751F81D
:1014C000259009F10C00D9F80810FEF7B1FED9F803
:1014D0000C30996841F080419960FEF789FED9F897
:1014E0000C305AF82510DB6C97F82000012E08BF4D
:1014F0001B09424623F070FC0135D6E709D60508E2
:1015000015D60508CC1106083AD6050828D60508D0
:1015100038B5124D30B9D5F8A441002C08BF0624C7
:10152000204638BD0C68062C08D1D5F8A421002A25
:10153000F6D000239372C5F8A431F1E720462DF0D0
:1015400071F8074B834205D10123C5F8A441A3726A
:101550000624E5E703482DF0D3FF00BF5401002027
:10156000F8EE050844D6050870B51C460846114635
:101570004FF002122EF00EF82668F10705D4B207DC
:1015800030D13268274B9A422CD130462EF0B2F936
:101590001028054634D154203AF0C8FE00210446F4
:1015A000442210303BF0E2F81F4BA560C4E900363E
:1015B0001E4BE360FEF72AFE01220023A262226294
:1015C00002F17062C4E90B33C4E90D23C4E90633A8
:1015D000636163622361E36304F10C000EF072FF48
:1015E000204670BD304607F059FC837A9B0704D42F
:1015F00042680F490F482DF08BFF8568C5F304350D
:10160000122D02D90C492A46F4E70F2DC3D80B4BF3
:1016100053F825000028BED000231A46032107F006
:1016200061FEB8E7C4F20508380B06080020014047
:101630004DD605081CF10508F6D5050894070608DF
:1016400038B50D460446074938F042FF6968204620
:1016500000222DF035FEAA6803492046BDE8384037
:1016600039F0BAB954D60508D8A8060813B5194BED
:101670000124E0B100221A6000230193164B1A6C7A
:1016800042F080521A641B6C03F080530193019B5B
:101690000AF064FF114B124918680A68D20509D58F
:1016A0000D4B1A6F7CB142F001021A6706E01C6014
:1016B0000446E1E71A68121A022AEED9094B012200
:1016C0001A7002B010BD22F001021A671A6F22F0E0
:1016D0000402EAE7800E474200380240B02A0020A8
:1016E000007000403C050020022310B580F8543003
:1016F00000231F4A80F8543080F8553083699342A4
:1017000004461BD114200BF0A5F915200BF0A2F90B
:1017100016200BF09FF9174B1A6A42F000721A62FA
:101720001A6A22F000721A621A6C22F000721A64AD
:10173000637B6FF300036373062010BD0E4A934270
:10174000F6D140200BF086F941200BF083F94220BE
:101750000BF080F9074B1A6A42F080621A621A6A2B
:1017600022F080621A621A6C22F08062DFE700BF0A
:1017700000640040003802400068004010B52EF0C0
:10178000B9F8044607F0B4FC034B001B03EA400021
:1017900040F0010010BD00BFFEFFFF7F08B52DF037
:1017A000DDF8024B1860062008BD00BF502B00205A
:1017B0004368186807F041BF08B54368186807F028
:1017C0003CFF062008BD00002DE9704797B006AB2E
:1017D00051F8046B0193994B0093013806232FF0C5
:1017E00015F8099802AA05A92DF09CFE0A9818B1CF
:1017F00003AA04A92DF096FE079B012B00F222817B
:10180000059A042A40F07481002213929DF82C203E
:101810000A9C002A00F0B180002C00F0A880039AF6
:10182000106893B92EF066F8039B0028586814BF1F
:101830004FF002084FF000082EF05CF80224002858
:1018400040F099808146A24623E02EF053F8039B96
:101850000028586814BF4FF002084FF000082EF01F
:1018600049F8039B0028986814BF4FF0020A4FF014
:10187000000A2EF03FF8039B0028D86814BF4FF0F1
:1018800002094FF000092EF035F8002814BF022499
:101890000024029B18682EF02DF8029B054618685C
:1018A0002EF028F86D13C0F3C23005F4C065029B1A
:1018B000054345EA0805586845F008050D952EF0E2
:1018C00019F8029B804658682EF014F84FEA6838E1
:1018D000C0F3C23308F4C06848EA030343EA0A03CA
:1018E00043F008030F93029B98682EF003F8029BC5
:1018F000054698682DF0FEFF6D13C0F3C23005F465
:10190000C065029B054345EA0905D86845F008050E
:101910000C952DF0EFFF029B0546D8682DF0EAFFED
:101920006D1305F4C065C0F3C23005432C4344F089
:1019300008040E94079B002B7BD100231293327B6B
:10194000089B1093012A069B3D49119340F0C880E3
:101950000A78934280F0CC80012314930CA80B7872
:101960001593FEF7C3FB062017B0BDE87087A146AC
:10197000A246A0468DE7A14665E7002C53D0039A06
:1019800010688BB92DF0B6FF039B0028586814BF70
:101990004FF010094FF000092DF0ACFF1024002883
:1019A00045D10546A04621E02DF0A4FF039B002869
:1019B000586814BF4FF010094FF000092DF09AFF3E
:1019C000039B0028986814BF4FF010084FF00008E0
:1019D0002DF090FF039B0028D86814BF1025002528
:1019E0002DF088FF002814BF10240024029B1868E3
:1019F0002DF080FF029B49EA40100D9058682DF0B1
:101A000079FF029B48EA40100F9098682DF072FF12
:101A1000029B45EA40100C90D8682DF06BFF44EA19
:101A200040100E9086E72546A046A146DEE72546F3
:101A3000B8E7012B83D1012380E700BF38DD05081B
:101A4000080000209A1E012A52D8059C022C4FD172
:101A5000012213920A9A002A3FD0039A022B10689F
:101A60002DD12DF047FF002814BF02250025029B31
:101A700018682DF03FFF029BC0F34F300C901868A0
:101A80002DF038FFC200029B92B22A4342F00402BA
:101A900058680D922DF02EFF029BC0F34F300E9030
:101AA00058682DF027FFC3009BB2234343F0040383
:101AB0000F93079B022B3FF440AF032BBAE72DF0A7
:101AC00019FF039B0028586814BF022500252DF03C
:101AD00011FF002808BF0024C9E714461546C6E7D1
:101AE000022A08D10A78134411931B2B7FF634AFD6
:101AF00002482DF005FD0D2BF8E700BF5DD6050867
:101B00002DE9704187B00646D1E900800D46039269
:101B10002DF0F0FE05AB01930D4B039A00930446A4
:101B200005F10801B01E01232EF070FE98F80C306C
:101B3000022B084B04BF1A78A41808F118001A7871
:101B40002146FEF753FC062007B0BDE8708100BFB8
:101B500030DD0508080000207FB5524C844240F07B
:101B60009C80514B514800220392196C41F40001B2
:101B700019641B6C03F4000303930325039B009576
:101B80000123062107F0F1FB0123002248480095BC
:101B9000062107F0EAFB94F83D3003F0FF020BB991
:101BA00084F83C202268434E434D242384F83D3082
:101BB000136823F0010313600AF058F86368226881
:101BC000B0FBF5F5B34284BF4FF49671694355609D
:101BD00091BF691C4FF47A75B1FBF5F10131B34245
:101BE000116200F1FF303CD85B0040F6FC71B0FBA5
:101BF000F3F301330B424CD0C3F30B03D361D4E9AD
:101C000007310B431360D4E903130B439360D4E90A
:101C100005310B43D360136843F0010313602021A7
:101C20000023236484F83D10236384F83E30234B63
:101C3000197901F07F01032904BFFF2119719978F7
:101C400001F07F01032904BFFF2199701C4B9A42C8
:101C500005D148200AF03EFF49200AF03BFF002052
:101C60001DE0A16851B903EB4303B0FBF3F301336B
:101C7000C3F30B037BB143F40043BFE719214B438C
:101C8000B0FBF3F30133C3F30B0323B143F440433D
:101C9000B4E70423B2E70123B0E76FF0150004B006
:101CA00070BD00BF340000200038024034F8050841
:101CB000ECFE0508A086010040420F00EA0000206B
:101CC000005C004070B5054608466B68DB68FE2B7B
:101CD00002D00A482DF00CFC2DF00CFE44000A2620
:101CE000A4B268680A222146FFF792F818B1013EB3
:101CF000F7D10E2070BD1E20FCE700BF74D605088A
:101D00002DE9704791B004AB51F8044B01936D4B32
:101D10000093013803232EF079FD9DF81060012E09
:101D200002D900202DF0E4FBDDF81890A569002E03
:101D30003CD10C35644BD3F800A098462B689B0728
:101D400036D0A16901EB06133201D3F8B00100F0DF
:101D500004000990002838D1D3F8B001400D079055
:101D6000D3F8B00100F002000A90D3F8B401D3F820
:101D7000B431C3F307230E938B1800F00F00D3F890
:101D8000B821D3F8BC310B900C920D932B6843F023
:101D900020032B600B9AEEB1A368062B1DD00B69B4
:101DA000E17B03F0030304F10F0049E01035C1E7C4
:101DB00001202FF001FE30BFD8F80030A3EB0A035A
:101DC0009945BBD86E202DF0F5FAD3F8B001C008C4
:101DD0000890C5E76368062B2CD1059C062C49D1D9
:101DE00000210520039223F0CFFF039A044600F15F
:101DF000080511460CA825F09FFBA061099A002A4E
:101E00005DD1079B5B0043F00103042A2B600CBFEC
:101E10001E230E236B600A9B022B0CBF1E230E2376
:101E2000AB600E9B5B0043F001032046EB6011B0FA
:101E3000BDE87087CB68A17B03F0030304F10E00BB
:101E400001290ED00239012901D801210170A069B0
:101E5000416956B9002B0CBF0E230C230B43436181
:101E6000BBE7002BF3D10370F1E7002B0CBF70230D
:101E70006023F3E7A0077FF454AF2168134B994226
:101E80007FF44FAFA368042B02D800202DF038FB5D
:101E9000E5682B6999077FF444AF18680C498842BC
:101EA0007FF43FAF1979812903D041F02001E22965
:101EB000EBD1D8689A600CA93AF012FC9EE7089B17
:101EC000A0E700BF18DD0508B02A0020ECF20508E5
:101ED0001CF305082DE9704392B006AB51F8044B92
:101EE0000193694B0093013805232EF08FFC02AA61
:101EF000069803A906F0B6FF049A082A02D9634897
:101F00002DF0FEFA9DF82810079B0F9219B323F0CD
:101F100060430C9304230D939DF82430002B0CBFD9
:101F2000002302230E93039B10A91A44934217D156
:101F30000BABA364A369DDF820C09A6850017CD480
:101F40009A68110100F193809A68D20000F195809F
:101F5000022007F03BFAC3F30A030B930D91DBE772
:101F600013F8010B01F8010BE0E70B98D2F8808120
:101F70004EEA405040EA0800C2F88001D2F884E1FD
:101F80000F982EF00F0EC2F884E1D2F884E100F031
:101F90000F001E440F9040EA0E00C2F88401109812
:101FA000C6F888011198C6F88C01D2F8800140F07B
:101FB0000100C2F88001BCF1000F0FD03448DFF8F7
:101FC000D4E00668DFF8D080DFF8D0909A6861BB73
:101FD00039EA020214BF012200221AB9062012B007
:101FE000BDE87083BCF1FF3FF0D00268921B9445BE
:101FF000ECD299B980229A60E4B2012202FA04F488
:102000009A6834EA0202FBD19A68EDB2012303FA1E
:1020100005F535EA0203E1D003209AE701290CBF58
:102020004FF400424FF40002E5E7012902D138EAFB
:102030000202CFE73EEA0202CCE740F201554FF43C
:10204000A064002103EB01120E01D2F8800100F020
:102050000100C2F88001DDE90D0E002885D040EABC
:102060000E0E0C98D2F880814EEAC00082E740F252
:1020700009554FF4A1640121E4E740F211554FF4F2
:10208000A2640221DEE700BFF0DC050886D6050861
:10209000B02A002000000310000300080300000421
:1020A000012838B50C6843D1082029F0E7FA034627
:1020B000A069DD688269D10B01F4FF7141F0010173
:1020C0002960120ED968520042F001024A60228A49
:1020D000D968520042F001028A60628AD9685200CF
:1020E00042F00102CA60A28AD968520042F001029D
:1020F0000A618268D968120E02F01C04144A224157
:10210000520002F01E0242F001024A61C268D96820
:10211000520002F0060242F001028A610269D968A7
:10212000520002F0060242F00102CA61184638BDB0
:102130004B6813F0030003D11968064A914202D09C
:1021400000202DF0D5F99A68072AB1D82DF0D8F9DA
:1021500023121201ECF205084368DB68FE2B70B510
:10216000064602D00B482DF0C3F9002029F086FA6C
:102170001024054670680122A1B2FEF749FE20B97D
:1021800044F00101284628F052FA0234F02CF1D133
:10219000284670BD74D6050808B500F00703022B69
:1021A00005D083070AD102680B4B9A4206D124F06E
:1021B00071F90A4902460A482DF0AAF92DF09AFB56
:1021C000411E0529024604D80C234B430549CB5830
:1021D0000BB90549EFE708BD80F3050893D605085C
:1021E0001CF10508001206089ED605080368054A7A
:1021F000934201D109F03ABD034A9342FAD009F063
:102200001DBD00BF00380040003C00402DE970417A
:102210000D68304B90462A689A4285B0044651D0EA
:1022200003F580639A4214BF012203222A49204603
:1022300038F0D2FB95F85130002B3CD06B68B3F5E9
:10224000827F41D1EE692846FFF7D0FFF6080136BC
:1022500020FA06F2B8F1000F05D02049039220467B
:1022600038F0BAFB039A1E49204638F0B5FBB8F1A6
:10227000000F05D001221B49B240204638F0ACFBCC
:10228000E968D5E9042300290CBF08211021003B8F
:1022900018BF0123003A009118BF012212492046BD
:1022A00038F09AFBAB6AB3F5005F04D1EA6A0F49D4
:1022B000204638F091FB0E49204605B0BDE870413C
:1022C00038F006B90222B1E70A49204638F084FB0B
:1022D000D6E700BF00380040A9D60508B0D60508EB
:1022E000C1D60508CFD60508EFD6050810D70508D2
:1022F000F9190608DED6050849680022FFF786BFEF
:1023000049680122FFF782BF2DE9704F0568DDF8AB
:102310002880481CDDE9086992469B460AD1B2F143
:10232000FF3F0BD02846FFF761FF0AF1FF3420443E
:10233000B0FBFAF1022921D80023EB61BBF1FF3F8A
:1023400005D0BBF1000F0CBF002302232B61721CD0
:1023500003D0003E18BF01266E61B9F1FF3F06D0E1
:10236000B9F1100F0CBF4FF400630023EB60B8F11C
:10237000FF3F18BFC5F82080BDE8708F042901D841
:102380000823DAE7082901D81023D6E7102901D855
:102390001823D2E7202901D82023CEE7402901D8ED
:1023A0002823CAE7802994BF30233823C5E70000DB
:1023B00000B58BB00446084611461A4605AB01939A
:1023C0000A4B009305232EF021FA099B0293089BE8
:1023D0000193079B606800934FF0FF31DDE905230F
:1023E000FFF792FF16202CF0E5FF00BF20DC050868
:1023F00070B516468EB01D460C4611B11B680133F0
:102400000ED12249224838F063F80CB1013C043562
:102410002B46324621461F481DF020FA0EB070BDF3
:1024200005AB01931C4B00932A46092331462046F5
:102430002EF04AFA0598FFF7AFFE0B9B01381BB947
:102440000C9B0BB90D9A12B114482DF059F8144B8E
:1024500003EBC0004FF4827140680368C3E90112C6
:102460004FF40071C3E909229961DA620A9B029371
:10247000099B0193089B00934FF0FF31DDE9062390
:10248000FFF742FF16202CF095FF00BF1BD7050871
:102490006CF0050898EF0508D8DB05085AD7050841
:1024A00084E1050800B591B00446084611461A4675
:1024B00005AB0193174B00930B232EF0A7F920686F
:1024C000059B046863600D9B02930B9B0193099B22
:1024D0000093DDE90621089BFFF716FF0A9BA36026
:1024E0000C9BA3619DF838300F98002B14BF10236C
:1024F00000230628636205D10023C4E90A331620AD
:102500002CF058FF4FF40053A3622DF0F3F9E06272
:10251000F5E700BF80DB050808B513460A46411EF3
:1025200052F8044B201DFFF7BDFF00007FB51E468B
:102530000D46144621460F4A28462DF02BF83068E8
:10254000FFF72AFE0C4B0138012D03EBC00000D829
:102550006CB106EB85030294E40044F00704039396
:10256000321D01AB691E04300194FFF79BFF04B0DC
:1025700070BD00BFFFFF0300D80F06082DE9704FA4
:102580002DED028BB2B00468DDF8F0A006468B4654
:1025900090469946002B40F02A81012904D0EFF3A0
:1025A0001083012B40F0A68094F85030012B00F0EE
:1025B0009882012384F850309C4B1E6894F8513067
:1025C000012BDDB240F0B481B8F1000F47D01FFA03
:1025D0008BF3002B43D0032284F851200022626544
:1025E000C4E91022E386A263E287A287A268A386D9
:1025F0002368C4F83080B2F5004F02BF1A6842F475
:1026000080421A601A68510658BF1A68E1685CBFB8
:1026100042F040021A60B1F5006F62683CD11AB115
:10262000E28E92B2012A06D138F8022BDA60E28EED
:10263000013A92B2E286E28E92B2E2B90096534635
:1026400001220221204609F05BF9D0B932465146F9
:10265000204609F097F900283ED020236365012326
:1026600084F85130002384F85030002D00F03B8274
:10267000284606F0ABFE9A689207D5D4BAF1000F4F
:1026800001D10325EBE7BAF1FF3FD4D0674A1268C6
:10269000921B9245CFD8F4E71AB1E28E92B2012A8A
:1026A00006D118F8012B1A73E38E013B9BB2E38627
:1026B000E38E9BB2002BC1D023689A689007F0D4B8
:1026C000BAF1000FDDD0BAF1FF3FF1D0574B1B68D4
:1026D0009B1B9A45ECD8D4E7A36833B91A932368B7
:1026E000DA681A929B681A931A9B656D003D18BFB1
:1026F0000125B4E71AAD41682346402228460CF074
:102700002DF83368C3E91259484B1B6808EE103A9C
:10271000346894F85030012B0AD0012384F85030EB
:1027200094F85130012BDDB204D0002384F85030EE
:10273000022507E0B8F1000F56D0BBF1000F05D11C
:1027400084F850B070680AF099F98EE74FF6FF7977
:10275000D94528BFD946032384F851301FFA89F29E
:1027600000236365C4E91033E286A363E387A3878C
:10277000A368A2862268A06CC4F83080B3F5004F2D
:1027800002BF136843F480431360294B0364294B51
:10279000C363294BC36400230365E38E41469BB2A8
:1027A0000C320AF09FF823681A6851065EBF1A6857
:1027B00042F040021A605A6842F020025A605A6899
:1027C00042F002025A60002384F8503018EE101ACA
:1027D00030685246FDF726FE05460028B2D1BBEB15
:1027E000090BC84494D1ADE784F85080AAE7002AC9
:1027F00040F036810129626804D0EFF31083012B89
:1028000040F09880B2F5827F1FFA8BF316D1A26850
:10281000A2B9042284F851204946CDF800A04A46C6
:10282000204609F009F905461FE700BFB02A00203D
:102830009D810208E5B902088181020894F85020C0
:10284000012A00F04E81AA480122066884F850202F
:1028500094F85120012AD5B26AD1002B3FF4FFAE83
:10286000042284F8512000226265C4E91022E38723
:102870002263E286A286A268A3872368C4F8389000
:10288000B2F5004F02BF1A6822F480421A601A683B
:1028900052065EBF1A6842F040021A60E268C2B196
:1028A000E28F92B2CAB19A68D10735D5DA6829F8B1
:1028B000022BE28F013A92B2E287F1E723689A682D
:1028C000D5071DD51B7B09F8013BE38F013B9BB26C
:1028D000E387E38F9BB2002BF0D16368B3F5827F6F
:1028E0007FF403AFA368B3F5004F03D0B3F5806F57
:1028F0007FF4FBAE2268136823F040031360F4E614
:10290000BAF1000F3FF4BDAEBAF1FF3FE1D003686A
:102910009B1B9A45DDD8B4E6BAF1000F3FF4B1AE87
:10292000BAF1FF3FBCD00268921B9245B8D8A8E626
:10293000022594E6B2F5827F41D102AD416823467B
:10294000402228460BF00AFF33689D641AAC3368B6
:10295000B168002220460BF001FF3368DC64644B51
:102960001B6808EE103A34684FF6FF78D845A06827
:1029700028BFD8461FFA88F320BB6268B2F5827F71
:1029800020D1042284F8512049464A46204609F0C5
:10299000E7FF0546306855B918EE101A5246FDF7A4
:1029A00041FD054618B9BBEB080BC144DBD13368C8
:1029B0009B6C13B170680AF061F8B068C3E6C4F8A4
:1029C0004880C3E794F85020012A47D0012284F8B8
:1029D000502094F85120012AD5B23DD1BBF1000F0F
:1029E00036D0042284F851202168A3870022626532
:1029F000B0F5004FE387E28608BF0B68E06CA28663
:102A000008BF23F48043C4E91022C4F8389008BFFB
:102A10000B60384B0364384BC363384BC3640023EB
:102A20000365E38F4A469BB20C3109F05BFF2368D4
:102A30001A6852065EBF1A6842F040021A605A686D
:102A400042F020025A605A6842F001025A600025A2
:102A5000002384F850309DE70225F9E70225A6E718
:102A6000012903D0EFF31083012B06D1CDF800A08C
:102A70001FFA8BF34A464146D2E602AD416823462F
:102A8000402228460BF06AFE3368B1689D641AAC98
:102A9000002220460BF062FE3368DC64144B1B6896
:102AA00008EE103A4FF6FF745C4528BF5C4630686C
:102AB000A3B24A46414609F053FF054600287FF479
:102AC00079AF18EE101A30685246FDF7ABFC054698
:102AD00000287FF46FAFBBEB040BA044A144E1D10D
:102AE00068E70225C4E532B0BDEC028BBDE8708F0B
:102AF000B02A0020A1810208A38102088181020876
:102B000013B501F1640400944068FFF737FD02B08B
:102B100010BDFFF7F5BF000030B591B009AB51F81B
:102B2000045B01931F4B0093013803232DF06EFECD
:102B3000DDE90903984206A918D1072227F0D8FB3E
:102B400006A907C903AB83E80700099C0B9B009308
:102B5000DDE90621039B6868FFF710FD1CB90CA88E
:102B600023F048FF0446204611B030BD02AA06F00B
:102B700079F90A9C44B907990CA839F0E2FC0D9B3D
:102B800004930E9B0393E1E7062203A9204627F056
:102B9000AFFB049A079B9A4202D003482CF0B0FC8A
:102BA0000A9CD3E7D8DC050870D7050830B589B092
:102BB00002AB51F8045B01930D4B009301380223E3
:102BC0002DF024FE04A9029806F028F9039B009337
:102BD0000446069B059968680022FFF7CFFC1CB9E4
:102BE00004A823F007FF0446204609B030BD00BF0B
:102BF000A0DC050810B588B003AB51F8044B019375
:102C00000A4B0093013802232DF000FE039802AA1C
:102C100005A906F027F9049B00936068DDE905210A
:102C20000023FFF7ABFC062008B010BD48DC050808
:102C30000C4B4FF47A721B68B3FBF2F3013BB3F118
:102C4000807F09D2084A5360084BF02183F8231093
:102C50000023936007231360044B0020DA6883F895
:102C6000230070470000002010E000E000ED00E0CD
:102C70000028ACBF00F16040064B4FEA0111ACBF29
:102C800000F5614000F00F00C9B2B4BF195480F8DC
:102C90000013704714ED00E02DE977410546084622
:102CA00016462CF027FE10F0FF040CBF05F10408B7
:102CB00005F10808062E0FD1AA69002C53690CBF34
:102CC0006FF00E016FF070010B405361C8F80060A7
:102CD000062003B0BDE87081D8F80030062BF5D18E
:102CE00030462CF013F90028F2D0C8F800602B7B96
:102CF000012B14D1002C0CBF14201520072140B249
:102D00000190FFF7B5FF019809F0E4FEAA69002CD5
:102D100053690CBF0E2170210B435361D8E7022B7E
:102D200004D1002C0CBF40204120E7E70020E5E75C
:102D30002E4B2DE9704103EB800095B0D0F8AC41EB
:102D40000D46D4E90108164652B904F10E03804637
:102D50006A1E042A07D8DFE802F02527292F33004E
:102D600004F10F03F4E70122B8F1060F1A7020D026
:102D70002CF062FA38F0E0FB02A836F0BDFE024605
:102D800010BB6D0045F001056B46022140460094E2
:102D900001952DF0B3FF36F0C7FE38F0C5FB2CF0DF
:102DA0002BFA06E00222DFE70322DDE7A38A0133E4
:102DB000A38215B0BDE87081638A01336382F8E7AE
:102DC000238A01332382F4E77100062241F00101D6
:102DD0002046FFF761FF227B0549064837F0FCFDDE
:102DE000039904482CF08CFAD7E700BF5401002067
:102DF00084D705086CF0050810B404244C608B6976
:102E000013EA040105D0002203215DF8044BFFF70B
:102E10008FBF13F0020202D00A462146F5E7DB0716
:102E200001D50521F1E75DF8044B7047002A2DE933
:102E3000704108BF4FF0080C40F204450DBF4FF041
:102E4000020E4FF0100E4FF0400C4FF401750DBF05
:102E50004FF004084FF02008042602261ED1CC684B
:102E60002D0A022DC4F3C0041DD1CB68C3F3001397
:102E700044B34C69022E24EA08044C614FF0080464
:102E800016D1CC60CBB14B69022D23EA0C034B6108
:102E90004FF010031ED1CB6002210FE0042E0CBFB7
:102EA0000C698C69DCE7042D0CBF0B698B69DDE7CD
:102EB000042E0CBF0C614C60E4E70121BDE87041B9
:102EC000FFF736BF002BDED14C6924EA0E044C61BB
:102ED0001946F3E7042D0CBF0B614B60DCE70000E3
:102EE0002DE9704F94B00446084611461A460BABC4
:102EF0000193B64B009304F1180809232DF086FCCA
:102F000044220021404639F031FCDDF84490B9F10B
:102F1000000F3CD0129D08F0A9FE4FF47A72B9FB65
:102F2000F2F305930A236B43049003930121079264
:102F300001EB4102012506E00136082E8E440AD13C
:102F4000102D0A445FD00798AA46013568430690C1
:102F500096460126AB460498B0FBFEFCA9EB0C0C90
:102F6000BCF1000F0598B8BFCCF1000C60450BEB2D
:102F70000603E1D90698B0FBF3F0039B181A00286A
:102F8000B8BF40420428D7DCCDE90EA60C91904B87
:102F90009DF84C601E70002529463246404601359A
:102FA000FDF724FA1C2DF7D10B9B94F80C809DF8AB
:102FB00040101B0123620C9BE3610D9B013B1B0630
:102FC00003F0407363620E9B013B1B0403F4702308
:102FD000A3620F9B013B1B05002203F4E003B8F141
:102FE000010FE362C4E90C21C4E90E22C4E91022F6
:102FF000784B15D0B8F1020F00F0A380227B764900
:1030000076482CF085FA0131B1F5806F90D10A2213
:10301000039B7349B3FBF2F370484A462CF078FAED
:103020000A921A6CDFF8D0916E486F4D42F0007230
:103030001A641B6C03F000730A930A9B1626CDF8E2
:10304000008007230122022106F08FF90028D5D045
:10305000CDF80080072301220221484606F085F9B9
:103060000028CBD094F85430A56103F0FF020BB9CF
:1030700084F85520022384F854302B685B4A23F0EF
:1030800002032B602B6843F001032B6010686B6810
:1030900013F001036FD06B68D90740F19580236B63
:1030A000012B2B680CBF43F0800323F080032B60BF
:1030B000636B012B2B680CBF43F0400323F04003EC
:1030C0002B60A36B012B2B680CBF43F0200323F074
:1030D00020032B60E36B012B2B680CBF43F0100324
:1030E00023F010032B60236C012B2B680CBF43F0E3
:1030F000080323F008032B60636C012B2B680CBFC3
:1031000043F0040323F004032B60D4E908310B439C
:10311000A16A0B43E16A0B43E16901390B43EB619F
:103120002B6823F001032B6011686B68DB0742D426
:103130006B6813F0010347D1A365012384F8543071
:1031400022E00992196CDFF8B4902948294D41F02A
:1031500000711964196C01F00071099109990892C4
:103160001A6C42F080621A641B6C03F0806308934F
:10317000089B422663E71168091A0A2987D90322A6
:1031800084F8542084F855306B6943F407436B612D
:1031900070B207210390FFF76BFD039809F09AFCCA
:1031A000637B43F001036373062000232361A38242
:1031B00014B0BDE8708F13685B1A0A2BB5D90323CE
:1031C00084F854300023DDE70423B7E758DC050812
:1031D0000800002000380240DED705081CF1050871
:1031E000B8D705085CF5050800640040B02A002047
:1031F000B4F905080068004014F505086CF90508E5
:1032000010B40C4613460A1D411E20685DF8044B9D
:10321000FFF766BE2DE97047994688461546404639
:10322000364A85B029462CF0B5F9D9F8000000F0EF
:103230000703022B05D0810714D10268304B9A4254
:1032400010D123F027F92F49044639F0D5FA90B16F
:103250002D49204639F0D0FA78B12C4922462C4825
:103260002CF056F92CF046FB0646731E012B06D9AE
:1032700028493246F3E70126F7E70226F5E7264B11
:1032800006F1690A03EB8A0ADAF8084064BB2349AD
:103290005C202BF06BFE437B06736FF300034373DC
:1032A0000446CAF80800637BDB0702D52046FEF718
:1032B0001BFA0623C4E90133B8F1010F4FF00003F4
:1032C000E38100D8B5B109EB88030295ED0045F024
:1032D0000705039309F1040201AB08F1FF31204611
:1032E0000195FFF7FDFD05E0637BDA07DBD5B8F15B
:1032F000010FD8D8204605B0BDE87087FFFF030056
:1033000080F30508B7210608C0210608EDD7050897
:103310001CF10508F8D7050854010020980C060890
:1033200010B58AB00B4C03A837F0E4FE059B009360
:103330000949DDE90323204637F04EFB069A099B35
:10334000019200930549DDE90723204637F044FB4D
:103350000AB010BD6CF0050800D8050824D805088F
:103360002DE9704FDFF868B14B49DBF8B4224B48C8
:1033700037F032FBDBF8AC22920078D0DFF85491C2
:10338000DFF81881DFF850A100250EE0012E3DD0B6
:103390002E224349404637F01FFBDBF8AC320135A3
:1033A000B5EB830F4FEA830261D215F03F0610D0D0
:1033B00005F003067600DBF8A822AB08D35C43FADD
:1033C00006F606F00306022E1ED0032EDED16D2275
:1033D000DFE7DBF8A8122C46A00804F00303085C22
:1033E0005B0040FA03F39B0702D101349442F3D30C
:1033F000621B7F2A2FD805F0030676002A01494672
:10340000404637F0E9FAD6E73D22C2E7DBF8B412CE
:10341000244B2A018A589A4230D0234B9A422FD00B
:10342000224B9A4230D0224B9A422BD0214B9A42C7
:1034300028D0214B9A4229D0204B9A4226D0204BAB
:103440009A4227D01F4B9A4222D01F4B9A420CBF60
:103450004D2268229DE792095146404637F0BCFA5A
:10346000DBF8AC3224F03F05B5EB830FC6D3BDE8E3
:10347000704F16490122002036F05EBB542288E7C7
:103480004C2286E7532284E7442282E7412280E7E8
:1034900042227EE746227CE76CD805086CF00508DE
:1034A000ACD80508B4F30508ECF20508F0F10508FE
:1034B00080F30508A8F1050874F1050840F1050836
:1034C00020F2050844F205084CF3050868D8050801
:1034D00054010020A4D8050888D8050870B54668AE
:1034E000B142044628BF31460D46012138F02CFA7E
:1034F000A368681C5919721B184439F01FF96368D6
:10350000A06801336360284470BD00007FB50546A4
:1035100010200C46164638F009FF0023C0E900349D
:10352000084B0293084B0190039304AB13E90E0080
:1035300084603444C460284604B0BDE8704038F06C
:10354000A9BF00BF7D9905080DAB0508D0F84CC098
:1035500070B50CF10053446A023B04EBC30405460A
:10356000D4E9020184E80300667856B9B5F84A2028
:103570006244013A314628462FF007FB012363706D
:10358000666028464FF0FF31BDE870402EF0DEBF88
:1035900073B503681A785D88042A04BF5A6842F834
:1035A00025106A1C04465A800021B0F848202FF0EC
:1035B000ECFA02260022A06D0096334611462FF049
:1035C000B3F90022A06D00962B4611462FF0ACF9FE
:1035D00002B070BD73B504461E460D4601922FF031
:1035E00030F9019AA06D00212FF028F8A06D324625
:1035F00001212FF023F8A06D0322294602B0BDE877
:1036000070402FF093BD00002DE9704F0B4601EB89
:10361000020804460D460022984517D8002A0CBF20
:10362000272622262149DFF89490DFF894A0DFF8BE
:1036300094B03246204637F0CFF9A84510D832462C
:1036400020461A49BDE8704F37F0C6B913F8011B80
:10365000272903D02229DFD12726E3E70122DBE750
:1036600015F8012B964205D111493246204637F014
:10367000B3F9E2E75C2A04D10E49204636F028FF70
:10368000DBE71F2A03D97E2A0DD80849EEE70A2A6C
:1036900001D10949F1E70D2A01D15946EDE7092A7F
:1036A00001D15146E9E74946E0E700BFACD805083B
:1036B000AFD80508B3D80508B6D80508BFD805089F
:1036C000BCD80508B9D805082DE9734F704ADFF852
:1036D000C8A100230C684FF0010C0CFA03FC0CEAA3
:1036E00004053CEA040440F0BD804C6824F0100955
:1036F000B9F1020F16D14FEAD30800EB880803F0A6
:10370000070BD8F820604FEA8B0B4FF00F0E0EFA24
:103710000BFE26EA0E0E0E6906FA0BF646EA0E06B8
:10372000C8F82060D0F800E04FEA4308032606FA04
:1037300008F66FEA060B2EEA060604F0030E0EFAF0
:1037400008FE09F1FF394EEA0606B9F1010F0660DD
:1037500011D886680BEA060E022606FA08F646EA33
:103760000E068660466826EA0C0CC4F300169E40DE
:1037700046EA0C064660C6680BEA060B8E6806FA37
:1037800008F646EA0B06C660E6006BD54FF0000B64
:10379000CDF804B0DAF844C03E4E4CF4804CCAF880
:1037A00044C0DAF844C00CF4804CCDF804C0DDF815
:1037B00004C023F0030C0CF1804C0CF59C3C03F08E
:1037C0000308DCF808904FEA88084FF00F0E0EFA55
:1037D00008FEB04229EA0E0E4BD006F58066B042D4
:1037E00049D006F58066B04247D006F58066B04203
:1037F00045D006F58066B04243D006F58066B042FB
:1038000041D006F58066B0423FD006F58066B042F2
:103810000CBF0726082606FA08F646EA0E06CCF87C
:10382000086016686FEA050C14F4803F0CBF06EAC6
:103830000C062E431660566814F4003F0CBF0CEAC9
:1038400006062E435660966814F4801F0CBF0CEADF
:1038500006062E439660D668A40254BF0CEA0606FC
:103860002E43D6600133102B7FF434AF02B0BDE895
:10387000708F5E46CFE70126CDE70226CBE7032611
:10388000C9E70426C7E70526C5E70626C3E700BF44
:10389000003C014000000240003802402DE9774121
:1038A0000A4C05460E46904601AA05212846FCF71B
:1038B000DBFB38B9019B3340434503D0013CF3D1D6
:1038C0006FF06D0003B0BDE8708100BF41420F0092
:1038D00010B5064CD4F81832217A5B68201D984741
:1038E000D4F8240208F0D8FB002010BD6C1500208D
:1038F00010B5124C012384F80032D4F81832217A22
:103900005B68201D9847D4F8240208F0C5FBD4F862
:1039100024428CB1032384F8B933204608F0BCFB61
:10392000074B22689A4201BF064A136B23F00053EB
:103930001363002384F8B933002010BD6C150020F8
:10394000000004400038024073B50C4601A922F083
:1039500039FC019BF3B1024603449A42154606D254
:1039600012F8011B2E29F8D030390929F5D9611E2A
:103970004FF00A0C03340023854202460DD801F8AB
:10398000013F8C4211D0954211D913782E2B0ED1C4
:10399000501CF0E7236002B070BD10F8016B2E2EB2
:1039A000EDD00CFB0363303BE6E79542F3D00148D2
:1039B0002BF0A6FDC6D8050813B50C4601AA0221B6
:1039C0002BF0D4FD019B21461868FFF7BDFF019B3A
:1039D00058682BF08FFF02B010BD0000114B1B6820
:1039E0005B68C3F342320270C3F30352C3F3034173
:1039F00002EB820201EB4202C3F30031C2708A0083
:103A00001144C3F3032202EB41024270C3F30112DB
:103A100002EB820203F00F0303EB420383700020EA
:103A2000704700BF88000020154B1B689A6A4260EF
:103A30001A691B68C2F30E028260C3F3064202F0E9
:103A40004001C170C2F3011101EB810102F00F02CC
:103A500002EB41020270C3F30232C3F3032102EB13
:103A6000820201EB42024270C3F3021202EB8202B5
:103A700003F00F0303EB420383700020704700BF85
:103A80008800002030B597B06FF00403054604A805
:103A9000019336F031F8044688B9114A029502A91B
:103AA00040F2EA650220039516F010FC284616F055
:103AB000BDFD019436F038F8019817B030BD059C73
:103AC0000849206821F074FC0028F5D0204628F031
:103AD00049FE01A92BF0E6FE019B5B420193EBE757
:103AE00028EF0508F8F005082DE9704FD0F80080A0
:103AF0008AB0002343710291037901931446052192
:103B00000DF11F02404619F0F7FA9DF81F30DD074E
:103B100000F1C882580700F1C78208AA0321404675
:103B200019F0EAFA30B9089A531EB3F5004F01D2E2
:103B30001A4201D001230893019BA3B909AA0121CC
:103B4000404619F0D9FA88B9029B13F0080F099B77
:103B500014BF4FF000094FF03F094B451BD3A3EBB7
:103B6000090309932EE0B8F1000F01D1012013E001
:103B700023460122002108F1040019F048FB002827
:103B8000F4D194F8FF2194F8FE3143EA02234AF677
:103B90005522934203D00E200AB0BDE8708F019BDE
:103BA00004EB031303F5D77593F8B231002BF2D071
:103BB00005F1080011F065FB814605F10C0011F0DC
:103BC00060FB0990DDF824B0BBF1150FE3D9029B2F
:103BD00013F002030593029B2DD003F00703022B81
:103BE00000F07282029BD90740F16E824E4B4FEA81
:103BF0001B30012633F8022B12B190426FD2002203
:103C000040F6F573BBFBF6F59D429BBF05EB450502
:103C1000013502356D088CBF6D0003354FF0200370
:103C200005F2FF1504938CBF4FF0020A4FF0010A12
:103C30006D0A012317E0DA07D8D41320ACE7720825
:103C40001646BBFBF6F339489D00A3F57F43F63BD0
:103C500005F2072583424FEA55259CD8002304939B
:103C60004FF0030A202309EB030000900498DDF8CD
:103C700020E005EB000C009884440EF1FF30BAF10F
:103C8000030F6044CEF1000E08BF009900EA0E0059
:103C9000A0EB0C0001BF09181B180846009018BFC4
:103CA0002D18C9EB06108444E345FFF474AF049962
:103CB000ABEB0100C01ABAF1030FA0EB0500B0FB9B
:103CC000F6F103910DD14FF6F570814238D8002AF4
:103CD0007FF461AF012EB2D85DE77600F8E176009F
:103CE00088E7BAF1020F23D103994FF6F5708142AC
:103CF0000ED9002A40F0F6817600402E00F2E081D5
:103D0000002E3FF473AF32467AE7802EFBD942E7AC
:103D1000039940F6F570814212D8002A7FF43BAF38
:103D20007600802EECD936E7CCDE0508FFFFFE0FCB
:103D3000039940F6F57291423FF62DAF4FF0010A1C
:103D40004FF4007200212046059338F00FFDD74A4A
:103D5000059B1168216051686160A3731189927A93
:103D60002181C3F30723BAF1030F4FF00201A272BE
:103D7000E3734FF000024FF00103237414BF0B46AE
:103D80001346BBF5803FE272217366736274A374BD
:103D900080F0228184F813B0CBF3072B84F814B0A1
:103DA000F82363753F2323764FF0000BFF2349462A
:103DB00084F819B0A37684F81BB004F11C0011F04C
:103DC000C7F9BAF1030FBA4940F00C8104F143007E
:103DD00011F0BEF9294604F1240011F0B9F90223CB
:103DE00084F82C30012384F83030062384F83230F4
:103DF000802384F84030292384F84230AD4B84F886
:103E00002DB084F82EB084F82FB084F831B084F847
:103E100033B004F1470203F1100153F8040B42F8E8
:103E2000040B8B42F9D119889B7893704FF055039E
:103E3000118084F8FE316FF0550384F8FF314A4653
:103E400001232146404619F0BFF9834600287FF43C
:103E50008DAEBAF1030F41D1012309F106022146CB
:103E6000404619F0B1F94FF400725946204638F037
:103E70007DFC5223237063706123A37084F8E731C3
:103E8000039B41227221E27084F8E41184F8E51169
:103E900084F8E621591E04F5F47011F059F9022353
:103EA00084F8EC314FF0550384F8FE316FF0550380
:103EB00084F8FF3109F107020123214684F8EDB1AE
:103EC00084F8EEB184F8EFB1404619F07DF9012392
:103ED00009EB03022146404619F076F94FF40072CF
:103EE0000021204638F042FCBAF1030F40F09480E4
:103EF000F8232370FF236370A370E3702371637151
:103F0000A371E37123726372A3720F23E372012D15
:103F1000AB4628BF4FF0010B2146009A5B46404656
:103F200019F052F9014600287FF420AE4FF40072D8
:103F3000204638F01BFC009BB5EB0B055B4400935F
:103F4000E5D1049BBAF1030F18BF1E46012E35467A
:103F500028BF0125009A2B462146404619F034F926
:103F600000287FF403AE009B761B2B440093EDD119
:103F7000BAF1030F5AD0099BB3F5803F58D2BAF17A
:103F8000020F0CBF04250125019B002B52D0B8F174
:103F9000000F3FF4EBAD01222346002108F104009D
:103FA00019F035F9024600287FF4E0AD019B04EBDF
:103FB000031383F8B25101232146404619F004F956
:103FC00000287FF4D3AD00221146404619F094F842
:103FD000003818BF0120DFE5594604F1200011F038
:103FE000B7F8DDE604F1270011F0B2F8C5F30723B6
:103FF000E375802384F82430292384F826302E4B5F
:10400000A57504F12B0203F1100153F8040B42F8DB
:10401000040B8B42F9D106E7BAF1010F274920467C
:1040200018BF6FF0070111F093F870E70C25ABE7AC
:104030000625A9E7029B1B07C5D401994FF400721E
:10404000204638F093FB5523099A84F8FE31AA23C1
:1040500084F8FF31019B84F8BE3184F8C1314A44B1
:1040600043F6C163B2FBF3F2FE2384F8C331930835
:1040700043F03F03012684F8C43184F8C521494642
:1040800004F5E37084F8BF6184F8C06184F8C2511C
:1040900011F05EF8099904F5E57011F059F8019AEC
:1040A000334689E7032077E50A2075E5CAD8050875
:1040B0000000214CD6D80508EAD80508F8FFFF0013
:1040C000059B002B3FF421AE094B4FEA5B400126D4
:1040D00033F8022B002A3FF4B4AD9042BFF4FDAD9B
:1040E0000022AEE5059B002B7FF4AAAD53E500BF8F
:1040F000DADE0508012973B5056806460C4625D9A0
:104100002B6A994222D221463068019411F0C1F8FD
:104110000199044610B9002002B070BD012815D0E5
:10412000431C15D00022284611F0A2FB0028F3D131
:104130002A6AAB69911E8B4205D20133AB612B7A9F
:1041400043F001032B729442DDD3E4E70220E3E75E
:104150000120E1E72DE9704195B0494B019302211F
:10416000064611F08FF90446002838D102AD4FF011
:104170002033029380466B60C5F80730019B1B78A3
:104180001F2B25D89DF80830E52B27D0B8F1000F5C
:1041900004D008F1FF33EA5C202A3ED0002108A8B1
:1041A00008960A9111F02CF90446C0B9012108A81B
:1041B00012F0B2F800283BD10F9BB8F1000F2ED0BF
:1041C00003CD186059602988AA789A72198128E06D
:1041D00001A810F0A7FFB0F5803F04D306242046C5
:1041E00015B0BDE8708110F089FE7F2809D880B233
:1041F0000028F3D0234A12F8013B43B19842FAD188
:10420000ECE7B0F5803FE9D210F0BCFEF0E7FF2804
:1042100024D8B8F10A0F2BD9E0E79846B6E7E52293
:104220001A700123F371304610F09AFF0446D6E766
:104230000428FBD1B8F1000FD1D0012108A812F059
:10424000FBF804460028CAD1202201460F9838F016
:104250008DFA0F9B0822DA720F9BB1E7B8F1090FB4
:10426000BCD814AB4344020A03F8482C08F10108F7
:1042700014AB434408F1010803F8480C7EE700BF83
:10428000FED8050878DE05082DE9704F86B0804617
:10429000894616469A4600240DF1100B0F9BA34247
:1042A00003D8002006B0BDE8708F0F9B1D1B0E9B2E
:1042B000082D28BF0825E318CDE900A3CDE902B5F4
:1042C000331B4A46002140460EF012FD0028E9D17A
:1042D000109B29461A6858461DF0B8F8109B2C44CC
:1042E0001860DBE72DE9704F86B081468A46164696
:1042F0001D4600240DF1100B109BA34201D8002095
:104300001EE0109BA3EB04080E9BB8F1080F28BF1A
:104310004FF00808E318CDE90053CDE902B8331B8C
:104320005246002148460EF0E3FC48B90F9B424636
:104330001919584638F030FA002804D005DB02205D
:1043400006B0BDE8708F4444D6E70120F8E70000CE
:104350002DE9704F2DED028BAAB000249A46BDF8CE
:10436000DC300493CDE90A44BDF8E030069308EE52
:10437000100ABDF9E43005938B461546A146504618
:104380000EF066FCDBF80C3000EB0508984564D2B3
:1043900009AACDE9018204230393DBF800200092EF
:1043A00018EE100A18EE102A00210EF0A1FC0028C9
:1043B00040F01B81099B1BBA8AEA030ADBF8003034
:1043C0000A934AF0004A08F10403CDF824A00B93A5
:1043D0000AAE0999369B81EA09021A40854B1A40B8
:1043E00039D1369BC3F38923002B00F0A0803C25F4
:1043F00065432AAB2B44349843F86C0C359843F84A
:10440000680C369843F870AC43E91909049823F80E
:104410005C0C069823F85A0C059823F8580C3A9827
:1044200043F8540C3B9843F8486C43E91401DDE928
:104430000A0143E91EB8443B83E803002AAB1D444C
:10444000A5F14C03CDE905223B936B4B3692013429
:1044500091463A930492454691E7359B002B40F3F1
:10446000C280349B1B680993349B5E680833349385
:10447000359B013B3593A846ABE7B2F5817F1DD153
:1044800000250999C1F309039D42E4D2059B726896
:10449000C1F389211944B36843EA8121337803F5D4
:1044A000407341EA0351DDE93A3098470028C0F2F1
:1044B0009C8006F10C06CED10135E2E70599324623
:1044C00003EB8121DDE93A3098470028C0F28D8066
:1044D000C1D0002C00F089802AAA013C3C2303FBB8
:1044E000042353E91CA2349253F8682C359253F8F4
:1044F000642C369233F85C2C049233F85A2C0692D2
:1045000033F9582C059253F8542C3A9253E911017F
:1045100053F8502C3B9253F84C2C09920AAA53E9B9
:104520001EB882E8030053F8609C53F8486C369A32
:10453000099BC2F389223AB10499C3F389228A42C2
:1045400089D306998A4286D2C3F30A52002A82D0BE
:1045500040F201118A4290D107933A9B1A46264BAA
:104560009A423FF478AF3C222AAB02FB043500218B
:10457000A5F1780038F0FAF8349B45F86C3C359B8F
:1045800045F8683C369B45F870AC45E91939049B01
:1045900025F85C3C069B25F85A3C059B25F8583CC1
:1045A0003A9B45F8543C3B9B45F8503C079BC3F372
:1045B0000902049201320692049AC3F389239B1ADA
:1045C000059A13441BB20D4A0593002345E91EB812
:1045D000CDE935320134B3464FF0005934934FF0F2
:1045E000FF3A984637E7002073E72AB0BDEC028B0C
:1045F000BDE8708F0000F07FDDFA020800FC0F605C
:104600002DE9704F86B0DDE90F4A013B119EDFF8BE
:1046100098B004938046894615460EB9304640E06E
:104620002B68E868023316D1D5E901120A44944296
:1046300011D28C420FD3121BB242A4EB010128BF4E
:10464000324601445046059238F04AF8059A9244A1
:104650001444B61AE1E7D8F868C06FF00103DCF83B
:1046600014102B60049BB4FBF1F20B44234401FBB8
:104670001242B3FBF1FE01FB1E315B1ADCF828107D
:104680008B4228BF0B46A21ACDE901036A60AB60DA
:1046900000920E9B5A46494640460FF083F8002888
:1046A000BBDA06B0BDE8708F00FCF7FF2DE9704F54
:1046B00088B00646894605924BB911994FF0FF32F2
:1046C0000A60129A0020136008B0BDE8708F013BA9
:1046D00007A9806E07930EF055F910A90546B06E34
:1046E0000EF050F94FF0040A80460DF1140BA84566
:1046F000059A03D3119B1A60109BE2E7A5EB08040F
:10470000B4FA84F495FAA5F3B3FA83F3C4F11F0461
:104710009C4228BF1C46A300CDE90023CDE902BA84
:1047200004234A46002130460EF0E2FA0028CBD19D
:10473000012303FA04F42D1BD9E7000073B50546E5
:104740000C46E9B1104B18680368012B0BD1836844
:104750005E6946B140681346B4460A46294602B02F
:10476000BDE870406047084801920CF04DF82146C2
:10477000019A2846FCF72CFA044603480CF033F85B
:10478000204602B070BD00BF4C0500202DE97041ED
:10479000804685B0D1E900600D462BF0ABF80622CB
:1047A000044601A9A86825F0A3FDB8F1030F13D1B1
:1047B0007168029A01980029B8BF01F2FF1104EB59
:1047C0006121520A01F58071FCF71EFA400040F0A9
:1047D000010005B0BDE87081104B9E4217D0E8681B
:1047E0002BF088F8B368B3EB043F13D9716804EB7E
:1047F0001134DDE90121EFF31185602383F3128881
:1048000000EB0430FFF79AFF85F31188DEE76FF0C5
:104810000400DBE76FF00D00D8E700BF0C0D0608C1
:1048200010B58021044604F0C9FE20460021BDE8F1
:10483000104004F0C3BE08B5D0F814320BB9022002
:1048400008BD1B68012198470028F9D0F7E710B58B
:10485000D0F8180290F8653800EBC3040133DBB2DE
:10486000042B4FEA022208BF002384F84418C4F83E
:10487000482880F8653810BDC1070CD4820703D1E1
:104880000268064B9A4206D00E2804D0A0F11E03FF
:104890005842584170470120704700BFC4F20508D4
:1048A0002DE97F4F144605460622084601A925F04A
:1048B0001FFD9DF80C10002240201FF023FA064631
:1048C0002046FFF7D9FF002868D020462BF012F8C9
:1048D000002300934A4B1A6C42F010021A641B6CBE
:1048E00003F01003804600930620009B07F0D6F9E2
:1048F000804550D8062007F0D1F90122B0FBF8F32B
:10490000B3F5803F44D23F493F480860013BCB604C
:1049100000230B618B6091F83930013A4A60884678
:1049200003F0FF020BB981F838204FF00209374934
:10493000354888F8399006F013FF0122D8F80010A6
:1049400088F8392088F839900B68DFF8B89013435D
:104950000B6088F8392005F10C08A96840464FF033
:10496000000BFBF765FC029BB3FBF6FAD34521D1A4
:1049700040460BF02CFD2046FFF77EFF10B1484665
:1049800006F0A6FF029827F04FF804B0BDE8708F3C
:104990005B085200B4E701221346B4E7204629F031
:1049A00041FE1B4B834202D01A482AF0A9FD04F1B4
:1049B0001009D0E7D9F800301969CA07FCD56FF0A3
:1049C00001021A61BBF1000F13D140460BF01AFD32
:1049D0004046FBF70DFCEB680199DB6C9DF80C0081
:1049E000012E5A4608BF1B0920F0F6F90BF1010B06
:1049F000BCE7E9688B6843F080438B60E8E700BF61
:104A000000380240A800002000100040AC00002048
:104A1000CC1106083AD60508421C38B504460D46A6
:104A200007D0B0F5800F02D2C0F30B0313B10620FC
:104A30000CE000246B1C0AD1C4F580050949102044
:104A40002AF094FAC0E901450023037338BD002D14
:104A5000EDDD6319B3F5800FE9DCC5F30B03002B23
:104A6000ECD0E4E7280D06081FB5084611461A46A3
:104A700002AB01930A4B009302232BF025FFDDE9E3
:104A8000020100EA0103013306D0FFF7C5FF062843
:104A900003D100202AF034FD024805B05DF804FB84
:104AA00068DD05080C0D060808484368DB0710B5EB
:104AB0000AD5EFF31184602383F312880BF0B5FE5F
:104AC00004F08CFA84F3118810BD00BF4C0500205F
:104AD000094808B54368DB070CD5084B82681B689A
:104AE0009B1AB3F57A7F05D30BF09FFEBDE8084013
:104AF00004F074BA08BD00BF4C050020B02A0020A5
:104B00002D4B37B51D78002D53D1012119702B4B3A
:104B10002B4C2C4A5A602C4B23602C4B2C48656044
:104B200010229A612B462A4604F0DCFB2368DA68DF
:104B3000986812682946904720460BF065FEAB2125
:104B400020460BF0E5FD23681B68012B25D16A4642
:104B500005212046CDE90055FBF786FA20B901AAC8
:104B600035212046FBF780FA019A9DF80050120289
:104B700092B2154302F4007252EA00030DD10621ED
:104B80000F480BF0C5FD0E4845F4007302220121C9
:104B90000BF09EFD0A480BF039FD09480BF023FE8F
:104BA0000023A3600B4B602283F80423042007F04A
:104BB00091FF03B030BD00BF6015002064150020D8
:104BC0004C050020110302084812060800000240AC
:104BD000F4F6050800E100E070B505460846164603
:104BE0002AF088FE0138052852D8DFE800F00316C5
:104BF000161A272FFFF784FF30462AF07BFE012884
:104C000003D1244B9D4205D028730020400040F082
:104C1000010005E04FF0FF30F8E7FFF745FF012006
:104C200070BD1C4B9D4206D02A7BA8680AB1000BC0
:104C3000ECE7400AEAE74FF40450E7E72B7B002B50
:104C400014BF4FF400504FF48060E0E72C7BECB1D0
:104C50006D6830462AF04EFE2D0BEFF3118660236F
:104C600083F31288284405030B480BF0CDFD294639
:104C700009480BF075FD4FF4805104462846FBF7B8
:104C800023FA05480BF0AFFD86F311886000BEE7FC
:104C90000620C5E70C0D06084C0500202DE9704FD5
:104CA000814B8AB01A780193002A59D07F4CDFF8E3
:104CB0001C82DFF81C9200232360C2467C4E98F8C9
:104CC00000B0737F354603F0FF02002B32D1794BE1
:104CD00032771968784A7948BBF1000F62D0036FC8
:104CE0009B0740D54FF4807100230393734B186CDE
:104CF00040F0805018641B6C03F080530393039BB7
:104D00006F4B186840F480701860D2F800C01868C3
:104D1000C0054DD5694B186F10F440704ED1674BEC
:104D20009A6822F4F8129A601A6F11431967654B5A
:104D300001221A60022373773368CA225A6253220F
:104D40005A62FBF777F9002856D03368FF225A627F
:104D5000042373770CE06FEA13436FEA0343236085
:104D60000AB0BDE8708F13685B1AB3F57A7FB6D9C5
:104D70002368BBF1000FEED043F0807323604E4BED
:104D800000251A684B4B8AF8005028461A60FCF739
:104D90006DFC07F0E3FB757790E713685B1AB3F5DA
:104DA000FA7FE5D8436F9B07F7D54FF400719BE777
:104DB0001068A0EB0C000228A9D9D9E78842AED030
:104DC000186F4FF0010CC9F800C020F440704FF08C
:104DD000000CC9F800C01867186FC0079FD5D2F83B
:104DE00000C041F2883E186F800798D41068A0EB8D
:104DF0000C007045F7D9BBE72B6829699A6822F443
:104E0000E00222F040029A606A6898680A43696981
:104E10000A4302439A60EA681A611A69A96842EA79
:104E200001421A616FF08002DA601A6CA96922F4FB
:104E300080221A641A6C0A431A64FF225A62012300
:104E40006B771C4A1C4B12681B689B1A9BB243EA87
:104E50000B7B4BF00053236004A81B4B0493FBF720
:104E600013FE28B9CDE90800059005A8FBF79AFDC7
:104E7000124B5A6F12F0006F1A461EBF4BF00053D0
:104E800043F480332360536F0C4A5B0142BF2368B5
:104E900043F400332360536F43F080735367019AE8
:104EA000002313705CE700BF3C050020380500209C
:104EB0008800002040050020B02A00200038024071
:104EC000007000403C0E47420401010F44050020E1
:104ED000400E474270B504460D46FFF7DFFE022C38
:104EE000244C39D168682AF005FD00F2FF13B3F5B0
:104EF000806F02D320482AF003FB237F0028C7BF1E
:104F0000C0F500704FF4004240420022012B21D036
:104F100001232377022363772368CA21596253212F
:104F20005962D968CE0304D514490E68DD68ED03D3
:104F300005D41043FF22D8635A62012307E00D68AD
:104F4000AD1BB5F57A7FF1D9FF225A62032363774F
:104F500000232377062070BD2368DA6BD86B130417
:104F6000C0F30800BDE870404CBFC0F5007040427F
:104F700026F05ABD8800002011D90508B02A00206B
:104F80002DE9784180460E46FFF788FE032007F0A2
:104F900061FDB8F1030F706872D806282FD02AF08F
:104FA000A9FC0325034602224FF4FA6000FB02F13C
:104FB000994209DB4FF40044B4FBF2F463434FF42D
:104FC0007A7493FBF4F415E0013D4FEA4202EDD20E
:104FD000374A93424FF47A7493FBF4F401DC0425CE
:104FE0000AE0A4F58034B4F5803F02DD31482AF0B0
:104FF00087FA0625002C00DD013C012200E000229A
:10500000B8F1030F46D1B3682B49C1F834312B4BAB
:105010002D2199652A4BCA215962532159629968F9
:1050200021F480619960D9684907FCD5002A33D002
:105030005C619A6822F4884222F0070205F00705B5
:105040002A4342F488429A60FF225A621D4A11683C
:1050500041F480011160916841F480019160D96848
:1050600021F48061D9604FF480035361164BF02224
:1050700083F80323032007F02DFD0620BDE8788187
:105080002AF038FC0546B0682AF034FCF368044680
:105090000122B9E70623B7E79A6822F480429A60B2
:1050A000FF225A62074A136823F480031360E4E77F
:1050B000E703E80322D9050854010020A8040020D2
:1050C00000280040003C014000E100E030B505460A
:1050D0008FB00C46FFF7E2FD012D34D101A8FEF799
:1050E000A3FC6846FEF77AFC9DF8030000F5FA6021
:1050F00026F09AFC06909DF8010026F095FC07909A
:105100009DF8020026F090FC08909DF8000026F023
:105110008BFC09909DF8040026F086FC0A909DF80F
:10512000050026F081FC0B909DF8060026F07CFC23
:105130000C90029826F078FC06A90D90082020F02B
:1051400023FE0FB030BD01AA082160682AF00EFAD4
:10515000019B18682AF0CEFB019B30308DF80300CC
:1051600058682AF0C7FB019B8DF8010098682AF067
:10517000C1FB019B8DF80200D8682AF0BBFB8DF8BB
:1051800000006846FBF780FC019B18692AF0B2FB1F
:10519000019B8DF8180058692AF0ACFB019B8DF833
:1051A000190098692AF0A6FB00238DF81A008DF8E3
:1051B0001B30099306A84FF480230A93FBF7F2FBF8
:1051C0000620BEE708B51049104B0022C3E90012C3
:1051D0007F20FF21C3E90201C3E904229A610C4B3D
:1051E0001A700C4B0C4A1B6813600C4A23F07F4367
:1051F00043F07C5313600A4B1878FCF737FAFFF73B
:105200004DFD062008BD00BF00280040880000209A
:105210003C050020B02A0020400500203805002071
:1052200044050020114A136813F0040313B50ED18E
:1052300001930F4B596B41F0400159635B6B03F0D5
:1052400040030193019B136843F004031360094B6F
:1052500006491C68486810F0010001D0886803E026
:105260001A68121B092AF5D902B010BD00080650B1
:1052700000380240B02A002008B5FFF7D3FFBDE890
:105280000840800826F0D0BB16280AD8054B1B5CC6
:1052900003F1047303F59E3300EBC3008000012388
:1052A000036070471B050020162810D8084B094AD8
:1052B00003448A434FEA83030CBF012200221A6091
:1052C000054A8A430CBF01220022C3F880207047A0
:1052D00040E089100000111000002110162808D8A5
:1052E00000F1845000F51E20800000230360C0F808
:1052F0008030704730B5204A0123516983401942FC
:1053000093B0044612D0162853610FD81B4B00F1FE
:10531000360503EB85056868062807D0184B1B5D2A
:1053200033B9184B53F8241029F040FF13B030BDA7
:1053300029F082FF36F000F9684634F0DDFB60B9F1
:10534000104B686853F824102CF02CFB34F0ECFB65
:1053500036F0EAF829F050FFE8E706236B602046B4
:10536000FFF7BCFF08490948224635F035FB019993
:10537000064829F0C5FFEBE7003C0140540100203E
:1053800004050020A80400202DD905086CF00508AC
:105390002DE970478DB00446084611461A4603AB06
:1053A00001934B4B009304232BF08EFA21460820E7
:1053B00029F0DCFD8046DDE90306C207DDE9059A38
:1053C00005D4830715D10268424B9A4211D12AF0C5
:1053D00091FA0F28044604D83F4902463F482AF074
:1053E00097F816281DD902463D493C4817232AF054
:1053F0008FF803F053FD047A05462409394A26F450
:10540000001393420FD002F5801296420BD0A2F502
:105410007022934207D0344B9E4204D03349324627
:10542000DCE70025EAE7B9F1020F02D930494A4624
:10543000D4E7304B04F1360103EB81025268062AAF
:105440001A4605D0BAF1060F02D02B492246C5E70D
:105450002046FFF743FF02EB810316F4803FC3F8B9
:1054600004A0264B14BF00220422BAF1060F1A55DD
:1054700019D0234B01221A5504FA02F31343214A8F
:1054800042F82430ADB931462046FFF70DFFFFF753
:10549000FBFE1D4B1A570E2102F07F00FDF7E8FBC3
:1054A000104607F017FB4046C8F804400DB0BDE8B1
:1054B0007087286903F060FEEB682869CDF82490B6
:1054C000CDE9073607A902230A93FEF7FDF8E0E7C6
:1054D000BC0C0608C4F2050865D905081CF10508CE
:1054E00075D90508000011100000221082D90508A6
:1054F0008CD905085401002096D905081B05002009
:1055000004050020A80400201CF4050808B5406824
:10551000FFF7E4FE062008BD08B50A20FFF7EAFE03
:105520000B20FFF7E7FE0C20FFF7E4FE0D20FFF74E
:10553000E1FE0E20FFF7DEFEBDE808400F20FFF77A
:10554000D9BE08B50520FFF7D5FE0620FFF7D2FE2D
:105550000720FFF7CFFE0820FFF7CCFEBDE808408C
:105560000920FFF7C7BE0420FFF7C4BE0320FFF7E2
:10557000C1BE0220FFF7BEBE0120FFF7BBBE002068
:10558000FFF7B8BE1C4B2DE977471A89002442F07B
:1055900001021A81C3F8C442C3F84C43FBF7F0F888
:1055A0000BF0EEFBEFF31188F02383F31288134E18
:1055B000DFF84C903568A2463DB9346088F3118815
:1055C00035F06CFE03B0BDE870876968C5F804A0CB
:1055D0004846019529F057FD019B1B8A9B0705460C
:1055E00003D5012101A835F069FF224601994846FB
:1055F00029F027FD0446DFE754010020480500207C
:1056000065F0020801490220FDF7F6BB0068004082
:10561000024901220220FDF709BC00BF00680040DA
:10562000024900220220FDF701BC00BF00680040D3
:1056300001490120FDF7E0BB00640040012202495E
:105640001046FDF7F3BB00BF006400400249002292
:105650000120FDF7EBBB00BF006400402DE9704165
:10566000058ADFF874C0D0F804E006466D0000201B
:1056700090420DD1DCF80000DEF80010490626D477
:1056800025B1DCF80010091A8D42F5D810460CE05F
:10569000DCF80080DEF8004024060DD42DB1DCF8E3
:1056A0000040A4EB0804A542F4D86E221A60BDE8BD
:1056B000708111F8014B06E0F47A012CF9D131F830
:1056C000024BC4F30804CEF804400130D0E70021B7
:1056D00019601046EBE700BFB02A002038B5334B05
:1056E00003EB8000D0F88841002C5AD06268136820
:1056F0009BB29D06E38333D5658A002D2CD0A08A0A
:1057000080B20130B0FBF5F105FB1101E08A89B2EE
:10571000884221D01368E3835268A3891340A27A98
:105720007AB1234A12689A420BD129F09BFDA38BD0
:10573000D80604D56268D36843F01003D36001250E
:105740001CE0E27AA069012AA28A92B20CBF20F87A
:1057500012308354A182EAE7D16821F02001D160A0
:10576000D90642BFD16821F01001D16013F00805BD
:1057700004D0D36823F02003D3600025637AA28B82
:105780005B0742BFE38B23F01003E383E38B1A42F2
:1057900002D0206A0BF0D6FA637A1DB16FF3820350
:1057A000637238BD43F00403FAE700BF54010020E0
:1057B0000C0000202DE978410C4CD4F800800546FF
:1057C0000E466B681B6813F0800309D12268A2EBB8
:1057D0000802B24207D201202CF0EEF830BFF0E709
:1057E0000120BDE878811846FBE700BFB02A002001
:1057F000818AC28A436889B28A4230B516D0C47A97
:105800008169458A012C0CBF31F81210895C013284
:10581000B2FBF5F405FB1422C2821A68950603D583
:10582000DA6842F02002DA60084630BD8189808B58
:105830005A68840601EA020142BFDA6842F0200297
:10584000DA60C206F0D5DA6842F01002EBE7000039
:105850002DE978410E4B1E6804460D469846A38AF2
:10586000E28A9BB29A420ED163681B6813F0200350
:1058700009D1D8F80020921BAA4207D201202CF0AF
:105880009BF830BFEBE70120BDE878811846FBE7C5
:10589000B02A0020838AC28A9BB29B1A002B02DAAC
:1058A000408A1844704705BF436818681846C0F31B
:1058B00040107047037A012B10B5446801D0062BC5
:1058C00008D106F0BBF9A26893B20BB1B0FBF2F3BA
:1058D000184610BD06F0CAF9F5E7000008B5437A8E
:1058E00042686FF341034372D36823F40053D360DB
:1058F000037A012B10D1252007F0ACF82B4B5A6A04
:1059000042F010025A625A6A22F010025A625A6C2D
:1059100022F010025A6408BD022B10D1262007F095
:1059200099F8224B1A6A42F400321A621A6A22F477
:1059300000321A621A6C22F400321A64EBE7032B6D
:105940000FD1272007F086F8184B1A6A42F48022FC
