:020000040800F2
:10000000F8FF0120B5470708F34C0708E14C070843
:10001000F54C0708014D07080D4D070800000000CA
:10002000000000000000000000000000194D07085B
:100030001B4D070800000000654F0708D5B20208F5
:1000400001000208094E07081B4E0708214E070849
:10005000F14A0208010002089D4D0708A34D070858
:10006000A94D0708AF4D0708B54D0708D9A30208E9
:10007000C9A30208B9A30208A9A3020899A3020808
:1000800089A3020879A302080100020801000208FE
:10009000010002080100020801000208BB4D070828
:1000A000354E07083B4E07084D4E0708534E0708CC
:1000B000594E07085F4E0708654E07080100020801
:1000C0000100020801000208010002080100020804
:1000D00001000208B54E0708BB4E0708C14E0708CD
:1000E000DF4D07080F4E0708294D0708914E0708F6
:1000F000974E0708AF4E0708A94E070869A30208E4
:1001000001000208F94002086D4E070801000208CC
:10011000C74E0708CD4E0708854E07088B4E0708C7
:1001200059A3020849A3020839A3020829A3020817
:1001300019A3020869940208154E07080100020875
:100140000100020801000208010002081D4D070815
:1001500009A30208F9A20208E9A20208D34E07087F
:100160000100020801000208010002080100020863
:10017000010002080100020801000208000000005E
:08018000010002080100020861
:020000040802F0
:10000000FEE70000094B1A68D36823F0A003D36011
:10001000074B1868D168890601D500207047196818
:10002000091AB1F57A7FF5D9032070470040002006
:10003000486600200A4B1A68D368580601D500208C
:1000400070474FF0FF33D360064B1868D1684906FC
:10005000F5D41968091AB1F57A7FF7D903207047EA
:1000600000400020486600202DE9774105688DF8A2
:1000700007102C68D5E9010C1646E4B9D0E9033223
:100080001B049361EB686046D3F804800DF107020E
:1000900023460121C047EB68A868D3F804803246A4
:1000A00033460121C0476B68D3E903322046936190
:1000B00003B0BDE870811346DCF80C409DF80710D2
:1000C0000122A047F4E790F83830012B4FF00203EB
:1000D00016D080F8393003685A6822F070025A60EE
:1000E0005A6842F020025A609A6822F080029A60B0
:1000F0009A689A60012380F83930002380F83830FC
:1001000018467047054B016810B51C680A689207CD
:1001100003D41A68121B0A2AF8D910BD48660020B9
:1001200082B000230193064B5A6C42F480725A64E9
:100130005B6C03F480730193019B02B0704700BFB6
:100140000038024073B50023A1F11005019390F827
:100150003C30022D8CBF01240724012B2FD001231A
:10016000092980F83C308EB203682AD906EB460292
:10017000D3F80CC01E3A4FF0070E0EFA02FE2CEA1E
:100180000E0CC3F80CC0D3F80CC004FA02F242EA19
:100190000C02DA605A6B22F01F025A635A6B324328
:1001A0005A631C4A934207D112291CD1D2F8043356
:1001B00043F48003C2F80433002380F83C3002B0DB
:1001C00070BD1A6901EB410E4FF0070C0CFA0EFCE2
:1001D00022EA0C021A61D3F810C004FA0EF242EAC5
:1001E0000C021A61D6E7012DE6D80B4A5368102994
:1001F00043F400035360DFD1084B094A1B68B3FB8B
:10020000F2F20A2353430193019B002BD4D0019BAC
:10021000013BF8E7002001400023014000000020DE
:1002200040420F00C1070CD4820703D10268064B7D
:100230009A4206D00E2804D0A0F11E03584258411D
:1002400070470120704700BF1074070870B5094C53
:1002500001262568864025EA06052560236841F6C3
:10026000FE7585400A4323EA050382401343236059
:1002700070BD00BF0074004010F4FE7F02BF024B4F
:100280000422C3F8002E704700E100E02DE9784118
:10029000074EDFF820800C464518AC4201D1BDE87E
:1002A000788114F8012B3146404650F0B3FDF4E755
:1002B000D4560708F87107080B79002B08BF0122F4
:1002C0004B79024918BF022250F0A4BDDA56070844
:1002D000054B994202D1054950F09CBDD1E901235B
:1002E000034950F097BD00BF048C0708EB56070880
:1002F000F35607082DE9734F364C237F012B8146B7
:100300004FF0020520D02268657701232377936898
:10031000067890F801B013F0400308BFC370CA21FB
:10032000837890F803805162532151620193FFF763
:1003300081FE019B054658B12368FF225A620423BF
:100340006377002323770125284602B0BDE8708F2C
:10035000184611F094F840EA0848304611F08FF83A
:1003600048EA0048584611F08AF848EA0023D4F8D1
:1003700000A003F07F3323F0FE43CAF80030DAF820
:10038000083023F48023CAF80830D9E90331DAF8B9
:1003900008200B431343CAF80830DAF80C3023F076
:1003A0008003CAF80C30DAF808309B0609D4FFF74E
:1003B00029FE30B12368FF225A6204236377257730
:1003C000C1E72368FF225A62012363770023237762
:1003D000BAE700BF004000202DE9704F2E4C237F6C
:1003E000012B4FF0020521D0012365772377437855
:1003F00090F803A090F802800678DA0642BF23F056
:1004000010030A334370236890F80190CA225A629D
:1004100053225A62FFF70EFE054650B12368FF22B1
:100420005A62042363770023237701252846BDE819
:10043000708F404611F023F840EA4638504611F0DC
:100440001EF848EA0048484611F019F848EA00202A
:10045000D4F800B020F07F4020F0C000CBF80400BA
:10046000DBF80C3023F08003CBF80C30DBF80830DD
:100470009B0609D4FFF7C6FD30B12368FF225A62FC
:10048000042363772577D0E72368FF225A6201238C
:10049000637700232377C9E70040002070B503236A
:1004A00005460E46144628F08FFD88B9226882B1B1
:1004B000531E23602B681B782371072B0CD82B68E5
:1004C000591C13449E42A16018BF6FF065002B6059
:1004D00070BD6FF05F00FBE76FF06300F8E70000AE
:1004E00038B50A4D032385F834302B6800241C608E
:1004F000312011F08FFA064A536C23F400635364E1
:100500002046AC6385F8344038BD00BF5840002019
:100510000038024038B5054C2578052D01D1FFF78C
:10052000DFFF25F00405257038BD00BF48400020DE
:100530002DE97841164C174925684EF65F22EFF3F6
:10054000108372B691F83400032812D083F3108818
:10055000104E4EF65F2830460FF056F9042812D0A0
:100560000538022811D823685B1B434508D830BFE3
:10057000F1E730BF83F3108823685B1B9342DED919
:100580000320BDE878810020FBE70120F9E700BFE8
:100590004866002058400020014B186842F016BC05
:1005A0004C40002008B508461146002245F0C6FF21
:1005B000034A0448137843F00103137008BD00BFD9
:1005C00048400020308D070808B508461146002233
:1005D00045F0B4FF004808BDAC8C07082DE978470A
:1005E0008846404611462F4A1E4645F0A7FF2E4931
:1005F0004C2044F0E3FD0446306846F00CFDB8F1B1
:10060000010F05460CD9706846F005FD8046AB1F0A
:10061000062B3BD8DFE803F03F3A073A423A38006E
:100620004FF0FF38F3E74FF00076DFF88CA000259D
:100630004FF0010909FA05F313EA080F07D05AF839
:10064000250020B100231A4603210AF067FE013578
:10065000102DEFD1154B6360FFF762FD01220023DF
:100660002262A26102F17062C4E90933C4E90B237A
:10067000C4E90433E660E361A3606363201D11F005
:1006800067FA2046BDE878870026CEE70849094882
:100690002A4646F03FF94FF04076C6E74FF08076A5
:1006A000C3E700BF04000200F08A070800200140F1
:1006B0000B57070868720708A087070870B50D4632
:1006C0000446FFF73FFD11F0E3F92046FFF71AFD5E
:1006D0002368DE6C11F0C0F9122D01BF034A536884
:1006E00023F480035360304670BD00BF00230140F7
:1006F00010B50446084646F08EFC1028024605D088
:10070000122803D90549064846F004F9201D114670
:10071000FFF7D4FFBDE8104042F058BB1A57070856
:100720006872070810B50446FFF7C8FF23685B68C6
:1007300003F04073B3F1007F0BD0B3F1407F0AD0D8
:10074000B3F1807F14BF0C230A23C3F10C0398403C
:1007500010BD0823F9E70623F7E7000008B51221CA
:100760000430FFF7DFFF094B9FED097A93ED000A94
:10077000430007EE903AF8EE677ABDE8084067EE6E
:10078000877A27EE800A44F051BA00BF04000020A7
:100790006740533A08B510210430FFF7C3FF124BEE
:1007A0009FED126A1A88124B07EE100AD3ED007AF9
:1007B000104BF8EEC76A07EE102A1B88B8EEC77A0E
:1007C0009B1A96EEA77A07EE903AF8EEE77ABDE824
:1007D0000840C7EE866AF3EE0E7A87EE260A30EE00
:1007E000270A44F023BA00BF2C7AFF1F0000A04262
:1007F000040000202E7AFF1F08B51121FFF792FF99
:100800000A4B1B8807EE900A00EE103AF8EE677A62
:10081000F8EE406A064B86EEA77AB8EEC00ADFED26
:10082000057A83ED007A20EE270A08BD2A7AFF1F99
:10083000040000206740533A08B50430FFF7DCFF9E
:10084000054BDFED067A93ED000ABDE8084020EE87
:10085000270A44F0EBB900BF0400002033335340B3
:1008600008B50430FFF7C8FFBDE8084044F0DEB922
:1008700008B581680C30FFF721FFBDE8084042F061
:10088000A5BA00002DE9F04F8DB000AF0C4616461A
:1008900007F1140107F10C0246F084F807F1080291
:1008A00007F11001204646F07DF87B6913B95148E5
:1008B00047F0D0FD3A69934201D04F48F8E7BB6852
:1008C0000622186807F1180145F028FD97F8201056
:1008D0000022402039F0D8FA3B699B00073323F00F
:1008E0000703ADEB030D0546E94600243B699C4236
:1008F00036D330460AF008F9FB681C6804F10C088E
:10090000A16806464046FFF71DFC11F0C1F84046BD
:10091000FFF7F8FBE368DB6C33686FF001021A61E4
:100920001A69D007FCD56FF0010119614FF000087A
:10093000FB693960B3FBF5F34FF0010B7B607B681B
:10094000984524D1FB6818680C3011F085F8BBF18C
:10095000000F14BF1E200E203437BD46BDE8F08FB7
:10096000BB68062253F8240007F1240145F0D6FCA9
:10097000FA69BB6A9A4203D13A6AFB6A9A4201D089
:100980001E4895E77B6A49F824300134AEE73368A6
:100990001969C9070CD41969CA07FCD53A681A61E4
:1009A00000247B69F968A34205D808F10108C6E76D
:1009B0004FF0000BF2E751F824A00AF10C00DAF82E
:1009C0000810FFF7BFFBDAF80C30996841F080415E
:1009D0009960FFF797FBDAF80C3059F82410DB6CBC
:1009E00097F82000012D08BF1B0942463BF06EFB23
:1009F0000134D6E72D570708395707084C57070821
:100A00002DE97F4F154606460622084601A945F006
:100A100085FC9DF80C100022402039F035FA814603
:100A20002846FFF7FFFB68B3284646F0F4FA0AF0C1
:100A30007DF80223026880F83930136843F001031F
:100A400013600123044680F8393006F10C08B168C0
:100A500040464FF0000BFFF775FB029BB3FBF9FA22
:100A6000D34514D1404610F0F7FF2846FFF7DAFBD4
:100A700010B1204610F046FB029842F0A7F904B0EE
:100A8000BDE8708F28460AF03FF80446DDE723688A
:100A90001969CA07FCD56FF001021A61BBF1000F9A
:100AA00014D1404610F0F4FF4046FFF72BFBF368EB
:100AB0000199DB6C9DF80C00B9F1010F5A4608BF93
:100AC0001B093BF003FB0BF1010BC9E7F1688B68D5
:100AD00043F080438B60E7E713B50AF027F804463C
:100AE000202200236946CDE90023FFF7ECFA2268B3
:100AF000022384F83930136843F0010313600123A3
:100B000084F8393002B010BD70B51C460846114655
:100B10004FF0021245F012FD2668F10705D4B20726
:100B200030D13268274B9A422CD1304646F073FAC6
:100B30001028054634D1542052F074FD002104469B
:100B40004422103053F0CCFE1F4BA560C4E90036A0
:100B50001E4BE360FFF7E4FA01220023A262226247
:100B600002F17062C4E90B33C4E90D23C4E9063312
:100B7000636163622361E36304F10C0010F0E8FF3A
:100B8000204670BD304609F02FFC837A9B0704D4C1
:100B900042680F490F4845F0BDFE8568C5F304352E
:100BA000122D02D90C492A46F4E70F2DC3D80B4B5E
:100BB00053F825000028BED000231A4603210AF06E
:100BC000ADFBB8E7107407080C8B07080020014044
:100BD00062570708687207081A570708A0870708AE
:100BE00038B50D46044607494FF0D5FE69682046E2
:100BF000002247F01BF9AA6803492046BDE83840A7
:100C000050F008B969570708C9BF08082DE97741AE
:100C10009846184B01921D680378DD4025F00205C7
:100C2000ED040E46ED0C41F001018D4204461ED04C
:100C300011491248002B18BF084608F07DFE019AA2
:100C400020783146FFF702FB012321780C4A0D483A
:100C5000002918BF0246C2F800802BB1054A0123C3
:100C600010688B400343136003B0BDE8708100231C
:100C7000EBE700BF00740040106607080066070835
:100C8000087400401474004010B50446084646F04D
:100C9000C2F96279C2F10C0200FA02F30021201DB0
:100CA000A279FFF7B3FF062010BD10B50446084631
:100CB00046F0B1F9FFF710FF201DE279002340F65E
:100CC0008431FFF7A3FF062010BD10B50446084687
:100CD00046F0A1F9FFF700FF201DE279002340F65E
:100CE0004431FFF793FF062010BD00002DE9704F3F
:100CF0008CB009AB51F8045B0193614B0093013850
:100D0000032346F049FC052206A9099845F006FB95
:100D10000A9E3046FFF786FA044630462CB146F06C
:100D20007AF9FFF7D9FE042127E009F0EDFE064627
:100D3000202304A9CDE90434FFF7C5F93368B3F1E2
:100D4000804F19D04F4A934200F0918002F58062A3
:100D5000934200F08E8002F580629342E3D002F568
:100D60008062934200F0878002F57042934200F067
:100D70008480454847F06EFB2421EA792879434C6A
:100D800041F48051FFF762FA2E79414BDDF82CA037
:100D9000002E18BF1C466B793E4D082B1EBF079ACC
:100DA00052080792DDE906280CBF99464FF000096A
:100DB000082B394B039220460CBF4FF0000B4FF429
:100DC000205B002E18BF1D4608F0B6FD94F9080000
:100DD0004AEA0B0BD4F800A008F0C8FDE26863688B
:100DE0004BEA0301936A1943D36A1943D369194340
:100DF000D368194393680B4343F04003CAF80030AB
:100E0000D2E908321343CAF8143094F90830072B9A
:100E100086BF083B214A224A032B88BF043B4FF080
:100E2000060194BF08320C325943012B88BF0431AC
:100E30003D2303FA01F1236811601A6822F480222D
:100E40001A601FFA88F25A604D44039A9D60DA6076
:100E50001A6842F001021A60124A0123116803FA6B
:100E600006F60E43062016600CB0BDE8708F2C21EC
:100E700083E71C2181E714217FE70C217DE700BF78
:100E8000B0630708000800407257070800660708AB
:100E900010660708087400401474004000640240A3
:100EA000006002400074004070B586B004460846F9
:100EB00011461A4604AB01931E4B0093022346F0E1
:100EC0006BFB1D4D26791D4800239E4218BF284606
:100ED0001A4603210AF022FA0025194B03951A6CD1
:100EE000184942F000521A641B6C207903F0005339
:100EF0000393039B0B680122824023EA02030B60E9
:100F0000049B23F00402082A06D105986371062881
:100F100005D10223E38006E00B4847F09BFA44F03A
:100F20002DF818B1E580062006B070BD40F202230E
:100F3000F0E700BFA0630708987907084079070821
:100F400000380240007400408957070810B40C466E
:100F500013460A1D411E20685DF8044BFFF7A4BF2D
:100F60002DE970410D4614461E46254A284685B097
:100F7000214645F0E3FA3068C20705D483070BD158
:100F80000268204B9A4207D146F045F801280246F4
:100F900032D10123002209E009F026FA1A4B9842C7
:100FA000F7D01A4B984222D102231022184919482F
:100FB000013B01EBC30841F8330098F8053088F88D
:100FC000042013B1012D00D86CB106EB8503029407
:100FD000E40044F007040393321D01AB691E404650
:100FE0000194FFF761FF404605B0BDE8708142689B
:100FF00009490A4845F08EFC0228D5D00849F8E78F
:10100000FFFF030010740708407907089879070864
:1010100038400020A08B07088D5707086872070822
:101020009657070830B50F4B1B785B0785B016D570
:101030000D4BD3E91704A4FB00015D6C41F06CFE7D
:101040000190204641F08AFE0290284641F0BEFE03
:1010500001A9039003203CF05BF805B030BD0620E9
:10106000FBE700BF48400020584000202DE9704FAA
:10107000B04B1B785B0798B081460E46904603D470
:10108000012018B0BDE8708F10F00302824622D014
:101090004FF4007052F0D2F804460028F0D0B0446B
:1010A000B04501D1002511E051464FF400722046B1
:1010B00053F0D0FB314601222046FFF7D7FF10F056
:1010C000FF050AF5007A06F10106E9D020464FF047
:1010D0002FFF2846D5E7EFF3108B974CBBF1000F9D
:1010E00040F08C80EFF3118A602383F31288402252
:1010F00023469249684608F089FC914BC4F840D0D9
:1011000040F2FF52C3F824B0C3F828B0C3F82CB0A3
:101110009A63B9F1000F0CD1A36B43F00063A36392
:101120000125864808F0D8FB002323648AF3118840
:10113000CFE794F83430012BDDB25DD1E26DC4F815
:1011400038B006EB0803934204D9A36B43F0007355
:10115000A363E6E72068032384F83430C0F82CB09A
:10116000C36B43F01A03C363764B0F93764BCDE901
:10117000133B636C4FF40071012B18BF76020EF025
:101180002BFB50B1236840F2FF529A63A36B1843C4
:101190000123A06384F83430C3E7B8F1010F20685D
:1011A0000AD9A023236331460EF0B6FA226848B16B
:1011B00040F2FF539363E9E79023236331460EF037
:1011C000C3FAF3E7614B206C4FEA4825012119600F
:1011D0008032AB08494610F065FB22684FF0FF33C0
:1011E00053629562D36A23F0F70343F09103D3620D
:1011F000FFF79EF9054694E7022592E7544BD3F892
:1012000000B09A4628B9A36B43F00063A36301259D
:101210005FE794F83430012BDDB240F0AD8001EB94
:101220000803E16DA2638B4204D9A36B43F0007302
:10123000A3634EE7032384F834302068636CC262F2
:10124000012B4FF4007118BF76020EF0C5FA08B1F9
:1012500023680AE0B8F1010F206810D92023236326
:1012600031460EF059FA236878B140F2FF529A6382
:10127000A36B1843A063012384F8343029E71023BB
:10128000236331460EF060FAEDE74FEA48224FF053
:10129000FF3159629A62DA6A22F0F70242F0910253
:1012A000DA6240F21A314EF65F205A6B0A425A6BEC
:1012B00018D0D0050AD5B8F1010F07D9626C032AFE
:1012C00004D018460EF0F6F90028C1D123685A6BF5
:1012D000110725D540F2FF529A63A36B43F0080330
:1012E000A363C8E756040BD5A9F1040209F11C0653
:1012F00052F804CFC3F880C0B242F9D109F12009F5
:10130000DAF80020A2EB0B028242CED940F2FF5263
:101310009A63A36BA363012384F834300325D8E6D2
:101320005A6B920716D540F2FF529A63A36B43F0B3
:101330000203D5E7484000205840002020660708F7
:10134000002C014071E20208C5F802088C85254294
:10135000486600205A6B12F0100F40F2FF529A6359
:1013600003D0A36B43F01003BAE7012384F83430B1
:10137000FFF7DEF80546ACE6A36B43F0005345E704
:1013800030B585B00C46104601A9052244F0C6FFD1
:101390002046019D45F03FFE029A0146520A28462A
:1013A000FFF764FE00280CBF1E200E2005B030BDE4
:1013B00030B585B010460C46052201A944F0AEFFB9
:1013C000029BC3F308032BB10B490C484FF4007286
:1013D00045F0A0FA2046019D45F01DFE029A014607
:1013E000520A2846FFF742FE024610B1044905485A
:1013F000EEE7062005B030BDA15707086872070860
:10140000B0570708207207082DE9704FB34B1B78BF
:101410005C079CB006468846914640F18B8110F0EF
:10142000030A05D020F0030382461A6803921E4681
:10143000EFF3108BAA4CBBF1000F40F09B80EFF351
:1014400011830193602383F31288A64904A82346DD
:101450005A4608F0DBFAA44B04A840F2FF52E063BE
:10146000C3F824B0C3F828B0C3F82CB09A63FEB90F
:10147000A36B43F00063A36301259A4808F02CFA9C
:101480000023E363019B83F31188BAF1000F0BD0B3
:101490004FEA49223146504653F00AFAAAEB0602B7
:1014A00003A9304653F0D6F928461CB0BDE8708F2A
:1014B00094F83430012BDDB25AD1E26DC4F838B063
:1014C00008EB0903934204D9A36B43F00073A363B1
:1014D000D3E72168032384F83430C1F82CB0CB6BF8
:1014E00043F49573CB63814B1393814BCDE9173B49
:1014F0004FEA492B4FEA9B038031324610F0D2F974
:101500007C4B20681D60636C012B4FF0FF334362FE
:10151000C0F828B0C36A23F0F70343F09303C36213
:101520004FF4007118BF4FEA48280EF055F950B13A
:10153000236840F2FF529A63A36B18430123A06310
:1015400084F8343099E7B9F1010F20680AD9822371
:10155000414623630EF010F90028E9D1FEF7E8FFB9
:1015600005468AE78123414623630EF01DF9F3E720
:10157000022582E7604B1A6801929B462EB9A36B45
:1015800043F00063A36301257FE794F83430012B17
:10159000DDB240F0CB80E16D08EB090300228B4205
:1015A000A26304D9A36B43F00073A3636DE7032325
:1015B00084F834302068636CC262012B4FF40071F0
:1015C00018BF4FEA48280EF007F908B1236816E063
:1015D00020684FEA49234FF0FF3242628362C36AB8
:1015E00023F0F70343F09303B9F1010FC36210D95D
:1015F0000223414623630EF0BFF8236878B340F21C
:10160000FF529A63A36B1843A063012384F834301C
:101610003BE70123414623630EF0C6F8EDE71004D3
:101620000BD5A8F1040208F11C00D3F880C042F8E1
:1016300004CF8242F9D108F12008DBF8002001989C
:10164000121A8A4210D940F2FF529A63A36B43F0F8
:101650000043A363012384F83430032515E7B04623
:1016600040F22A3E4EF65F215A6B12EA0E0F5A6B79
:10167000D5D0D1050AD5B9F1010F07D9626C032A7B
:1016800004D018460EF016F800289FD123685A6B34
:10169000120707D540F2FF529A63A36B43F0080389
:1016A000A363B2E75A6B900706D540F2FF529A63E4
:1016B000A36B43F00203F3E75A6B91061ED44EF678
:1016C0005F215A6B920220D440F2FF529A630123A9
:1016D00084F83430FEF72CFF0546D6E6484000205B
:1016E0005840002020660708002C0140E9F6020857
:1016F000C5F802088C8525424866002040F2FF525A
:101700009A63A36B43F02003CAE7D3F8802048F81C
:10171000042B0198DBF80020121A8A42D1D940F23A
:10172000FF529A63A36B43F00043B9E7A36B43F006
:10173000005327E70120B8E630B585B00C461046C7
:1017400001A9062244F0EAFD2046019D45F063FC14
:10175000029A0146520A2846FFF756FE00280CBF9F
:101760001E200E2005B030BD38B54FF400700D4678
:1017700051F058FF0446284645F04DFC0122014631
:101780002046FFF741FE054638B120464FF0D0FB1A
:10179000054906482A4645F0BDF821464FF4007039
:1017A000BDE8384043F0A8BDD057070820720708AD
:1017B0001FB5084611461A4602AB01931A4B009317
:1017C000022345F047FFDDE902321340013329D0FF
:1017D0001649102043F0F2FC029B0022591C0273B0
:1017E0000AD0934205DBB3F5001F02DAC3F30B0204
:1017F0001AB1002046F02EFE1346039A511C06D162
:10180000C3F50012C0E9013205B05DF804FB002AFF
:10181000EFDD9918B1F5001FEBDCC2F30B010029D5
:10182000F0D0E6E70248EFE790630708208C07084E
:10183000048C070813B5194B0124E0B100221A608B
:1018400000230193164B1A6C42F080521A641B6CF1
:1018500003F080530193019B0FF03EFF114B12499F
:1018600018680A68D20509D50D4B1A6F7CB142F091
:1018700001021A6706E01C600446E1E71A68121AC2
:10188000022AEED9094B01221A7002B010BD22F0D3
:1018900001021A671A6F22F00402EAE7800E47423B
:1018A0000038024048660020007000405040002090
:1018B0002DE97841194C4FF0030804F5EC76A4F1BA
:1018C000080554F8043F1A071AD1D5F89822981A37
:1018D000C0F3011193424FEA901C4FEA41014FEAD5
:1018E00010100DD3D5F89C22934209D2D5F88C2242
:1018F00012F80CE04EFA01F303F00303012B03D0BE
:10190000A642DED1BDE8788108FA01F141EA0E0174
:1019100002F80C104FF056FFF2E700BFD02A01206A
:101920001FB50223009303AB3AF06BFE039B23B178
:101930000B2B08D0184646F009FD400040F001008E
:1019400005B05DF804FB0620FAE700000C4B4FF4ED
:101950007A721B68B3FBF2F3013BB3F1807F09D2CB
:10196000084A5360084BF02183F82310002393604A
:1019700007231360044B0020DA6883F823007047C4
:101980000000002010E000E000ED00E0924B37B5D1
:101990009A6802F00C02042A07D09A6802F00C023E
:1019A000082A1DD15A6851021AD58B4B1B6803684F
:1019B0009D0733D5884B9A6812F00C0F07D09A68B0
:1019C00002F00C02082A59D15B685C0256D4824BA3
:1019D0001A68910715D5C268012A12D001200EE0BD
:1019E0001A687D4942F480321A607C4B1C680A6890
:1019F0009203DCD41A68121B642AF8D9032003B0BE
:101A000030BD19680369F82292FAA2F2B2FA82F2A2
:101A1000934021F0F801704A0B43136003681C07E0
:101A200049D40368590724D5002301936A4B1A6CE3
:101A300042F080521A641B6C03F080530193019BA7
:101A4000674B1A6842F480721A60644A1468196815
:101A5000C9054BD58168604B01294CD1196F41F004
:101A60000101196714685C4941F288350B6F9B07C7
:101A70005DD5816900295FD10020C0E7C168574B5F
:101A8000584A69B1012111601C6853490A689207DC
:101A900001D50968B6E71A68121B022AF6D9ADE724
:101AA00011601C684C490A689507B7D51A68121B63
:101AB000022AF8D9A2E74169484B4B4A59B10121A2
:101AC00011601C6844494A6F9207AAD41A68121B15
:101AD000022AF8D992E711601C683F494A6F9507BE
:101AE0009FD51A68121B022AF8D987E71168091BCB
:101AF0000229ACD982E7052904D1196F41F004010C
:101B00001967ABE71C6F24F001041C671C6F24F0FD
:101B100004041C670029A5D1146841F28835196FA7
:101B20008907A6D51168091BA942F8D966E7136889
:101B30001B1BAB429AD961E7274B9A6802F00C0253
:101B4000082A3FF44BAF294C244A02294FF00001E8
:101B5000216036D11568196889012DD4D0E907159F
:101B60000D43416A47F6C07393FAA3F3B3FA83F3C4
:101B70009940836A5B082943013B4FF4403595FA4D
:101B8000A5F5B5FA85F5AB400B43C16A4FF070601F
:101B900090FAA0F0B0FA80F081400B430E494B6000
:101BA0000123236010680B689C013FF565AF136843
:101BB0001B1A022BF7D921E71168491B0229CAD940
:101BC0001CE71068196889017FF556AF1168091A7A
:101BD0000229F7D912E700BF00380240486600200A
:101BE0000070004000004742800E474260004742BC
:101BF00010B58AB00B4C03A84FF09EFC059B0093D8
:101C00000949DDE9032320464FF004F9069A099BB0
:101C1000019200930549DDE9072320464FF0FAF8C9
:101C20000AB010BD9C710708F05707081458070840
:101C30002DE9704FDFF868B14B49DBF898224B482B
:101C40004FF0E8F8DBF89022920078D0DFF854915A
:101C5000DFF81881DFF850A100250EE0012E3DD0FD
:101C60002E22434940464FF0D5F8DBF8903201353B
:101C7000B5EB830F4FEA830261D215F03F0610D017
:101C800005F003067600DBF88C22AB08D35C43FA40
:101C900006F606F00306022E1ED0032EDED16D22BC
:101CA000DFE7DBF88C122C46A00804F00303085C85
:101CB0005B0040FA03F39B0702D101349442F3D353
:101CC000621B7F2A2FD805F0030676002A014946B9
:101CD00040464FF09FF8D6E73D22C2E7DBF8981266
:101CE000244B2A018A589A4230D0234B9A422FD053
:101CF000224B9A4230D0224B9A422BD0214B9A420F
:101D000028D0214B9A4229D0204B9A4226D0204BF2
:101D10009A4227D01F4B9A4222D01F4B9A420CBFA7
:101D20004D2268229DE79209514640464FF072F8D5
:101D3000DBF8903224F03F05B5EB830FC6D3BDE846
:101D4000704F1649012200204DF0A6BD542288E7AD
:101D50004C2286E7532284E7442282E7412280E72F
:101D600042227EE746227CE75C5807089C71070800
:101D70009C580708D0740708387407083C73070894
:101D80009C740708F4720708C07207088C72070871
:101D90006C73070890730708687407085858070899
:101DA000C82A0120945807087858070870B5466873
:101DB000B142044628BF31460D46012150F000FED5
:101DC000A368681C5919721B184452F071FD6368AE
:101DD000A06801336360284470BD00007FB50546EC
:101DE00010200C46164651F01DFC0023C0E90034BB
:101DF000084B0293084B0190039304AB13E90E00C8
:101E000084603444C460284604B0BDE8704051F09A
:101E1000C8BF00BFC5F50608450F0708D0F84CC07D
:101E200070B50CF10053446A023B04EBC304054651
:101E3000D4E9020184E80300667856B9B5F84A206F
:101E40006244013A3146284649F02AFE0123637074
:101E5000666028464FF0FF31BDE8704049F028BC6D
:101E600070B503681A785D88042A04BF5A6842F87E
:101E700025106A1C04465A800021B0F8482049F019
:101E80000FFE0022A06D1146022349F0B0FC002293
:101E9000A06D2B461146BDE8704049F0B3BC73B548
:101EA00004461E460D46019249F099FE019AA06D26
:101EB000002149F0D2FCA06D3246012149F0CDFC51
:101EC000A06D0322294602B0BDE8704049F06DBD07
:101ED0002DE9704F0B4601EB020804460D46002227
:101EE000984517D8002A0CBF272622262149DFF85B
:101EF0009490DFF894A0DFF894B0324620464EF07C
:101F000089FFA84510D8324620461A49BDE8704FCF
:101F10004EF080BF13F8011B272903D02229DFD1FF
:101F20002726E3E70122DBE715F8012B964205D1CE
:101F30001149324620464EF06DFFE2E75C2A04D19B
:101F40000E4920464EF027FDDBE71F2A03D97E2AE3
:101F50000DD80849EEE70A2A01D10949F1E70D2A0F
:101F600001D15946EDE7092A01D15146E9E7494631
:101F7000E0E700BF9C5807089F580708A3580708C8
:101F8000A6580708AF580708AC580708A95807080B
:101F90002DE9734F704ADFF8C8A100230C684FF099
:101FA000010C0CFA03FC0CEA04053CEA040440F0C2
:101FB000BD804C6824F01009B9F1020F16D14FEA28
:101FC000D30800EB880803F0070BD8F820604FEA2D
:101FD0008B0B4FF00F0E0EFA0BFE26EA0E0E0E695B
:101FE00006FA0BF646EA0E06C8F82060D0F800E0C4
:101FF0004FEA4308032606FA08F66FEA060B2EEAB4
:10200000060604F0030E0EFA08FE09F1FF394EEA47
:102010000606B9F1010F066011D886680BEA060EB4
:10202000022606FA08F646EA0E068660466826EAA2
:102030000C0CC4F300169E4046EA0C064660C668C7
:102040000BEA060B8E6806FA08F646EA0B06C6602F
:10205000E6006BD54FF0000BCDF804B0DAF844C0C1
:102060003E4E4CF4804CCAF844C0DAF844C00CF43C
:10207000804CCDF804C0DDF804C023F0030C0CF153
:10208000804C0CF59C3C03F00308DCF808904FEA08
:1020900088084FF00F0E0EFA08FEB04229EA0E0E25
:1020A0004BD006F58066B04249D006F58066B04256
:1020B00047D006F58066B04245D006F58066B0424E
:1020C00043D006F58066B04241D006F58066B04246
:1020D0003FD006F58066B0420CBF0726082606FAF8
:1020E00008F646EA0E06CCF8086016686FEA050C9A
:1020F00014F4803F0CBF06EA0C062E4316605668A7
:1021000014F4003F0CBF0CEA06062E435660966896
:1021100014F4801F0CBF0CEA06062E439660D668A6
:10212000A40254BF0CEA06062E43D6600133102BDE
:102130007FF434AF02B0BDE8708F5E46CFE7012672
:10214000CDE70226CBE70326C9E70426C7E7052625
:10215000C5E70626C3E700BF003C0140000002407F
:102160000038024070B5457A446905F00F05002635
:10217000AE4201D3002070BD94F809C0944503D14C
:1021800094F80AC09C4502D001361034F0E70A46A4
:10219000237A022109F0C2F80120ECE738B50446A1
:1021A00009200D4613F012FD40B10023C0E90033B1
:1021B00043730123048144810573C38138BD49B150
:1021C0004B8E3BB1282B86BF283B9BB20023984205
:1021D00028BF1846704714312DE9704389B28046F4
:1021E000914622204FF420721E4613F0ABFD0546A7
:1021F000D8B1BDF8183044685BBA76BA63802680DF
:10220000C4F80490404614F0F7FD9DF81C30A0601F
:102210001B0243F05003A381BDF820305BBAE38179
:10222000002323746374A374E3742846BDE87083A9
:102230001FB5438D029310230193038B0093C38A30
:102240000446406AFFF7C7FF18B1628D636A134402
:10225000E36204B010BD70B50C4694421E469DF872
:102260001410049B1AD25D8B6D0617D419B1D96E68
:1022700009B91B6F93B104F2233525F003018A429B
:1022800028BF0A4691B24FF4207213F05BFD20B1D3
:1022900043891B1B33800481448170BD2146F2E7D2
:1022A0002DE9734F036801930DF1040C0C460422D1
:1022B00000254FF00A0E4FF02E081CF8010B0026E7
:1022C000B0FBFEF382460EFB13090DF1080BD8B2EA
:1022D00033469B44013609F13009BAF1090FF6B2D1
:1022E0000BF8089CECD80CF8010C2E462046FF2B6E
:1022F00005F101050DD10F2E18DC0446013A12F04C
:10230000FF0204F8018BD8D10270084602B0BDE884
:10231000708F5C1E0F2EE4B208D802AE33442E46F6
:1023200013F8083C00F8013B2346E0E70020EDE706
:102330002DE977410A4C05460E46904601AA052133
:102340002846FDF791FE38B9019B3340434503D041
:10235000013CF3D16FF06D0003B0BDE8708100BFA8
:1023600041420F0010B5064CD4F81832217A5B6850
:10237000201D9847D4F824020EF068FC002010BD00
:102380000451002010B5124C012384F80032D4F817
:102390001832217A5B68201D9847D4F824020EF089
:1023A00055FCD4F824428CB1032384F8B933204679
:1023B0000EF04CFC2368B3F1A04F01BF054A536BEC
:1023C00023F080035363002384F8B933002010BD49
:1023D0000451002000380240114B1B685B68C3F3B6
:1023E00042320270C3F30352C3F3034102EB820291
:1023F00001EB4202C3F30031C2708A001144C3F3FF
:10240000032202EB41024270C3F3011202EB82028B
:1024100003F00F0303EB420383700020704700BFFB
:1024200000400020154B1B689A6A42601A691B68BD
:10243000C2F30E028260C3F3064202F04001C17093
:10244000C2F3011101EB810102F00F0202EB410224
:102450000270C3F30232C3F3032102EB820201EBE9
:1024600042024270C3F3021202EB820203F00F0336
:1024700003EB420383700020704700BF0040002040
:102480002DE97043D0F80090DDF82880DDE906568C
:10249000DDE908CEB9F1000F16D04BB9CC1EE4B27D
:1024A000082C04D80B4B53F824306BB15B785BB12C
:1024B000D9F814405CB1CDE9076CCDE909E806957F
:1024C000A446BDE8704360470348BDE870830348F5
:1024D000FBE700BF9862070880C1FFFF00C1FFFF54
:1024E00038B50C4605460121204621F035FF28B9B4
:1024F00021462846BDE8384021F0A3BB38BD000086
:102500002DE970471C46C36B8BB006468946904642
:1025100023B9404C20460BB0BDE8708700F1800322
:1025200000F1600200F1980A04A80393029221F0DE
:102530009BFBDDE902238CBB364C04A822F04AFA4F
:10254000002CE7D1504621F089FFB0F5806FE0D82C
:10255000F26B12F0070518BF012505EBD205C9F88B
:102560000050304621F0B6FB022848D1B6F89E3024
:10257000D6F898C0B5EB830F4FEA830031D82B46CD
:10258000984221D12E460023B3422CD18542C1D995
:102590002A1A0021404452F0A3F9BBE712993046B1
:1025A000CDE9004104A925F099FB04460028C4D1D7
:1025B000014608A821F086FE0028BDD004A9504697
:1025C00022F06DF80446B8E723F0030603F0030297
:1025D000D1005CF80620CA4012F0FF0F16D101337B
:1025E000CEE70646CFE723F0030E03F00302D10047
:1025F0005CF80E20CA4008F803200133C4E72A46DD
:102600004146504621F0F5FE044683E76FF007048B
:1026100080E700BF80B0FFFF2DE97343DDF8209015
:102620001C4616464B4622460546884625F0E6F9E6
:1026300048B905F11C034CB1CDE900494246314689
:10264000284625F04BFB02B0BDE870830048FAE74E
:1026500080B0FFFF70B40568DDE9036C8DB14BB944
:10266000CC1EE4B2082C04D8084B53F8243043B1F4
:102670005B7833B12C693CB1CDE9036CA44670BCE6
:102680006047034870BC70470248FBE79862070840
:1026900080C1FFFF00C1FFFF37B50223154601AA25
:1026A000044626F091FC18B9019B1BB96FF063003A
:1026B00003B030BD236893F90030002BF6DB019B9B
:1026C0003BB122681178A1B1042BEFD801D10B06E0
:1026D000ECD400232B60019B5A1E0192002BE7D003
:1026E0002368296813F8012B42EA01222A6023603B
:1026F000F1E70132013B22600193E0E72DE9704FE1
:102700009AB01E46002304900C469046054600935E
:10271000EB69A3B1D5F8903100954BB94FF4CA716C
:10272000012020F039FCC5F8900118B9994E60E0FD
:102730001D46EDE71BF083FA0095D5F89051002077
:10274000CDE90B00CDE90D00CDE90F00CDE9110079
:102750001390002D00F0C083002C00F0BD833023C7
:1027600006AA04EB080107A8CDE9068426F02CFC94
:1027700080B128461BF02EFA874E009B1BB1009AB1
:102780000023C2F89031049B9D4232D0284620F0AD
:10279000EBFB2EE0DDE9063202EB0309A9EB0401B5
:1027A000A96056B3012020F0F7FB0790E8600028ED
:1027B00000F09083AA68214652F04CF80123AA68E1
:1027C0002B60069B0799D31A0B44079301EB020970
:1027D000079BAB6106AA3023494607A826F0F4FB05
:1027E000064668B12846A6F506561BF0F3F9002EFA
:1027F000C3D130461AB0BDE8708FEC602E60E7E7B9
:10280000DDE9063202EB0308AB69A8EB03036B6159
:1028100017AAA023414607A826F0D6FB90B310F1D3
:10282000620F2BD1EE61079BA8EB0302002A45DD66
:102830001A7802F07F02022A42D15A1C07921B78B2
:102840002B6205F12402414607A826F08DFB78B3E0
:10285000B0F50A5427D10BAB05F12C02414607A86D
:1028600026F0C6FB10B1B0F50C541CD1EB69022B5D
:1028700028D928461BF0AEF9484E7EE7A0F506544D
:102880008CB9D0E71799079E0E4405F11C0231461A
:1028900007A8FFF701FF10B1A0F50854F0E7079B68
:1028A0009E42C0D03E4C28461BF094F9264664E771
:1028B000079B6A6AAB6213440793CCE7394CF2E793
:1028C000394CF0E70133EB61D5F88C3183B9374CE3
:1028D000206808B9364CE6E72B6B62689A4205D14E
:1028E000696B52F013F8002800F008831434EFE706
:1028F000304CD8E7304CD6E71799079E0E4405F1C7
:102900009002314607A81BF0C5F904460028CAD139
:1029100005F1A802314607A81BF0BCF904460028BF
:10292000C1D1079B9E4200F02283244CBBE7079E47
:10293000D5F8F010C5F8F460A3230E44C5F8EC30C8
:1029400017AA3023314607A826F03EFB002840F0A6
:102950006D83079B179A13449E4200F06C83184CBA
:10296000A1E70023CDE9143316930993029930238C
:1029700008AA07A826F028FB30B3A0F51454002CB1
:1029800091D1079B984500F05B8228461BF022F905
:102990000C4EF2E680D7FFFF80DEFFFF80DAFFFFFC
:1029A0009ADDFFFF20DDFFFF1EDDFFFF2475070816
:1029B000D2D9FFFF00D8FFFF00DDFFFF9ADBFFFF4A
:1029C0009ADAFFFF1ADEFFFFDDE9072302EB030AB5
:1029D0005146062315AA07A826F0F6FA0028CCD1FE
:1029E0000623159A1493079B16935146134407A880
:1029F00009AA079326F06EFB10B110F1620FBCD14B
:102A0000042308AA514607A826F0DEFA0028B4D10C
:102A1000DDE907631E44B245A1D1DDE915B1AA4C39
:102A2000206830B9099B0796002B00F00883A74C5B
:102A300039E763685B4507D15A46019151F066FF5B
:102A40000199002800F051821434E9E71A43202B41
:102A5000C5F8582100F03E8110DC013B072B00F245
:102A6000E981072B00F2E681DFE813F0D600BD0014
:102A7000E4015800E401E401E4016201B3F5006FF0
:102A800074D0B3F5803F00F03C81B3F5807F40F017
:102A9000D181C5E95711302317AA314607A826F07E
:102AA00093FA28B1A0F51454002C00F0C882FAE67D
:102AB000079B9E4200F0C38205F5AE72314607A81F
:102AC000019226F007FB78B110F1620F019AE9D16B
:102AD000314607A8FFF7E0FD0028E3D1D5F85C31C7
:102AE00013B10123C5F85C31079B9E4200F0A78219
:102AF00005F5B072314607A8FFF7CEFD0028D1D109
:102B0000079B9E427FF42BAFD5F860316FF00042F7
:102B1000934266D00133C5F8603190E2002317AAD2
:102B2000314607A817938DF860301993FDF7B6FC6E
:102B300020B1B0F5145400F08282B4E6179B13B9AB
:102B4000C5F864317BE21999C5F864010A5CC400D8
:102B500002FA04F4D5F86421013022438342C5F817
:102B6000642100F06C820428F0D168E2062305F5A8
:102B7000B4701022CDE9173051F0B2FE30230AAA0A
:102B8000314607A826F020FA0028D2D1079B0A9ADE
:102B900013449E421DD06FF06500CAE75A1C07928D
:102BA00093F800A0BAF1060F40F09C810AAA3146C2
:102BB00007A826F0D9F90028BBD10A9B079A5146ED
:102BC00017A825F0FDFE0028B3D1079B0A9A1344ED
:102BD0000793079B9E42E1D8D5F87031002B40F057
:102BE0002E823B4C5FE60023179317AA042351461D
:102BF00007A826F0E9F900289BD10423179AC5F805
:102C00000831079BC5F810311344C5F80C21079310
:102C10009A4500F01482A2E60023179317AA3023E6
:102C2000314607A826F0D0F900287FF43BAF079B78
:102C3000179A13449E427FF492AE802317AA31461E
:102C400007A826F0C1F9002839D1179A079BC5F8C3
:102C50001C3104211344C5F81821C5F81411079339
:102C6000079B9E4228D9A12317AA314607A826F020
:102C7000ABF900287FF416AF0799179B05F5907202
:102C8000194407A81BF040F9044600287FF40BAE56
:102C9000822317AA314607A826F096F900287FF468
:102CA00001AF179A079BC5F8383102211344C5F8C4
:102CB0003421C5F830110793079B9E42A9E710F114
:102CC000620FCDD0EEE600BF3C7607089EDAFFFF2C
:102CD0009CDAFFFF302317AA314607A826F074F9C3
:102CE00000287FF4DFAE079B179A13449E427FF4BF
:102CF00036AE05F1F802314607A81BF005F9044687
:102D0000D2E617918DF86010199117AA314607A8DD
:102D1000FDF7C4FB00287FF40CAF179B13B985F8AF
:102D200078318CE1012B7FF45CAF199B1B78F6E7BF
:102D30000DF15C0B30235A46314607A826F044F9C2
:102D4000044668B1A0F51454002C00F07881099B6A
:102D5000002B7FF4A8AD14F5025F00F07081A2E5AE
:102D6000179A079B13449E4260D1002A5ED005F556
:102D7000A47A079B9E4205D84FF00003CAF80C3096
:102D8000E2D053E030235A46314607A826F01CF91A
:102D900010B1A0F51454D7E7079A179BD3180193E5
:102DA000019906235A4607A826F00EF90028F0D10B
:102DB000179A079B0393042A3AD11946A54805920E
:102DC00051F0A4FDA44B059A002818BF1C46DAF860
:102DD000083073B1DAF80C300592002B7ED1102147
:102DE000012020F0D9F8CAF80C00002878D0059A04
:102DF00082460623CAF80030039BCAE90123079BD9
:102E0000179A1344019A07939A420BD901993023D8
:102E10005A4607A826F0D8F80028BAD1079B179A77
:102E200013440793079B019A9A42A2D08B4C8EE7DA
:102E3000894CCCE7099B002B40F009810796FEE006
:102E40000EAB11AA494607A826F0D2F818B1B0F582
:102E50000C547FF428AD2A6B129B9A4213D113991C
:102E6000686B51F053FD064668B90B9A0E9B9A4267
:102E700009D10C9A0F9B9A4205D14AB110990D982D
:102E800051F044FD20B128461AF0A4FE744E74E4BB
:102E9000079BA9EB0302002A1ADD17AA494607A8D7
:102EA0001C7826F0F0F840B1B0F512547FF4FBAC7A
:102EB000079B99453FF49DAC67E5C5F87C41179A9F
:102EC000079BC5F884311344C5F880210793EFE7C9
:102ED000644CE8E4644E50E4644E4EE4644C36E7DF
:102EE000644C34E76FF0610023E62369D5F858217C
:102EF00012EA03013FF4AAAD5D4CD4E4237C85F8CB
:102F00008831637C85F889310B9B052B02D0002B1F
:102F10007FF4F0AC0C9B002B7FF4ECAC079B2B6494
:102F200006AA3023414607A826F04EF80646002898
:102F30007FF458ACDDE9063105F15002194407A8C9
:102F40001AF056FF044600287FF4ADAC2A6C079BAC
:102F50009B1AEB6317AA3023414607A826F034F8E2
:102F600000283FF4C9ACB0F510547FF49CAC079B2B
:102F7000EB6406AA3023414607A826F025F806464A
:102F800000287FF42FAC069B53B1079905F170021E
:102F9000194407A81AF02CFF044600287FF483ACDC
:102FA000079AEB6CC5F8C820D31AAB6405F1CC02C4
:102FB000414607A825F01AFB044600287FF473ACAD
:102FC000D5F8C820079B9B1AC5F8C430EB69023BB3
:102FD000012B19D8012305F1D402414607A81AF0A4
:102FE0003BFE044600287FF45EACEB69023B012BFC
:102FF0000AD8022305F1E002414607A81AF02CFE88
:10300000044600287FF44FACEB69032B7FF4B9AC86
:10301000079B98453FF414AFA32305F1F002414606
:1030200007A825F0D1FF00283FF481ACA0F5145487
:10303000002C7FF438ACD5E93C32D3180293079BBF
:10304000029A9A423FF68DAC3FF49BAC87E4024C67
:1030500029E400BF9162070880DFFFFF9ADAFFFFD3
:1030600080D9FFFF20DBFFFF80D7FFFF00D8FFFFE5
:1030700000DBFFFF96DAFFFF73B50C4601A93DF0B8
:103080006FFD019BF3B1024603449A42154606D2F6
:1030900012F8011B2E29F8D030390929F5D9611E03
:1030A0004FF00A0C03340023854202460DD801F884
:1030B000013F8C4211D0954211D913782E2B0ED19D
:1030C000501CF0E7236002B070BD10F8016B2E2E8B
:1030D000EDD00CFB0363303BE6E79542F3D00148AB
:1030E00045F0B8F9B658070830B597B06FF004034B
:1030F000054604A801934CF023FB044688B9114A05
:10310000029502A940F2EA650220039530F0C8FA60
:1031100028462CF0D9FE01944CF02AFB019817B0F8
:1031200030BD059C0849206838F04EFF0028F5D0D6
:10313000204641F091FE01A943F0E6FE019B5B426F
:103140000193EBE71871070844720708012973B56A
:10315000056806460C4625D92B6A994222D221469B
:10316000306801942AF05CFB0199044610B90020F4
:1031700002B070BD012815D0431C15D0002228468E
:103180002AF0A4FE0028F3D12A6AAB69911E8B4273
:1031900005D20133AB612B7A43F001032B729442C9
:1031A000DDD3E4E70220E3E70120E1E72DE9704FFA
:1031B00086B08046894616469A4600240DF1100BCB
:1031C0000F9BA34203D8002006B0BDE8708F0F9B71
:1031D0001D1B0E9B082D28BF0825E318CDE900A371
:1031E000CDE902B5331B4A460021404626F03CFD9E
:1031F0000028E9D1109B2A461868594626F0C8FCD9
:10320000109B2C441860DBE72DE9704F86B0814697
:103210008A4616461D4600240DF1100B109BA34252
:1032200001D800201EE0109BA3EB04080E9BB8F110
:10323000080F28BF4FF00808E318CDE90053CDE987
:1032400002B8331B52460021484626F00DFD48B90E
:103250000F9B42461919584651F058FB002804D0DC
:1032600005DB022006B0BDE8708F4444D6E701209C
:10327000F8E700002DE9704F2DED028BAAB0002475
:103280009A46BDF8DC300493CDE90A44BDF8E0303D
:10329000069308EE100ABDF9E43005938B461546F7
:1032A000A146504626F0CCFCDBF80C3000EB0508BC
:1032B000984564D209AACDE9018204230393DBF87F
:1032C0000020009218EE100A18EE102A002126F0B5
:1032D000CBFC002840F01B81099B1BBA8AEA030A39
:1032E000DBF800300A934AF0004A08F10403CDF8F5
:1032F00024A00B930AAE0999369B81EA09021A4071
:10330000854B1A4039D1369BC3F38923002B00F03B
:10331000A0803C2565432AAB2B44349843F86C0CC1
:10332000359843F8680C369843F870AC43E91909AE
:10333000049823F85C0C069823F85A0C059823F897
:10334000580C3A9843F8540C3B9843F8486C43E9BE
:103350001401DDE90A0143E91EB8443B83E8030098
:103360002AAB1D44A5F14C03CDE905223B936B4BE1
:103370003692013491463A930492454691E7359B43
:10338000002B40F3C280349B1B680993349B5E681A
:1033900008333493359B013B3593A846ABE7B2F530
:1033A000817F1DD100250999C1F309039D42E4D213
:1033B000059B7268C1F389211944B36843EA8121EE
:1033C000337803F5407341EA0351DDE93A30984719
:1033D0000028C0F29C8006F10C06CED10135E2E750
:1033E0000599324603EB8121DDE93A309847002800
:1033F000C0F28D80C1D0002C00F089802AAA013C47
:103400003C2303FB042353E91CA2349253F8682C99
:10341000359253F8642C369233F85C2C049233F8CE
:103420005A2C069233F9582C059253F8542C3A92A0
:1034300053E9110153F8502C3B9253F84C2C09924C
:103440000AAA53E91EB882E8030053F8609C53F8B7
:10345000486C369A099BC2F389223AB10499C3F3A6
:1034600089228A4289D306998A4286D2C3F30A52B4
:10347000002A82D040F201118A4290D107933A9BF0
:103480001A46264B9A423FF478AF3C222AAB02FB05
:1034900004350021A5F1780051F022FA349B45F85B
:1034A0006C3C359B45F8683C369B45F870AC45E96B
:1034B0001939049B25F85C3C069B25F85A3C059B72
:1034C00025F8583C3A9B45F8543C3B9B45F8503C0A
:1034D000079BC3F30902049201320692049AC3F3D4
:1034E00089239B1A059A13441BB20D4A05930023A6
:1034F00045E91EB8CDE935320134B3464FF00059E5
:1035000034934FF0FF3A984637E7002073E72AB02C
:10351000BDEC028BBDE8708F0000F07FE9870408E6
:1035200000FC0F602DE9704F86B0DDE90F4A013BCA
:10353000119EDFF898B004938046894615460EB96F
:10354000304640E02B68E868023316D1D5E9011215
:103550000A44944211D28C420FD3121BB242A4EB04
:10356000010128BF324601445046059251F072F9DC
:10357000059A92441444B61AE1E7D8F868C06FF08F
:103580000103DCF814102B60049BB4FBF1F20B4434
:10359000234401FB1242B3FBF1FE01FB1E315B1A17
:1035A000DCF828108B4228BF0B46A21ACDE9010394
:1035B0006A60AB6000920E9B5A464946404627F02F
:1035C000C7F80028BBDA06B0BDE8708F00FCF7FF33
:1035D0002DE9704F88B00646894605924BB911997E
:1035E0004FF0FF320A60129A0020136008B0BDE865
:1035F000708F013B07A9806E079326F004FB10A98A
:103600000546B06E26F0FFFA4FF0040A80460DF131
:10361000140BA845059A03D3119B1A60109BE2E78F
:10362000A5EB0804B4FA84F495FAA5F3B3FA83F38E
:10363000C4F11F049C4228BF1C46A300CDE900230F
:10364000CDE902BA04234A460021304626F00CFB9D
:103650000028CBD1012303FA04F42D1BD9E7000085
:103660002DE9704FC488944292B00646154678D32F
:103670003D4B06931FFA82F90123ADF81030A4EBFD
:1036800009030DF11C089BB29A4238BF4B460591C5
:103690002C22002140469B46ADF81230CDF80C801C
:1036A00051F01EF9336801931FFA8BFB4FEA8B022E
:1036B00003EB8501404651F0CDF80BF1020B019B65
:1036C000ADF812B04FEA850A2A460021944240D84C
:1036D00003A905AA084621F081FF0446A8BB03AA56
:1036E0003146304621F055F8044670BBB6F806B0B6
:1036F000ABEB09039BB29D4238BF4B4601462C22DF
:103700004046ADF8123051F0EBF83368BDF8129036
:1037100001934FEA890203EB0A01404651F09AF8FF
:10372000BDF81A20019B9144ADF812905D4514D369
:1037300003A905AA084621F051FF044628B903AAA7
:103740003146304621F025F80446204612B0BDE847
:10375000708F43F822100132B8E743F82540013555
:10376000E4E70024F1E700BF010002002DE97F4FEC
:103770009B464368DDF83C90DDE90DA504460E4606
:1037800090467BB94FF420724FF4FA71362012F054
:10379000D9FA606020B94FF0FF3004B0BDE8708FF7
:1037A0000C232381B6F800010A3080B2BAF1000F71
:1037B00001D0284480B2B9F1000F03D0B9F800312C
:1037C000184480B22389184463681B899842E2DC5C
:1037D000012342463146CDF800B0204617F0F4FAF6
:1037E0000C9813F009FB238903900422606803A955
:1037F00011F01FFD0028D0D1B4F8088008F10606AA
:10380000B6B22681BAF1000F0BD0ADB26068334674
:103810002A46514611F00DFD0028BED122891544DB
:103820002581B9F1000F0ED1238960689B1B5BBA1B
:10383000ADF80A3008F104039BB202220DF10A012F
:1038400011F0F7FCA9E74946204617F064FA002872
:10385000EAD0A2E770B5284B1B780833D0B050F8F7
:10386000236030220546002103A851F039F8314683
:103870000FA8029517F0D4FB01230093FF220FA994
:1038800002A817F0A1FA044678BBBDF81A20316CE3
:103890000132ADF81A2091B101231A460FA817F092
:1038A000DFFA01230093FF220FA902A817F08CFA78
:1038B0000446D0B9BDF81A300133ADF81A306B6840
:1038C00013B101238DF83930336C13B1C0238DF857
:1038D0003B30002141F2E94302A8ADF81210ADF8E7
:1038E0001830059117F0BAFC0446039808B111F09E
:1038F000F9FE204650B070BD304000200E4B1968D4
:1039000030B4B1B10D4D00228C68AC420DD1CC6801
:1039100084420AD1086832B9186030BC082011F01E
:1039200043BE2146F0E71060F7E70C680A46002C1A
:10393000F7D130BC704700BF34400020E9B4030821
:103940002DE97847064615460C4659B30B89934234
:1039500028D338B30389934224D34FF00009CA46D1
:10396000B6F80A80628970686168A8EB0A08A2EB61
:103970000902904528BF9046A8458CBFA8461FFA6B
:1039800088F842464944504450F064FF6289738984
:10399000C144A5EB08009145C24485B222D32468F6
:1039A000F4B955B36FF00F0011E04FF0000A6289CF
:1039B00023899A4201D123685BB92EB17289338978
:1039C0009A4201D1336823B9002DC9D12846BDE8F8
:1039D00078876FF00500FAE7002CE6D1A246EDE704
:1039E0004FF000099A45E2D13668002EF4D1002D3F
:1039F000D8D1002CD9D12046E9E79A45A946DDD196
:103A0000F2E7000070B5042012F0E0F8044678B147
:103A1000084D024605F110062B4603CBB342106059
:103A200051601D4602F10802F6D1606811F08AFD6E
:103A3000204670BD204000202DE97047AB4B87B079
:103A400091460C4619F0010F1A68A949009014BF5D
:103A5000542352238046A7484DF0DCF96379039341
:103A600023790293E3780193A3782278A249009303
:103A7000A04863784DF0CEF9E37A0393A37A0293DA
:103A8000637A0193237AA27900939C49E379994858
:103A90004DF0C0F9227B637B43EA022340F6060225
:103AA000934200F0868048F2DD62934200F083800A
:103AB000B3F5006F40F08180914A92498D484DF0F6
:103AC000A9F9B8F10E0F69D9237B082BA8F10E05CF
:103AD00004F10E0640F0D280637B002B53D1A37B10
:103AE000452B50D194F82130059394F8203004935D
:103AF000E37F0393A37F0293637F0193237FA27EDF
:103B000000938149E37E7B48258A4DF083F9E27D6D
:103B10006DBA062AADB255D104F126000EF0E2FCD2
:103B2000824604F12A000EF0DDFCE18D268EA38C86
:103B3000628C49BA76BAC1F30338B6B2C1F3080150
:103B40005BBA52BACDE90281CDE900A004966F4973
:103B500068489BB292B24DF05DF9B8F1050F04F1DF
:103B60003606A5F128050ED9A8F105084FEA880800
:103B7000674960484DF04EF931464046FCF786FBF8
:103B80004644A5EB080519F0020F07D061495948D2
:103B90004DF040F931462846FCF778FB19F0040F48
:103BA00000F0A1805C49534807B0BDE870474DF074
:103BB00031B95A4A81E75A4A7FE7A289594952BA2C
:103BC00092B27BE7112A51D1B4F822A0B4F8248034
:103BD000554948489AFA9AFA98FA98F81FFA8AFAD0
:103BE0001FFA88F8434652464DF014F9E58CBAF1B5
:103BF000430F6DBAADB204F12A061CD1B8F1440FDF
:103C0000C1D14A493B484DF005F931466C20FCF7DB
:103C10003DFB474937484DF0FDF894F81C31013B16
:103C2000EC3D04F58B76072BADD8DFE803F00C11E3
:103C3000131517191B1DBAF1440FA4D1B8F1430F86
:103C4000A1D13C49DEE73C492A484DF0E3F89AE728
:103C50003A49F9E73A49F7E73A49F5E73A49F3E7E4
:103C60003A49F1E73A49EFE73A49EDE73A4921485D
:103C700004F12206143D4DF0CDF884E7862B82D165
:103C8000637BDD2B7FF47FAFA37B1B09062B7FF4C7
:103C90007AAF30460EF026FC637D0293237D0193BC
:103CA000638A2E495BBA9BB2C0F307520093C0F3FC
:103CB000130310484DF0AEF829490E484DF0AAF80C
:103CC00004F116011020FCF7E1FA264909484DF0ED
:103CD000A1F804F126011020FCF7D8FA04F1360609
:103CE000A8F136054FE707B0BDE8708748660020A9
:103CF000C8580708F8710708DD5807080059070871
:103D0000C358070823590708395907085E59070897
:103D1000AA5907086A5A070858580708BA580708DE
:103D2000BE5807082C590708B1590708CC5907088D
:103D3000DA590708D3590708E1590708EB5907086A
:103D4000F2590708FB590708045A0708095A0708D7
:103D50000F5A0708185A0708205A0708295A07084F
:103D60005A5A0708625A070813B50C4C246824688D
:103D70000B4600F07F4164B9002914BF13210321D1
:103D8000019200220092024604480DF089FF02B021
:103D900010BD002914BFEC21EB21F1E7DC4000202D
:103DA000FF292DE9734F044603D98B18B3F5885FBB
:103DB00011D9002504F2BD102B46FF244FF0010C51
:103DC0004FF0100E4FF055084FF0AA09954266D1FA
:103DD0004FF000083CE0EFF3118B602383F312886F
:103DE000560250D0DFF8A481A1F5807140464D0203
:103DF0000EF046F8D8F80030D3F8109009F580534B
:103E00001B680193434542D141F2040259F8021064
:103E10004B1C3CD0B1EB153F4FEA153037D3721E27
:103E20002A44B1EB123F32D881421AD94FEA013A03
:103E30002246C5EB013128460091FFF795FFDDE9E9
:103E40000013804640B118460EF010F88BF311882D
:103E5000404602B0BDE8708FA6EB0A062E440C4423
:103E60005546C5F30B01C1F58058B04528BFB04693
:103E700042464944204650F0EDFCB6EB080604D11A
:103E800042480DF0F3FFB046E0E744444544224683
:103E900031462846FFF768FF80463C48D4E7CD42CC
:103EA00071D1A0F5DF7606F8013FB042FBD1437037
:103EB0008470C470047180F805C08471C471047288
:103EC000437280F80AC0C3720373437380F80EE034
:103ED000C373037443748374C37403754375837528
:103EE000C375037643768376C37603774377837708
:103EF000C37780F82030013580F8213080F82230F7
:103F000080F8233080F8243080F8253080F826307F
:103F100080F8273080F8283080F8293080F82A305F
:103F200080F82B3080F82C3080F82D3080F82E303F
:103F300080F82F3080F8303080F8313080F832301F
:103F400080F8333080F8343080F8353080F83630FF
:103F500080F8373080F8383080F8393080F83A30DF
:103F600080F83B3080F83C3080F83D3080F83E30BF
:103F700080F83F3080F8403080F8418080F84290EF
:103F800000F5007022E76FF0040861E7DC400020D4
:103F90002DE97043804686B0D1E900600C4643F0BD
:103FA0003AF80622054603A9A06842F0B7F9B8F12D
:103FB000030F13D17168049A03980029B8BF01F266
:103FC000FF1105EB6121520A01F58071FFF7E8FE50
:103FD000400040F0010006B0BDE87083174B9E42E0
:103FE00025D0E06843F017F8B368B3EB053F80468F
:103FF00020D9039AD6F80490049C0192EFF311861D
:10400000602383F3128874B10D4805EB19350DF068
:1040100037FF2146019A08EB0530FFF7A5FE04465D
:1040200007480DF023FF86F311882046D0E76FF094
:104030000400CDE76FF00D00CAE700BF048C07084D
:10404000DC40002010B58021044608F03FFA2046ED
:104050000021BDE8104008F039BA08B5D0F8143294
:104060000BB9022008BD1B68012198470028F9D030
:10407000F7E70B688360C3684A6823F47F6323F023
:104080000F0313438A68134343F48063C360002023
:10409000704710B5D0F8180290F8653800EBC304EB
:1040A0000133DBB2042B4FEA022208BF002384F85D
:1040B0004418C4F8482880F8653810BD064A012124
:1040C0001368814023EA010313601168022303FA95
:1040D00000F00843106070470074004008B5007994
:1040E000FFF7ECFF062008BD024BD3E91703A0FB46
:1040F000030170475840002038B5674B1B78052BEB
:1041000028D1664C2068436BDB053ED54FF48073A5
:104110008363C36B23F44E7323F00203C363236BE7
:1041200013F0080F236B16D09D0702D4236B99065A
:1041300005D50BF0BFFA10B1A36B1843A063236839
:1041400040F2FF529A63012384F83430236BDA077C
:1041500000D4236B38BD1B06FCD5236B9D0605D50B
:104160000BF0A8FA10B1A36B1843A063236BD90717
:10417000F0D4236B9A07EDD42268D36A23F00803A6
:10418000D362012384F83430E4E7436B5B040FD53A
:104190004FF480438363236A1A1F03F11C0152F812
:1041A000045FC0F880509142F9D120332362D1E7F7
:1041B000436B1D040FD54FF400438363A36A1A1F9A
:1041C00003F11C01D0F8805042F8045F9142F9D10C
:1041D0002033A362BEE7426B40F23A231A42B9D0C1
:1041E000436B990742BFA36B43F00203A363436B86
:1041F0001A0742BFA36B43F00803A363436B9B06FC
:1042000042BFA36B43F02003A363436BDD0642BFB1
:10421000A36B43F01003A363436B990542BFA36BE9
:1042200043F00803A36340F2FF738363C36B23F47B
:104230004E7323F00203C363236B1A0626D5206C4A
:1042400058B1174B036590F83530022B13D08023FB
:104250004365BDE838400BF01ABBE06BA0B1114BD1
:10426000036590F83530022B05D080234365BDE807
:1042700038400BF0F1BA0268052380F83530136836
:1042800023F00103136065E7A0637AE7236B1B0744
:104290007FF560AF75E700BF484000205840002020
:1042A0008FF8020859F80208034B18696FEA90204A
:1042B00000F00100704700BF0014024008B5FFF78E
:1042C000F3FF002814BF1E200E2008BD2DE9704FFB
:1042D000A3490B7813F0040292B0884640F0AA83F9
:1042E000012B04D00026304612B0BDE8708FFFF7D6
:1042F000DBFF06460028F5D09A4C9B4BA260C4E930
:1043000000324FF40073C4E90332C4E9052294F883
:10431000342002F0FF0392B900932377934B5A6C39
:1043200042F400625A645B6C03F400630093009BE8
:104330008F4B402283F8312331200DF07FFB226820
:10434000032184F83410536823F4FD4323F07F03E2
:1043500043F076035360874B00251D6011600122F6
:104360001A60022006F0A4FFD4F800B001954FF4C3
:10437000806307A958460B93CDE90755CDE9095548
:10438000FFF777FE7C4A4FF4FA5A1368B3FBFAF34F
:1043900041F2883A0AFB03FA53469146013B38D36F
:1043A000DBF834201506F9D540F2FF53CBF838304E
:1043B0004FF4D57108232568CDE907134020002369
:1043C000CDE9090307A94FF4806328460B93FFF753
:1043D00050FEBAF1010A08D36B6B13F0450FF8D009
:1043E0006B6B5A071ED54023AB630023A3644FF6C3
:1043F000FF75019B20685A1CAB42019200F01C83A0
:1044000000210BF03FF90146002831D04FF08050D9
:1044100001E04FF00040012384F83430A16B0843E1
:10442000A063D0E16B6B5B0601D54023AB63012336
:10443000A3644FF6FF75019B20685A1CAB420192A2
:1044400000F0FA8200210BF01DF90028E3D120686A
:104450004FF080410BF048F80028DCD1014620687D
:104460000BF076F80028E6DA45000CD501230BE0C6
:1044700020680BF039F801460028C7D120680BF0FE
:1044800067F80028B5DA0023256863642B6898076D
:1044900000F06282636C032B00F08980002302220B
:1044A000CDE9073207A9C02228464FF4806BCDE939
:1044B0000923CDF82CB0FFF7DCFD28460AF0F0FF09
:1044C000054600283CD1014620680BF041F8042144
:1044D000606720680BF03CF80821A06720680BF0AB
:1044E00037F80C21E06720680BF032F8636CC4F8F1
:1044F0008000032B5BD0D4F800A007954023032154
:10450000CDE90813504607A9CDE90A5BFFF7B1FDD5
:10451000D9F800304FF4FA52B3FBF2F241F288338B
:104520005343013BC0F0C281DAF8342012F0450F4A
:10453000F7D0DAF834305A0709D50425CAF83850CC
:10454000012384F83430A06B0543A5633BE1DAF81E
:10455000345015F0010511D00123CAF83830EFE7C7
:104560004840002058400020002C01400038024004
:1045700000E100E0A080254200000020DAF81030C1
:10458000DBB2032B40F0908140F2FF53CAF8383081
:10459000294650460AF0DCFF10F4604340F0778172
:1045A000626C2568032A4FEA104040F082810421A2
:1045B00020680AF0CDFF636E9A0F8DF81C20C3F3BC
:1045C00083628DF81D20C3F301628DF81E20C3F3B2
:1045D00007428DF81F20C3F30722DBB28DF820209D
:1045E0008DF82130A36E1A0E1201ADF82220BDF80D
:1045F0002220C3F3035192B20A43ADF82220C3F341
:10460000C031C3F303428DF824208DF82510C3F385
:1046100080318DF82610C3F340318DF82710C3F395
:1046200000318DF8281000218DF82910616C000DE3
:10463000E064C3F30722002940F06681920202F48D
:1046400040620B920B9A9B0003F47F7313430B930E
:104650000B9BE26E43EA92730B93C2F3C2638DF835
:104660003030C2F302638DF83130C2F342538DF81B
:104670003230C2F382438DF83330D30B03F006039C
:104680008DF834309DF83410C2F30723C2F3C032E2
:104690000A438DF834200B9A9DF834109DF82400BD
:1046A000023101328A4001218140A165490A6265D7
:1046B0004A43E2654FF400722266C3F380125B0046
:1046C00003F07E038DF835208DF83630E36E9DF8CB
:1046D0003620C3F3C0110A4303F07F038DF8362060
:1046E0008DF83730236FDA0F8DF83820C3F341721D
:1046F0008DF83920C3F382628DF83A209A0D02F0CA
:104700000C028DF83B209DF83B20C3F381510A43F6
:104710008DF83B20C3F340528DF83C2000228DF8E9
:104720003D20C3F300428DF83E20C3F3C0328DF824
:104730003F20C3F380328DF84020C3F340328DF820
:104740004120C3F300328DF84220C3F381228DF85B
:104750004320C3F30122C3F346038DF844208DF8B0
:10476000453001238DF84630236D25681B040293E4
:104770004FF007094023CDE9039300214FF48063F4
:10478000CDE90513284602A9FFF773FC284641F23C
:10479000883249460AF0E6FE054600287FF4D0AE8E
:1047A000D4E901030343E0682168034320694A68B0
:1047B000034360690343A06922F4FD42034322F0EE
:1047C0007F0213434B6000210123A163216384F81E
:1047D0003430032384F83430636C032B00F00981F8
:1047E00020680AF0B5FE10F0007040F0FC80944D97
:1047F000CDE9020008212068D5F800A00AF0ECFFFE
:10480000A946002832D1216D206809040AF03AFF38
:1048100060BB25684FF0FF336B620823AB62EB6A25
:1048200023F0F70343F03303EB624FF0330B4023E5
:10483000CDE908B307900A904FF4806307A9284692
:104840000B93FFF716FC41F28832594628460AF0CE
:1048500089FE58B9236840F22A415A6B0A425A6BC2
:104860007DD0150740F18F8008209863A36B184313
:10487000A063A36B2168002B00F0C08040F2FF53BF
:104880008B63012384F83430FBF72AFE2AE54304C6
:1048900007D410F4004F14BF4FF480554FF4803507
:1048A0004EE64FF400554BE6012549E64FF0004532
:1048B00046E620650004C02207900920CDE90802E1
:1048C0000A9307A94FF4806328460B93FFF7D1FBA7
:1048D00028460AF0E5FD054600287FF431AE014682
:1048E00020680AF035FE0421606620680AF030FE78
:1048F0000821A06620680AF02BFE0C21E0662068E3
:104900000AF026FE206752E6012919D11B0403F4A0
:104910007C130B93E36E0B9A190E42EA01220B9261
:104920000B99C3F307420A430B920B9A013292028E
:104930006265E2654FF40072C3F30723A265BBE62C
:10494000236840F2FF529A63A36B43F08053A36342
:10495000012384F8343007E74FF08065F0E59202D8
:1049600007D512AA02EB8002D3F8805042F8405CCF
:104970000130D9F80020A2EB0A0201327FF46DAFBA
:104980004FF0004072E75A6B900701D502206CE7A8
:104990005A6B910601D5202067E740F2FF529A63D7
:1049A000029A12BA520321D5216D184609040AF061
:1049B00069FE00287FF45AAF25684FF006090223EC
:1049C000CDE907394023CDE9093007A94FF48063C9
:1049D00028460B93FFF74DFB41F2883249462846A3
:1049E0000AF0C0FD42E74FF400603FE74FF08060FF
:1049F0003CE7A36B43F08053A3633AE74A68D4E9EA
:104A0000013022F4FD4222F07F0203431343E268A7
:104A1000134362691343A269134343F400634B6079
:104A2000012384F8343098F8003043F0040388F808
:104A3000003058E4012656E44FF08070EBE400BFEC
:104A40004866002008B5084642F0E5FA0138042817
:104A500023D8DFE800F0060E1012030040F20140F8
:104A600008BDFFF733FC002814BF01204FF0FF30D2
:104A7000F6E7FBF74FFD0120F2E7094B1B78052B0A
:104A800008D1FFF731FB400A40EAC150400040F036
:104A90000100E5E700200146F5E74FF0FF30DFE7D2
:104AA0004840002008B5084640F068FA30B1FFF7EA
:104AB0000DFC002814BF1E200E2008BDFBF72AFDA8
:104AC0001E20FAE709484368DB0710B50CD5EFF361
:104AD0001184602383F312880DF0DCF9002101209A
:104AE00005F034FE84F3118810BD00BFDC400020C7
:104AF0000A4808B54368DB070ED5094B82681B6876
:104B00009B1AB3F57A7F07D30DF0C4F9BDE80840CE
:104B10000021012005F01ABE08BD00BFDC400020C6
:104B2000486600202D4B37B51D78002D54D101214A
:104B300019702B4B2B4C2C4A5A602C4B23602C4B5E
:104B40002C4865604FF480429A612B462A4606F055
:104B5000E5FB2368DA689868126829469047204682
:104B60000DF08EF9AB2120460DF015F923681B6876
:104B7000012B25D16A4605212046CDE90055FBF7DA
:104B800073FA20B901AA35212046FBF76DFA019A84
:104B90009DF80050120292B2154302F4007252EADC
:104BA00000030DD106210F480DF0F5F80D4845F42E
:104BB0000073022201210DF0CEF80A480DF06CF8C6
:104BC00008480DF053F90023A3600B4B602283F8D3
:104BD000042304200CF032FF03B030BDF05000205D
:104BE000F4500020DC400020790202089C8D070868
:104BF00000040240087C070800E100E070B50546AB
:104C00000846164642F007FA013805284DD8DFE875
:104C100000F00316161A272FFFF784FF304642F0E4
:104C2000FAF9012803D1224B9D4205D028730020B8
:104C3000400040F0010005E04FF0FF30F8E7FFF7DB
:104C400041FF012070BD1A4B9D4206D02A7BA86807
:104C50000AB1000BECE7400AEAE74FF48850E7E7B7
:104C60002B7B002B14BF4FF400504FF48060E0E723
:104C70002C7BC4B130466D6842F0CDF92D0B044653
:104C8000EFF31186602383F312880A480DF0F8F8D9
:104C90006119090307480DF0A6F8044605480DF010
:104CA000E5F886F311886000C3E70620CAE700BF75
:104CB000048C0708DC4000202DE9704F814B8AB03E
:104CC0001A780193002A59D07F4CDFF81C82DFF854
:104CD0001C9200232360C2467C4E98F800B0737F7C
:104CE000354603F0FF02002B32D1794B3277196839
:104CF000784A7948BBF1000F62D0036F9B0740D51B
:104D00004FF4807100230393734B186C40F0805074
:104D100018641B6C03F080530393039B6F4B18685C
:104D200040F480701860D2F800C01868C0054DD5F6
:104D3000694B186F10F440704ED1674B9A6822F49B
:104D4000F8129A601A6F11431967654B01221A60B5
:104D5000022373773368CA225A6253225A62FBF7DE
:104D600069F9002856D03368FF225A62042373770A
:104D70000CE06FEA13436FEA034323600AB0BDE817
:104D8000708F13685B1AB3F57A7FB6D92368BBF1CD
:104D9000000FEED043F0807323604E4B00251A685D
:104DA0004B4B8AF8005028461A60FCF743FD0CF084
:104DB00093FC757790E713685B1AB3F5FA7FE5D833
:104DC000436F9B07F7D54FF400719BE71068A0EB8A
:104DD0000C000228A9D9D9E78842AED0186F4FF04D
:104DE000010CC9F800C020F440704FF0000CC9F865
:104DF00000C01867186FC0079FD5D2F800C041F2F5
:104E0000883E186F800798D41068A0EB0C0070459E
:104E1000F7D9BBE72B6829699A6822F4E00222F0EF
:104E200040029A606A6898680A4369690A430243C3
:104E30009A60EA681A611A69A96842EA01421A612D
:104E40006FF08002DA601A6CA96922F480221A6479
:104E50001A6C0A431A64FF225A6201236B771C4AB8
:104E60001C4B12681B689B1A9BB243EA0B7B4BF0EE
:104E70000053236004A81B4B0493FBF7ADFA28B939
:104E8000CDE90800059005A8FBF734FA124B5A6FDC
:104E900012F0006F1A461EBF4BF0005343F48033EC
:104EA0002360536F0C4A5B0142BF236843F4003315
:104EB0002360536F43F080735367019A002313708C
:104EC0005CE700BF504000204C4000200040002024
:104ED0005440002048660020003802400070004026
:104EE0003C0E47420401010F08000020400E4742DB
:104EF00000B589B0FFF7E0FE03A8FDF793FA02A81A
:104F0000FDF76AFA9DF80E309DF80B0001939DF8AD
:104F10000D309DF8091000939DF80A209DF80C3083
:104F200000F5FA600DF006F8002109B05DF804FB09
:104F30007FB5FFF7C1FE01A8FDF774FA6846FDF7DB
:104F40004BFA9DF802309DF801001B0443EA4053E0
:104F50009DF8040043EAC0239DF8050043EA40138E
:104F60009DF8060043EA50039DF80300143043EA1D
:104F7000406007B05DF804FB2DE9704FD0F8008069
:104F80008AB00023437102910379019314460521ED
:104F90000DF11F02404628F0B7FA9DF81F30DD07DB
:104FA00000F1CD82580700F1CC8208AA03214046C7
:104FB00028F0AAFA30B9089A531EB3F5004F01D26F
:104FC0001A4201D001230893019BA3B909AA012128
:104FD000404628F099FA88B9029B13F0080F099B04
:104FE00014BF4FF000094FF03F094B451BD3A3EB13
:104FF000090309932EE0B8F1000F01D1012013E05D
:1050000023460122002108F1040028F0C9FB0028F2
:10501000F4D194F8FF2194F8FE3143EA02234AF6D2
:105020005522934203D00E200AB0BDE8708F019B39
:1050300004EB031303F5D77593F8B231002BF2D0CC
:1050400005F1080028F0BAF8814605F10C0028F0B7
:10505000B5F80990DDF824B0BBF1150FE3D9029B38
:1050600013F002030593029B2DD003F00703022BDC
:1050700000F07682029BD90740F172824E4B4FEAD4
:105080001B30012633F8022B12B190426FD200225E
:1050900040F6F573BBFBF6F59D429BBF05EB45055E
:1050A000013502356D088CBF6D0003354FF02003CC
:1050B00005F2FF1504938CBF4FF0020A4FF0010A6E
:1050C0006D0A012317E0DA07D8D41320ACE7720881
:1050D0001646BBFBF6F339489D00A3F57F43F63B2C
:1050E00005F2072583424FEA55259CD800230493F7
:1050F0004FF0030A202309EB030000900498DDF829
:1051000020E005EB000C009884440EF1FF30BAF16A
:10511000030F6044CEF1000E08BF009900EA0E00B4
:10512000A0EB0C0001BF09181B180846009018BF1F
:105130002D18C9EB06108444E345FFF474AF0499BD
:10514000ABEB0100C01ABAF1030FA0EB0500B0FBF6
:10515000F6F103910DD14FF6F570814238D8002A4F
:105160007FF461AF012EB2D85DE77600FCE17600F6
:1051700088E7BAF1020F23D103994FF6F570814207
:105180000ED9002A40F0FA817600402E00F2E48128
:10519000002E3FF473AF32467AE7802EFBD942E708
:1051A000039940F6F570814212D8002A7FF43BAF94
:1051B0007600802EECD936E7F0640708FFFFFE0F7B
:1051C000039940F6F57291423FF62DAF4FF0010A78
:1051D0004FF400720021204605934FF081FBDA4A1C
:1051E000059B1168216051686160A3731189927AEF
:1051F0002181C3F30723BAF1030F4FF00201A2721A
:10520000E3734FF000024FF00103237414BF0B4609
:105210001346BBF5803FE272217366736274A37418
:1052200080F0248184F813B0CBF3072B84F814B0FA
:10523000F82363753F2323764FF0000BFF2384F898
:1052400019B0A37684F81BB0494604F11C0027F07E
:10525000ADFFBAF1030F40F00F81FFF769FE014681
:1052600004F1430027F0A2FF294604F1240027F0AF
:105270009DFF022384F82C30012384F8303006236C
:1052800084F83230802384F84030292384F8423077
:10529000AE4B84F82DB084F82EB084F82FB084F88B
:1052A00031B084F833B004F1470203F1100153F830
:1052B000040B42F8040B8B42F9D119889B78937048
:1052C0004FF05503118084F8FE316FF0550384F8D8
:1052D000FF314A4601232146404628F093F9834690
:1052E00000287FF48BAEBAF1030F41D1012309F1FD
:1052F00006022146404628F085F94FF400725946CF
:1053000020464FF0EDFA5223237063706123A3709F
:1053100084F8E731039B41227221E27084F8E411A2
:1053200084F8E51184F8E621591E04F5F47027F09D
:105330003DFF022384F8EC314FF0550384F8FE3131
:105340006FF0550384F8FF3109F10702012321466C
:1053500084F8EDB184F8EEB184F8EFB1404628F05E
:1053600051F9012309EB03022146404628F04AF98E
:105370004FF40072002120464FF0B2FABAF1030F49
:1053800040F09780F8232370FF236370A370E370CD
:1053900023716371A371E37123726372A3720F238C
:1053A000E372012DAB4628BF4FF0010B2146009A56
:1053B0005B46404628F026F9014600287FF41EAEE1
:1053C0004FF4007220464FF08BFA009BB5EB0B05B3
:1053D0005B440093E5D1049BBAF1030F18BF1E464E
:1053E000012E354628BF0125009A2B46214640460E
:1053F00028F008F900287FF401AE009B761B2B44AF
:105400000093EDD1BAF1030F5DD0099BB3F5803F56
:105410005BD2BAF1020F0CBF04250125019B002BC2
:1054200055D0B8F1000F3FF4E9AD01222346002129
:1054300008F1040028F0B4F9024600287FF4DEAD3C
:10544000019B04EB031383F8B2510123214640462C
:1054500028F0D8F800287FF4D1AD0022114640464C
:1054600028F052F8003818BF0120DDE5594604F154
:10547000200027F09BFEDBE6FFF75AFD014604F112
:10548000270027F093FEC5F30723E375802384F8F4
:105490002430292384F826302D4BA57504F12B02E6
:1054A00003F1100153F8040B42F8040B8B42F9D1BD
:1054B00003E7BAF1010F2749204618BF6FF0070133
:1054C00027F074FE6DE70C25A8E70625A6E7029BEA
:1054D0001B07C2D401994FF4007220464FF000FA26
:1054E0005523099A84F8FE31AA2384F8FF31019BE1
:1054F00084F8BE3184F8C1314A4443F6C163B2FB3B
:10550000F3F2FE2384F8C331930843F03F030126EE
:1055100084F8C43184F8C521494604F5E37084F861
:10552000BF6184F8C06184F8C25127F03FFE099939
:1055300004F5E57027F03AFE019A334686E703202A
:1055400072E50A2070E500BF715A07087D5A070806
:10555000915A0708F8FFFF00059B002B3FF41DAE92
:10556000094B4FEA5B40012633F8022B002A3FF437
:10557000B0AD9042BFF4F9AD0022AAE5059B002B27
:105580007FF4A6AD4FE500BFFE64070870B5044682
:105590000D46FFF791FB022C244C39D1686841F08D
:1055A0003AFD00F2FF13B3F5806F02D3204842F0BA
:1055B00051FF237F0028C7BFC0F500704FF40042A1
:1055C00040420022012B21D001232377022363775D
:1055D0002368CA21596253215962D968CE0304D580
:1055E00014490E68DD68ED0305D41043FF22D8632B
:1055F0005A62012307E00D68AD1BB5F57A7FF1D93A
:10560000FF225A620323637700232377062070BDAD
:105610002368DA6BD86B1304C0F30800BDE8704050
:105620004CBFC0F5007040423DF0D0BB00400020B0
:10563000A55A0708486600202DE9784180460E46A5
:10564000FFF73AFB03200CF0E5F9B8F1030F70689F
:105650006FD806282FD041F0DEFC03250346022236
:105660004FF4FA6000FB02F1994209DB4FF4004469
:10567000B4FBF2F463434FF47A7493FBF4F415E053
:10568000013D4FEA4202EDD2364A93424FF47A741A
:1056900093FBF4F401DC04250AE0A4F58034B4F5AE
:1056A000803F02DD304842F0D5FE0625002C00DDAB
:1056B000013C012200E00022B8F1030F43D1B3689E
:1056C0002A49C1F828312A4BCA215962532159620B
:1056D000996821F480619960D9684907FCD5002A4E
:1056E00033D05C619A6822F4884222F0070205F008
:1056F00007052A4342F488429A60FF225A621D4AF3
:10570000116841F480011160916841F48001916059
:10571000D96821F48061D9604FF480035361164B3E
:10572000F02283F8032303200CF088F90620BDE85B
:10573000788141F070FC0546B06841F06CFCF3687C
:1057400004460122BCE70623BAE79A6822F48042A5
:105750009A60FF225A62074A136823F48003136099
:10576000E4E700BFE703E803B65A0708C82A0120A8
:1057700000280040003C014000E100E030B5054653
:105780008FB00C46FFF798FA012D3BD101A8FCF72A
:1057900049FE6846FCF720FE9DF8030000F5FA601C
:1057A0003DF014FB06909DF801003DF00FFB0790C3
:1057B0009DF802003DF00AFB08909DF800003DF0C6
:1057C00005FB09909DF804003DF000FB0A909DF850
:1057D00005003DF0FBFA0B909DF806003DF0F6FA4F
:1057E000029B0C902748584300F5731000F6F730E1
:1057F00080083DF0EBFA06A90D90082037F088FCF0
:105800000FB030BD01AA0821606841F0EFF8019B9C
:10581000186841F000FC019B30308DF80300586897
:1058200041F0F9FB019B8DF80100986841F0F3FB12
:10583000019B8DF80200D86841F0EDFB8DF8000067
:105840006846FAF7C9FD019B186941F0E4FB019B2A
:105850008DF81800586941F0DEFB019B8DF81900A6
:10586000986941F0D8FB00238DF81A008DF81B30A1
:10587000099306A84FF480230A93FAF73BFD06200C
:10588000BEE700BFF7C2FFFF00B589B0FFF714FA0B
:1058900003A8FCF7C7FD02A8FCF79EFD9DF80E309B
:1058A0009DF80B0001939DF80D309DF80A209DF89E
:1058B0000910009300F5FA609DF80C300CF03AFBEB
:1058C000049A0A4B0A49534303F5731303F6F7335B
:1058D0004FF47A729B0853431A460023E1FB0023DE
:1058E0001046194609B05DF804FB00BFF7C2FFFF80
:1058F00000CA9A3B38B5424B424C00227F25FF211B
:10590000C3E90042C3E90251C3E904229A613E4B54
:105910003E4C1A70002864D13D4D2B6F48F2033184
:10592000194048F20312914248D10BF0D5FE6B6F3B
:1059300043F080736B67236843F480232360344B08
:1059400021681A6F5B6F02F007021B020A4303F41F
